{
	"contracts/SampleERC20.sol": {
		"ForTheDog": {
			"abi": [
				{
					"inputs": [],
					"stateMutability": "nonpayable",
					"type": "constructor"
				},
				{
					"anonymous": false,
					"inputs": [
						{
							"indexed": true,
							"internalType": "address",
							"name": "owner",
							"type": "address"
						},
						{
							"indexed": true,
							"internalType": "address",
							"name": "spender",
							"type": "address"
						},
						{
							"indexed": false,
							"internalType": "uint256",
							"name": "value",
							"type": "uint256"
						}
					],
					"name": "Approval",
					"type": "event"
				},
				{
					"anonymous": false,
					"inputs": [
						{
							"indexed": false,
							"internalType": "address",
							"name": "account",
							"type": "address"
						}
					],
					"name": "Paused",
					"type": "event"
				},
				{
					"anonymous": false,
					"inputs": [
						{
							"indexed": true,
							"internalType": "bytes32",
							"name": "role",
							"type": "bytes32"
						},
						{
							"indexed": true,
							"internalType": "bytes32",
							"name": "previousAdminRole",
							"type": "bytes32"
						},
						{
							"indexed": true,
							"internalType": "bytes32",
							"name": "newAdminRole",
							"type": "bytes32"
						}
					],
					"name": "RoleAdminChanged",
					"type": "event"
				},
				{
					"anonymous": false,
					"inputs": [
						{
							"indexed": true,
							"internalType": "bytes32",
							"name": "role",
							"type": "bytes32"
						},
						{
							"indexed": true,
							"internalType": "address",
							"name": "account",
							"type": "address"
						},
						{
							"indexed": true,
							"internalType": "address",
							"name": "sender",
							"type": "address"
						}
					],
					"name": "RoleGranted",
					"type": "event"
				},
				{
					"anonymous": false,
					"inputs": [
						{
							"indexed": true,
							"internalType": "bytes32",
							"name": "role",
							"type": "bytes32"
						},
						{
							"indexed": true,
							"internalType": "address",
							"name": "account",
							"type": "address"
						},
						{
							"indexed": true,
							"internalType": "address",
							"name": "sender",
							"type": "address"
						}
					],
					"name": "RoleRevoked",
					"type": "event"
				},
				{
					"anonymous": false,
					"inputs": [
						{
							"indexed": true,
							"internalType": "address",
							"name": "from",
							"type": "address"
						},
						{
							"indexed": true,
							"internalType": "address",
							"name": "to",
							"type": "address"
						},
						{
							"indexed": false,
							"internalType": "uint256",
							"name": "value",
							"type": "uint256"
						}
					],
					"name": "Transfer",
					"type": "event"
				},
				{
					"anonymous": false,
					"inputs": [
						{
							"indexed": false,
							"internalType": "address",
							"name": "account",
							"type": "address"
						}
					],
					"name": "Unpaused",
					"type": "event"
				},
				{
					"inputs": [],
					"name": "DEFAULT_ADMIN_ROLE",
					"outputs": [
						{
							"internalType": "bytes32",
							"name": "",
							"type": "bytes32"
						}
					],
					"stateMutability": "view",
					"type": "function"
				},
				{
					"inputs": [
						{
							"internalType": "address",
							"name": "account",
							"type": "address"
						}
					],
					"name": "FullLockAddress",
					"outputs": [
						{
							"internalType": "bool",
							"name": "",
							"type": "bool"
						}
					],
					"stateMutability": "nonpayable",
					"type": "function"
				},
				{
					"inputs": [
						{
							"internalType": "address",
							"name": "account",
							"type": "address"
						}
					],
					"name": "FullLockedAddressList",
					"outputs": [
						{
							"internalType": "bool",
							"name": "",
							"type": "bool"
						}
					],
					"stateMutability": "view",
					"type": "function"
				},
				{
					"inputs": [],
					"name": "LOCK_TRANSFER_ROLE",
					"outputs": [
						{
							"internalType": "bytes32",
							"name": "",
							"type": "bytes32"
						}
					],
					"stateMutability": "view",
					"type": "function"
				},
				{
					"inputs": [],
					"name": "MINTER_ROLE",
					"outputs": [
						{
							"internalType": "bytes32",
							"name": "",
							"type": "bytes32"
						}
					],
					"stateMutability": "view",
					"type": "function"
				},
				{
					"inputs": [],
					"name": "PAUSER_ROLE",
					"outputs": [
						{
							"internalType": "bytes32",
							"name": "",
							"type": "bytes32"
						}
					],
					"stateMutability": "view",
					"type": "function"
				},
				{
					"inputs": [
						{
							"internalType": "address",
							"name": "owner",
							"type": "address"
						},
						{
							"internalType": "address",
							"name": "spender",
							"type": "address"
						}
					],
					"name": "allowance",
					"outputs": [
						{
							"internalType": "uint256",
							"name": "",
							"type": "uint256"
						}
					],
					"stateMutability": "view",
					"type": "function"
				},
				{
					"inputs": [
						{
							"internalType": "address",
							"name": "spender",
							"type": "address"
						},
						{
							"internalType": "uint256",
							"name": "amount",
							"type": "uint256"
						}
					],
					"name": "approve",
					"outputs": [
						{
							"internalType": "bool",
							"name": "",
							"type": "bool"
						}
					],
					"stateMutability": "nonpayable",
					"type": "function"
				},
				{
					"inputs": [
						{
							"internalType": "address",
							"name": "account",
							"type": "address"
						}
					],
					"name": "balanceOf",
					"outputs": [
						{
							"internalType": "uint256",
							"name": "",
							"type": "uint256"
						}
					],
					"stateMutability": "view",
					"type": "function"
				},
				{
					"inputs": [
						{
							"internalType": "uint256",
							"name": "amount",
							"type": "uint256"
						}
					],
					"name": "burn",
					"outputs": [],
					"stateMutability": "nonpayable",
					"type": "function"
				},
				{
					"inputs": [
						{
							"internalType": "address",
							"name": "account",
							"type": "address"
						},
						{
							"internalType": "uint256",
							"name": "amount",
							"type": "uint256"
						}
					],
					"name": "burnFrom",
					"outputs": [],
					"stateMutability": "nonpayable",
					"type": "function"
				},
				{
					"inputs": [],
					"name": "decimals",
					"outputs": [
						{
							"internalType": "uint8",
							"name": "",
							"type": "uint8"
						}
					],
					"stateMutability": "view",
					"type": "function"
				},
				{
					"inputs": [
						{
							"internalType": "address",
							"name": "spender",
							"type": "address"
						},
						{
							"internalType": "uint256",
							"name": "subtractedValue",
							"type": "uint256"
						}
					],
					"name": "decreaseAllowance",
					"outputs": [
						{
							"internalType": "bool",
							"name": "",
							"type": "bool"
						}
					],
					"stateMutability": "nonpayable",
					"type": "function"
				},
				{
					"inputs": [
						{
							"internalType": "bytes32",
							"name": "role",
							"type": "bytes32"
						}
					],
					"name": "getRoleAdmin",
					"outputs": [
						{
							"internalType": "bytes32",
							"name": "",
							"type": "bytes32"
						}
					],
					"stateMutability": "view",
					"type": "function"
				},
				{
					"inputs": [
						{
							"internalType": "bytes32",
							"name": "role",
							"type": "bytes32"
						},
						{
							"internalType": "address",
							"name": "account",
							"type": "address"
						}
					],
					"name": "grantRole",
					"outputs": [],
					"stateMutability": "nonpayable",
					"type": "function"
				},
				{
					"inputs": [
						{
							"internalType": "bytes32",
							"name": "role",
							"type": "bytes32"
						},
						{
							"internalType": "address",
							"name": "account",
							"type": "address"
						}
					],
					"name": "hasRole",
					"outputs": [
						{
							"internalType": "bool",
							"name": "",
							"type": "bool"
						}
					],
					"stateMutability": "view",
					"type": "function"
				},
				{
					"inputs": [
						{
							"internalType": "address",
							"name": "spender",
							"type": "address"
						},
						{
							"internalType": "uint256",
							"name": "addedValue",
							"type": "uint256"
						}
					],
					"name": "increaseAllowance",
					"outputs": [
						{
							"internalType": "bool",
							"name": "",
							"type": "bool"
						}
					],
					"stateMutability": "nonpayable",
					"type": "function"
				},
				{
					"inputs": [
						{
							"internalType": "address",
							"name": "to",
							"type": "address"
						},
						{
							"internalType": "uint256",
							"name": "amount",
							"type": "uint256"
						}
					],
					"name": "mint",
					"outputs": [],
					"stateMutability": "nonpayable",
					"type": "function"
				},
				{
					"inputs": [],
					"name": "name",
					"outputs": [
						{
							"internalType": "string",
							"name": "",
							"type": "string"
						}
					],
					"stateMutability": "view",
					"type": "function"
				},
				{
					"inputs": [],
					"name": "pause",
					"outputs": [],
					"stateMutability": "nonpayable",
					"type": "function"
				},
				{
					"inputs": [],
					"name": "paused",
					"outputs": [
						{
							"internalType": "bool",
							"name": "",
							"type": "bool"
						}
					],
					"stateMutability": "view",
					"type": "function"
				},
				{
					"inputs": [
						{
							"internalType": "address",
							"name": "from",
							"type": "address"
						},
						{
							"internalType": "address",
							"name": "to",
							"type": "address"
						},
						{
							"internalType": "uint256",
							"name": "amount",
							"type": "uint256"
						}
					],
					"name": "recoveryTokenTransfer",
					"outputs": [],
					"stateMutability": "nonpayable",
					"type": "function"
				},
				{
					"inputs": [
						{
							"internalType": "bytes32",
							"name": "role",
							"type": "bytes32"
						},
						{
							"internalType": "address",
							"name": "account",
							"type": "address"
						}
					],
					"name": "renounceRole",
					"outputs": [],
					"stateMutability": "nonpayable",
					"type": "function"
				},
				{
					"inputs": [
						{
							"internalType": "bytes32",
							"name": "role",
							"type": "bytes32"
						},
						{
							"internalType": "address",
							"name": "account",
							"type": "address"
						}
					],
					"name": "revokeRole",
					"outputs": [],
					"stateMutability": "nonpayable",
					"type": "function"
				},
				{
					"inputs": [
						{
							"internalType": "bytes4",
							"name": "interfaceId",
							"type": "bytes4"
						}
					],
					"name": "supportsInterface",
					"outputs": [
						{
							"internalType": "bool",
							"name": "",
							"type": "bool"
						}
					],
					"stateMutability": "view",
					"type": "function"
				},
				{
					"inputs": [],
					"name": "symbol",
					"outputs": [
						{
							"internalType": "string",
							"name": "",
							"type": "string"
						}
					],
					"stateMutability": "view",
					"type": "function"
				},
				{
					"inputs": [],
					"name": "totalSupply",
					"outputs": [
						{
							"internalType": "uint256",
							"name": "",
							"type": "uint256"
						}
					],
					"stateMutability": "view",
					"type": "function"
				},
				{
					"inputs": [
						{
							"internalType": "address",
							"name": "to",
							"type": "address"
						},
						{
							"internalType": "uint256",
							"name": "amount",
							"type": "uint256"
						}
					],
					"name": "transfer",
					"outputs": [
						{
							"internalType": "bool",
							"name": "",
							"type": "bool"
						}
					],
					"stateMutability": "nonpayable",
					"type": "function"
				},
				{
					"inputs": [
						{
							"internalType": "address",
							"name": "from",
							"type": "address"
						},
						{
							"internalType": "address",
							"name": "to",
							"type": "address"
						},
						{
							"internalType": "uint256",
							"name": "amount",
							"type": "uint256"
						}
					],
					"name": "transferFrom",
					"outputs": [
						{
							"internalType": "bool",
							"name": "",
							"type": "bool"
						}
					],
					"stateMutability": "nonpayable",
					"type": "function"
				},
				{
					"inputs": [
						{
							"internalType": "address",
							"name": "account",
							"type": "address"
						}
					],
					"name": "unFullLockAddress",
					"outputs": [
						{
							"internalType": "bool",
							"name": "",
							"type": "bool"
						}
					],
					"stateMutability": "nonpayable",
					"type": "function"
				},
				{
					"inputs": [],
					"name": "unpause",
					"outputs": [],
					"stateMutability": "nonpayable",
					"type": "function"
				}
			],
			"devdoc": {
				"kind": "dev",
				"methods": {
					"allowance(address,address)": {
						"details": "See {IERC20-allowance}."
					},
					"approve(address,uint256)": {
						"details": "See {IERC20-approve}. NOTE: If `amount` is the maximum `uint256`, the allowance is not updated on `transferFrom`. This is semantically equivalent to an infinite approval. Requirements: - `spender` cannot be the zero address."
					},
					"balanceOf(address)": {
						"details": "See {IERC20-balanceOf}."
					},
					"burn(uint256)": {
						"details": "Destroys `amount` tokens from the caller. See {ERC20-_burn}."
					},
					"burnFrom(address,uint256)": {
						"details": "Destroys `amount` tokens from `account`, deducting from the caller's allowance. See {ERC20-_burn} and {ERC20-allowance}. Requirements: - the caller must have allowance for ``accounts``'s tokens of at least `amount`."
					},
					"decimals()": {
						"details": "Returns the number of decimals used to get its user representation. For example, if `decimals` equals `2`, a balance of `505` tokens should be displayed to a user as `5.05` (`505 / 10 ** 2`). Tokens usually opt for a value of 18, imitating the relationship between Ether and Wei. This is the value {ERC20} uses, unless this function is overridden; NOTE: This information is only used for _display_ purposes: it in no way affects any of the arithmetic of the contract, including {IERC20-balanceOf} and {IERC20-transfer}."
					},
					"decreaseAllowance(address,uint256)": {
						"details": "Atomically decreases the allowance granted to `spender` by the caller. This is an alternative to {approve} that can be used as a mitigation for problems described in {IERC20-approve}. Emits an {Approval} event indicating the updated allowance. Requirements: - `spender` cannot be the zero address. - `spender` must have allowance for the caller of at least `subtractedValue`."
					},
					"getRoleAdmin(bytes32)": {
						"details": "Returns the admin role that controls `role`. See {grantRole} and {revokeRole}. To change a role's admin, use {_setRoleAdmin}."
					},
					"grantRole(bytes32,address)": {
						"details": "Grants `role` to `account`. If `account` had not been already granted `role`, emits a {RoleGranted} event. Requirements: - the caller must have ``role``'s admin role. May emit a {RoleGranted} event."
					},
					"hasRole(bytes32,address)": {
						"details": "Returns `true` if `account` has been granted `role`."
					},
					"increaseAllowance(address,uint256)": {
						"details": "Atomically increases the allowance granted to `spender` by the caller. This is an alternative to {approve} that can be used as a mitigation for problems described in {IERC20-approve}. Emits an {Approval} event indicating the updated allowance. Requirements: - `spender` cannot be the zero address."
					},
					"name()": {
						"details": "Returns the name of the token."
					},
					"paused()": {
						"details": "Returns true if the contract is paused, and false otherwise."
					},
					"renounceRole(bytes32,address)": {
						"details": "Revokes `role` from the calling account. Roles are often managed via {grantRole} and {revokeRole}: this function's purpose is to provide a mechanism for accounts to lose their privileges if they are compromised (such as when a trusted device is misplaced). If the calling account had been revoked `role`, emits a {RoleRevoked} event. Requirements: - the caller must be `account`. May emit a {RoleRevoked} event."
					},
					"revokeRole(bytes32,address)": {
						"details": "Revokes `role` from `account`. If `account` had been granted `role`, emits a {RoleRevoked} event. Requirements: - the caller must have ``role``'s admin role. May emit a {RoleRevoked} event."
					},
					"supportsInterface(bytes4)": {
						"details": "See {IERC165-supportsInterface}."
					},
					"symbol()": {
						"details": "Returns the symbol of the token, usually a shorter version of the name."
					},
					"totalSupply()": {
						"details": "See {IERC20-totalSupply}."
					},
					"transfer(address,uint256)": {
						"details": "See {IERC20-transfer}. Requirements: - `to` cannot be the zero address. - the caller must have a balance of at least `amount`."
					},
					"transferFrom(address,address,uint256)": {
						"details": "See {IERC20-transferFrom}. Emits an {Approval} event indicating the updated allowance. This is not required by the EIP. See the note at the beginning of {ERC20}. NOTE: Does not update the allowance if the current allowance is the maximum `uint256`. Requirements: - `from` and `to` cannot be the zero address. - `from` must have a balance of at least `amount`. - the caller must have allowance for ``from``'s tokens of at least `amount`."
					}
				},
				"version": 1
			},
			"evm": {
				"assembly": "    /* \"contracts/SampleERC20.sol\":304:2344  contract ForTheDog is ERC20, ERC20Burnable, Pausable, AccessControl {... */\n  mstore(0x40, 0x80)\n    /* \"contracts/SampleERC20.sol\":684:1035  constructor() ERC20(\"ForTheDog\", \"FTD\") {... */\n  callvalue\n  dup1\n  iszero\n  tag_1\n  jumpi\n  0x00\n  dup1\n  revert\ntag_1:\n  pop\n    /* \"@openzeppelin/contracts/token/ERC20/ERC20.sol\":1978:2091  constructor(string memory name_, string memory symbol_) {... */\n  mload(0x40)\n  dup1\n  0x40\n  add\n  0x40\n  mstore\n  dup1\n  0x09\n  dup2\n  mstore\n  0x20\n  add\n  0x466f72546865446f670000000000000000000000000000000000000000000000\n  dup2\n  mstore\n  pop\n  mload(0x40)\n  dup1\n  0x40\n  add\n  0x40\n  mstore\n  dup1\n  0x03\n  dup2\n  mstore\n  0x20\n  add\n  0x4654440000000000000000000000000000000000000000000000000000000000\n  dup2\n  mstore\n  pop\n    /* \"@openzeppelin/contracts/token/ERC20/ERC20.sol\":2052:2057  name_ */\n  dup2\n    /* \"@openzeppelin/contracts/token/ERC20/ERC20.sol\":2044:2049  _name */\n  0x03\n    /* \"@openzeppelin/contracts/token/ERC20/ERC20.sol\":2044:2057  _name = name_ */\n  swap1\n  dup1\n  mload\n  swap1\n  0x20\n  add\n  swap1\n  tag_6\n  swap3\n  swap2\n  swap1\n  tag_7\n  jump\t// in\ntag_6:\n  pop\n    /* \"@openzeppelin/contracts/token/ERC20/ERC20.sol\":2077:2084  symbol_ */\n  dup1\n    /* \"@openzeppelin/contracts/token/ERC20/ERC20.sol\":2067:2074  _symbol */\n  0x04\n    /* \"@openzeppelin/contracts/token/ERC20/ERC20.sol\":2067:2084  _symbol = symbol_ */\n  swap1\n  dup1\n  mload\n  swap1\n  0x20\n  add\n  swap1\n  tag_8\n  swap3\n  swap2\n  swap1\n  tag_7\n  jump\t// in\ntag_8:\n  pop\n    /* \"@openzeppelin/contracts/token/ERC20/ERC20.sol\":1978:2091  constructor(string memory name_, string memory symbol_) {... */\n  pop\n  pop\n    /* \"@openzeppelin/contracts/security/Pausable.sol\":1006:1011  false */\n  0x00\n    /* \"@openzeppelin/contracts/security/Pausable.sol\":996:1003  _paused */\n  0x05\n  0x00\n    /* \"@openzeppelin/contracts/security/Pausable.sol\":996:1011  _paused = false */\n  0x0100\n  exp\n  dup2\n  sload\n  dup2\n  0xff\n  mul\n  not\n  and\n  swap1\n  dup4\n  iszero\n  iszero\n  mul\n  or\n  swap1\n  sstore\n  pop\n    /* \"contracts/SampleERC20.sol\":734:776  _grantRole(DEFAULT_ADMIN_ROLE, msg.sender) */\n  tag_11\n    /* \"@openzeppelin/contracts/access/AccessControl.sol\":2072:2076  0x00 */\n  0x00\n    /* \"contracts/SampleERC20.sol\":745:763  DEFAULT_ADMIN_ROLE */\n  dup1\n  shl\n    /* \"contracts/SampleERC20.sol\":765:775  msg.sender */\n  caller\n    /* \"contracts/SampleERC20.sol\":734:744  _grantRole */\n  shl(0x20, tag_12)\n    /* \"contracts/SampleERC20.sol\":734:776  _grantRole(DEFAULT_ADMIN_ROLE, msg.sender) */\n  0x20\n  shr\n  jump\t// in\ntag_11:\n    /* \"contracts/SampleERC20.sol\":786:821  _grantRole(PAUSER_ROLE, msg.sender) */\n  tag_13\n    /* \"contracts/SampleERC20.sol\":416:440  keccak256(\"PAUSER_ROLE\") */\n  0x65d7a28e3265b37a6474929f336521b332c1681b933f6cb9f3376673440d862a\n    /* \"contracts/SampleERC20.sol\":810:820  msg.sender */\n  caller\n    /* \"contracts/SampleERC20.sol\":786:796  _grantRole */\n  shl(0x20, tag_12)\n    /* \"contracts/SampleERC20.sol\":786:821  _grantRole(PAUSER_ROLE, msg.sender) */\n  0x20\n  shr\n  jump\t// in\ntag_13:\n    /* \"contracts/SampleERC20.sol\":831:879  _mint(msg.sender, 1600000000 * 10 ** decimals()) */\n  tag_14\n    /* \"contracts/SampleERC20.sol\":837:847  msg.sender */\n  caller\n    /* \"contracts/SampleERC20.sol\":868:878  decimals() */\n  tag_15\n    /* \"contracts/SampleERC20.sol\":868:876  decimals */\n  shl(0x20, tag_16)\n    /* \"contracts/SampleERC20.sol\":868:878  decimals() */\n  0x20\n  shr\n  jump\t// in\ntag_15:\n    /* \"contracts/SampleERC20.sol\":862:864  10 */\n  0x0a\n    /* \"contracts/SampleERC20.sol\":862:878  10 ** decimals() */\n  tag_17\n  swap2\n  swap1\n  tag_18\n  jump\t// in\ntag_17:\n    /* \"contracts/SampleERC20.sol\":849:859  1600000000 */\n  0x5f5e1000\n    /* \"contracts/SampleERC20.sol\":849:878  1600000000 * 10 ** decimals() */\n  tag_19\n  swap2\n  swap1\n  tag_20\n  jump\t// in\ntag_19:\n    /* \"contracts/SampleERC20.sol\":831:836  _mint */\n  shl(0x20, tag_21)\n    /* \"contracts/SampleERC20.sol\":831:879  _mint(msg.sender, 1600000000 * 10 ** decimals()) */\n  0x20\n  shr\n  jump\t// in\ntag_14:\n    /* \"contracts/SampleERC20.sol\":921:931  decimals() */\n  tag_22\n    /* \"contracts/SampleERC20.sol\":921:929  decimals */\n  shl(0x20, tag_16)\n    /* \"contracts/SampleERC20.sol\":921:931  decimals() */\n  0x20\n  shr\n  jump\t// in\ntag_22:\n    /* \"contracts/SampleERC20.sol\":915:917  10 */\n  0x0a\n    /* \"contracts/SampleERC20.sol\":915:931  10 ** decimals() */\n  tag_23\n  swap2\n  swap1\n  tag_18\n  jump\t// in\ntag_23:\n    /* \"contracts/SampleERC20.sol\":902:912  1600000000 */\n  0x5f5e1000\n    /* \"contracts/SampleERC20.sol\":902:931  1600000000 * 10 ** decimals() */\n  tag_24\n  swap2\n  swap1\n  tag_20\n  jump\t// in\ntag_24:\n    /* \"contracts/SampleERC20.sol\":889:899  _limitMint */\n  0x07\n    /* \"contracts/SampleERC20.sol\":889:931  _limitMint = 1600000000 * 10 ** decimals() */\n  dup2\n  swap1\n  sstore\n  pop\n    /* \"contracts/SampleERC20.sol\":941:976  _grantRole(MINTER_ROLE, msg.sender) */\n  tag_25\n    /* \"contracts/SampleERC20.sol\":484:508  keccak256(\"MINTER_ROLE\") */\n  0x9f2df0fed2c77648de5860a4cc508cd0818c85b8b8a1ab4ceeef8d981c8956a6\n    /* \"contracts/SampleERC20.sol\":965:975  msg.sender */\n  caller\n    /* \"contracts/SampleERC20.sol\":941:951  _grantRole */\n  shl(0x20, tag_12)\n    /* \"contracts/SampleERC20.sol\":941:976  _grantRole(MINTER_ROLE, msg.sender) */\n  0x20\n  shr\n  jump\t// in\ntag_25:\n    /* \"contracts/SampleERC20.sol\":986:1028  _grantRole(LOCK_TRANSFER_ROLE, msg.sender) */\n  tag_26\n    /* \"contracts/SampleERC20.sol\":559:590  keccak256(\"LOCK_TRANSFER_ROLE\") */\n  0x832387ff8355724ce19b4e13d42ca7e8b0d3d6e27508713bc847b0ef4335ecd6\n    /* \"contracts/SampleERC20.sol\":1017:1027  msg.sender */\n  caller\n    /* \"contracts/SampleERC20.sol\":986:996  _grantRole */\n  shl(0x20, tag_12)\n    /* \"contracts/SampleERC20.sol\":986:1028  _grantRole(LOCK_TRANSFER_ROLE, msg.sender) */\n  0x20\n  shr\n  jump\t// in\ntag_26:\n    /* \"contracts/SampleERC20.sol\":304:2344  contract ForTheDog is ERC20, ERC20Burnable, Pausable, AccessControl {... */\n  jump(tag_27)\n    /* \"@openzeppelin/contracts/access/AccessControl.sol\":7474:7707  function _grantRole(bytes32 role, address account) internal virtual {... */\ntag_12:\n    /* \"@openzeppelin/contracts/access/AccessControl.sol\":7557:7579  hasRole(role, account) */\n  tag_29\n    /* \"@openzeppelin/contracts/access/AccessControl.sol\":7565:7569  role */\n  dup3\n    /* \"@openzeppelin/contracts/access/AccessControl.sol\":7571:7578  account */\n  dup3\n    /* \"@openzeppelin/contracts/access/AccessControl.sol\":7557:7564  hasRole */\n  shl(0x20, tag_30)\n    /* \"@openzeppelin/contracts/access/AccessControl.sol\":7557:7579  hasRole(role, account) */\n  0x20\n  shr\n  jump\t// in\ntag_29:\n    /* \"@openzeppelin/contracts/access/AccessControl.sol\":7552:7701  if (!hasRole(role, account)) {... */\n  tag_31\n  jumpi\n    /* \"@openzeppelin/contracts/access/AccessControl.sol\":7627:7631  true */\n  0x01\n    /* \"@openzeppelin/contracts/access/AccessControl.sol\":7595:7601  _roles */\n  0x06\n    /* \"@openzeppelin/contracts/access/AccessControl.sol\":7595:7607  _roles[role] */\n  0x00\n    /* \"@openzeppelin/contracts/access/AccessControl.sol\":7602:7606  role */\n  dup5\n    /* \"@openzeppelin/contracts/access/AccessControl.sol\":7595:7607  _roles[role] */\n  dup2\n  mstore\n  0x20\n  add\n  swap1\n  dup2\n  mstore\n  0x20\n  add\n  0x00\n  keccak256\n    /* \"@openzeppelin/contracts/access/AccessControl.sol\":7595:7615  _roles[role].members */\n  0x00\n  add\n    /* \"@openzeppelin/contracts/access/AccessControl.sol\":7595:7624  _roles[role].members[account] */\n  0x00\n    /* \"@openzeppelin/contracts/access/AccessControl.sol\":7616:7623  account */\n  dup4\n    /* \"@openzeppelin/contracts/access/AccessControl.sol\":7595:7624  _roles[role].members[account] */\n  0xffffffffffffffffffffffffffffffffffffffff\n  and\n  0xffffffffffffffffffffffffffffffffffffffff\n  and\n  dup2\n  mstore\n  0x20\n  add\n  swap1\n  dup2\n  mstore\n  0x20\n  add\n  0x00\n  keccak256\n  0x00\n    /* \"@openzeppelin/contracts/access/AccessControl.sol\":7595:7631  _roles[role].members[account] = true */\n  0x0100\n  exp\n  dup2\n  sload\n  dup2\n  0xff\n  mul\n  not\n  and\n  swap1\n  dup4\n  iszero\n  iszero\n  mul\n  or\n  swap1\n  sstore\n  pop\n    /* \"@openzeppelin/contracts/access/AccessControl.sol\":7677:7689  _msgSender() */\n  tag_32\n    /* \"@openzeppelin/contracts/access/AccessControl.sol\":7677:7687  _msgSender */\n  shl(0x20, tag_33)\n    /* \"@openzeppelin/contracts/access/AccessControl.sol\":7677:7689  _msgSender() */\n  0x20\n  shr\n  jump\t// in\ntag_32:\n    /* \"@openzeppelin/contracts/access/AccessControl.sol\":7650:7690  RoleGranted(role, account, _msgSender()) */\n  0xffffffffffffffffffffffffffffffffffffffff\n  and\n    /* \"@openzeppelin/contracts/access/AccessControl.sol\":7668:7675  account */\n  dup2\n    /* \"@openzeppelin/contracts/access/AccessControl.sol\":7650:7690  RoleGranted(role, account, _msgSender()) */\n  0xffffffffffffffffffffffffffffffffffffffff\n  and\n    /* \"@openzeppelin/contracts/access/AccessControl.sol\":7662:7666  role */\n  dup4\n    /* \"@openzeppelin/contracts/access/AccessControl.sol\":7650:7690  RoleGranted(role, account, _msgSender()) */\n  0x2f8788117e7eff1d82e926ec794901d17c78024a50270940304540a733656f0d\n  mload(0x40)\n  mload(0x40)\n  dup1\n  swap2\n  sub\n  swap1\n  log4\n    /* \"@openzeppelin/contracts/access/AccessControl.sol\":7552:7701  if (!hasRole(role, account)) {... */\ntag_31:\n    /* \"@openzeppelin/contracts/access/AccessControl.sol\":7474:7707  function _grantRole(bytes32 role, address account) internal virtual {... */\n  pop\n  pop\n  jump\t// out\n    /* \"@openzeppelin/contracts/token/ERC20/ERC20.sol\":3093:3184  function decimals() public view virtual override returns (uint8) {... */\ntag_16:\n    /* \"@openzeppelin/contracts/token/ERC20/ERC20.sol\":3151:3156  uint8 */\n  0x00\n    /* \"@openzeppelin/contracts/token/ERC20/ERC20.sol\":3175:3177  18 */\n  0x12\n    /* \"@openzeppelin/contracts/token/ERC20/ERC20.sol\":3168:3177  return 18 */\n  swap1\n  pop\n    /* \"@openzeppelin/contracts/token/ERC20/ERC20.sol\":3093:3184  function decimals() public view virtual override returns (uint8) {... */\n  swap1\n  jump\t// out\n    /* \"@openzeppelin/contracts/token/ERC20/ERC20.sol\":8402:8791  function _mint(address account, uint256 amount) internal virtual {... */\ntag_21:\n    /* \"@openzeppelin/contracts/token/ERC20/ERC20.sol\":8504:8505  0 */\n  0x00\n    /* \"@openzeppelin/contracts/token/ERC20/ERC20.sol\":8485:8506  account != address(0) */\n  0xffffffffffffffffffffffffffffffffffffffff\n  and\n    /* \"@openzeppelin/contracts/token/ERC20/ERC20.sol\":8485:8492  account */\n  dup3\n    /* \"@openzeppelin/contracts/token/ERC20/ERC20.sol\":8485:8506  account != address(0) */\n  0xffffffffffffffffffffffffffffffffffffffff\n  and\n  eq\n  iszero\n    /* \"@openzeppelin/contracts/token/ERC20/ERC20.sol\":8477:8542  require(account != address(0), \"ERC20: mint to the zero address\") */\n  tag_36\n  jumpi\n  mload(0x40)\n  0x08c379a000000000000000000000000000000000000000000000000000000000\n  dup2\n  mstore\n  0x04\n  add\n  tag_37\n  swap1\n  tag_38\n  jump\t// in\ntag_37:\n  mload(0x40)\n  dup1\n  swap2\n  sub\n  swap1\n  revert\ntag_36:\n    /* \"@openzeppelin/contracts/token/ERC20/ERC20.sol\":8553:8602  _beforeTokenTransfer(address(0), account, amount) */\n  tag_39\n    /* \"@openzeppelin/contracts/token/ERC20/ERC20.sol\":8582:8583  0 */\n  0x00\n    /* \"@openzeppelin/contracts/token/ERC20/ERC20.sol\":8586:8593  account */\n  dup4\n    /* \"@openzeppelin/contracts/token/ERC20/ERC20.sol\":8595:8601  amount */\n  dup4\n    /* \"@openzeppelin/contracts/token/ERC20/ERC20.sol\":8553:8573  _beforeTokenTransfer */\n  shl(0x20, tag_40)\n    /* \"@openzeppelin/contracts/token/ERC20/ERC20.sol\":8553:8602  _beforeTokenTransfer(address(0), account, amount) */\n  0x20\n  shr\n  jump\t// in\ntag_39:\n    /* \"@openzeppelin/contracts/token/ERC20/ERC20.sol\":8629:8635  amount */\n  dup1\n    /* \"@openzeppelin/contracts/token/ERC20/ERC20.sol\":8613:8625  _totalSupply */\n  0x02\n  0x00\n    /* \"@openzeppelin/contracts/token/ERC20/ERC20.sol\":8613:8635  _totalSupply += amount */\n  dup3\n  dup3\n  sload\n  tag_41\n  swap2\n  swap1\n  tag_42\n  jump\t// in\ntag_41:\n  swap3\n  pop\n  pop\n  dup2\n  swap1\n  sstore\n  pop\n    /* \"@openzeppelin/contracts/token/ERC20/ERC20.sol\":8667:8673  amount */\n  dup1\n    /* \"@openzeppelin/contracts/token/ERC20/ERC20.sol\":8645:8654  _balances */\n  0x00\n    /* \"@openzeppelin/contracts/token/ERC20/ERC20.sol\":8645:8663  _balances[account] */\n  dup1\n    /* \"@openzeppelin/contracts/token/ERC20/ERC20.sol\":8655:8662  account */\n  dup5\n    /* \"@openzeppelin/contracts/token/ERC20/ERC20.sol\":8645:8663  _balances[account] */\n  0xffffffffffffffffffffffffffffffffffffffff\n  and\n  0xffffffffffffffffffffffffffffffffffffffff\n  and\n  dup2\n  mstore\n  0x20\n  add\n  swap1\n  dup2\n  mstore\n  0x20\n  add\n  0x00\n  keccak256\n  0x00\n    /* \"@openzeppelin/contracts/token/ERC20/ERC20.sol\":8645:8673  _balances[account] += amount */\n  dup3\n  dup3\n  sload\n  tag_43\n  swap2\n  swap1\n  tag_42\n  jump\t// in\ntag_43:\n  swap3\n  pop\n  pop\n  dup2\n  swap1\n  sstore\n  pop\n    /* \"@openzeppelin/contracts/token/ERC20/ERC20.sol\":8709:8716  account */\n  dup2\n    /* \"@openzeppelin/contracts/token/ERC20/ERC20.sol\":8688:8725  Transfer(address(0), account, amount) */\n  0xffffffffffffffffffffffffffffffffffffffff\n  and\n    /* \"@openzeppelin/contracts/token/ERC20/ERC20.sol\":8705:8706  0 */\n  0x00\n    /* \"@openzeppelin/contracts/token/ERC20/ERC20.sol\":8688:8725  Transfer(address(0), account, amount) */\n  0xffffffffffffffffffffffffffffffffffffffff\n  and\n  0xddf252ad1be2c89b69c2b068fc378daa952ba7f163c4a11628f55a4df523b3ef\n    /* \"@openzeppelin/contracts/token/ERC20/ERC20.sol\":8718:8724  amount */\n  dup4\n    /* \"@openzeppelin/contracts/token/ERC20/ERC20.sol\":8688:8725  Transfer(address(0), account, amount) */\n  mload(0x40)\n  tag_44\n  swap2\n  swap1\n  tag_45\n  jump\t// in\ntag_44:\n  mload(0x40)\n  dup1\n  swap2\n  sub\n  swap1\n  log3\n    /* \"@openzeppelin/contracts/token/ERC20/ERC20.sol\":8736:8784  _afterTokenTransfer(address(0), account, amount) */\n  tag_46\n    /* \"@openzeppelin/contracts/token/ERC20/ERC20.sol\":8764:8765  0 */\n  0x00\n    /* \"@openzeppelin/contracts/token/ERC20/ERC20.sol\":8768:8775  account */\n  dup4\n    /* \"@openzeppelin/contracts/token/ERC20/ERC20.sol\":8777:8783  amount */\n  dup4\n    /* \"@openzeppelin/contracts/token/ERC20/ERC20.sol\":8736:8755  _afterTokenTransfer */\n  shl(0x20, tag_47)\n    /* \"@openzeppelin/contracts/token/ERC20/ERC20.sol\":8736:8784  _afterTokenTransfer(address(0), account, amount) */\n  0x20\n  shr\n  jump\t// in\ntag_46:\n    /* \"@openzeppelin/contracts/token/ERC20/ERC20.sol\":8402:8791  function _mint(address account, uint256 amount) internal virtual {... */\n  pop\n  pop\n  jump\t// out\n    /* \"@openzeppelin/contracts/access/AccessControl.sol\":2895:3040  function hasRole(bytes32 role, address account) public view virtual override returns (bool) {... */\ntag_30:\n    /* \"@openzeppelin/contracts/access/AccessControl.sol\":2981:2985  bool */\n  0x00\n    /* \"@openzeppelin/contracts/access/AccessControl.sol\":3004:3010  _roles */\n  0x06\n    /* \"@openzeppelin/contracts/access/AccessControl.sol\":3004:3016  _roles[role] */\n  0x00\n    /* \"@openzeppelin/contracts/access/AccessControl.sol\":3011:3015  role */\n  dup5\n    /* \"@openzeppelin/contracts/access/AccessControl.sol\":3004:3016  _roles[role] */\n  dup2\n  mstore\n  0x20\n  add\n  swap1\n  dup2\n  mstore\n  0x20\n  add\n  0x00\n  keccak256\n    /* \"@openzeppelin/contracts/access/AccessControl.sol\":3004:3024  _roles[role].members */\n  0x00\n  add\n    /* \"@openzeppelin/contracts/access/AccessControl.sol\":3004:3033  _roles[role].members[account] */\n  0x00\n    /* \"@openzeppelin/contracts/access/AccessControl.sol\":3025:3032  account */\n  dup4\n    /* \"@openzeppelin/contracts/access/AccessControl.sol\":3004:3033  _roles[role].members[account] */\n  0xffffffffffffffffffffffffffffffffffffffff\n  and\n  0xffffffffffffffffffffffffffffffffffffffff\n  and\n  dup2\n  mstore\n  0x20\n  add\n  swap1\n  dup2\n  mstore\n  0x20\n  add\n  0x00\n  keccak256\n  0x00\n  swap1\n  sload\n  swap1\n  0x0100\n  exp\n  swap1\n  div\n  0xff\n  and\n    /* \"@openzeppelin/contracts/access/AccessControl.sol\":2997:3033  return _roles[role].members[account] */\n  swap1\n  pop\n    /* \"@openzeppelin/contracts/access/AccessControl.sol\":2895:3040  function hasRole(bytes32 role, address account) public view virtual override returns (bool) {... */\n  swap3\n  swap2\n  pop\n  pop\n  jump\t// out\n    /* \"@openzeppelin/contracts/utils/Context.sol\":640:736  function _msgSender() internal view virtual returns (address) {... */\ntag_33:\n    /* \"@openzeppelin/contracts/utils/Context.sol\":693:700  address */\n  0x00\n    /* \"@openzeppelin/contracts/utils/Context.sol\":719:729  msg.sender */\n  caller\n    /* \"@openzeppelin/contracts/utils/Context.sol\":712:729  return msg.sender */\n  swap1\n  pop\n    /* \"@openzeppelin/contracts/utils/Context.sol\":640:736  function _msgSender() internal view virtual returns (address) {... */\n  swap1\n  jump\t// out\n    /* \"contracts/SampleERC20.sol\":2069:2342  function _beforeTokenTransfer(address from, address to, uint256 amount)... */\ntag_40:\n    /* \"@openzeppelin/contracts/security/Pausable.sol\":1239:1258  _requireNotPaused() */\n  tag_51\n    /* \"@openzeppelin/contracts/security/Pausable.sol\":1239:1256  _requireNotPaused */\n  shl(0x20, tag_52)\n    /* \"@openzeppelin/contracts/security/Pausable.sol\":1239:1258  _requireNotPaused() */\n  0x20\n  shr\n  jump\t// in\ntag_51:\n    /* \"contracts/SampleERC20.sol\":2220:2233  _FullLockList */\n  0x08\n    /* \"contracts/SampleERC20.sol\":2220:2239  _FullLockList[from] */\n  0x00\n    /* \"contracts/SampleERC20.sol\":2234:2238  from */\n  dup5\n    /* \"contracts/SampleERC20.sol\":2220:2239  _FullLockList[from] */\n  0xffffffffffffffffffffffffffffffffffffffff\n  and\n  0xffffffffffffffffffffffffffffffffffffffff\n  and\n  dup2\n  mstore\n  0x20\n  add\n  swap1\n  dup2\n  mstore\n  0x20\n  add\n  0x00\n  keccak256\n  0x00\n  swap1\n  sload\n  swap1\n  0x0100\n  exp\n  swap1\n  div\n  0xff\n  and\n    /* \"contracts/SampleERC20.sol\":2219:2239  !_FullLockList[from] */\n  iszero\n    /* \"contracts/SampleERC20.sol\":2211:2281  require(!_FullLockList[from], \"Token transfer from LockedAddressList\") */\n  tag_54\n  jumpi\n  mload(0x40)\n  0x08c379a000000000000000000000000000000000000000000000000000000000\n  dup2\n  mstore\n  0x04\n  add\n  tag_55\n  swap1\n  tag_56\n  jump\t// in\ntag_55:\n  mload(0x40)\n  dup1\n  swap2\n  sub\n  swap1\n  revert\ntag_54:\n    /* \"contracts/SampleERC20.sol\":2291:2335  super._beforeTokenTransfer(from, to, amount) */\n  tag_57\n    /* \"contracts/SampleERC20.sol\":2318:2322  from */\n  dup4\n    /* \"contracts/SampleERC20.sol\":2324:2326  to */\n  dup4\n    /* \"contracts/SampleERC20.sol\":2328:2334  amount */\n  dup4\n    /* \"contracts/SampleERC20.sol\":2291:2317  super._beforeTokenTransfer */\n  or(tag_0_158, shl(0x20, tag_58))\n    /* \"contracts/SampleERC20.sol\":2291:2335  super._beforeTokenTransfer(from, to, amount) */\n  0x20\n  shr\n  jump\t// in\ntag_57:\n    /* \"contracts/SampleERC20.sol\":2069:2342  function _beforeTokenTransfer(address from, address to, uint256 amount)... */\n  pop\n  pop\n  pop\n  jump\t// out\n    /* \"@openzeppelin/contracts/token/ERC20/ERC20.sol\":12495:12615  function _afterTokenTransfer(... */\ntag_47:\n  pop\n  pop\n  pop\n  jump\t// out\n    /* \"@openzeppelin/contracts/security/Pausable.sol\":1767:1873  function _requireNotPaused() internal view virtual {... */\ntag_52:\n    /* \"@openzeppelin/contracts/security/Pausable.sol\":1837:1845  paused() */\n  tag_61\n    /* \"@openzeppelin/contracts/security/Pausable.sol\":1837:1843  paused */\n  shl(0x20, tag_62)\n    /* \"@openzeppelin/contracts/security/Pausable.sol\":1837:1845  paused() */\n  0x20\n  shr\n  jump\t// in\ntag_61:\n    /* \"@openzeppelin/contracts/security/Pausable.sol\":1836:1845  !paused() */\n  iszero\n    /* \"@openzeppelin/contracts/security/Pausable.sol\":1828:1866  require(!paused(), \"Pausable: paused\") */\n  tag_63\n  jumpi\n  mload(0x40)\n  0x08c379a000000000000000000000000000000000000000000000000000000000\n  dup2\n  mstore\n  0x04\n  add\n  tag_64\n  swap1\n  tag_65\n  jump\t// in\ntag_64:\n  mload(0x40)\n  dup1\n  swap2\n  sub\n  swap1\n  revert\ntag_63:\n    /* \"@openzeppelin/contracts/security/Pausable.sol\":1767:1873  function _requireNotPaused() internal view virtual {... */\n  jump\t// out\n    /* \"@openzeppelin/contracts/token/ERC20/ERC20.sol\":11786:11907  function _beforeTokenTransfer(... */\ntag_58:\n  pop\n  pop\n  pop\n  jump\t// out\n    /* \"@openzeppelin/contracts/security/Pausable.sol\":1615:1699  function paused() public view virtual returns (bool) {... */\ntag_62:\n    /* \"@openzeppelin/contracts/security/Pausable.sol\":1662:1666  bool */\n  0x00\n    /* \"@openzeppelin/contracts/security/Pausable.sol\":1685:1692  _paused */\n  0x05\n  0x00\n  swap1\n  sload\n  swap1\n  0x0100\n  exp\n  swap1\n  div\n  0xff\n  and\n    /* \"@openzeppelin/contracts/security/Pausable.sol\":1678:1692  return _paused */\n  swap1\n  pop\n    /* \"@openzeppelin/contracts/security/Pausable.sol\":1615:1699  function paused() public view virtual returns (bool) {... */\n  swap1\n  jump\t// out\n    /* \"contracts/SampleERC20.sol\":304:2344  contract ForTheDog is ERC20, ERC20Burnable, Pausable, AccessControl {... */\ntag_7:\n  dup3\n  dup1\n  sload\n  tag_68\n  swap1\n  tag_69\n  jump\t// in\ntag_68:\n  swap1\n  0x00\n  mstore\n  keccak256(0x00, 0x20)\n  swap1\n  0x1f\n  add\n  0x20\n  swap1\n  div\n  dup2\n  add\n  swap3\n  dup3\n  tag_71\n  jumpi\n  0x00\n  dup6\n  sstore\n  jump(tag_70)\ntag_71:\n  dup3\n  0x1f\n  lt\n  tag_72\n  jumpi\n  dup1\n  mload\n  not(0xff)\n  and\n  dup4\n  dup1\n  add\n  or\n  dup6\n  sstore\n  jump(tag_70)\ntag_72:\n  dup3\n  dup1\n  add\n  0x01\n  add\n  dup6\n  sstore\n  dup3\n  iszero\n  tag_70\n  jumpi\n  swap2\n  dup3\n  add\ntag_73:\n  dup3\n  dup2\n  gt\n  iszero\n  tag_74\n  jumpi\n  dup3\n  mload\n  dup3\n  sstore\n  swap2\n  0x20\n  add\n  swap2\n  swap1\n  0x01\n  add\n  swap1\n  jump(tag_73)\ntag_74:\ntag_70:\n  pop\n  swap1\n  pop\n  tag_75\n  swap2\n  swap1\n  tag_76\n  jump\t// in\ntag_75:\n  pop\n  swap1\n  jump\t// out\ntag_76:\ntag_77:\n  dup1\n  dup3\n  gt\n  iszero\n  tag_78\n  jumpi\n  0x00\n  dup2\n  0x00\n  swap1\n  sstore\n  pop\n  0x01\n  add\n  jump(tag_77)\ntag_78:\n  pop\n  swap1\n  jump\t// out\n    /* \"#utility.yul\":7:373   */\ntag_80:\n    /* \"#utility.yul\":149:152   */\n  0x00\n    /* \"#utility.yul\":170:237   */\n  tag_82\n    /* \"#utility.yul\":234:236   */\n  0x25\n    /* \"#utility.yul\":229:232   */\n  dup4\n    /* \"#utility.yul\":170:237   */\n  tag_83\n  jump\t// in\ntag_82:\n    /* \"#utility.yul\":163:237   */\n  swap2\n  pop\n    /* \"#utility.yul\":246:339   */\n  tag_84\n    /* \"#utility.yul\":335:338   */\n  dup3\n    /* \"#utility.yul\":246:339   */\n  tag_85\n  jump\t// in\ntag_84:\n    /* \"#utility.yul\":364:366   */\n  0x40\n    /* \"#utility.yul\":359:362   */\n  dup3\n    /* \"#utility.yul\":355:367   */\n  add\n    /* \"#utility.yul\":348:367   */\n  swap1\n  pop\n    /* \"#utility.yul\":153:373   */\n  swap2\n  swap1\n  pop\n  jump\t// out\n    /* \"#utility.yul\":379:745   */\ntag_86:\n    /* \"#utility.yul\":521:524   */\n  0x00\n    /* \"#utility.yul\":542:609   */\n  tag_88\n    /* \"#utility.yul\":606:608   */\n  0x10\n    /* \"#utility.yul\":601:604   */\n  dup4\n    /* \"#utility.yul\":542:609   */\n  tag_83\n  jump\t// in\ntag_88:\n    /* \"#utility.yul\":535:609   */\n  swap2\n  pop\n    /* \"#utility.yul\":618:711   */\n  tag_89\n    /* \"#utility.yul\":707:710   */\n  dup3\n    /* \"#utility.yul\":618:711   */\n  tag_90\n  jump\t// in\ntag_89:\n    /* \"#utility.yul\":736:738   */\n  0x20\n    /* \"#utility.yul\":731:734   */\n  dup3\n    /* \"#utility.yul\":727:739   */\n  add\n    /* \"#utility.yul\":720:739   */\n  swap1\n  pop\n    /* \"#utility.yul\":525:745   */\n  swap2\n  swap1\n  pop\n  jump\t// out\n    /* \"#utility.yul\":751:1117   */\ntag_91:\n    /* \"#utility.yul\":893:896   */\n  0x00\n    /* \"#utility.yul\":914:981   */\n  tag_93\n    /* \"#utility.yul\":978:980   */\n  0x1f\n    /* \"#utility.yul\":973:976   */\n  dup4\n    /* \"#utility.yul\":914:981   */\n  tag_83\n  jump\t// in\ntag_93:\n    /* \"#utility.yul\":907:981   */\n  swap2\n  pop\n    /* \"#utility.yul\":990:1083   */\n  tag_94\n    /* \"#utility.yul\":1079:1082   */\n  dup3\n    /* \"#utility.yul\":990:1083   */\n  tag_95\n  jump\t// in\ntag_94:\n    /* \"#utility.yul\":1108:1110   */\n  0x20\n    /* \"#utility.yul\":1103:1106   */\n  dup3\n    /* \"#utility.yul\":1099:1111   */\n  add\n    /* \"#utility.yul\":1092:1111   */\n  swap1\n  pop\n    /* \"#utility.yul\":897:1117   */\n  swap2\n  swap1\n  pop\n  jump\t// out\n    /* \"#utility.yul\":1123:1241   */\ntag_96:\n    /* \"#utility.yul\":1210:1234   */\n  tag_98\n    /* \"#utility.yul\":1228:1233   */\n  dup2\n    /* \"#utility.yul\":1210:1234   */\n  tag_99\n  jump\t// in\ntag_98:\n    /* \"#utility.yul\":1205:1208   */\n  dup3\n    /* \"#utility.yul\":1198:1235   */\n  mstore\n    /* \"#utility.yul\":1188:1241   */\n  pop\n  pop\n  jump\t// out\n    /* \"#utility.yul\":1247:1666   */\ntag_56:\n    /* \"#utility.yul\":1413:1417   */\n  0x00\n    /* \"#utility.yul\":1451:1453   */\n  0x20\n    /* \"#utility.yul\":1440:1449   */\n  dup3\n    /* \"#utility.yul\":1436:1454   */\n  add\n    /* \"#utility.yul\":1428:1454   */\n  swap1\n  pop\n    /* \"#utility.yul\":1500:1509   */\n  dup2\n    /* \"#utility.yul\":1494:1498   */\n  dup2\n    /* \"#utility.yul\":1490:1510   */\n  sub\n    /* \"#utility.yul\":1486:1487   */\n  0x00\n    /* \"#utility.yul\":1475:1484   */\n  dup4\n    /* \"#utility.yul\":1471:1488   */\n  add\n    /* \"#utility.yul\":1464:1511   */\n  mstore\n    /* \"#utility.yul\":1528:1659   */\n  tag_101\n    /* \"#utility.yul\":1654:1658   */\n  dup2\n    /* \"#utility.yul\":1528:1659   */\n  tag_80\n  jump\t// in\ntag_101:\n    /* \"#utility.yul\":1520:1659   */\n  swap1\n  pop\n    /* \"#utility.yul\":1418:1666   */\n  swap2\n  swap1\n  pop\n  jump\t// out\n    /* \"#utility.yul\":1672:2091   */\ntag_65:\n    /* \"#utility.yul\":1838:1842   */\n  0x00\n    /* \"#utility.yul\":1876:1878   */\n  0x20\n    /* \"#utility.yul\":1865:1874   */\n  dup3\n    /* \"#utility.yul\":1861:1879   */\n  add\n    /* \"#utility.yul\":1853:1879   */\n  swap1\n  pop\n    /* \"#utility.yul\":1925:1934   */\n  dup2\n    /* \"#utility.yul\":1919:1923   */\n  dup2\n    /* \"#utility.yul\":1915:1935   */\n  sub\n    /* \"#utility.yul\":1911:1912   */\n  0x00\n    /* \"#utility.yul\":1900:1909   */\n  dup4\n    /* \"#utility.yul\":1896:1913   */\n  add\n    /* \"#utility.yul\":1889:1936   */\n  mstore\n    /* \"#utility.yul\":1953:2084   */\n  tag_103\n    /* \"#utility.yul\":2079:2083   */\n  dup2\n    /* \"#utility.yul\":1953:2084   */\n  tag_86\n  jump\t// in\ntag_103:\n    /* \"#utility.yul\":1945:2084   */\n  swap1\n  pop\n    /* \"#utility.yul\":1843:2091   */\n  swap2\n  swap1\n  pop\n  jump\t// out\n    /* \"#utility.yul\":2097:2516   */\ntag_38:\n    /* \"#utility.yul\":2263:2267   */\n  0x00\n    /* \"#utility.yul\":2301:2303   */\n  0x20\n    /* \"#utility.yul\":2290:2299   */\n  dup3\n    /* \"#utility.yul\":2286:2304   */\n  add\n    /* \"#utility.yul\":2278:2304   */\n  swap1\n  pop\n    /* \"#utility.yul\":2350:2359   */\n  dup2\n    /* \"#utility.yul\":2344:2348   */\n  dup2\n    /* \"#utility.yul\":2340:2360   */\n  sub\n    /* \"#utility.yul\":2336:2337   */\n  0x00\n    /* \"#utility.yul\":2325:2334   */\n  dup4\n    /* \"#utility.yul\":2321:2338   */\n  add\n    /* \"#utility.yul\":2314:2361   */\n  mstore\n    /* \"#utility.yul\":2378:2509   */\n  tag_105\n    /* \"#utility.yul\":2504:2508   */\n  dup2\n    /* \"#utility.yul\":2378:2509   */\n  tag_91\n  jump\t// in\ntag_105:\n    /* \"#utility.yul\":2370:2509   */\n  swap1\n  pop\n    /* \"#utility.yul\":2268:2516   */\n  swap2\n  swap1\n  pop\n  jump\t// out\n    /* \"#utility.yul\":2522:2744   */\ntag_45:\n    /* \"#utility.yul\":2615:2619   */\n  0x00\n    /* \"#utility.yul\":2653:2655   */\n  0x20\n    /* \"#utility.yul\":2642:2651   */\n  dup3\n    /* \"#utility.yul\":2638:2656   */\n  add\n    /* \"#utility.yul\":2630:2656   */\n  swap1\n  pop\n    /* \"#utility.yul\":2666:2737   */\n  tag_107\n    /* \"#utility.yul\":2734:2735   */\n  0x00\n    /* \"#utility.yul\":2723:2732   */\n  dup4\n    /* \"#utility.yul\":2719:2736   */\n  add\n    /* \"#utility.yul\":2710:2716   */\n  dup5\n    /* \"#utility.yul\":2666:2737   */\n  tag_96\n  jump\t// in\ntag_107:\n    /* \"#utility.yul\":2620:2744   */\n  swap3\n  swap2\n  pop\n  pop\n  jump\t// out\n    /* \"#utility.yul\":2750:2919   */\ntag_83:\n    /* \"#utility.yul\":2834:2845   */\n  0x00\n    /* \"#utility.yul\":2868:2874   */\n  dup3\n    /* \"#utility.yul\":2863:2866   */\n  dup3\n    /* \"#utility.yul\":2856:2875   */\n  mstore\n    /* \"#utility.yul\":2908:2912   */\n  0x20\n    /* \"#utility.yul\":2903:2906   */\n  dup3\n    /* \"#utility.yul\":2899:2913   */\n  add\n    /* \"#utility.yul\":2884:2913   */\n  swap1\n  pop\n    /* \"#utility.yul\":2846:2919   */\n  swap3\n  swap2\n  pop\n  pop\n  jump\t// out\n    /* \"#utility.yul\":2925:3230   */\ntag_42:\n    /* \"#utility.yul\":2965:2968   */\n  0x00\n    /* \"#utility.yul\":2984:3004   */\n  tag_110\n    /* \"#utility.yul\":3002:3003   */\n  dup3\n    /* \"#utility.yul\":2984:3004   */\n  tag_99\n  jump\t// in\ntag_110:\n    /* \"#utility.yul\":2979:3004   */\n  swap2\n  pop\n    /* \"#utility.yul\":3018:3038   */\n  tag_111\n    /* \"#utility.yul\":3036:3037   */\n  dup4\n    /* \"#utility.yul\":3018:3038   */\n  tag_99\n  jump\t// in\ntag_111:\n    /* \"#utility.yul\":3013:3038   */\n  swap3\n  pop\n    /* \"#utility.yul\":3172:3173   */\n  dup3\n    /* \"#utility.yul\":3104:3170   */\n  0xffffffffffffffffffffffffffffffffffffffffffffffffffffffffffffffff\n    /* \"#utility.yul\":3100:3174   */\n  sub\n    /* \"#utility.yul\":3097:3098   */\n  dup3\n    /* \"#utility.yul\":3094:3175   */\n  gt\n    /* \"#utility.yul\":3091:3093   */\n  iszero\n  tag_112\n  jumpi\n    /* \"#utility.yul\":3178:3196   */\n  tag_113\n  tag_114\n  jump\t// in\ntag_113:\n    /* \"#utility.yul\":3091:3093   */\ntag_112:\n    /* \"#utility.yul\":3222:3223   */\n  dup3\n    /* \"#utility.yul\":3219:3220   */\n  dup3\n    /* \"#utility.yul\":3215:3224   */\n  add\n    /* \"#utility.yul\":3208:3224   */\n  swap1\n  pop\n    /* \"#utility.yul\":2969:3230   */\n  swap3\n  swap2\n  pop\n  pop\n  jump\t// out\n    /* \"#utility.yul\":3236:4084   */\ntag_115:\n    /* \"#utility.yul\":3297:3302   */\n  0x00\n    /* \"#utility.yul\":3304:3308   */\n  dup1\n    /* \"#utility.yul\":3328:3334   */\n  dup3\n    /* \"#utility.yul\":3319:3334   */\n  swap2\n  pop\n    /* \"#utility.yul\":3352:3357   */\n  dup4\n    /* \"#utility.yul\":3343:3357   */\n  swap1\n  pop\n    /* \"#utility.yul\":3366:4078   */\ntag_117:\n    /* \"#utility.yul\":3387:3388   */\n  0x01\n    /* \"#utility.yul\":3377:3385   */\n  dup6\n    /* \"#utility.yul\":3374:3389   */\n  gt\n    /* \"#utility.yul\":3366:4078   */\n  iszero\n  tag_119\n  jumpi\n    /* \"#utility.yul\":3482:3486   */\n  dup1\n    /* \"#utility.yul\":3477:3480   */\n  dup7\n    /* \"#utility.yul\":3473:3487   */\n  div\n    /* \"#utility.yul\":3467:3471   */\n  dup2\n    /* \"#utility.yul\":3464:3488   */\n  gt\n    /* \"#utility.yul\":3461:3463   */\n  iszero\n  tag_120\n  jumpi\n    /* \"#utility.yul\":3491:3509   */\n  tag_121\n  tag_114\n  jump\t// in\ntag_121:\n    /* \"#utility.yul\":3461:3463   */\ntag_120:\n    /* \"#utility.yul\":3541:3542   */\n  0x01\n    /* \"#utility.yul\":3531:3539   */\n  dup6\n    /* \"#utility.yul\":3527:3543   */\n  and\n    /* \"#utility.yul\":3524:3526   */\n  iszero\n  tag_122\n  jumpi\n    /* \"#utility.yul\":3956:3960   */\n  dup1\n    /* \"#utility.yul\":3949:3954   */\n  dup3\n    /* \"#utility.yul\":3945:3961   */\n  mul\n    /* \"#utility.yul\":3936:3961   */\n  swap2\n  pop\n    /* \"#utility.yul\":3524:3526   */\ntag_122:\n    /* \"#utility.yul\":4006:4010   */\n  dup1\n    /* \"#utility.yul\":4000:4004   */\n  dup2\n    /* \"#utility.yul\":3996:4011   */\n  mul\n    /* \"#utility.yul\":3988:4011   */\n  swap1\n  pop\n    /* \"#utility.yul\":4036:4068   */\n  tag_123\n    /* \"#utility.yul\":4059:4067   */\n  dup6\n    /* \"#utility.yul\":4036:4068   */\n  tag_124\n  jump\t// in\ntag_123:\n    /* \"#utility.yul\":4024:4068   */\n  swap5\n  pop\n    /* \"#utility.yul\":3366:4078   */\n  jump(tag_117)\ntag_119:\n    /* \"#utility.yul\":3309:4084   */\n  swap5\n  pop\n  swap5\n  swap3\n  pop\n  pop\n  pop\n  jump\t// out\n    /* \"#utility.yul\":4090:4371   */\ntag_18:\n    /* \"#utility.yul\":4148:4153   */\n  0x00\n    /* \"#utility.yul\":4172:4195   */\n  tag_126\n    /* \"#utility.yul\":4190:4194   */\n  dup3\n    /* \"#utility.yul\":4172:4195   */\n  tag_99\n  jump\t// in\ntag_126:\n    /* \"#utility.yul\":4164:4195   */\n  swap2\n  pop\n    /* \"#utility.yul\":4216:4241   */\n  tag_127\n    /* \"#utility.yul\":4232:4240   */\n  dup4\n    /* \"#utility.yul\":4216:4241   */\n  tag_128\n  jump\t// in\ntag_127:\n    /* \"#utility.yul\":4204:4241   */\n  swap3\n  pop\n    /* \"#utility.yul\":4260:4364   */\n  tag_129\n    /* \"#utility.yul\":4297:4363   */\n  0xffffffffffffffffffffffffffffffffffffffffffffffffffffffffffffffff\n    /* \"#utility.yul\":4287:4295   */\n  dup5\n    /* \"#utility.yul\":4281:4285   */\n  dup5\n    /* \"#utility.yul\":4260:4364   */\n  tag_130\n  jump\t// in\ntag_129:\n    /* \"#utility.yul\":4251:4364   */\n  swap1\n  pop\n    /* \"#utility.yul\":4154:4371   */\n  swap3\n  swap2\n  pop\n  pop\n  jump\t// out\n    /* \"#utility.yul\":4377:5450   */\ntag_130:\n    /* \"#utility.yul\":4431:4436   */\n  0x00\n    /* \"#utility.yul\":4622:4630   */\n  dup3\n    /* \"#utility.yul\":4612:4614   */\n  tag_132\n  jumpi\n    /* \"#utility.yul\":4643:4644   */\n  0x01\n    /* \"#utility.yul\":4634:4644   */\n  swap1\n  pop\n    /* \"#utility.yul\":4645:4650   */\n  jump(tag_131)\n    /* \"#utility.yul\":4612:4614   */\ntag_132:\n    /* \"#utility.yul\":4671:4675   */\n  dup2\n    /* \"#utility.yul\":4661:4663   */\n  tag_133\n  jumpi\n    /* \"#utility.yul\":4688:4689   */\n  0x00\n    /* \"#utility.yul\":4679:4689   */\n  swap1\n  pop\n    /* \"#utility.yul\":4690:4695   */\n  jump(tag_131)\n    /* \"#utility.yul\":4661:4663   */\ntag_133:\n    /* \"#utility.yul\":4757:4761   */\n  dup2\n    /* \"#utility.yul\":4805:4806   */\n  0x01\n    /* \"#utility.yul\":4800:4827   */\n  dup2\n  eq\n  tag_135\n  jumpi\n    /* \"#utility.yul\":4841:4842   */\n  0x02\n    /* \"#utility.yul\":4836:5027   */\n  dup2\n  eq\n  tag_136\n  jumpi\n    /* \"#utility.yul\":4750:5027   */\n  jump(tag_134)\n    /* \"#utility.yul\":4800:4827   */\ntag_135:\n    /* \"#utility.yul\":4818:4819   */\n  0x01\n    /* \"#utility.yul\":4809:4819   */\n  swap2\n  pop\n    /* \"#utility.yul\":4820:4825   */\n  pop\n  jump(tag_131)\n    /* \"#utility.yul\":4836:5027   */\ntag_136:\n    /* \"#utility.yul\":4881:4884   */\n  0xff\n    /* \"#utility.yul\":4871:4879   */\n  dup5\n    /* \"#utility.yul\":4868:4885   */\n  gt\n    /* \"#utility.yul\":4865:4867   */\n  iszero\n  tag_137\n  jumpi\n    /* \"#utility.yul\":4888:4906   */\n  tag_138\n  tag_114\n  jump\t// in\ntag_138:\n    /* \"#utility.yul\":4865:4867   */\ntag_137:\n    /* \"#utility.yul\":4937:4945   */\n  dup4\n    /* \"#utility.yul\":4934:4935   */\n  0x02\n    /* \"#utility.yul\":4930:4946   */\n  exp\n    /* \"#utility.yul\":4921:4946   */\n  swap2\n  pop\n    /* \"#utility.yul\":4972:4975   */\n  dup5\n    /* \"#utility.yul\":4965:4970   */\n  dup3\n    /* \"#utility.yul\":4962:4976   */\n  gt\n    /* \"#utility.yul\":4959:4961   */\n  iszero\n  tag_139\n  jumpi\n    /* \"#utility.yul\":4979:4997   */\n  tag_140\n  tag_114\n  jump\t// in\ntag_140:\n    /* \"#utility.yul\":4959:4961   */\ntag_139:\n    /* \"#utility.yul\":5012:5017   */\n  pop\n  jump(tag_131)\n    /* \"#utility.yul\":4750:5027   */\ntag_134:\n  pop\n    /* \"#utility.yul\":5136:5138   */\n  0x20\n    /* \"#utility.yul\":5126:5134   */\n  dup4\n    /* \"#utility.yul\":5123:5139   */\n  lt\n    /* \"#utility.yul\":5117:5120   */\n  0x0133\n    /* \"#utility.yul\":5111:5115   */\n  dup4\n    /* \"#utility.yul\":5108:5121   */\n  lt\n    /* \"#utility.yul\":5104:5140   */\n  and\n    /* \"#utility.yul\":5086:5088   */\n  0x4e\n    /* \"#utility.yul\":5076:5084   */\n  dup5\n    /* \"#utility.yul\":5073:5089   */\n  lt\n    /* \"#utility.yul\":5068:5070   */\n  0x0b\n    /* \"#utility.yul\":5062:5066   */\n  dup5\n    /* \"#utility.yul\":5059:5071   */\n  lt\n    /* \"#utility.yul\":5055:5090   */\n  and\n    /* \"#utility.yul\":5039:5150   */\n  or\n    /* \"#utility.yul\":5036:5038   */\n  iszero\n  tag_141\n  jumpi\n    /* \"#utility.yul\":5192:5200   */\n  dup3\n    /* \"#utility.yul\":5186:5190   */\n  dup3\n    /* \"#utility.yul\":5182:5201   */\n  exp\n    /* \"#utility.yul\":5173:5201   */\n  swap1\n  pop\n    /* \"#utility.yul\":5227:5230   */\n  dup4\n    /* \"#utility.yul\":5220:5225   */\n  dup2\n    /* \"#utility.yul\":5217:5231   */\n  gt\n    /* \"#utility.yul\":5214:5216   */\n  iszero\n  tag_142\n  jumpi\n    /* \"#utility.yul\":5234:5252   */\n  tag_143\n  tag_114\n  jump\t// in\ntag_143:\n    /* \"#utility.yul\":5214:5216   */\ntag_142:\n    /* \"#utility.yul\":5267:5272   */\n  jump(tag_131)\n    /* \"#utility.yul\":5036:5038   */\ntag_141:\n    /* \"#utility.yul\":5307:5349   */\n  tag_144\n    /* \"#utility.yul\":5345:5348   */\n  dup5\n    /* \"#utility.yul\":5335:5343   */\n  dup5\n    /* \"#utility.yul\":5329:5333   */\n  dup5\n    /* \"#utility.yul\":5326:5327   */\n  0x01\n    /* \"#utility.yul\":5307:5349   */\n  tag_115\n  jump\t// in\ntag_144:\n    /* \"#utility.yul\":5292:5349   */\n  swap3\n  pop\n  swap1\n  pop\n    /* \"#utility.yul\":5381:5385   */\n  dup2\n    /* \"#utility.yul\":5376:5379   */\n  dup5\n    /* \"#utility.yul\":5372:5386   */\n  div\n    /* \"#utility.yul\":5365:5370   */\n  dup2\n    /* \"#utility.yul\":5362:5387   */\n  gt\n    /* \"#utility.yul\":5359:5361   */\n  iszero\n  tag_145\n  jumpi\n    /* \"#utility.yul\":5390:5408   */\n  tag_146\n  tag_114\n  jump\t// in\ntag_146:\n    /* \"#utility.yul\":5359:5361   */\ntag_145:\n    /* \"#utility.yul\":5439:5443   */\n  dup2\n    /* \"#utility.yul\":5432:5437   */\n  dup2\n    /* \"#utility.yul\":5428:5444   */\n  mul\n    /* \"#utility.yul\":5419:5444   */\n  swap1\n  pop\n    /* \"#utility.yul\":4437:5450   */\ntag_131:\n  swap4\n  swap3\n  pop\n  pop\n  pop\n  jump\t// out\n    /* \"#utility.yul\":5456:5804   */\ntag_20:\n    /* \"#utility.yul\":5496:5503   */\n  0x00\n    /* \"#utility.yul\":5519:5539   */\n  tag_148\n    /* \"#utility.yul\":5537:5538   */\n  dup3\n    /* \"#utility.yul\":5519:5539   */\n  tag_99\n  jump\t// in\ntag_148:\n    /* \"#utility.yul\":5514:5539   */\n  swap2\n  pop\n    /* \"#utility.yul\":5553:5573   */\n  tag_149\n    /* \"#utility.yul\":5571:5572   */\n  dup4\n    /* \"#utility.yul\":5553:5573   */\n  tag_99\n  jump\t// in\ntag_149:\n    /* \"#utility.yul\":5548:5573   */\n  swap3\n  pop\n    /* \"#utility.yul\":5741:5742   */\n  dup2\n    /* \"#utility.yul\":5673:5739   */\n  0xffffffffffffffffffffffffffffffffffffffffffffffffffffffffffffffff\n    /* \"#utility.yul\":5669:5743   */\n  div\n    /* \"#utility.yul\":5666:5667   */\n  dup4\n    /* \"#utility.yul\":5663:5744   */\n  gt\n    /* \"#utility.yul\":5658:5659   */\n  dup3\n    /* \"#utility.yul\":5651:5660   */\n  iszero\n    /* \"#utility.yul\":5644:5661   */\n  iszero\n    /* \"#utility.yul\":5640:5745   */\n  and\n    /* \"#utility.yul\":5637:5639   */\n  iszero\n  tag_150\n  jumpi\n    /* \"#utility.yul\":5748:5766   */\n  tag_151\n  tag_114\n  jump\t// in\ntag_151:\n    /* \"#utility.yul\":5637:5639   */\ntag_150:\n    /* \"#utility.yul\":5796:5797   */\n  dup3\n    /* \"#utility.yul\":5793:5794   */\n  dup3\n    /* \"#utility.yul\":5789:5798   */\n  mul\n    /* \"#utility.yul\":5778:5798   */\n  swap1\n  pop\n    /* \"#utility.yul\":5504:5804   */\n  swap3\n  swap2\n  pop\n  pop\n  jump\t// out\n    /* \"#utility.yul\":5810:5887   */\ntag_99:\n    /* \"#utility.yul\":5847:5854   */\n  0x00\n    /* \"#utility.yul\":5876:5881   */\n  dup2\n    /* \"#utility.yul\":5865:5881   */\n  swap1\n  pop\n    /* \"#utility.yul\":5855:5887   */\n  swap2\n  swap1\n  pop\n  jump\t// out\n    /* \"#utility.yul\":5893:5979   */\ntag_128:\n    /* \"#utility.yul\":5928:5935   */\n  0x00\n    /* \"#utility.yul\":5968:5972   */\n  0xff\n    /* \"#utility.yul\":5961:5966   */\n  dup3\n    /* \"#utility.yul\":5957:5973   */\n  and\n    /* \"#utility.yul\":5946:5973   */\n  swap1\n  pop\n    /* \"#utility.yul\":5936:5979   */\n  swap2\n  swap1\n  pop\n  jump\t// out\n    /* \"#utility.yul\":5985:6305   */\ntag_69:\n    /* \"#utility.yul\":6029:6035   */\n  0x00\n    /* \"#utility.yul\":6066:6067   */\n  0x02\n    /* \"#utility.yul\":6060:6064   */\n  dup3\n    /* \"#utility.yul\":6056:6068   */\n  div\n    /* \"#utility.yul\":6046:6068   */\n  swap1\n  pop\n    /* \"#utility.yul\":6113:6114   */\n  0x01\n    /* \"#utility.yul\":6107:6111   */\n  dup3\n    /* \"#utility.yul\":6103:6115   */\n  and\n    /* \"#utility.yul\":6134:6152   */\n  dup1\n    /* \"#utility.yul\":6124:6126   */\n  tag_155\n  jumpi\n    /* \"#utility.yul\":6190:6194   */\n  0x7f\n    /* \"#utility.yul\":6182:6188   */\n  dup3\n    /* \"#utility.yul\":6178:6195   */\n  and\n    /* \"#utility.yul\":6168:6195   */\n  swap2\n  pop\n    /* \"#utility.yul\":6124:6126   */\ntag_155:\n    /* \"#utility.yul\":6252:6254   */\n  0x20\n    /* \"#utility.yul\":6244:6250   */\n  dup3\n    /* \"#utility.yul\":6241:6255   */\n  lt\n    /* \"#utility.yul\":6221:6239   */\n  dup2\n    /* \"#utility.yul\":6218:6256   */\n  eq\n    /* \"#utility.yul\":6215:6217   */\n  iszero\n  tag_156\n  jumpi\n    /* \"#utility.yul\":6271:6289   */\n  tag_157\n  tag_158\n  jump\t// in\ntag_157:\n    /* \"#utility.yul\":6215:6217   */\ntag_156:\n    /* \"#utility.yul\":6036:6305   */\n  pop\n  swap2\n  swap1\n  pop\n  jump\t// out\n    /* \"#utility.yul\":6311:6491   */\ntag_114:\n    /* \"#utility.yul\":6359:6436   */\n  0x4e487b7100000000000000000000000000000000000000000000000000000000\n    /* \"#utility.yul\":6356:6357   */\n  0x00\n    /* \"#utility.yul\":6349:6437   */\n  mstore\n    /* \"#utility.yul\":6456:6460   */\n  0x11\n    /* \"#utility.yul\":6453:6454   */\n  0x04\n    /* \"#utility.yul\":6446:6461   */\n  mstore\n    /* \"#utility.yul\":6480:6484   */\n  0x24\n    /* \"#utility.yul\":6477:6478   */\n  0x00\n    /* \"#utility.yul\":6470:6485   */\n  revert\n    /* \"#utility.yul\":6497:6677   */\ntag_158:\n    /* \"#utility.yul\":6545:6622   */\n  0x4e487b7100000000000000000000000000000000000000000000000000000000\n    /* \"#utility.yul\":6542:6543   */\n  0x00\n    /* \"#utility.yul\":6535:6623   */\n  mstore\n    /* \"#utility.yul\":6642:6646   */\n  0x22\n    /* \"#utility.yul\":6639:6640   */\n  0x04\n    /* \"#utility.yul\":6632:6647   */\n  mstore\n    /* \"#utility.yul\":6666:6670   */\n  0x24\n    /* \"#utility.yul\":6663:6664   */\n  0x00\n    /* \"#utility.yul\":6656:6671   */\n  revert\n    /* \"#utility.yul\":6683:6785   */\ntag_124:\n    /* \"#utility.yul\":6725:6733   */\n  0x00\n    /* \"#utility.yul\":6772:6777   */\n  dup2\n    /* \"#utility.yul\":6769:6770   */\n  0x01\n    /* \"#utility.yul\":6765:6778   */\n  shr\n    /* \"#utility.yul\":6744:6778   */\n  swap1\n  pop\n    /* \"#utility.yul\":6734:6785   */\n  swap2\n  swap1\n  pop\n  jump\t// out\n    /* \"#utility.yul\":6791:7015   */\ntag_85:\n    /* \"#utility.yul\":6931:6965   */\n  0x546f6b656e207472616e736665722066726f6d204c6f636b6564416464726573\n    /* \"#utility.yul\":6927:6928   */\n  0x00\n    /* \"#utility.yul\":6919:6925   */\n  dup3\n    /* \"#utility.yul\":6915:6929   */\n  add\n    /* \"#utility.yul\":6908:6966   */\n  mstore\n    /* \"#utility.yul\":7000:7007   */\n  0x734c697374000000000000000000000000000000000000000000000000000000\n    /* \"#utility.yul\":6995:6997   */\n  0x20\n    /* \"#utility.yul\":6987:6993   */\n  dup3\n    /* \"#utility.yul\":6983:6998   */\n  add\n    /* \"#utility.yul\":6976:7008   */\n  mstore\n    /* \"#utility.yul\":6897:7015   */\n  pop\n  jump\t// out\n    /* \"#utility.yul\":7021:7187   */\ntag_90:\n    /* \"#utility.yul\":7161:7179   */\n  0x5061757361626c653a2070617573656400000000000000000000000000000000\n    /* \"#utility.yul\":7157:7158   */\n  0x00\n    /* \"#utility.yul\":7149:7155   */\n  dup3\n    /* \"#utility.yul\":7145:7159   */\n  add\n    /* \"#utility.yul\":7138:7180   */\n  mstore\n    /* \"#utility.yul\":7127:7187   */\n  pop\n  jump\t// out\n    /* \"#utility.yul\":7193:7374   */\ntag_95:\n    /* \"#utility.yul\":7333:7366   */\n  0x45524332303a206d696e7420746f20746865207a65726f206164647265737300\n    /* \"#utility.yul\":7329:7330   */\n  0x00\n    /* \"#utility.yul\":7321:7327   */\n  dup3\n    /* \"#utility.yul\":7317:7331   */\n  add\n    /* \"#utility.yul\":7310:7367   */\n  mstore\n    /* \"#utility.yul\":7299:7374   */\n  pop\n  jump\t// out\n    /* \"contracts/SampleERC20.sol\":304:2344  contract ForTheDog is ERC20, ERC20Burnable, Pausable, AccessControl {... */\ntag_27:\n  dataSize(sub_0)\n  dup1\n  dataOffset(sub_0)\n  0x00\n  codecopy\n  0x00\n  return\nstop\n\nsub_0: assembly {\n        /* \"contracts/SampleERC20.sol\":304:2344  contract ForTheDog is ERC20, ERC20Burnable, Pausable, AccessControl {... */\n      mstore(0x40, 0x80)\n      callvalue\n      dup1\n      iszero\n      tag_1\n      jumpi\n      0x00\n      dup1\n      revert\n    tag_1:\n      pop\n      jumpi(tag_2, lt(calldatasize, 0x04))\n      shr(0xe0, calldataload(0x00))\n      dup1\n      0x5c975abb\n      gt\n      tag_34\n      jumpi\n      dup1\n      0xa7cd26fd\n      gt\n      tag_35\n      jumpi\n      dup1\n      0xd547741f\n      gt\n      tag_36\n      jumpi\n      dup1\n      0xd547741f\n      eq\n      tag_30\n      jumpi\n      dup1\n      0xdd62ed3e\n      eq\n      tag_31\n      jumpi\n      dup1\n      0xde2d0450\n      eq\n      tag_32\n      jumpi\n      dup1\n      0xe63ab1e9\n      eq\n      tag_33\n      jumpi\n      jump(tag_2)\n    tag_36:\n      dup1\n      0xa7cd26fd\n      eq\n      tag_26\n      jumpi\n      dup1\n      0xa9059cbb\n      eq\n      tag_27\n      jumpi\n      dup1\n      0xcfb17ceb\n      eq\n      tag_28\n      jumpi\n      dup1\n      0xd5391393\n      eq\n      tag_29\n      jumpi\n      jump(tag_2)\n    tag_35:\n      dup1\n      0x91d14854\n      gt\n      tag_37\n      jumpi\n      dup1\n      0x91d14854\n      eq\n      tag_22\n      jumpi\n      dup1\n      0x95d89b41\n      eq\n      tag_23\n      jumpi\n      dup1\n      0xa217fddf\n      eq\n      tag_24\n      jumpi\n      dup1\n      0xa457c2d7\n      eq\n      tag_25\n      jumpi\n      jump(tag_2)\n    tag_37:\n      dup1\n      0x5c975abb\n      eq\n      tag_18\n      jumpi\n      dup1\n      0x70a08231\n      eq\n      tag_19\n      jumpi\n      dup1\n      0x79cc6790\n      eq\n      tag_20\n      jumpi\n      dup1\n      0x8456cb59\n      eq\n      tag_21\n      jumpi\n      jump(tag_2)\n    tag_34:\n      dup1\n      0x248a9ca3\n      gt\n      tag_38\n      jumpi\n      dup1\n      0x39509351\n      gt\n      tag_39\n      jumpi\n      dup1\n      0x39509351\n      eq\n      tag_14\n      jumpi\n      dup1\n      0x3f4ba83a\n      eq\n      tag_15\n      jumpi\n      dup1\n      0x40c10f19\n      eq\n      tag_16\n      jumpi\n      dup1\n      0x42966c68\n      eq\n      tag_17\n      jumpi\n      jump(tag_2)\n    tag_39:\n      dup1\n      0x248a9ca3\n      eq\n      tag_10\n      jumpi\n      dup1\n      0x2f2ff15d\n      eq\n      tag_11\n      jumpi\n      dup1\n      0x313ce567\n      eq\n      tag_12\n      jumpi\n      dup1\n      0x36568abe\n      eq\n      tag_13\n      jumpi\n      jump(tag_2)\n    tag_38:\n      dup1\n      0x0bb7b7cc\n      gt\n      tag_40\n      jumpi\n      dup1\n      0x0bb7b7cc\n      eq\n      tag_6\n      jumpi\n      dup1\n      0x1512db75\n      eq\n      tag_7\n      jumpi\n      dup1\n      0x18160ddd\n      eq\n      tag_8\n      jumpi\n      dup1\n      0x23b872dd\n      eq\n      tag_9\n      jumpi\n      jump(tag_2)\n    tag_40:\n      dup1\n      0x01ffc9a7\n      eq\n      tag_3\n      jumpi\n      dup1\n      0x06fdde03\n      eq\n      tag_4\n      jumpi\n      dup1\n      0x095ea7b3\n      eq\n      tag_5\n      jumpi\n    tag_2:\n      0x00\n      dup1\n      revert\n        /* \"@openzeppelin/contracts/access/AccessControl.sol\":2606:2808  function supportsInterface(bytes4 interfaceId) public view virtual override returns (bool) {... */\n    tag_3:\n      tag_41\n      0x04\n      dup1\n      calldatasize\n      sub\n      dup2\n      add\n      swap1\n      tag_42\n      swap2\n      swap1\n      tag_43\n      jump\t// in\n    tag_42:\n      tag_44\n      jump\t// in\n    tag_41:\n      mload(0x40)\n      tag_45\n      swap2\n      swap1\n      tag_46\n      jump\t// in\n    tag_45:\n      mload(0x40)\n      dup1\n      swap2\n      sub\n      swap1\n      return\n        /* \"@openzeppelin/contracts/token/ERC20/ERC20.sol\":2156:2254  function name() public view virtual override returns (string memory) {... */\n    tag_4:\n      tag_47\n      tag_48\n      jump\t// in\n    tag_47:\n      mload(0x40)\n      tag_49\n      swap2\n      swap1\n      tag_50\n      jump\t// in\n    tag_49:\n      mload(0x40)\n      dup1\n      swap2\n      sub\n      swap1\n      return\n        /* \"@openzeppelin/contracts/token/ERC20/ERC20.sol\":4433:4630  function approve(address spender, uint256 amount) public virtual override returns (bool) {... */\n    tag_5:\n      tag_51\n      0x04\n      dup1\n      calldatasize\n      sub\n      dup2\n      add\n      swap1\n      tag_52\n      swap2\n      swap1\n      tag_53\n      jump\t// in\n    tag_52:\n      tag_54\n      jump\t// in\n    tag_51:\n      mload(0x40)\n      tag_55\n      swap2\n      swap1\n      tag_46\n      jump\t// in\n    tag_55:\n      mload(0x40)\n      dup1\n      swap2\n      sub\n      swap1\n      return\n        /* \"contracts/SampleERC20.sol\":1421:1588  function recoveryTokenTransfer(address from , address to , uint256 amount) public onlyRole(DEFAULT_ADMIN_ROLE)... */\n    tag_6:\n      tag_56\n      0x04\n      dup1\n      calldatasize\n      sub\n      dup2\n      add\n      swap1\n      tag_57\n      swap2\n      swap1\n      tag_58\n      jump\t// in\n    tag_57:\n      tag_59\n      jump\t// in\n    tag_56:\n      stop\n        /* \"contracts/SampleERC20.sol\":1932:2063  function FullLockedAddressList(address account) external view virtual returns (bool) {... */\n    tag_7:\n      tag_60\n      0x04\n      dup1\n      calldatasize\n      sub\n      dup2\n      add\n      swap1\n      tag_61\n      swap2\n      swap1\n      tag_62\n      jump\t// in\n    tag_61:\n      tag_63\n      jump\t// in\n    tag_60:\n      mload(0x40)\n      tag_64\n      swap2\n      swap1\n      tag_46\n      jump\t// in\n    tag_64:\n      mload(0x40)\n      dup1\n      swap2\n      sub\n      swap1\n      return\n        /* \"@openzeppelin/contracts/token/ERC20/ERC20.sol\":3244:3350  function totalSupply() public view virtual override returns (uint256) {... */\n    tag_8:\n      tag_65\n      tag_66\n      jump\t// in\n    tag_65:\n      mload(0x40)\n      tag_67\n      swap2\n      swap1\n      tag_68\n      jump\t// in\n    tag_67:\n      mload(0x40)\n      dup1\n      swap2\n      sub\n      swap1\n      return\n        /* \"@openzeppelin/contracts/token/ERC20/ERC20.sol\":5192:5478  function transferFrom(... */\n    tag_9:\n      tag_69\n      0x04\n      dup1\n      calldatasize\n      sub\n      dup2\n      add\n      swap1\n      tag_70\n      swap2\n      swap1\n      tag_58\n      jump\t// in\n    tag_70:\n      tag_71\n      jump\t// in\n    tag_69:\n      mload(0x40)\n      tag_72\n      swap2\n      swap1\n      tag_46\n      jump\t// in\n    tag_72:\n      mload(0x40)\n      dup1\n      swap2\n      sub\n      swap1\n      return\n        /* \"@openzeppelin/contracts/access/AccessControl.sol\":4391:4520  function getRoleAdmin(bytes32 role) public view virtual override returns (bytes32) {... */\n    tag_10:\n      tag_73\n      0x04\n      dup1\n      calldatasize\n      sub\n      dup2\n      add\n      swap1\n      tag_74\n      swap2\n      swap1\n      tag_75\n      jump\t// in\n    tag_74:\n      tag_76\n      jump\t// in\n    tag_73:\n      mload(0x40)\n      tag_77\n      swap2\n      swap1\n      tag_78\n      jump\t// in\n    tag_77:\n      mload(0x40)\n      dup1\n      swap2\n      sub\n      swap1\n      return\n        /* \"@openzeppelin/contracts/access/AccessControl.sol\":4816:4961  function grantRole(bytes32 role, address account) public virtual override onlyRole(getRoleAdmin(role)) {... */\n    tag_11:\n      tag_79\n      0x04\n      dup1\n      calldatasize\n      sub\n      dup2\n      add\n      swap1\n      tag_80\n      swap2\n      swap1\n      tag_81\n      jump\t// in\n    tag_80:\n      tag_82\n      jump\t// in\n    tag_79:\n      stop\n        /* \"@openzeppelin/contracts/token/ERC20/ERC20.sol\":3093:3184  function decimals() public view virtual override returns (uint8) {... */\n    tag_12:\n      tag_83\n      tag_84\n      jump\t// in\n    tag_83:\n      mload(0x40)\n      tag_85\n      swap2\n      swap1\n      tag_86\n      jump\t// in\n    tag_85:\n      mload(0x40)\n      dup1\n      swap2\n      sub\n      swap1\n      return\n        /* \"@openzeppelin/contracts/access/AccessControl.sol\":5925:6139  function renounceRole(bytes32 role, address account) public virtual override {... */\n    tag_13:\n      tag_87\n      0x04\n      dup1\n      calldatasize\n      sub\n      dup2\n      add\n      swap1\n      tag_88\n      swap2\n      swap1\n      tag_81\n      jump\t// in\n    tag_88:\n      tag_89\n      jump\t// in\n    tag_87:\n      stop\n        /* \"@openzeppelin/contracts/token/ERC20/ERC20.sol\":5873:6107  function increaseAllowance(address spender, uint256 addedValue) public virtual returns (bool) {... */\n    tag_14:\n      tag_90\n      0x04\n      dup1\n      calldatasize\n      sub\n      dup2\n      add\n      swap1\n      tag_91\n      swap2\n      swap1\n      tag_53\n      jump\t// in\n    tag_91:\n      tag_92\n      jump\t// in\n    tag_90:\n      mload(0x40)\n      tag_93\n      swap2\n      swap1\n      tag_46\n      jump\t// in\n    tag_93:\n      mload(0x40)\n      dup1\n      swap2\n      sub\n      swap1\n      return\n        /* \"contracts/SampleERC20.sol\":1118:1193  function unpause() public onlyRole(PAUSER_ROLE) {... */\n    tag_15:\n      tag_94\n      tag_95\n      jump\t// in\n    tag_94:\n      stop\n        /* \"contracts/SampleERC20.sol\":1199:1415  function mint(address to, uint256 amount) public onlyRole(MINTER_ROLE) {... */\n    tag_16:\n      tag_96\n      0x04\n      dup1\n      calldatasize\n      sub\n      dup2\n      add\n      swap1\n      tag_97\n      swap2\n      swap1\n      tag_53\n      jump\t// in\n    tag_97:\n      tag_98\n      jump\t// in\n    tag_96:\n      stop\n        /* \"@openzeppelin/contracts/token/ERC20/extensions/ERC20Burnable.sol\":578:667  function burn(uint256 amount) public virtual {... */\n    tag_17:\n      tag_99\n      0x04\n      dup1\n      calldatasize\n      sub\n      dup2\n      add\n      swap1\n      tag_100\n      swap2\n      swap1\n      tag_101\n      jump\t// in\n    tag_100:\n      tag_102\n      jump\t// in\n    tag_99:\n      stop\n        /* \"@openzeppelin/contracts/security/Pausable.sol\":1615:1699  function paused() public view virtual returns (bool) {... */\n    tag_18:\n      tag_103\n      tag_104\n      jump\t// in\n    tag_103:\n      mload(0x40)\n      tag_105\n      swap2\n      swap1\n      tag_46\n      jump\t// in\n    tag_105:\n      mload(0x40)\n      dup1\n      swap2\n      sub\n      swap1\n      return\n        /* \"@openzeppelin/contracts/token/ERC20/ERC20.sol\":3408:3533  function balanceOf(address account) public view virtual override returns (uint256) {... */\n    tag_19:\n      tag_106\n      0x04\n      dup1\n      calldatasize\n      sub\n      dup2\n      add\n      swap1\n      tag_107\n      swap2\n      swap1\n      tag_62\n      jump\t// in\n    tag_107:\n      tag_108\n      jump\t// in\n    tag_106:\n      mload(0x40)\n      tag_109\n      swap2\n      swap1\n      tag_68\n      jump\t// in\n    tag_109:\n      mload(0x40)\n      dup1\n      swap2\n      sub\n      swap1\n      return\n        /* \"@openzeppelin/contracts/token/ERC20/extensions/ERC20Burnable.sol\":973:1134  function burnFrom(address account, uint256 amount) public virtual {... */\n    tag_20:\n      tag_110\n      0x04\n      dup1\n      calldatasize\n      sub\n      dup2\n      add\n      swap1\n      tag_111\n      swap2\n      swap1\n      tag_53\n      jump\t// in\n    tag_111:\n      tag_112\n      jump\t// in\n    tag_110:\n      stop\n        /* \"contracts/SampleERC20.sol\":1041:1112  function pause() public onlyRole(PAUSER_ROLE) {... */\n    tag_21:\n      tag_113\n      tag_114\n      jump\t// in\n    tag_113:\n      stop\n        /* \"@openzeppelin/contracts/access/AccessControl.sol\":2895:3040  function hasRole(bytes32 role, address account) public view virtual override returns (bool) {... */\n    tag_22:\n      tag_115\n      0x04\n      dup1\n      calldatasize\n      sub\n      dup2\n      add\n      swap1\n      tag_116\n      swap2\n      swap1\n      tag_81\n      jump\t// in\n    tag_116:\n      tag_117\n      jump\t// in\n    tag_115:\n      mload(0x40)\n      tag_118\n      swap2\n      swap1\n      tag_46\n      jump\t// in\n    tag_118:\n      mload(0x40)\n      dup1\n      swap2\n      sub\n      swap1\n      return\n        /* \"@openzeppelin/contracts/token/ERC20/ERC20.sol\":2367:2469  function symbol() public view virtual override returns (string memory) {... */\n    tag_23:\n      tag_119\n      tag_120\n      jump\t// in\n    tag_119:\n      mload(0x40)\n      tag_121\n      swap2\n      swap1\n      tag_50\n      jump\t// in\n    tag_121:\n      mload(0x40)\n      dup1\n      swap2\n      sub\n      swap1\n      return\n        /* \"@openzeppelin/contracts/access/AccessControl.sol\":2027:2076  bytes32 public constant DEFAULT_ADMIN_ROLE = 0x00 */\n    tag_24:\n      tag_122\n      tag_123\n      jump\t// in\n    tag_122:\n      mload(0x40)\n      tag_124\n      swap2\n      swap1\n      tag_78\n      jump\t// in\n    tag_124:\n      mload(0x40)\n      dup1\n      swap2\n      sub\n      swap1\n      return\n        /* \"@openzeppelin/contracts/token/ERC20/ERC20.sol\":6594:7021  function decreaseAllowance(address spender, uint256 subtractedValue) public virtual returns (bool) {... */\n    tag_25:\n      tag_125\n      0x04\n      dup1\n      calldatasize\n      sub\n      dup2\n      add\n      swap1\n      tag_126\n      swap2\n      swap1\n      tag_53\n      jump\t// in\n    tag_126:\n      tag_127\n      jump\t// in\n    tag_125:\n      mload(0x40)\n      tag_128\n      swap2\n      swap1\n      tag_46\n      jump\t// in\n    tag_128:\n      mload(0x40)\n      dup1\n      swap2\n      sub\n      swap1\n      return\n        /* \"contracts/SampleERC20.sol\":1762:1926  function unFullLockAddress(address account) external onlyRole(LOCK_TRANSFER_ROLE) returns (bool) {... */\n    tag_26:\n      tag_129\n      0x04\n      dup1\n      calldatasize\n      sub\n      dup2\n      add\n      swap1\n      tag_130\n      swap2\n      swap1\n      tag_62\n      jump\t// in\n    tag_130:\n      tag_131\n      jump\t// in\n    tag_129:\n      mload(0x40)\n      tag_132\n      swap2\n      swap1\n      tag_46\n      jump\t// in\n    tag_132:\n      mload(0x40)\n      dup1\n      swap2\n      sub\n      swap1\n      return\n        /* \"@openzeppelin/contracts/token/ERC20/ERC20.sol\":3729:3918  function transfer(address to, uint256 amount) public virtual override returns (bool) {... */\n    tag_27:\n      tag_133\n      0x04\n      dup1\n      calldatasize\n      sub\n      dup2\n      add\n      swap1\n      tag_134\n      swap2\n      swap1\n      tag_53\n      jump\t// in\n    tag_134:\n      tag_135\n      jump\t// in\n    tag_133:\n      mload(0x40)\n      tag_136\n      swap2\n      swap1\n      tag_46\n      jump\t// in\n    tag_136:\n      mload(0x40)\n      dup1\n      swap2\n      sub\n      swap1\n      return\n        /* \"contracts/SampleERC20.sol\":514:590  bytes32 public constant LOCK_TRANSFER_ROLE = keccak256(\"LOCK_TRANSFER_ROLE\") */\n    tag_28:\n      tag_137\n      tag_138\n      jump\t// in\n    tag_137:\n      mload(0x40)\n      tag_139\n      swap2\n      swap1\n      tag_78\n      jump\t// in\n    tag_139:\n      mload(0x40)\n      dup1\n      swap2\n      sub\n      swap1\n      return\n        /* \"contracts/SampleERC20.sol\":446:508  bytes32 public constant MINTER_ROLE = keccak256(\"MINTER_ROLE\") */\n    tag_29:\n      tag_140\n      tag_141\n      jump\t// in\n    tag_140:\n      mload(0x40)\n      tag_142\n      swap2\n      swap1\n      tag_78\n      jump\t// in\n    tag_142:\n      mload(0x40)\n      dup1\n      swap2\n      sub\n      swap1\n      return\n        /* \"@openzeppelin/contracts/access/AccessControl.sol\":5241:5388  function revokeRole(bytes32 role, address account) public virtual override onlyRole(getRoleAdmin(role)) {... */\n    tag_30:\n      tag_143\n      0x04\n      dup1\n      calldatasize\n      sub\n      dup2\n      add\n      swap1\n      tag_144\n      swap2\n      swap1\n      tag_81\n      jump\t// in\n    tag_144:\n      tag_145\n      jump\t// in\n    tag_143:\n      stop\n        /* \"@openzeppelin/contracts/token/ERC20/ERC20.sol\":3976:4125  function allowance(address owner, address spender) public view virtual override returns (uint256) {... */\n    tag_31:\n      tag_146\n      0x04\n      dup1\n      calldatasize\n      sub\n      dup2\n      add\n      swap1\n      tag_147\n      swap2\n      swap1\n      tag_148\n      jump\t// in\n    tag_147:\n      tag_149\n      jump\t// in\n    tag_146:\n      mload(0x40)\n      tag_150\n      swap2\n      swap1\n      tag_68\n      jump\t// in\n    tag_150:\n      mload(0x40)\n      dup1\n      swap2\n      sub\n      swap1\n      return\n        /* \"contracts/SampleERC20.sol\":1594:1756  function FullLockAddress(address account) external onlyRole(LOCK_TRANSFER_ROLE) returns (bool) {... */\n    tag_32:\n      tag_151\n      0x04\n      dup1\n      calldatasize\n      sub\n      dup2\n      add\n      swap1\n      tag_152\n      swap2\n      swap1\n      tag_62\n      jump\t// in\n    tag_152:\n      tag_153\n      jump\t// in\n    tag_151:\n      mload(0x40)\n      tag_154\n      swap2\n      swap1\n      tag_46\n      jump\t// in\n    tag_154:\n      mload(0x40)\n      dup1\n      swap2\n      sub\n      swap1\n      return\n        /* \"contracts/SampleERC20.sol\":378:440  bytes32 public constant PAUSER_ROLE = keccak256(\"PAUSER_ROLE\") */\n    tag_33:\n      tag_155\n      tag_156\n      jump\t// in\n    tag_155:\n      mload(0x40)\n      tag_157\n      swap2\n      swap1\n      tag_78\n      jump\t// in\n    tag_157:\n      mload(0x40)\n      dup1\n      swap2\n      sub\n      swap1\n      return\n        /* \"@openzeppelin/contracts/access/AccessControl.sol\":2606:2808  function supportsInterface(bytes4 interfaceId) public view virtual override returns (bool) {... */\n    tag_44:\n        /* \"@openzeppelin/contracts/access/AccessControl.sol\":2691:2695  bool */\n      0x00\n        /* \"@openzeppelin/contracts/access/AccessControl.sol\":2729:2761  type(IAccessControl).interfaceId */\n      0x7965db0b00000000000000000000000000000000000000000000000000000000\n        /* \"@openzeppelin/contracts/access/AccessControl.sol\":2714:2761  interfaceId == type(IAccessControl).interfaceId */\n      not(0xffffffffffffffffffffffffffffffffffffffffffffffffffffffff)\n      and\n        /* \"@openzeppelin/contracts/access/AccessControl.sol\":2714:2725  interfaceId */\n      dup3\n        /* \"@openzeppelin/contracts/access/AccessControl.sol\":2714:2761  interfaceId == type(IAccessControl).interfaceId */\n      not(0xffffffffffffffffffffffffffffffffffffffffffffffffffffffff)\n      and\n      eq\n        /* \"@openzeppelin/contracts/access/AccessControl.sol\":2714:2801  interfaceId == type(IAccessControl).interfaceId || super.supportsInterface(interfaceId) */\n      dup1\n      tag_160\n      jumpi\n      pop\n        /* \"@openzeppelin/contracts/access/AccessControl.sol\":2765:2801  super.supportsInterface(interfaceId) */\n      tag_161\n        /* \"@openzeppelin/contracts/access/AccessControl.sol\":2789:2800  interfaceId */\n      dup3\n        /* \"@openzeppelin/contracts/access/AccessControl.sol\":2765:2788  super.supportsInterface */\n      tag_162\n        /* \"@openzeppelin/contracts/access/AccessControl.sol\":2765:2801  super.supportsInterface(interfaceId) */\n      jump\t// in\n    tag_161:\n        /* \"@openzeppelin/contracts/access/AccessControl.sol\":2714:2801  interfaceId == type(IAccessControl).interfaceId || super.supportsInterface(interfaceId) */\n    tag_160:\n        /* \"@openzeppelin/contracts/access/AccessControl.sol\":2707:2801  return interfaceId == type(IAccessControl).interfaceId || super.supportsInterface(interfaceId) */\n      swap1\n      pop\n        /* \"@openzeppelin/contracts/access/AccessControl.sol\":2606:2808  function supportsInterface(bytes4 interfaceId) public view virtual override returns (bool) {... */\n      swap2\n      swap1\n      pop\n      jump\t// out\n        /* \"@openzeppelin/contracts/token/ERC20/ERC20.sol\":2156:2254  function name() public view virtual override returns (string memory) {... */\n    tag_48:\n        /* \"@openzeppelin/contracts/token/ERC20/ERC20.sol\":2210:2223  string memory */\n      0x60\n        /* \"@openzeppelin/contracts/token/ERC20/ERC20.sol\":2242:2247  _name */\n      0x03\n        /* \"@openzeppelin/contracts/token/ERC20/ERC20.sol\":2235:2247  return _name */\n      dup1\n      sload\n      tag_164\n      swap1\n      tag_165\n      jump\t// in\n    tag_164:\n      dup1\n      0x1f\n      add\n      0x20\n      dup1\n      swap2\n      div\n      mul\n      0x20\n      add\n      mload(0x40)\n      swap1\n      dup2\n      add\n      0x40\n      mstore\n      dup1\n      swap3\n      swap2\n      swap1\n      dup2\n      dup2\n      mstore\n      0x20\n      add\n      dup3\n      dup1\n      sload\n      tag_166\n      swap1\n      tag_165\n      jump\t// in\n    tag_166:\n      dup1\n      iszero\n      tag_167\n      jumpi\n      dup1\n      0x1f\n      lt\n      tag_168\n      jumpi\n      0x0100\n      dup1\n      dup4\n      sload\n      div\n      mul\n      dup4\n      mstore\n      swap2\n      0x20\n      add\n      swap2\n      jump(tag_167)\n    tag_168:\n      dup3\n      add\n      swap2\n      swap1\n      0x00\n      mstore\n      keccak256(0x00, 0x20)\n      swap1\n    tag_169:\n      dup2\n      sload\n      dup2\n      mstore\n      swap1\n      0x01\n      add\n      swap1\n      0x20\n      add\n      dup1\n      dup4\n      gt\n      tag_169\n      jumpi\n      dup3\n      swap1\n      sub\n      0x1f\n      and\n      dup3\n      add\n      swap2\n    tag_167:\n      pop\n      pop\n      pop\n      pop\n      pop\n      swap1\n      pop\n        /* \"@openzeppelin/contracts/token/ERC20/ERC20.sol\":2156:2254  function name() public view virtual override returns (string memory) {... */\n      swap1\n      jump\t// out\n        /* \"@openzeppelin/contracts/token/ERC20/ERC20.sol\":4433:4630  function approve(address spender, uint256 amount) public virtual override returns (bool) {... */\n    tag_54:\n        /* \"@openzeppelin/contracts/token/ERC20/ERC20.sol\":4516:4520  bool */\n      0x00\n        /* \"@openzeppelin/contracts/token/ERC20/ERC20.sol\":4532:4545  address owner */\n      dup1\n        /* \"@openzeppelin/contracts/token/ERC20/ERC20.sol\":4548:4560  _msgSender() */\n      tag_171\n        /* \"@openzeppelin/contracts/token/ERC20/ERC20.sol\":4548:4558  _msgSender */\n      tag_172\n        /* \"@openzeppelin/contracts/token/ERC20/ERC20.sol\":4548:4560  _msgSender() */\n      jump\t// in\n    tag_171:\n        /* \"@openzeppelin/contracts/token/ERC20/ERC20.sol\":4532:4560  address owner = _msgSender() */\n      swap1\n      pop\n        /* \"@openzeppelin/contracts/token/ERC20/ERC20.sol\":4570:4602  _approve(owner, spender, amount) */\n      tag_173\n        /* \"@openzeppelin/contracts/token/ERC20/ERC20.sol\":4579:4584  owner */\n      dup2\n        /* \"@openzeppelin/contracts/token/ERC20/ERC20.sol\":4586:4593  spender */\n      dup6\n        /* \"@openzeppelin/contracts/token/ERC20/ERC20.sol\":4595:4601  amount */\n      dup6\n        /* \"@openzeppelin/contracts/token/ERC20/ERC20.sol\":4570:4578  _approve */\n      tag_174\n        /* \"@openzeppelin/contracts/token/ERC20/ERC20.sol\":4570:4602  _approve(owner, spender, amount) */\n      jump\t// in\n    tag_173:\n        /* \"@openzeppelin/contracts/token/ERC20/ERC20.sol\":4619:4623  true */\n      0x01\n        /* \"@openzeppelin/contracts/token/ERC20/ERC20.sol\":4612:4623  return true */\n      swap2\n      pop\n      pop\n        /* \"@openzeppelin/contracts/token/ERC20/ERC20.sol\":4433:4630  function approve(address spender, uint256 amount) public virtual override returns (bool) {... */\n      swap3\n      swap2\n      pop\n      pop\n      jump\t// out\n        /* \"contracts/SampleERC20.sol\":1421:1588  function recoveryTokenTransfer(address from , address to , uint256 amount) public onlyRole(DEFAULT_ADMIN_ROLE)... */\n    tag_59:\n        /* \"@openzeppelin/contracts/access/AccessControl.sol\":2072:2076  0x00 */\n      0x00\n        /* \"contracts/SampleERC20.sol\":1512:1530  DEFAULT_ADMIN_ROLE */\n      dup1\n      shl\n        /* \"@openzeppelin/contracts/access/AccessControl.sol\":2505:2521  _checkRole(role) */\n      tag_176\n        /* \"@openzeppelin/contracts/access/AccessControl.sol\":2516:2520  role */\n      dup2\n        /* \"@openzeppelin/contracts/access/AccessControl.sol\":2505:2515  _checkRole */\n      tag_177\n        /* \"@openzeppelin/contracts/access/AccessControl.sol\":2505:2521  _checkRole(role) */\n      jump\t// in\n    tag_176:\n        /* \"contracts/SampleERC20.sol\":1546:1581  super._transfer(from , to , amount) */\n      tag_179\n        /* \"contracts/SampleERC20.sol\":1562:1566  from */\n      dup5\n        /* \"contracts/SampleERC20.sol\":1569:1571  to */\n      dup5\n        /* \"contracts/SampleERC20.sol\":1574:1580  amount */\n      dup5\n        /* \"contracts/SampleERC20.sol\":1546:1561  super._transfer */\n      tag_180\n        /* \"contracts/SampleERC20.sol\":1546:1581  super._transfer(from , to , amount) */\n      jump\t// in\n    tag_179:\n        /* \"contracts/SampleERC20.sol\":1421:1588  function recoveryTokenTransfer(address from , address to , uint256 amount) public onlyRole(DEFAULT_ADMIN_ROLE)... */\n      pop\n      pop\n      pop\n      pop\n      jump\t// out\n        /* \"contracts/SampleERC20.sol\":1932:2063  function FullLockedAddressList(address account) external view virtual returns (bool) {... */\n    tag_63:\n        /* \"contracts/SampleERC20.sol\":2011:2015  bool */\n      0x00\n        /* \"contracts/SampleERC20.sol\":2034:2047  _FullLockList */\n      0x08\n        /* \"contracts/SampleERC20.sol\":2034:2056  _FullLockList[account] */\n      0x00\n        /* \"contracts/SampleERC20.sol\":2048:2055  account */\n      dup4\n        /* \"contracts/SampleERC20.sol\":2034:2056  _FullLockList[account] */\n      0xffffffffffffffffffffffffffffffffffffffff\n      and\n      0xffffffffffffffffffffffffffffffffffffffff\n      and\n      dup2\n      mstore\n      0x20\n      add\n      swap1\n      dup2\n      mstore\n      0x20\n      add\n      0x00\n      keccak256\n      0x00\n      swap1\n      sload\n      swap1\n      0x0100\n      exp\n      swap1\n      div\n      0xff\n      and\n        /* \"contracts/SampleERC20.sol\":2027:2056  return _FullLockList[account] */\n      swap1\n      pop\n        /* \"contracts/SampleERC20.sol\":1932:2063  function FullLockedAddressList(address account) external view virtual returns (bool) {... */\n      swap2\n      swap1\n      pop\n      jump\t// out\n        /* \"@openzeppelin/contracts/token/ERC20/ERC20.sol\":3244:3350  function totalSupply() public view virtual override returns (uint256) {... */\n    tag_66:\n        /* \"@openzeppelin/contracts/token/ERC20/ERC20.sol\":3305:3312  uint256 */\n      0x00\n        /* \"@openzeppelin/contracts/token/ERC20/ERC20.sol\":3331:3343  _totalSupply */\n      sload(0x02)\n        /* \"@openzeppelin/contracts/token/ERC20/ERC20.sol\":3324:3343  return _totalSupply */\n      swap1\n      pop\n        /* \"@openzeppelin/contracts/token/ERC20/ERC20.sol\":3244:3350  function totalSupply() public view virtual override returns (uint256) {... */\n      swap1\n      jump\t// out\n        /* \"@openzeppelin/contracts/token/ERC20/ERC20.sol\":5192:5478  function transferFrom(... */\n    tag_71:\n        /* \"@openzeppelin/contracts/token/ERC20/ERC20.sol\":5319:5323  bool */\n      0x00\n        /* \"@openzeppelin/contracts/token/ERC20/ERC20.sol\":5335:5350  address spender */\n      dup1\n        /* \"@openzeppelin/contracts/token/ERC20/ERC20.sol\":5353:5365  _msgSender() */\n      tag_184\n        /* \"@openzeppelin/contracts/token/ERC20/ERC20.sol\":5353:5363  _msgSender */\n      tag_172\n        /* \"@openzeppelin/contracts/token/ERC20/ERC20.sol\":5353:5365  _msgSender() */\n      jump\t// in\n    tag_184:\n        /* \"@openzeppelin/contracts/token/ERC20/ERC20.sol\":5335:5365  address spender = _msgSender() */\n      swap1\n      pop\n        /* \"@openzeppelin/contracts/token/ERC20/ERC20.sol\":5375:5413  _spendAllowance(from, spender, amount) */\n      tag_185\n        /* \"@openzeppelin/contracts/token/ERC20/ERC20.sol\":5391:5395  from */\n      dup6\n        /* \"@openzeppelin/contracts/token/ERC20/ERC20.sol\":5397:5404  spender */\n      dup3\n        /* \"@openzeppelin/contracts/token/ERC20/ERC20.sol\":5406:5412  amount */\n      dup6\n        /* \"@openzeppelin/contracts/token/ERC20/ERC20.sol\":5375:5390  _spendAllowance */\n      tag_186\n        /* \"@openzeppelin/contracts/token/ERC20/ERC20.sol\":5375:5413  _spendAllowance(from, spender, amount) */\n      jump\t// in\n    tag_185:\n        /* \"@openzeppelin/contracts/token/ERC20/ERC20.sol\":5423:5450  _transfer(from, to, amount) */\n      tag_187\n        /* \"@openzeppelin/contracts/token/ERC20/ERC20.sol\":5433:5437  from */\n      dup6\n        /* \"@openzeppelin/contracts/token/ERC20/ERC20.sol\":5439:5441  to */\n      dup6\n        /* \"@openzeppelin/contracts/token/ERC20/ERC20.sol\":5443:5449  amount */\n      dup6\n        /* \"@openzeppelin/contracts/token/ERC20/ERC20.sol\":5423:5432  _transfer */\n      tag_180\n        /* \"@openzeppelin/contracts/token/ERC20/ERC20.sol\":5423:5450  _transfer(from, to, amount) */\n      jump\t// in\n    tag_187:\n        /* \"@openzeppelin/contracts/token/ERC20/ERC20.sol\":5467:5471  true */\n      0x01\n        /* \"@openzeppelin/contracts/token/ERC20/ERC20.sol\":5460:5471  return true */\n      swap2\n      pop\n      pop\n        /* \"@openzeppelin/contracts/token/ERC20/ERC20.sol\":5192:5478  function transferFrom(... */\n      swap4\n      swap3\n      pop\n      pop\n      pop\n      jump\t// out\n        /* \"@openzeppelin/contracts/access/AccessControl.sol\":4391:4520  function getRoleAdmin(bytes32 role) public view virtual override returns (bytes32) {... */\n    tag_76:\n        /* \"@openzeppelin/contracts/access/AccessControl.sol\":4465:4472  bytes32 */\n      0x00\n        /* \"@openzeppelin/contracts/access/AccessControl.sol\":4491:4497  _roles */\n      0x06\n        /* \"@openzeppelin/contracts/access/AccessControl.sol\":4491:4503  _roles[role] */\n      0x00\n        /* \"@openzeppelin/contracts/access/AccessControl.sol\":4498:4502  role */\n      dup4\n        /* \"@openzeppelin/contracts/access/AccessControl.sol\":4491:4503  _roles[role] */\n      dup2\n      mstore\n      0x20\n      add\n      swap1\n      dup2\n      mstore\n      0x20\n      add\n      0x00\n      keccak256\n        /* \"@openzeppelin/contracts/access/AccessControl.sol\":4491:4513  _roles[role].adminRole */\n      0x01\n      add\n      sload\n        /* \"@openzeppelin/contracts/access/AccessControl.sol\":4484:4513  return _roles[role].adminRole */\n      swap1\n      pop\n        /* \"@openzeppelin/contracts/access/AccessControl.sol\":4391:4520  function getRoleAdmin(bytes32 role) public view virtual override returns (bytes32) {... */\n      swap2\n      swap1\n      pop\n      jump\t// out\n        /* \"@openzeppelin/contracts/access/AccessControl.sol\":4816:4961  function grantRole(bytes32 role, address account) public virtual override onlyRole(getRoleAdmin(role)) {... */\n    tag_82:\n        /* \"@openzeppelin/contracts/access/AccessControl.sol\":4899:4917  getRoleAdmin(role) */\n      tag_189\n        /* \"@openzeppelin/contracts/access/AccessControl.sol\":4912:4916  role */\n      dup3\n        /* \"@openzeppelin/contracts/access/AccessControl.sol\":4899:4911  getRoleAdmin */\n      tag_76\n        /* \"@openzeppelin/contracts/access/AccessControl.sol\":4899:4917  getRoleAdmin(role) */\n      jump\t// in\n    tag_189:\n        /* \"@openzeppelin/contracts/access/AccessControl.sol\":2505:2521  _checkRole(role) */\n      tag_191\n        /* \"@openzeppelin/contracts/access/AccessControl.sol\":2516:2520  role */\n      dup2\n        /* \"@openzeppelin/contracts/access/AccessControl.sol\":2505:2515  _checkRole */\n      tag_177\n        /* \"@openzeppelin/contracts/access/AccessControl.sol\":2505:2521  _checkRole(role) */\n      jump\t// in\n    tag_191:\n        /* \"@openzeppelin/contracts/access/AccessControl.sol\":4929:4954  _grantRole(role, account) */\n      tag_193\n        /* \"@openzeppelin/contracts/access/AccessControl.sol\":4940:4944  role */\n      dup4\n        /* \"@openzeppelin/contracts/access/AccessControl.sol\":4946:4953  account */\n      dup4\n        /* \"@openzeppelin/contracts/access/AccessControl.sol\":4929:4939  _grantRole */\n      tag_194\n        /* \"@openzeppelin/contracts/access/AccessControl.sol\":4929:4954  _grantRole(role, account) */\n      jump\t// in\n    tag_193:\n        /* \"@openzeppelin/contracts/access/AccessControl.sol\":4816:4961  function grantRole(bytes32 role, address account) public virtual override onlyRole(getRoleAdmin(role)) {... */\n      pop\n      pop\n      pop\n      jump\t// out\n        /* \"@openzeppelin/contracts/token/ERC20/ERC20.sol\":3093:3184  function decimals() public view virtual override returns (uint8) {... */\n    tag_84:\n        /* \"@openzeppelin/contracts/token/ERC20/ERC20.sol\":3151:3156  uint8 */\n      0x00\n        /* \"@openzeppelin/contracts/token/ERC20/ERC20.sol\":3175:3177  18 */\n      0x12\n        /* \"@openzeppelin/contracts/token/ERC20/ERC20.sol\":3168:3177  return 18 */\n      swap1\n      pop\n        /* \"@openzeppelin/contracts/token/ERC20/ERC20.sol\":3093:3184  function decimals() public view virtual override returns (uint8) {... */\n      swap1\n      jump\t// out\n        /* \"@openzeppelin/contracts/access/AccessControl.sol\":5925:6139  function renounceRole(bytes32 role, address account) public virtual override {... */\n    tag_89:\n        /* \"@openzeppelin/contracts/access/AccessControl.sol\":6031:6043  _msgSender() */\n      tag_197\n        /* \"@openzeppelin/contracts/access/AccessControl.sol\":6031:6041  _msgSender */\n      tag_172\n        /* \"@openzeppelin/contracts/access/AccessControl.sol\":6031:6043  _msgSender() */\n      jump\t// in\n    tag_197:\n        /* \"@openzeppelin/contracts/access/AccessControl.sol\":6020:6043  account == _msgSender() */\n      0xffffffffffffffffffffffffffffffffffffffff\n      and\n        /* \"@openzeppelin/contracts/access/AccessControl.sol\":6020:6027  account */\n      dup2\n        /* \"@openzeppelin/contracts/access/AccessControl.sol\":6020:6043  account == _msgSender() */\n      0xffffffffffffffffffffffffffffffffffffffff\n      and\n      eq\n        /* \"@openzeppelin/contracts/access/AccessControl.sol\":6012:6095  require(account == _msgSender(), \"AccessControl: can only renounce roles for self\") */\n      tag_198\n      jumpi\n      mload(0x40)\n      0x08c379a000000000000000000000000000000000000000000000000000000000\n      dup2\n      mstore\n      0x04\n      add\n      tag_199\n      swap1\n      tag_200\n      jump\t// in\n    tag_199:\n      mload(0x40)\n      dup1\n      swap2\n      sub\n      swap1\n      revert\n    tag_198:\n        /* \"@openzeppelin/contracts/access/AccessControl.sol\":6106:6132  _revokeRole(role, account) */\n      tag_201\n        /* \"@openzeppelin/contracts/access/AccessControl.sol\":6118:6122  role */\n      dup3\n        /* \"@openzeppelin/contracts/access/AccessControl.sol\":6124:6131  account */\n      dup3\n        /* \"@openzeppelin/contracts/access/AccessControl.sol\":6106:6117  _revokeRole */\n      tag_202\n        /* \"@openzeppelin/contracts/access/AccessControl.sol\":6106:6132  _revokeRole(role, account) */\n      jump\t// in\n    tag_201:\n        /* \"@openzeppelin/contracts/access/AccessControl.sol\":5925:6139  function renounceRole(bytes32 role, address account) public virtual override {... */\n      pop\n      pop\n      jump\t// out\n        /* \"@openzeppelin/contracts/token/ERC20/ERC20.sol\":5873:6107  function increaseAllowance(address spender, uint256 addedValue) public virtual returns (bool) {... */\n    tag_92:\n        /* \"@openzeppelin/contracts/token/ERC20/ERC20.sol\":5961:5965  bool */\n      0x00\n        /* \"@openzeppelin/contracts/token/ERC20/ERC20.sol\":5977:5990  address owner */\n      dup1\n        /* \"@openzeppelin/contracts/token/ERC20/ERC20.sol\":5993:6005  _msgSender() */\n      tag_204\n        /* \"@openzeppelin/contracts/token/ERC20/ERC20.sol\":5993:6003  _msgSender */\n      tag_172\n        /* \"@openzeppelin/contracts/token/ERC20/ERC20.sol\":5993:6005  _msgSender() */\n      jump\t// in\n    tag_204:\n        /* \"@openzeppelin/contracts/token/ERC20/ERC20.sol\":5977:6005  address owner = _msgSender() */\n      swap1\n      pop\n        /* \"@openzeppelin/contracts/token/ERC20/ERC20.sol\":6015:6079  _approve(owner, spender, allowance(owner, spender) + addedValue) */\n      tag_205\n        /* \"@openzeppelin/contracts/token/ERC20/ERC20.sol\":6024:6029  owner */\n      dup2\n        /* \"@openzeppelin/contracts/token/ERC20/ERC20.sol\":6031:6038  spender */\n      dup6\n        /* \"@openzeppelin/contracts/token/ERC20/ERC20.sol\":6068:6078  addedValue */\n      dup6\n        /* \"@openzeppelin/contracts/token/ERC20/ERC20.sol\":6040:6065  allowance(owner, spender) */\n      tag_206\n        /* \"@openzeppelin/contracts/token/ERC20/ERC20.sol\":6050:6055  owner */\n      dup6\n        /* \"@openzeppelin/contracts/token/ERC20/ERC20.sol\":6057:6064  spender */\n      dup10\n        /* \"@openzeppelin/contracts/token/ERC20/ERC20.sol\":6040:6049  allowance */\n      tag_149\n        /* \"@openzeppelin/contracts/token/ERC20/ERC20.sol\":6040:6065  allowance(owner, spender) */\n      jump\t// in\n    tag_206:\n        /* \"@openzeppelin/contracts/token/ERC20/ERC20.sol\":6040:6078  allowance(owner, spender) + addedValue */\n      tag_207\n      swap2\n      swap1\n      tag_208\n      jump\t// in\n    tag_207:\n        /* \"@openzeppelin/contracts/token/ERC20/ERC20.sol\":6015:6023  _approve */\n      tag_174\n        /* \"@openzeppelin/contracts/token/ERC20/ERC20.sol\":6015:6079  _approve(owner, spender, allowance(owner, spender) + addedValue) */\n      jump\t// in\n    tag_205:\n        /* \"@openzeppelin/contracts/token/ERC20/ERC20.sol\":6096:6100  true */\n      0x01\n        /* \"@openzeppelin/contracts/token/ERC20/ERC20.sol\":6089:6100  return true */\n      swap2\n      pop\n      pop\n        /* \"@openzeppelin/contracts/token/ERC20/ERC20.sol\":5873:6107  function increaseAllowance(address spender, uint256 addedValue) public virtual returns (bool) {... */\n      swap3\n      swap2\n      pop\n      pop\n      jump\t// out\n        /* \"contracts/SampleERC20.sol\":1118:1193  function unpause() public onlyRole(PAUSER_ROLE) {... */\n    tag_95:\n        /* \"contracts/SampleERC20.sol\":416:440  keccak256(\"PAUSER_ROLE\") */\n      0x65d7a28e3265b37a6474929f336521b332c1681b933f6cb9f3376673440d862a\n        /* \"@openzeppelin/contracts/access/AccessControl.sol\":2505:2521  _checkRole(role) */\n      tag_210\n        /* \"@openzeppelin/contracts/access/AccessControl.sol\":2516:2520  role */\n      dup2\n        /* \"@openzeppelin/contracts/access/AccessControl.sol\":2505:2515  _checkRole */\n      tag_177\n        /* \"@openzeppelin/contracts/access/AccessControl.sol\":2505:2521  _checkRole(role) */\n      jump\t// in\n    tag_210:\n        /* \"contracts/SampleERC20.sol\":1176:1186  _unpause() */\n      tag_212\n        /* \"contracts/SampleERC20.sol\":1176:1184  _unpause */\n      tag_213\n        /* \"contracts/SampleERC20.sol\":1176:1186  _unpause() */\n      jump\t// in\n    tag_212:\n        /* \"contracts/SampleERC20.sol\":1118:1193  function unpause() public onlyRole(PAUSER_ROLE) {... */\n      pop\n      jump\t// out\n        /* \"contracts/SampleERC20.sol\":1199:1415  function mint(address to, uint256 amount) public onlyRole(MINTER_ROLE) {... */\n    tag_98:\n        /* \"contracts/SampleERC20.sol\":484:508  keccak256(\"MINTER_ROLE\") */\n      0x9f2df0fed2c77648de5860a4cc508cd0818c85b8b8a1ab4ceeef8d981c8956a6\n        /* \"@openzeppelin/contracts/access/AccessControl.sol\":2505:2521  _checkRole(role) */\n      tag_215\n        /* \"@openzeppelin/contracts/access/AccessControl.sol\":2516:2520  role */\n      dup2\n        /* \"@openzeppelin/contracts/access/AccessControl.sol\":2505:2515  _checkRole */\n      tag_177\n        /* \"@openzeppelin/contracts/access/AccessControl.sol\":2505:2521  _checkRole(role) */\n      jump\t// in\n    tag_215:\n        /* \"contracts/SampleERC20.sol\":1314:1324  _limitMint */\n      sload(0x07)\n        /* \"contracts/SampleERC20.sol\":1304:1310  amount */\n      dup3\n        /* \"contracts/SampleERC20.sol\":1288:1301  totalSupply() */\n      tag_217\n        /* \"contracts/SampleERC20.sol\":1288:1299  totalSupply */\n      tag_66\n        /* \"contracts/SampleERC20.sol\":1288:1301  totalSupply() */\n      jump\t// in\n    tag_217:\n        /* \"contracts/SampleERC20.sol\":1288:1310  totalSupply() + amount */\n      tag_218\n      swap2\n      swap1\n      tag_208\n      jump\t// in\n    tag_218:\n        /* \"contracts/SampleERC20.sol\":1288:1324  totalSupply() + amount <= _limitMint */\n      gt\n      iszero\n        /* \"contracts/SampleERC20.sol\":1280:1381  require(totalSupply() + amount <= _limitMint, \"The number of additional issuance has been exceeded.\") */\n      tag_219\n      jumpi\n      mload(0x40)\n      0x08c379a000000000000000000000000000000000000000000000000000000000\n      dup2\n      mstore\n      0x04\n      add\n      tag_220\n      swap1\n      tag_221\n      jump\t// in\n    tag_220:\n      mload(0x40)\n      dup1\n      swap2\n      sub\n      swap1\n      revert\n    tag_219:\n        /* \"contracts/SampleERC20.sol\":1391:1408  _mint(to, amount) */\n      tag_222\n        /* \"contracts/SampleERC20.sol\":1397:1399  to */\n      dup4\n        /* \"contracts/SampleERC20.sol\":1401:1407  amount */\n      dup4\n        /* \"contracts/SampleERC20.sol\":1391:1396  _mint */\n      tag_223\n        /* \"contracts/SampleERC20.sol\":1391:1408  _mint(to, amount) */\n      jump\t// in\n    tag_222:\n        /* \"contracts/SampleERC20.sol\":1199:1415  function mint(address to, uint256 amount) public onlyRole(MINTER_ROLE) {... */\n      pop\n      pop\n      pop\n      jump\t// out\n        /* \"@openzeppelin/contracts/token/ERC20/extensions/ERC20Burnable.sol\":578:667  function burn(uint256 amount) public virtual {... */\n    tag_102:\n        /* \"@openzeppelin/contracts/token/ERC20/extensions/ERC20Burnable.sol\":633:660  _burn(_msgSender(), amount) */\n      tag_225\n        /* \"@openzeppelin/contracts/token/ERC20/extensions/ERC20Burnable.sol\":639:651  _msgSender() */\n      tag_226\n        /* \"@openzeppelin/contracts/token/ERC20/extensions/ERC20Burnable.sol\":639:649  _msgSender */\n      tag_172\n        /* \"@openzeppelin/contracts/token/ERC20/extensions/ERC20Burnable.sol\":639:651  _msgSender() */\n      jump\t// in\n    tag_226:\n        /* \"@openzeppelin/contracts/token/ERC20/extensions/ERC20Burnable.sol\":653:659  amount */\n      dup3\n        /* \"@openzeppelin/contracts/token/ERC20/extensions/ERC20Burnable.sol\":633:638  _burn */\n      tag_227\n        /* \"@openzeppelin/contracts/token/ERC20/extensions/ERC20Burnable.sol\":633:660  _burn(_msgSender(), amount) */\n      jump\t// in\n    tag_225:\n        /* \"@openzeppelin/contracts/token/ERC20/extensions/ERC20Burnable.sol\":578:667  function burn(uint256 amount) public virtual {... */\n      pop\n      jump\t// out\n        /* \"@openzeppelin/contracts/security/Pausable.sol\":1615:1699  function paused() public view virtual returns (bool) {... */\n    tag_104:\n        /* \"@openzeppelin/contracts/security/Pausable.sol\":1662:1666  bool */\n      0x00\n        /* \"@openzeppelin/contracts/security/Pausable.sol\":1685:1692  _paused */\n      0x05\n      0x00\n      swap1\n      sload\n      swap1\n      0x0100\n      exp\n      swap1\n      div\n      0xff\n      and\n        /* \"@openzeppelin/contracts/security/Pausable.sol\":1678:1692  return _paused */\n      swap1\n      pop\n        /* \"@openzeppelin/contracts/security/Pausable.sol\":1615:1699  function paused() public view virtual returns (bool) {... */\n      swap1\n      jump\t// out\n        /* \"@openzeppelin/contracts/token/ERC20/ERC20.sol\":3408:3533  function balanceOf(address account) public view virtual override returns (uint256) {... */\n    tag_108:\n        /* \"@openzeppelin/contracts/token/ERC20/ERC20.sol\":3482:3489  uint256 */\n      0x00\n        /* \"@openzeppelin/contracts/token/ERC20/ERC20.sol\":3508:3517  _balances */\n      dup1\n        /* \"@openzeppelin/contracts/token/ERC20/ERC20.sol\":3508:3526  _balances[account] */\n      0x00\n        /* \"@openzeppelin/contracts/token/ERC20/ERC20.sol\":3518:3525  account */\n      dup4\n        /* \"@openzeppelin/contracts/token/ERC20/ERC20.sol\":3508:3526  _balances[account] */\n      0xffffffffffffffffffffffffffffffffffffffff\n      and\n      0xffffffffffffffffffffffffffffffffffffffff\n      and\n      dup2\n      mstore\n      0x20\n      add\n      swap1\n      dup2\n      mstore\n      0x20\n      add\n      0x00\n      keccak256\n      sload\n        /* \"@openzeppelin/contracts/token/ERC20/ERC20.sol\":3501:3526  return _balances[account] */\n      swap1\n      pop\n        /* \"@openzeppelin/contracts/token/ERC20/ERC20.sol\":3408:3533  function balanceOf(address account) public view virtual override returns (uint256) {... */\n      swap2\n      swap1\n      pop\n      jump\t// out\n        /* \"@openzeppelin/contracts/token/ERC20/extensions/ERC20Burnable.sol\":973:1134  function burnFrom(address account, uint256 amount) public virtual {... */\n    tag_112:\n        /* \"@openzeppelin/contracts/token/ERC20/extensions/ERC20Burnable.sol\":1049:1095  _spendAllowance(account, _msgSender(), amount) */\n      tag_231\n        /* \"@openzeppelin/contracts/token/ERC20/extensions/ERC20Burnable.sol\":1065:1072  account */\n      dup3\n        /* \"@openzeppelin/contracts/token/ERC20/extensions/ERC20Burnable.sol\":1074:1086  _msgSender() */\n      tag_232\n        /* \"@openzeppelin/contracts/token/ERC20/extensions/ERC20Burnable.sol\":1074:1084  _msgSender */\n      tag_172\n        /* \"@openzeppelin/contracts/token/ERC20/extensions/ERC20Burnable.sol\":1074:1086  _msgSender() */\n      jump\t// in\n    tag_232:\n        /* \"@openzeppelin/contracts/token/ERC20/extensions/ERC20Burnable.sol\":1088:1094  amount */\n      dup4\n        /* \"@openzeppelin/contracts/token/ERC20/extensions/ERC20Burnable.sol\":1049:1064  _spendAllowance */\n      tag_186\n        /* \"@openzeppelin/contracts/token/ERC20/extensions/ERC20Burnable.sol\":1049:1095  _spendAllowance(account, _msgSender(), amount) */\n      jump\t// in\n    tag_231:\n        /* \"@openzeppelin/contracts/token/ERC20/extensions/ERC20Burnable.sol\":1105:1127  _burn(account, amount) */\n      tag_233\n        /* \"@openzeppelin/contracts/token/ERC20/extensions/ERC20Burnable.sol\":1111:1118  account */\n      dup3\n        /* \"@openzeppelin/contracts/token/ERC20/extensions/ERC20Burnable.sol\":1120:1126  amount */\n      dup3\n        /* \"@openzeppelin/contracts/token/ERC20/extensions/ERC20Burnable.sol\":1105:1110  _burn */\n      tag_227\n        /* \"@openzeppelin/contracts/token/ERC20/extensions/ERC20Burnable.sol\":1105:1127  _burn(account, amount) */\n      jump\t// in\n    tag_233:\n        /* \"@openzeppelin/contracts/token/ERC20/extensions/ERC20Burnable.sol\":973:1134  function burnFrom(address account, uint256 amount) public virtual {... */\n      pop\n      pop\n      jump\t// out\n        /* \"contracts/SampleERC20.sol\":1041:1112  function pause() public onlyRole(PAUSER_ROLE) {... */\n    tag_114:\n        /* \"contracts/SampleERC20.sol\":416:440  keccak256(\"PAUSER_ROLE\") */\n      0x65d7a28e3265b37a6474929f336521b332c1681b933f6cb9f3376673440d862a\n        /* \"@openzeppelin/contracts/access/AccessControl.sol\":2505:2521  _checkRole(role) */\n      tag_235\n        /* \"@openzeppelin/contracts/access/AccessControl.sol\":2516:2520  role */\n      dup2\n        /* \"@openzeppelin/contracts/access/AccessControl.sol\":2505:2515  _checkRole */\n      tag_177\n        /* \"@openzeppelin/contracts/access/AccessControl.sol\":2505:2521  _checkRole(role) */\n      jump\t// in\n    tag_235:\n        /* \"contracts/SampleERC20.sol\":1097:1105  _pause() */\n      tag_237\n        /* \"contracts/SampleERC20.sol\":1097:1103  _pause */\n      tag_238\n        /* \"contracts/SampleERC20.sol\":1097:1105  _pause() */\n      jump\t// in\n    tag_237:\n        /* \"contracts/SampleERC20.sol\":1041:1112  function pause() public onlyRole(PAUSER_ROLE) {... */\n      pop\n      jump\t// out\n        /* \"@openzeppelin/contracts/access/AccessControl.sol\":2895:3040  function hasRole(bytes32 role, address account) public view virtual override returns (bool) {... */\n    tag_117:\n        /* \"@openzeppelin/contracts/access/AccessControl.sol\":2981:2985  bool */\n      0x00\n        /* \"@openzeppelin/contracts/access/AccessControl.sol\":3004:3010  _roles */\n      0x06\n        /* \"@openzeppelin/contracts/access/AccessControl.sol\":3004:3016  _roles[role] */\n      0x00\n        /* \"@openzeppelin/contracts/access/AccessControl.sol\":3011:3015  role */\n      dup5\n        /* \"@openzeppelin/contracts/access/AccessControl.sol\":3004:3016  _roles[role] */\n      dup2\n      mstore\n      0x20\n      add\n      swap1\n      dup2\n      mstore\n      0x20\n      add\n      0x00\n      keccak256\n        /* \"@openzeppelin/contracts/access/AccessControl.sol\":3004:3024  _roles[role].members */\n      0x00\n      add\n        /* \"@openzeppelin/contracts/access/AccessControl.sol\":3004:3033  _roles[role].members[account] */\n      0x00\n        /* \"@openzeppelin/contracts/access/AccessControl.sol\":3025:3032  account */\n      dup4\n        /* \"@openzeppelin/contracts/access/AccessControl.sol\":3004:3033  _roles[role].members[account] */\n      0xffffffffffffffffffffffffffffffffffffffff\n      and\n      0xffffffffffffffffffffffffffffffffffffffff\n      and\n      dup2\n      mstore\n      0x20\n      add\n      swap1\n      dup2\n      mstore\n      0x20\n      add\n      0x00\n      keccak256\n      0x00\n      swap1\n      sload\n      swap1\n      0x0100\n      exp\n      swap1\n      div\n      0xff\n      and\n        /* \"@openzeppelin/contracts/access/AccessControl.sol\":2997:3033  return _roles[role].members[account] */\n      swap1\n      pop\n        /* \"@openzeppelin/contracts/access/AccessControl.sol\":2895:3040  function hasRole(bytes32 role, address account) public view virtual override returns (bool) {... */\n      swap3\n      swap2\n      pop\n      pop\n      jump\t// out\n        /* \"@openzeppelin/contracts/token/ERC20/ERC20.sol\":2367:2469  function symbol() public view virtual override returns (string memory) {... */\n    tag_120:\n        /* \"@openzeppelin/contracts/token/ERC20/ERC20.sol\":2423:2436  string memory */\n      0x60\n        /* \"@openzeppelin/contracts/token/ERC20/ERC20.sol\":2455:2462  _symbol */\n      0x04\n        /* \"@openzeppelin/contracts/token/ERC20/ERC20.sol\":2448:2462  return _symbol */\n      dup1\n      sload\n      tag_241\n      swap1\n      tag_165\n      jump\t// in\n    tag_241:\n      dup1\n      0x1f\n      add\n      0x20\n      dup1\n      swap2\n      div\n      mul\n      0x20\n      add\n      mload(0x40)\n      swap1\n      dup2\n      add\n      0x40\n      mstore\n      dup1\n      swap3\n      swap2\n      swap1\n      dup2\n      dup2\n      mstore\n      0x20\n      add\n      dup3\n      dup1\n      sload\n      tag_242\n      swap1\n      tag_165\n      jump\t// in\n    tag_242:\n      dup1\n      iszero\n      tag_243\n      jumpi\n      dup1\n      0x1f\n      lt\n      tag_244\n      jumpi\n      0x0100\n      dup1\n      dup4\n      sload\n      div\n      mul\n      dup4\n      mstore\n      swap2\n      0x20\n      add\n      swap2\n      jump(tag_243)\n    tag_244:\n      dup3\n      add\n      swap2\n      swap1\n      0x00\n      mstore\n      keccak256(0x00, 0x20)\n      swap1\n    tag_245:\n      dup2\n      sload\n      dup2\n      mstore\n      swap1\n      0x01\n      add\n      swap1\n      0x20\n      add\n      dup1\n      dup4\n      gt\n      tag_245\n      jumpi\n      dup3\n      swap1\n      sub\n      0x1f\n      and\n      dup3\n      add\n      swap2\n    tag_243:\n      pop\n      pop\n      pop\n      pop\n      pop\n      swap1\n      pop\n        /* \"@openzeppelin/contracts/token/ERC20/ERC20.sol\":2367:2469  function symbol() public view virtual override returns (string memory) {... */\n      swap1\n      jump\t// out\n        /* \"@openzeppelin/contracts/access/AccessControl.sol\":2027:2076  bytes32 public constant DEFAULT_ADMIN_ROLE = 0x00 */\n    tag_123:\n        /* \"@openzeppelin/contracts/access/AccessControl.sol\":2072:2076  0x00 */\n      0x00\n        /* \"@openzeppelin/contracts/access/AccessControl.sol\":2027:2076  bytes32 public constant DEFAULT_ADMIN_ROLE = 0x00 */\n      dup1\n      shl\n      dup2\n      jump\t// out\n        /* \"@openzeppelin/contracts/token/ERC20/ERC20.sol\":6594:7021  function decreaseAllowance(address spender, uint256 subtractedValue) public virtual returns (bool) {... */\n    tag_127:\n        /* \"@openzeppelin/contracts/token/ERC20/ERC20.sol\":6687:6691  bool */\n      0x00\n        /* \"@openzeppelin/contracts/token/ERC20/ERC20.sol\":6703:6716  address owner */\n      dup1\n        /* \"@openzeppelin/contracts/token/ERC20/ERC20.sol\":6719:6731  _msgSender() */\n      tag_247\n        /* \"@openzeppelin/contracts/token/ERC20/ERC20.sol\":6719:6729  _msgSender */\n      tag_172\n        /* \"@openzeppelin/contracts/token/ERC20/ERC20.sol\":6719:6731  _msgSender() */\n      jump\t// in\n    tag_247:\n        /* \"@openzeppelin/contracts/token/ERC20/ERC20.sol\":6703:6731  address owner = _msgSender() */\n      swap1\n      pop\n        /* \"@openzeppelin/contracts/token/ERC20/ERC20.sol\":6741:6765  uint256 currentAllowance */\n      0x00\n        /* \"@openzeppelin/contracts/token/ERC20/ERC20.sol\":6768:6793  allowance(owner, spender) */\n      tag_248\n        /* \"@openzeppelin/contracts/token/ERC20/ERC20.sol\":6778:6783  owner */\n      dup3\n        /* \"@openzeppelin/contracts/token/ERC20/ERC20.sol\":6785:6792  spender */\n      dup7\n        /* \"@openzeppelin/contracts/token/ERC20/ERC20.sol\":6768:6777  allowance */\n      tag_149\n        /* \"@openzeppelin/contracts/token/ERC20/ERC20.sol\":6768:6793  allowance(owner, spender) */\n      jump\t// in\n    tag_248:\n        /* \"@openzeppelin/contracts/token/ERC20/ERC20.sol\":6741:6793  uint256 currentAllowance = allowance(owner, spender) */\n      swap1\n      pop\n        /* \"@openzeppelin/contracts/token/ERC20/ERC20.sol\":6831:6846  subtractedValue */\n      dup4\n        /* \"@openzeppelin/contracts/token/ERC20/ERC20.sol\":6811:6827  currentAllowance */\n      dup2\n        /* \"@openzeppelin/contracts/token/ERC20/ERC20.sol\":6811:6846  currentAllowance >= subtractedValue */\n      lt\n      iszero\n        /* \"@openzeppelin/contracts/token/ERC20/ERC20.sol\":6803:6888  require(currentAllowance >= subtractedValue, \"ERC20: decreased allowance below zero\") */\n      tag_249\n      jumpi\n      mload(0x40)\n      0x08c379a000000000000000000000000000000000000000000000000000000000\n      dup2\n      mstore\n      0x04\n      add\n      tag_250\n      swap1\n      tag_251\n      jump\t// in\n    tag_250:\n      mload(0x40)\n      dup1\n      swap2\n      sub\n      swap1\n      revert\n    tag_249:\n        /* \"@openzeppelin/contracts/token/ERC20/ERC20.sol\":6922:6982  _approve(owner, spender, currentAllowance - subtractedValue) */\n      tag_252\n        /* \"@openzeppelin/contracts/token/ERC20/ERC20.sol\":6931:6936  owner */\n      dup3\n        /* \"@openzeppelin/contracts/token/ERC20/ERC20.sol\":6938:6945  spender */\n      dup7\n        /* \"@openzeppelin/contracts/token/ERC20/ERC20.sol\":6966:6981  subtractedValue */\n      dup7\n        /* \"@openzeppelin/contracts/token/ERC20/ERC20.sol\":6947:6963  currentAllowance */\n      dup5\n        /* \"@openzeppelin/contracts/token/ERC20/ERC20.sol\":6947:6981  currentAllowance - subtractedValue */\n      sub\n        /* \"@openzeppelin/contracts/token/ERC20/ERC20.sol\":6922:6930  _approve */\n      tag_174\n        /* \"@openzeppelin/contracts/token/ERC20/ERC20.sol\":6922:6982  _approve(owner, spender, currentAllowance - subtractedValue) */\n      jump\t// in\n    tag_252:\n        /* \"@openzeppelin/contracts/token/ERC20/ERC20.sol\":7010:7014  true */\n      0x01\n        /* \"@openzeppelin/contracts/token/ERC20/ERC20.sol\":7003:7014  return true */\n      swap3\n      pop\n      pop\n      pop\n        /* \"@openzeppelin/contracts/token/ERC20/ERC20.sol\":6594:7021  function decreaseAllowance(address spender, uint256 subtractedValue) public virtual returns (bool) {... */\n      swap3\n      swap2\n      pop\n      pop\n      jump\t// out\n        /* \"contracts/SampleERC20.sol\":1762:1926  function unFullLockAddress(address account) external onlyRole(LOCK_TRANSFER_ROLE) returns (bool) {... */\n    tag_131:\n        /* \"contracts/SampleERC20.sol\":1853:1857  bool */\n      0x00\n        /* \"contracts/SampleERC20.sol\":559:590  keccak256(\"LOCK_TRANSFER_ROLE\") */\n      0x832387ff8355724ce19b4e13d42ca7e8b0d3d6e27508713bc847b0ef4335ecd6\n        /* \"@openzeppelin/contracts/access/AccessControl.sol\":2505:2521  _checkRole(role) */\n      tag_254\n        /* \"@openzeppelin/contracts/access/AccessControl.sol\":2516:2520  role */\n      dup2\n        /* \"@openzeppelin/contracts/access/AccessControl.sol\":2505:2515  _checkRole */\n      tag_177\n        /* \"@openzeppelin/contracts/access/AccessControl.sol\":2505:2521  _checkRole(role) */\n      jump\t// in\n    tag_254:\n        /* \"contracts/SampleERC20.sol\":1876:1889  _FullLockList */\n      0x08\n        /* \"contracts/SampleERC20.sol\":1876:1898  _FullLockList[account] */\n      0x00\n        /* \"contracts/SampleERC20.sol\":1890:1897  account */\n      dup5\n        /* \"contracts/SampleERC20.sol\":1876:1898  _FullLockList[account] */\n      0xffffffffffffffffffffffffffffffffffffffff\n      and\n      0xffffffffffffffffffffffffffffffffffffffff\n      and\n      dup2\n      mstore\n      0x20\n      add\n      swap1\n      dup2\n      mstore\n      0x20\n      add\n      0x00\n      keccak256\n      0x00\n        /* \"contracts/SampleERC20.sol\":1869:1898  delete _FullLockList[account] */\n      0x0100\n      exp\n      dup2\n      sload\n      swap1\n      0xff\n      mul\n      not\n      and\n      swap1\n      sstore\n        /* \"contracts/SampleERC20.sol\":1915:1919  true */\n      0x01\n        /* \"contracts/SampleERC20.sol\":1908:1919  return true */\n      swap2\n      pop\n        /* \"contracts/SampleERC20.sol\":1762:1926  function unFullLockAddress(address account) external onlyRole(LOCK_TRANSFER_ROLE) returns (bool) {... */\n      pop\n      swap2\n      swap1\n      pop\n      jump\t// out\n        /* \"@openzeppelin/contracts/token/ERC20/ERC20.sol\":3729:3918  function transfer(address to, uint256 amount) public virtual override returns (bool) {... */\n    tag_135:\n        /* \"@openzeppelin/contracts/token/ERC20/ERC20.sol\":3808:3812  bool */\n      0x00\n        /* \"@openzeppelin/contracts/token/ERC20/ERC20.sol\":3824:3837  address owner */\n      dup1\n        /* \"@openzeppelin/contracts/token/ERC20/ERC20.sol\":3840:3852  _msgSender() */\n      tag_257\n        /* \"@openzeppelin/contracts/token/ERC20/ERC20.sol\":3840:3850  _msgSender */\n      tag_172\n        /* \"@openzeppelin/contracts/token/ERC20/ERC20.sol\":3840:3852  _msgSender() */\n      jump\t// in\n    tag_257:\n        /* \"@openzeppelin/contracts/token/ERC20/ERC20.sol\":3824:3852  address owner = _msgSender() */\n      swap1\n      pop\n        /* \"@openzeppelin/contracts/token/ERC20/ERC20.sol\":3862:3890  _transfer(owner, to, amount) */\n      tag_258\n        /* \"@openzeppelin/contracts/token/ERC20/ERC20.sol\":3872:3877  owner */\n      dup2\n        /* \"@openzeppelin/contracts/token/ERC20/ERC20.sol\":3879:3881  to */\n      dup6\n        /* \"@openzeppelin/contracts/token/ERC20/ERC20.sol\":3883:3889  amount */\n      dup6\n        /* \"@openzeppelin/contracts/token/ERC20/ERC20.sol\":3862:3871  _transfer */\n      tag_180\n        /* \"@openzeppelin/contracts/token/ERC20/ERC20.sol\":3862:3890  _transfer(owner, to, amount) */\n      jump\t// in\n    tag_258:\n        /* \"@openzeppelin/contracts/token/ERC20/ERC20.sol\":3907:3911  true */\n      0x01\n        /* \"@openzeppelin/contracts/token/ERC20/ERC20.sol\":3900:3911  return true */\n      swap2\n      pop\n      pop\n        /* \"@openzeppelin/contracts/token/ERC20/ERC20.sol\":3729:3918  function transfer(address to, uint256 amount) public virtual override returns (bool) {... */\n      swap3\n      swap2\n      pop\n      pop\n      jump\t// out\n        /* \"contracts/SampleERC20.sol\":514:590  bytes32 public constant LOCK_TRANSFER_ROLE = keccak256(\"LOCK_TRANSFER_ROLE\") */\n    tag_138:\n        /* \"contracts/SampleERC20.sol\":559:590  keccak256(\"LOCK_TRANSFER_ROLE\") */\n      0x832387ff8355724ce19b4e13d42ca7e8b0d3d6e27508713bc847b0ef4335ecd6\n        /* \"contracts/SampleERC20.sol\":514:590  bytes32 public constant LOCK_TRANSFER_ROLE = keccak256(\"LOCK_TRANSFER_ROLE\") */\n      dup2\n      jump\t// out\n        /* \"contracts/SampleERC20.sol\":446:508  bytes32 public constant MINTER_ROLE = keccak256(\"MINTER_ROLE\") */\n    tag_141:\n        /* \"contracts/SampleERC20.sol\":484:508  keccak256(\"MINTER_ROLE\") */\n      0x9f2df0fed2c77648de5860a4cc508cd0818c85b8b8a1ab4ceeef8d981c8956a6\n        /* \"contracts/SampleERC20.sol\":446:508  bytes32 public constant MINTER_ROLE = keccak256(\"MINTER_ROLE\") */\n      dup2\n      jump\t// out\n        /* \"@openzeppelin/contracts/access/AccessControl.sol\":5241:5388  function revokeRole(bytes32 role, address account) public virtual override onlyRole(getRoleAdmin(role)) {... */\n    tag_145:\n        /* \"@openzeppelin/contracts/access/AccessControl.sol\":5325:5343  getRoleAdmin(role) */\n      tag_259\n        /* \"@openzeppelin/contracts/access/AccessControl.sol\":5338:5342  role */\n      dup3\n        /* \"@openzeppelin/contracts/access/AccessControl.sol\":5325:5337  getRoleAdmin */\n      tag_76\n        /* \"@openzeppelin/contracts/access/AccessControl.sol\":5325:5343  getRoleAdmin(role) */\n      jump\t// in\n    tag_259:\n        /* \"@openzeppelin/contracts/access/AccessControl.sol\":2505:2521  _checkRole(role) */\n      tag_261\n        /* \"@openzeppelin/contracts/access/AccessControl.sol\":2516:2520  role */\n      dup2\n        /* \"@openzeppelin/contracts/access/AccessControl.sol\":2505:2515  _checkRole */\n      tag_177\n        /* \"@openzeppelin/contracts/access/AccessControl.sol\":2505:2521  _checkRole(role) */\n      jump\t// in\n    tag_261:\n        /* \"@openzeppelin/contracts/access/AccessControl.sol\":5355:5381  _revokeRole(role, account) */\n      tag_263\n        /* \"@openzeppelin/contracts/access/AccessControl.sol\":5367:5371  role */\n      dup4\n        /* \"@openzeppelin/contracts/access/AccessControl.sol\":5373:5380  account */\n      dup4\n        /* \"@openzeppelin/contracts/access/AccessControl.sol\":5355:5366  _revokeRole */\n      tag_202\n        /* \"@openzeppelin/contracts/access/AccessControl.sol\":5355:5381  _revokeRole(role, account) */\n      jump\t// in\n    tag_263:\n        /* \"@openzeppelin/contracts/access/AccessControl.sol\":5241:5388  function revokeRole(bytes32 role, address account) public virtual override onlyRole(getRoleAdmin(role)) {... */\n      pop\n      pop\n      pop\n      jump\t// out\n        /* \"@openzeppelin/contracts/token/ERC20/ERC20.sol\":3976:4125  function allowance(address owner, address spender) public view virtual override returns (uint256) {... */\n    tag_149:\n        /* \"@openzeppelin/contracts/token/ERC20/ERC20.sol\":4065:4072  uint256 */\n      0x00\n        /* \"@openzeppelin/contracts/token/ERC20/ERC20.sol\":4091:4102  _allowances */\n      0x01\n        /* \"@openzeppelin/contracts/token/ERC20/ERC20.sol\":4091:4109  _allowances[owner] */\n      0x00\n        /* \"@openzeppelin/contracts/token/ERC20/ERC20.sol\":4103:4108  owner */\n      dup5\n        /* \"@openzeppelin/contracts/token/ERC20/ERC20.sol\":4091:4109  _allowances[owner] */\n      0xffffffffffffffffffffffffffffffffffffffff\n      and\n      0xffffffffffffffffffffffffffffffffffffffff\n      and\n      dup2\n      mstore\n      0x20\n      add\n      swap1\n      dup2\n      mstore\n      0x20\n      add\n      0x00\n      keccak256\n        /* \"@openzeppelin/contracts/token/ERC20/ERC20.sol\":4091:4118  _allowances[owner][spender] */\n      0x00\n        /* \"@openzeppelin/contracts/token/ERC20/ERC20.sol\":4110:4117  spender */\n      dup4\n        /* \"@openzeppelin/contracts/token/ERC20/ERC20.sol\":4091:4118  _allowances[owner][spender] */\n      0xffffffffffffffffffffffffffffffffffffffff\n      and\n      0xffffffffffffffffffffffffffffffffffffffff\n      and\n      dup2\n      mstore\n      0x20\n      add\n      swap1\n      dup2\n      mstore\n      0x20\n      add\n      0x00\n      keccak256\n      sload\n        /* \"@openzeppelin/contracts/token/ERC20/ERC20.sol\":4084:4118  return _allowances[owner][spender] */\n      swap1\n      pop\n        /* \"@openzeppelin/contracts/token/ERC20/ERC20.sol\":3976:4125  function allowance(address owner, address spender) public view virtual override returns (uint256) {... */\n      swap3\n      swap2\n      pop\n      pop\n      jump\t// out\n        /* \"contracts/SampleERC20.sol\":1594:1756  function FullLockAddress(address account) external onlyRole(LOCK_TRANSFER_ROLE) returns (bool) {... */\n    tag_153:\n        /* \"contracts/SampleERC20.sol\":1683:1687  bool */\n      0x00\n        /* \"contracts/SampleERC20.sol\":559:590  keccak256(\"LOCK_TRANSFER_ROLE\") */\n      0x832387ff8355724ce19b4e13d42ca7e8b0d3d6e27508713bc847b0ef4335ecd6\n        /* \"@openzeppelin/contracts/access/AccessControl.sol\":2505:2521  _checkRole(role) */\n      tag_266\n        /* \"@openzeppelin/contracts/access/AccessControl.sol\":2516:2520  role */\n      dup2\n        /* \"@openzeppelin/contracts/access/AccessControl.sol\":2505:2515  _checkRole */\n      tag_177\n        /* \"@openzeppelin/contracts/access/AccessControl.sol\":2505:2521  _checkRole(role) */\n      jump\t// in\n    tag_266:\n        /* \"contracts/SampleERC20.sol\":1724:1728  true */\n      0x01\n        /* \"contracts/SampleERC20.sol\":1699:1712  _FullLockList */\n      0x08\n        /* \"contracts/SampleERC20.sol\":1699:1721  _FullLockList[account] */\n      0x00\n        /* \"contracts/SampleERC20.sol\":1713:1720  account */\n      dup6\n        /* \"contracts/SampleERC20.sol\":1699:1721  _FullLockList[account] */\n      0xffffffffffffffffffffffffffffffffffffffff\n      and\n      0xffffffffffffffffffffffffffffffffffffffff\n      and\n      dup2\n      mstore\n      0x20\n      add\n      swap1\n      dup2\n      mstore\n      0x20\n      add\n      0x00\n      keccak256\n      0x00\n        /* \"contracts/SampleERC20.sol\":1699:1728  _FullLockList[account] = true */\n      0x0100\n      exp\n      dup2\n      sload\n      dup2\n      0xff\n      mul\n      not\n      and\n      swap1\n      dup4\n      iszero\n      iszero\n      mul\n      or\n      swap1\n      sstore\n      pop\n        /* \"contracts/SampleERC20.sol\":1745:1749  true */\n      0x01\n        /* \"contracts/SampleERC20.sol\":1738:1749  return true */\n      swap2\n      pop\n        /* \"contracts/SampleERC20.sol\":1594:1756  function FullLockAddress(address account) external onlyRole(LOCK_TRANSFER_ROLE) returns (bool) {... */\n      pop\n      swap2\n      swap1\n      pop\n      jump\t// out\n        /* \"contracts/SampleERC20.sol\":378:440  bytes32 public constant PAUSER_ROLE = keccak256(\"PAUSER_ROLE\") */\n    tag_156:\n        /* \"contracts/SampleERC20.sol\":416:440  keccak256(\"PAUSER_ROLE\") */\n      0x65d7a28e3265b37a6474929f336521b332c1681b933f6cb9f3376673440d862a\n        /* \"contracts/SampleERC20.sol\":378:440  bytes32 public constant PAUSER_ROLE = keccak256(\"PAUSER_ROLE\") */\n      dup2\n      jump\t// out\n        /* \"@openzeppelin/contracts/token/ERC20/ERC20.sol\":11786:11907  function _beforeTokenTransfer(... */\n    tag_158:\n      pop\n      pop\n      pop\n      jump\t// out\n        /* \"@openzeppelin/contracts/utils/introspection/ERC165.sol\":829:984  function supportsInterface(bytes4 interfaceId) public view virtual override returns (bool) {... */\n    tag_162:\n        /* \"@openzeppelin/contracts/utils/introspection/ERC165.sol\":914:918  bool */\n      0x00\n        /* \"@openzeppelin/contracts/utils/introspection/ERC165.sol\":952:977  type(IERC165).interfaceId */\n      0x01ffc9a700000000000000000000000000000000000000000000000000000000\n        /* \"@openzeppelin/contracts/utils/introspection/ERC165.sol\":937:977  interfaceId == type(IERC165).interfaceId */\n      not(0xffffffffffffffffffffffffffffffffffffffffffffffffffffffff)\n      and\n        /* \"@openzeppelin/contracts/utils/introspection/ERC165.sol\":937:948  interfaceId */\n      dup3\n        /* \"@openzeppelin/contracts/utils/introspection/ERC165.sol\":937:977  interfaceId == type(IERC165).interfaceId */\n      not(0xffffffffffffffffffffffffffffffffffffffffffffffffffffffff)\n      and\n      eq\n        /* \"@openzeppelin/contracts/utils/introspection/ERC165.sol\":930:977  return interfaceId == type(IERC165).interfaceId */\n      swap1\n      pop\n        /* \"@openzeppelin/contracts/utils/introspection/ERC165.sol\":829:984  function supportsInterface(bytes4 interfaceId) public view virtual override returns (bool) {... */\n      swap2\n      swap1\n      pop\n      jump\t// out\n        /* \"@openzeppelin/contracts/utils/Context.sol\":640:736  function _msgSender() internal view virtual returns (address) {... */\n    tag_172:\n        /* \"@openzeppelin/contracts/utils/Context.sol\":693:700  address */\n      0x00\n        /* \"@openzeppelin/contracts/utils/Context.sol\":719:729  msg.sender */\n      caller\n        /* \"@openzeppelin/contracts/utils/Context.sol\":712:729  return msg.sender */\n      swap1\n      pop\n        /* \"@openzeppelin/contracts/utils/Context.sol\":640:736  function _msgSender() internal view virtual returns (address) {... */\n      swap1\n      jump\t// out\n        /* \"@openzeppelin/contracts/token/ERC20/ERC20.sol\":10110:10480  function _approve(... */\n    tag_174:\n        /* \"@openzeppelin/contracts/token/ERC20/ERC20.sol\":10258:10259  0 */\n      0x00\n        /* \"@openzeppelin/contracts/token/ERC20/ERC20.sol\":10241:10260  owner != address(0) */\n      0xffffffffffffffffffffffffffffffffffffffff\n      and\n        /* \"@openzeppelin/contracts/token/ERC20/ERC20.sol\":10241:10246  owner */\n      dup4\n        /* \"@openzeppelin/contracts/token/ERC20/ERC20.sol\":10241:10260  owner != address(0) */\n      0xffffffffffffffffffffffffffffffffffffffff\n      and\n      eq\n      iszero\n        /* \"@openzeppelin/contracts/token/ERC20/ERC20.sol\":10233:10301  require(owner != address(0), \"ERC20: approve from the zero address\") */\n      tag_272\n      jumpi\n      mload(0x40)\n      0x08c379a000000000000000000000000000000000000000000000000000000000\n      dup2\n      mstore\n      0x04\n      add\n      tag_273\n      swap1\n      tag_274\n      jump\t// in\n    tag_273:\n      mload(0x40)\n      dup1\n      swap2\n      sub\n      swap1\n      revert\n    tag_272:\n        /* \"@openzeppelin/contracts/token/ERC20/ERC20.sol\":10338:10339  0 */\n      0x00\n        /* \"@openzeppelin/contracts/token/ERC20/ERC20.sol\":10319:10340  spender != address(0) */\n      0xffffffffffffffffffffffffffffffffffffffff\n      and\n        /* \"@openzeppelin/contracts/token/ERC20/ERC20.sol\":10319:10326  spender */\n      dup3\n        /* \"@openzeppelin/contracts/token/ERC20/ERC20.sol\":10319:10340  spender != address(0) */\n      0xffffffffffffffffffffffffffffffffffffffff\n      and\n      eq\n      iszero\n        /* \"@openzeppelin/contracts/token/ERC20/ERC20.sol\":10311:10379  require(spender != address(0), \"ERC20: approve to the zero address\") */\n      tag_275\n      jumpi\n      mload(0x40)\n      0x08c379a000000000000000000000000000000000000000000000000000000000\n      dup2\n      mstore\n      0x04\n      add\n      tag_276\n      swap1\n      tag_277\n      jump\t// in\n    tag_276:\n      mload(0x40)\n      dup1\n      swap2\n      sub\n      swap1\n      revert\n    tag_275:\n        /* \"@openzeppelin/contracts/token/ERC20/ERC20.sol\":10420:10426  amount */\n      dup1\n        /* \"@openzeppelin/contracts/token/ERC20/ERC20.sol\":10390:10401  _allowances */\n      0x01\n        /* \"@openzeppelin/contracts/token/ERC20/ERC20.sol\":10390:10408  _allowances[owner] */\n      0x00\n        /* \"@openzeppelin/contracts/token/ERC20/ERC20.sol\":10402:10407  owner */\n      dup6\n        /* \"@openzeppelin/contracts/token/ERC20/ERC20.sol\":10390:10408  _allowances[owner] */\n      0xffffffffffffffffffffffffffffffffffffffff\n      and\n      0xffffffffffffffffffffffffffffffffffffffff\n      and\n      dup2\n      mstore\n      0x20\n      add\n      swap1\n      dup2\n      mstore\n      0x20\n      add\n      0x00\n      keccak256\n        /* \"@openzeppelin/contracts/token/ERC20/ERC20.sol\":10390:10417  _allowances[owner][spender] */\n      0x00\n        /* \"@openzeppelin/contracts/token/ERC20/ERC20.sol\":10409:10416  spender */\n      dup5\n        /* \"@openzeppelin/contracts/token/ERC20/ERC20.sol\":10390:10417  _allowances[owner][spender] */\n      0xffffffffffffffffffffffffffffffffffffffff\n      and\n      0xffffffffffffffffffffffffffffffffffffffff\n      and\n      dup2\n      mstore\n      0x20\n      add\n      swap1\n      dup2\n      mstore\n      0x20\n      add\n      0x00\n      keccak256\n        /* \"@openzeppelin/contracts/token/ERC20/ERC20.sol\":10390:10426  _allowances[owner][spender] = amount */\n      dup2\n      swap1\n      sstore\n      pop\n        /* \"@openzeppelin/contracts/token/ERC20/ERC20.sol\":10457:10464  spender */\n      dup2\n        /* \"@openzeppelin/contracts/token/ERC20/ERC20.sol\":10441:10473  Approval(owner, spender, amount) */\n      0xffffffffffffffffffffffffffffffffffffffff\n      and\n        /* \"@openzeppelin/contracts/token/ERC20/ERC20.sol\":10450:10455  owner */\n      dup4\n        /* \"@openzeppelin/contracts/token/ERC20/ERC20.sol\":10441:10473  Approval(owner, spender, amount) */\n      0xffffffffffffffffffffffffffffffffffffffff\n      and\n      0x8c5be1e5ebec7d5bd14f71427d1e84f3dd0314c0f7b2291e5b200ac8c7c3b925\n        /* \"@openzeppelin/contracts/token/ERC20/ERC20.sol\":10466:10472  amount */\n      dup4\n        /* \"@openzeppelin/contracts/token/ERC20/ERC20.sol\":10441:10473  Approval(owner, spender, amount) */\n      mload(0x40)\n      tag_278\n      swap2\n      swap1\n      tag_68\n      jump\t// in\n    tag_278:\n      mload(0x40)\n      dup1\n      swap2\n      sub\n      swap1\n      log3\n        /* \"@openzeppelin/contracts/token/ERC20/ERC20.sol\":10110:10480  function _approve(... */\n      pop\n      pop\n      pop\n      jump\t// out\n        /* \"@openzeppelin/contracts/access/AccessControl.sol\":3334:3437  function _checkRole(bytes32 role) internal view virtual {... */\n    tag_177:\n        /* \"@openzeppelin/contracts/access/AccessControl.sol\":3400:3430  _checkRole(role, _msgSender()) */\n      tag_280\n        /* \"@openzeppelin/contracts/access/AccessControl.sol\":3411:3415  role */\n      dup2\n        /* \"@openzeppelin/contracts/access/AccessControl.sol\":3417:3429  _msgSender() */\n      tag_281\n        /* \"@openzeppelin/contracts/access/AccessControl.sol\":3417:3427  _msgSender */\n      tag_172\n        /* \"@openzeppelin/contracts/access/AccessControl.sol\":3417:3429  _msgSender() */\n      jump\t// in\n    tag_281:\n        /* \"@openzeppelin/contracts/access/AccessControl.sol\":3400:3410  _checkRole */\n      tag_282\n        /* \"@openzeppelin/contracts/access/AccessControl.sol\":3400:3430  _checkRole(role, _msgSender()) */\n      jump\t// in\n    tag_280:\n        /* \"@openzeppelin/contracts/access/AccessControl.sol\":3334:3437  function _checkRole(bytes32 role) internal view virtual {... */\n      pop\n      jump\t// out\n        /* \"@openzeppelin/contracts/token/ERC20/ERC20.sol\":7475:8126  function _transfer(... */\n    tag_180:\n        /* \"@openzeppelin/contracts/token/ERC20/ERC20.sol\":7617:7618  0 */\n      0x00\n        /* \"@openzeppelin/contracts/token/ERC20/ERC20.sol\":7601:7619  from != address(0) */\n      0xffffffffffffffffffffffffffffffffffffffff\n      and\n        /* \"@openzeppelin/contracts/token/ERC20/ERC20.sol\":7601:7605  from */\n      dup4\n        /* \"@openzeppelin/contracts/token/ERC20/ERC20.sol\":7601:7619  from != address(0) */\n      0xffffffffffffffffffffffffffffffffffffffff\n      and\n      eq\n      iszero\n        /* \"@openzeppelin/contracts/token/ERC20/ERC20.sol\":7593:7661  require(from != address(0), \"ERC20: transfer from the zero address\") */\n      tag_284\n      jumpi\n      mload(0x40)\n      0x08c379a000000000000000000000000000000000000000000000000000000000\n      dup2\n      mstore\n      0x04\n      add\n      tag_285\n      swap1\n      tag_286\n      jump\t// in\n    tag_285:\n      mload(0x40)\n      dup1\n      swap2\n      sub\n      swap1\n      revert\n    tag_284:\n        /* \"@openzeppelin/contracts/token/ERC20/ERC20.sol\":7693:7694  0 */\n      0x00\n        /* \"@openzeppelin/contracts/token/ERC20/ERC20.sol\":7679:7695  to != address(0) */\n      0xffffffffffffffffffffffffffffffffffffffff\n      and\n        /* \"@openzeppelin/contracts/token/ERC20/ERC20.sol\":7679:7681  to */\n      dup3\n        /* \"@openzeppelin/contracts/token/ERC20/ERC20.sol\":7679:7695  to != address(0) */\n      0xffffffffffffffffffffffffffffffffffffffff\n      and\n      eq\n      iszero\n        /* \"@openzeppelin/contracts/token/ERC20/ERC20.sol\":7671:7735  require(to != address(0), \"ERC20: transfer to the zero address\") */\n      tag_287\n      jumpi\n      mload(0x40)\n      0x08c379a000000000000000000000000000000000000000000000000000000000\n      dup2\n      mstore\n      0x04\n      add\n      tag_288\n      swap1\n      tag_289\n      jump\t// in\n    tag_288:\n      mload(0x40)\n      dup1\n      swap2\n      sub\n      swap1\n      revert\n    tag_287:\n        /* \"@openzeppelin/contracts/token/ERC20/ERC20.sol\":7746:7784  _beforeTokenTransfer(from, to, amount) */\n      tag_290\n        /* \"@openzeppelin/contracts/token/ERC20/ERC20.sol\":7767:7771  from */\n      dup4\n        /* \"@openzeppelin/contracts/token/ERC20/ERC20.sol\":7773:7775  to */\n      dup4\n        /* \"@openzeppelin/contracts/token/ERC20/ERC20.sol\":7777:7783  amount */\n      dup4\n        /* \"@openzeppelin/contracts/token/ERC20/ERC20.sol\":7746:7766  _beforeTokenTransfer */\n      tag_291\n        /* \"@openzeppelin/contracts/token/ERC20/ERC20.sol\":7746:7784  _beforeTokenTransfer(from, to, amount) */\n      jump\t// in\n    tag_290:\n        /* \"@openzeppelin/contracts/token/ERC20/ERC20.sol\":7795:7814  uint256 fromBalance */\n      0x00\n        /* \"@openzeppelin/contracts/token/ERC20/ERC20.sol\":7817:7826  _balances */\n      dup1\n        /* \"@openzeppelin/contracts/token/ERC20/ERC20.sol\":7817:7832  _balances[from] */\n      0x00\n        /* \"@openzeppelin/contracts/token/ERC20/ERC20.sol\":7827:7831  from */\n      dup6\n        /* \"@openzeppelin/contracts/token/ERC20/ERC20.sol\":7817:7832  _balances[from] */\n      0xffffffffffffffffffffffffffffffffffffffff\n      and\n      0xffffffffffffffffffffffffffffffffffffffff\n      and\n      dup2\n      mstore\n      0x20\n      add\n      swap1\n      dup2\n      mstore\n      0x20\n      add\n      0x00\n      keccak256\n      sload\n        /* \"@openzeppelin/contracts/token/ERC20/ERC20.sol\":7795:7832  uint256 fromBalance = _balances[from] */\n      swap1\n      pop\n        /* \"@openzeppelin/contracts/token/ERC20/ERC20.sol\":7865:7871  amount */\n      dup2\n        /* \"@openzeppelin/contracts/token/ERC20/ERC20.sol\":7850:7861  fromBalance */\n      dup2\n        /* \"@openzeppelin/contracts/token/ERC20/ERC20.sol\":7850:7871  fromBalance >= amount */\n      lt\n      iszero\n        /* \"@openzeppelin/contracts/token/ERC20/ERC20.sol\":7842:7914  require(fromBalance >= amount, \"ERC20: transfer amount exceeds balance\") */\n      tag_292\n      jumpi\n      mload(0x40)\n      0x08c379a000000000000000000000000000000000000000000000000000000000\n      dup2\n      mstore\n      0x04\n      add\n      tag_293\n      swap1\n      tag_294\n      jump\t// in\n    tag_293:\n      mload(0x40)\n      dup1\n      swap2\n      sub\n      swap1\n      revert\n    tag_292:\n        /* \"@openzeppelin/contracts/token/ERC20/ERC20.sol\":7980:7986  amount */\n      dup2\n        /* \"@openzeppelin/contracts/token/ERC20/ERC20.sol\":7966:7977  fromBalance */\n      dup2\n        /* \"@openzeppelin/contracts/token/ERC20/ERC20.sol\":7966:7986  fromBalance - amount */\n      sub\n        /* \"@openzeppelin/contracts/token/ERC20/ERC20.sol\":7948:7957  _balances */\n      0x00\n        /* \"@openzeppelin/contracts/token/ERC20/ERC20.sol\":7948:7963  _balances[from] */\n      dup1\n        /* \"@openzeppelin/contracts/token/ERC20/ERC20.sol\":7958:7962  from */\n      dup7\n        /* \"@openzeppelin/contracts/token/ERC20/ERC20.sol\":7948:7963  _balances[from] */\n      0xffffffffffffffffffffffffffffffffffffffff\n      and\n      0xffffffffffffffffffffffffffffffffffffffff\n      and\n      dup2\n      mstore\n      0x20\n      add\n      swap1\n      dup2\n      mstore\n      0x20\n      add\n      0x00\n      keccak256\n        /* \"@openzeppelin/contracts/token/ERC20/ERC20.sol\":7948:7986  _balances[from] = fromBalance - amount */\n      dup2\n      swap1\n      sstore\n      pop\n        /* \"@openzeppelin/contracts/token/ERC20/ERC20.sol\":8023:8029  amount */\n      dup2\n        /* \"@openzeppelin/contracts/token/ERC20/ERC20.sol\":8006:8015  _balances */\n      0x00\n        /* \"@openzeppelin/contracts/token/ERC20/ERC20.sol\":8006:8019  _balances[to] */\n      dup1\n        /* \"@openzeppelin/contracts/token/ERC20/ERC20.sol\":8016:8018  to */\n      dup6\n        /* \"@openzeppelin/contracts/token/ERC20/ERC20.sol\":8006:8019  _balances[to] */\n      0xffffffffffffffffffffffffffffffffffffffff\n      and\n      0xffffffffffffffffffffffffffffffffffffffff\n      and\n      dup2\n      mstore\n      0x20\n      add\n      swap1\n      dup2\n      mstore\n      0x20\n      add\n      0x00\n      keccak256\n      0x00\n        /* \"@openzeppelin/contracts/token/ERC20/ERC20.sol\":8006:8029  _balances[to] += amount */\n      dup3\n      dup3\n      sload\n      tag_295\n      swap2\n      swap1\n      tag_208\n      jump\t// in\n    tag_295:\n      swap3\n      pop\n      pop\n      dup2\n      swap1\n      sstore\n      pop\n        /* \"@openzeppelin/contracts/token/ERC20/ERC20.sol\":8060:8062  to */\n      dup3\n        /* \"@openzeppelin/contracts/token/ERC20/ERC20.sol\":8045:8071  Transfer(from, to, amount) */\n      0xffffffffffffffffffffffffffffffffffffffff\n      and\n        /* \"@openzeppelin/contracts/token/ERC20/ERC20.sol\":8054:8058  from */\n      dup5\n        /* \"@openzeppelin/contracts/token/ERC20/ERC20.sol\":8045:8071  Transfer(from, to, amount) */\n      0xffffffffffffffffffffffffffffffffffffffff\n      and\n      0xddf252ad1be2c89b69c2b068fc378daa952ba7f163c4a11628f55a4df523b3ef\n        /* \"@openzeppelin/contracts/token/ERC20/ERC20.sol\":8064:8070  amount */\n      dup5\n        /* \"@openzeppelin/contracts/token/ERC20/ERC20.sol\":8045:8071  Transfer(from, to, amount) */\n      mload(0x40)\n      tag_296\n      swap2\n      swap1\n      tag_68\n      jump\t// in\n    tag_296:\n      mload(0x40)\n      dup1\n      swap2\n      sub\n      swap1\n      log3\n        /* \"@openzeppelin/contracts/token/ERC20/ERC20.sol\":8082:8119  _afterTokenTransfer(from, to, amount) */\n      tag_297\n        /* \"@openzeppelin/contracts/token/ERC20/ERC20.sol\":8102:8106  from */\n      dup5\n        /* \"@openzeppelin/contracts/token/ERC20/ERC20.sol\":8108:8110  to */\n      dup5\n        /* \"@openzeppelin/contracts/token/ERC20/ERC20.sol\":8112:8118  amount */\n      dup5\n        /* \"@openzeppelin/contracts/token/ERC20/ERC20.sol\":8082:8101  _afterTokenTransfer */\n      tag_298\n        /* \"@openzeppelin/contracts/token/ERC20/ERC20.sol\":8082:8119  _afterTokenTransfer(from, to, amount) */\n      jump\t// in\n    tag_297:\n        /* \"@openzeppelin/contracts/token/ERC20/ERC20.sol\":7475:8126  function _transfer(... */\n      pop\n      pop\n      pop\n      pop\n      jump\t// out\n        /* \"@openzeppelin/contracts/token/ERC20/ERC20.sol\":10761:11202  function _spendAllowance(... */\n    tag_186:\n        /* \"@openzeppelin/contracts/token/ERC20/ERC20.sol\":10891:10915  uint256 currentAllowance */\n      0x00\n        /* \"@openzeppelin/contracts/token/ERC20/ERC20.sol\":10918:10943  allowance(owner, spender) */\n      tag_300\n        /* \"@openzeppelin/contracts/token/ERC20/ERC20.sol\":10928:10933  owner */\n      dup5\n        /* \"@openzeppelin/contracts/token/ERC20/ERC20.sol\":10935:10942  spender */\n      dup5\n        /* \"@openzeppelin/contracts/token/ERC20/ERC20.sol\":10918:10927  allowance */\n      tag_149\n        /* \"@openzeppelin/contracts/token/ERC20/ERC20.sol\":10918:10943  allowance(owner, spender) */\n      jump\t// in\n    tag_300:\n        /* \"@openzeppelin/contracts/token/ERC20/ERC20.sol\":10891:10943  uint256 currentAllowance = allowance(owner, spender) */\n      swap1\n      pop\n        /* \"@openzeppelin/contracts/token/ERC20/ERC20.sol\":10977:10994  type(uint256).max */\n      0xffffffffffffffffffffffffffffffffffffffffffffffffffffffffffffffff\n        /* \"@openzeppelin/contracts/token/ERC20/ERC20.sol\":10957:10973  currentAllowance */\n      dup2\n        /* \"@openzeppelin/contracts/token/ERC20/ERC20.sol\":10957:10994  currentAllowance != type(uint256).max */\n      eq\n        /* \"@openzeppelin/contracts/token/ERC20/ERC20.sol\":10953:11196  if (currentAllowance != type(uint256).max) {... */\n      tag_301\n      jumpi\n        /* \"@openzeppelin/contracts/token/ERC20/ERC20.sol\":11038:11044  amount */\n      dup2\n        /* \"@openzeppelin/contracts/token/ERC20/ERC20.sol\":11018:11034  currentAllowance */\n      dup2\n        /* \"@openzeppelin/contracts/token/ERC20/ERC20.sol\":11018:11044  currentAllowance >= amount */\n      lt\n      iszero\n        /* \"@openzeppelin/contracts/token/ERC20/ERC20.sol\":11010:11078  require(currentAllowance >= amount, \"ERC20: insufficient allowance\") */\n      tag_302\n      jumpi\n      mload(0x40)\n      0x08c379a000000000000000000000000000000000000000000000000000000000\n      dup2\n      mstore\n      0x04\n      add\n      tag_303\n      swap1\n      tag_304\n      jump\t// in\n    tag_303:\n      mload(0x40)\n      dup1\n      swap2\n      sub\n      swap1\n      revert\n    tag_302:\n        /* \"@openzeppelin/contracts/token/ERC20/ERC20.sol\":11120:11171  _approve(owner, spender, currentAllowance - amount) */\n      tag_305\n        /* \"@openzeppelin/contracts/token/ERC20/ERC20.sol\":11129:11134  owner */\n      dup5\n        /* \"@openzeppelin/contracts/token/ERC20/ERC20.sol\":11136:11143  spender */\n      dup5\n        /* \"@openzeppelin/contracts/token/ERC20/ERC20.sol\":11164:11170  amount */\n      dup5\n        /* \"@openzeppelin/contracts/token/ERC20/ERC20.sol\":11145:11161  currentAllowance */\n      dup5\n        /* \"@openzeppelin/contracts/token/ERC20/ERC20.sol\":11145:11170  currentAllowance - amount */\n      sub\n        /* \"@openzeppelin/contracts/token/ERC20/ERC20.sol\":11120:11128  _approve */\n      tag_174\n        /* \"@openzeppelin/contracts/token/ERC20/ERC20.sol\":11120:11171  _approve(owner, spender, currentAllowance - amount) */\n      jump\t// in\n    tag_305:\n        /* \"@openzeppelin/contracts/token/ERC20/ERC20.sol\":10953:11196  if (currentAllowance != type(uint256).max) {... */\n    tag_301:\n        /* \"@openzeppelin/contracts/token/ERC20/ERC20.sol\":10761:11202  function _spendAllowance(... */\n      pop\n      pop\n      pop\n      pop\n      jump\t// out\n        /* \"@openzeppelin/contracts/access/AccessControl.sol\":7474:7707  function _grantRole(bytes32 role, address account) internal virtual {... */\n    tag_194:\n        /* \"@openzeppelin/contracts/access/AccessControl.sol\":7557:7579  hasRole(role, account) */\n      tag_307\n        /* \"@openzeppelin/contracts/access/AccessControl.sol\":7565:7569  role */\n      dup3\n        /* \"@openzeppelin/contracts/access/AccessControl.sol\":7571:7578  account */\n      dup3\n        /* \"@openzeppelin/contracts/access/AccessControl.sol\":7557:7564  hasRole */\n      tag_117\n        /* \"@openzeppelin/contracts/access/AccessControl.sol\":7557:7579  hasRole(role, account) */\n      jump\t// in\n    tag_307:\n        /* \"@openzeppelin/contracts/access/AccessControl.sol\":7552:7701  if (!hasRole(role, account)) {... */\n      tag_308\n      jumpi\n        /* \"@openzeppelin/contracts/access/AccessControl.sol\":7627:7631  true */\n      0x01\n        /* \"@openzeppelin/contracts/access/AccessControl.sol\":7595:7601  _roles */\n      0x06\n        /* \"@openzeppelin/contracts/access/AccessControl.sol\":7595:7607  _roles[role] */\n      0x00\n        /* \"@openzeppelin/contracts/access/AccessControl.sol\":7602:7606  role */\n      dup5\n        /* \"@openzeppelin/contracts/access/AccessControl.sol\":7595:7607  _roles[role] */\n      dup2\n      mstore\n      0x20\n      add\n      swap1\n      dup2\n      mstore\n      0x20\n      add\n      0x00\n      keccak256\n        /* \"@openzeppelin/contracts/access/AccessControl.sol\":7595:7615  _roles[role].members */\n      0x00\n      add\n        /* \"@openzeppelin/contracts/access/AccessControl.sol\":7595:7624  _roles[role].members[account] */\n      0x00\n        /* \"@openzeppelin/contracts/access/AccessControl.sol\":7616:7623  account */\n      dup4\n        /* \"@openzeppelin/contracts/access/AccessControl.sol\":7595:7624  _roles[role].members[account] */\n      0xffffffffffffffffffffffffffffffffffffffff\n      and\n      0xffffffffffffffffffffffffffffffffffffffff\n      and\n      dup2\n      mstore\n      0x20\n      add\n      swap1\n      dup2\n      mstore\n      0x20\n      add\n      0x00\n      keccak256\n      0x00\n        /* \"@openzeppelin/contracts/access/AccessControl.sol\":7595:7631  _roles[role].members[account] = true */\n      0x0100\n      exp\n      dup2\n      sload\n      dup2\n      0xff\n      mul\n      not\n      and\n      swap1\n      dup4\n      iszero\n      iszero\n      mul\n      or\n      swap1\n      sstore\n      pop\n        /* \"@openzeppelin/contracts/access/AccessControl.sol\":7677:7689  _msgSender() */\n      tag_309\n        /* \"@openzeppelin/contracts/access/AccessControl.sol\":7677:7687  _msgSender */\n      tag_172\n        /* \"@openzeppelin/contracts/access/AccessControl.sol\":7677:7689  _msgSender() */\n      jump\t// in\n    tag_309:\n        /* \"@openzeppelin/contracts/access/AccessControl.sol\":7650:7690  RoleGranted(role, account, _msgSender()) */\n      0xffffffffffffffffffffffffffffffffffffffff\n      and\n        /* \"@openzeppelin/contracts/access/AccessControl.sol\":7668:7675  account */\n      dup2\n        /* \"@openzeppelin/contracts/access/AccessControl.sol\":7650:7690  RoleGranted(role, account, _msgSender()) */\n      0xffffffffffffffffffffffffffffffffffffffff\n      and\n        /* \"@openzeppelin/contracts/access/AccessControl.sol\":7662:7666  role */\n      dup4\n        /* \"@openzeppelin/contracts/access/AccessControl.sol\":7650:7690  RoleGranted(role, account, _msgSender()) */\n      0x2f8788117e7eff1d82e926ec794901d17c78024a50270940304540a733656f0d\n      mload(0x40)\n      mload(0x40)\n      dup1\n      swap2\n      sub\n      swap1\n      log4\n        /* \"@openzeppelin/contracts/access/AccessControl.sol\":7552:7701  if (!hasRole(role, account)) {... */\n    tag_308:\n        /* \"@openzeppelin/contracts/access/AccessControl.sol\":7474:7707  function _grantRole(bytes32 role, address account) internal virtual {... */\n      pop\n      pop\n      jump\t// out\n        /* \"@openzeppelin/contracts/access/AccessControl.sol\":7878:8112  function _revokeRole(bytes32 role, address account) internal virtual {... */\n    tag_202:\n        /* \"@openzeppelin/contracts/access/AccessControl.sol\":7961:7983  hasRole(role, account) */\n      tag_311\n        /* \"@openzeppelin/contracts/access/AccessControl.sol\":7969:7973  role */\n      dup3\n        /* \"@openzeppelin/contracts/access/AccessControl.sol\":7975:7982  account */\n      dup3\n        /* \"@openzeppelin/contracts/access/AccessControl.sol\":7961:7968  hasRole */\n      tag_117\n        /* \"@openzeppelin/contracts/access/AccessControl.sol\":7961:7983  hasRole(role, account) */\n      jump\t// in\n    tag_311:\n        /* \"@openzeppelin/contracts/access/AccessControl.sol\":7957:8106  if (hasRole(role, account)) {... */\n      iszero\n      tag_312\n      jumpi\n        /* \"@openzeppelin/contracts/access/AccessControl.sol\":8031:8036  false */\n      0x00\n        /* \"@openzeppelin/contracts/access/AccessControl.sol\":7999:8005  _roles */\n      0x06\n        /* \"@openzeppelin/contracts/access/AccessControl.sol\":7999:8011  _roles[role] */\n      0x00\n        /* \"@openzeppelin/contracts/access/AccessControl.sol\":8006:8010  role */\n      dup5\n        /* \"@openzeppelin/contracts/access/AccessControl.sol\":7999:8011  _roles[role] */\n      dup2\n      mstore\n      0x20\n      add\n      swap1\n      dup2\n      mstore\n      0x20\n      add\n      0x00\n      keccak256\n        /* \"@openzeppelin/contracts/access/AccessControl.sol\":7999:8019  _roles[role].members */\n      0x00\n      add\n        /* \"@openzeppelin/contracts/access/AccessControl.sol\":7999:8028  _roles[role].members[account] */\n      0x00\n        /* \"@openzeppelin/contracts/access/AccessControl.sol\":8020:8027  account */\n      dup4\n        /* \"@openzeppelin/contracts/access/AccessControl.sol\":7999:8028  _roles[role].members[account] */\n      0xffffffffffffffffffffffffffffffffffffffff\n      and\n      0xffffffffffffffffffffffffffffffffffffffff\n      and\n      dup2\n      mstore\n      0x20\n      add\n      swap1\n      dup2\n      mstore\n      0x20\n      add\n      0x00\n      keccak256\n      0x00\n        /* \"@openzeppelin/contracts/access/AccessControl.sol\":7999:8036  _roles[role].members[account] = false */\n      0x0100\n      exp\n      dup2\n      sload\n      dup2\n      0xff\n      mul\n      not\n      and\n      swap1\n      dup4\n      iszero\n      iszero\n      mul\n      or\n      swap1\n      sstore\n      pop\n        /* \"@openzeppelin/contracts/access/AccessControl.sol\":8082:8094  _msgSender() */\n      tag_313\n        /* \"@openzeppelin/contracts/access/AccessControl.sol\":8082:8092  _msgSender */\n      tag_172\n        /* \"@openzeppelin/contracts/access/AccessControl.sol\":8082:8094  _msgSender() */\n      jump\t// in\n    tag_313:\n        /* \"@openzeppelin/contracts/access/AccessControl.sol\":8055:8095  RoleRevoked(role, account, _msgSender()) */\n      0xffffffffffffffffffffffffffffffffffffffff\n      and\n        /* \"@openzeppelin/contracts/access/AccessControl.sol\":8073:8080  account */\n      dup2\n        /* \"@openzeppelin/contracts/access/AccessControl.sol\":8055:8095  RoleRevoked(role, account, _msgSender()) */\n      0xffffffffffffffffffffffffffffffffffffffff\n      and\n        /* \"@openzeppelin/contracts/access/AccessControl.sol\":8067:8071  role */\n      dup4\n        /* \"@openzeppelin/contracts/access/AccessControl.sol\":8055:8095  RoleRevoked(role, account, _msgSender()) */\n      0xf6391f5c32d9c69d2a47ea670b442974b53935d1edc7fd64eb21e047a839171b\n      mload(0x40)\n      mload(0x40)\n      dup1\n      swap2\n      sub\n      swap1\n      log4\n        /* \"@openzeppelin/contracts/access/AccessControl.sol\":7957:8106  if (hasRole(role, account)) {... */\n    tag_312:\n        /* \"@openzeppelin/contracts/access/AccessControl.sol\":7878:8112  function _revokeRole(bytes32 role, address account) internal virtual {... */\n      pop\n      pop\n      jump\t// out\n        /* \"@openzeppelin/contracts/security/Pausable.sol\":2433:2550  function _unpause() internal virtual whenPaused {... */\n    tag_213:\n        /* \"@openzeppelin/contracts/security/Pausable.sol\":1486:1502  _requirePaused() */\n      tag_315\n        /* \"@openzeppelin/contracts/security/Pausable.sol\":1486:1500  _requirePaused */\n      tag_316\n        /* \"@openzeppelin/contracts/security/Pausable.sol\":1486:1502  _requirePaused() */\n      jump\t// in\n    tag_315:\n        /* \"@openzeppelin/contracts/security/Pausable.sol\":2501:2506  false */\n      0x00\n        /* \"@openzeppelin/contracts/security/Pausable.sol\":2491:2498  _paused */\n      0x05\n      0x00\n        /* \"@openzeppelin/contracts/security/Pausable.sol\":2491:2506  _paused = false */\n      0x0100\n      exp\n      dup2\n      sload\n      dup2\n      0xff\n      mul\n      not\n      and\n      swap1\n      dup4\n      iszero\n      iszero\n      mul\n      or\n      swap1\n      sstore\n      pop\n        /* \"@openzeppelin/contracts/security/Pausable.sol\":2521:2543  Unpaused(_msgSender()) */\n      0x5db9ee0a495bf2e6ff9c91a7834c1ba4fdd244a5e8aa4e537bd38aeae4b073aa\n        /* \"@openzeppelin/contracts/security/Pausable.sol\":2530:2542  _msgSender() */\n      tag_318\n        /* \"@openzeppelin/contracts/security/Pausable.sol\":2530:2540  _msgSender */\n      tag_172\n        /* \"@openzeppelin/contracts/security/Pausable.sol\":2530:2542  _msgSender() */\n      jump\t// in\n    tag_318:\n        /* \"@openzeppelin/contracts/security/Pausable.sol\":2521:2543  Unpaused(_msgSender()) */\n      mload(0x40)\n      tag_319\n      swap2\n      swap1\n      tag_320\n      jump\t// in\n    tag_319:\n      mload(0x40)\n      dup1\n      swap2\n      sub\n      swap1\n      log1\n        /* \"@openzeppelin/contracts/security/Pausable.sol\":2433:2550  function _unpause() internal virtual whenPaused {... */\n      jump\t// out\n        /* \"@openzeppelin/contracts/token/ERC20/ERC20.sol\":8402:8791  function _mint(address account, uint256 amount) internal virtual {... */\n    tag_223:\n        /* \"@openzeppelin/contracts/token/ERC20/ERC20.sol\":8504:8505  0 */\n      0x00\n        /* \"@openzeppelin/contracts/token/ERC20/ERC20.sol\":8485:8506  account != address(0) */\n      0xffffffffffffffffffffffffffffffffffffffff\n      and\n        /* \"@openzeppelin/contracts/token/ERC20/ERC20.sol\":8485:8492  account */\n      dup3\n        /* \"@openzeppelin/contracts/token/ERC20/ERC20.sol\":8485:8506  account != address(0) */\n      0xffffffffffffffffffffffffffffffffffffffff\n      and\n      eq\n      iszero\n        /* \"@openzeppelin/contracts/token/ERC20/ERC20.sol\":8477:8542  require(account != address(0), \"ERC20: mint to the zero address\") */\n      tag_322\n      jumpi\n      mload(0x40)\n      0x08c379a000000000000000000000000000000000000000000000000000000000\n      dup2\n      mstore\n      0x04\n      add\n      tag_323\n      swap1\n      tag_324\n      jump\t// in\n    tag_323:\n      mload(0x40)\n      dup1\n      swap2\n      sub\n      swap1\n      revert\n    tag_322:\n        /* \"@openzeppelin/contracts/token/ERC20/ERC20.sol\":8553:8602  _beforeTokenTransfer(address(0), account, amount) */\n      tag_325\n        /* \"@openzeppelin/contracts/token/ERC20/ERC20.sol\":8582:8583  0 */\n      0x00\n        /* \"@openzeppelin/contracts/token/ERC20/ERC20.sol\":8586:8593  account */\n      dup4\n        /* \"@openzeppelin/contracts/token/ERC20/ERC20.sol\":8595:8601  amount */\n      dup4\n        /* \"@openzeppelin/contracts/token/ERC20/ERC20.sol\":8553:8573  _beforeTokenTransfer */\n      tag_291\n        /* \"@openzeppelin/contracts/token/ERC20/ERC20.sol\":8553:8602  _beforeTokenTransfer(address(0), account, amount) */\n      jump\t// in\n    tag_325:\n        /* \"@openzeppelin/contracts/token/ERC20/ERC20.sol\":8629:8635  amount */\n      dup1\n        /* \"@openzeppelin/contracts/token/ERC20/ERC20.sol\":8613:8625  _totalSupply */\n      0x02\n      0x00\n        /* \"@openzeppelin/contracts/token/ERC20/ERC20.sol\":8613:8635  _totalSupply += amount */\n      dup3\n      dup3\n      sload\n      tag_326\n      swap2\n      swap1\n      tag_208\n      jump\t// in\n    tag_326:\n      swap3\n      pop\n      pop\n      dup2\n      swap1\n      sstore\n      pop\n        /* \"@openzeppelin/contracts/token/ERC20/ERC20.sol\":8667:8673  amount */\n      dup1\n        /* \"@openzeppelin/contracts/token/ERC20/ERC20.sol\":8645:8654  _balances */\n      0x00\n        /* \"@openzeppelin/contracts/token/ERC20/ERC20.sol\":8645:8663  _balances[account] */\n      dup1\n        /* \"@openzeppelin/contracts/token/ERC20/ERC20.sol\":8655:8662  account */\n      dup5\n        /* \"@openzeppelin/contracts/token/ERC20/ERC20.sol\":8645:8663  _balances[account] */\n      0xffffffffffffffffffffffffffffffffffffffff\n      and\n      0xffffffffffffffffffffffffffffffffffffffff\n      and\n      dup2\n      mstore\n      0x20\n      add\n      swap1\n      dup2\n      mstore\n      0x20\n      add\n      0x00\n      keccak256\n      0x00\n        /* \"@openzeppelin/contracts/token/ERC20/ERC20.sol\":8645:8673  _balances[account] += amount */\n      dup3\n      dup3\n      sload\n      tag_327\n      swap2\n      swap1\n      tag_208\n      jump\t// in\n    tag_327:\n      swap3\n      pop\n      pop\n      dup2\n      swap1\n      sstore\n      pop\n        /* \"@openzeppelin/contracts/token/ERC20/ERC20.sol\":8709:8716  account */\n      dup2\n        /* \"@openzeppelin/contracts/token/ERC20/ERC20.sol\":8688:8725  Transfer(address(0), account, amount) */\n      0xffffffffffffffffffffffffffffffffffffffff\n      and\n        /* \"@openzeppelin/contracts/token/ERC20/ERC20.sol\":8705:8706  0 */\n      0x00\n        /* \"@openzeppelin/contracts/token/ERC20/ERC20.sol\":8688:8725  Transfer(address(0), account, amount) */\n      0xffffffffffffffffffffffffffffffffffffffff\n      and\n      0xddf252ad1be2c89b69c2b068fc378daa952ba7f163c4a11628f55a4df523b3ef\n        /* \"@openzeppelin/contracts/token/ERC20/ERC20.sol\":8718:8724  amount */\n      dup4\n        /* \"@openzeppelin/contracts/token/ERC20/ERC20.sol\":8688:8725  Transfer(address(0), account, amount) */\n      mload(0x40)\n      tag_328\n      swap2\n      swap1\n      tag_68\n      jump\t// in\n    tag_328:\n      mload(0x40)\n      dup1\n      swap2\n      sub\n      swap1\n      log3\n        /* \"@openzeppelin/contracts/token/ERC20/ERC20.sol\":8736:8784  _afterTokenTransfer(address(0), account, amount) */\n      tag_329\n        /* \"@openzeppelin/contracts/token/ERC20/ERC20.sol\":8764:8765  0 */\n      0x00\n        /* \"@openzeppelin/contracts/token/ERC20/ERC20.sol\":8768:8775  account */\n      dup4\n        /* \"@openzeppelin/contracts/token/ERC20/ERC20.sol\":8777:8783  amount */\n      dup4\n        /* \"@openzeppelin/contracts/token/ERC20/ERC20.sol\":8736:8755  _afterTokenTransfer */\n      tag_298\n        /* \"@openzeppelin/contracts/token/ERC20/ERC20.sol\":8736:8784  _afterTokenTransfer(address(0), account, amount) */\n      jump\t// in\n    tag_329:\n        /* \"@openzeppelin/contracts/token/ERC20/ERC20.sol\":8402:8791  function _mint(address account, uint256 amount) internal virtual {... */\n      pop\n      pop\n      jump\t// out\n        /* \"@openzeppelin/contracts/token/ERC20/ERC20.sol\":9111:9687  function _burn(address account, uint256 amount) internal virtual {... */\n    tag_227:\n        /* \"@openzeppelin/contracts/token/ERC20/ERC20.sol\":9213:9214  0 */\n      0x00\n        /* \"@openzeppelin/contracts/token/ERC20/ERC20.sol\":9194:9215  account != address(0) */\n      0xffffffffffffffffffffffffffffffffffffffff\n      and\n        /* \"@openzeppelin/contracts/token/ERC20/ERC20.sol\":9194:9201  account */\n      dup3\n        /* \"@openzeppelin/contracts/token/ERC20/ERC20.sol\":9194:9215  account != address(0) */\n      0xffffffffffffffffffffffffffffffffffffffff\n      and\n      eq\n      iszero\n        /* \"@openzeppelin/contracts/token/ERC20/ERC20.sol\":9186:9253  require(account != address(0), \"ERC20: burn from the zero address\") */\n      tag_331\n      jumpi\n      mload(0x40)\n      0x08c379a000000000000000000000000000000000000000000000000000000000\n      dup2\n      mstore\n      0x04\n      add\n      tag_332\n      swap1\n      tag_333\n      jump\t// in\n    tag_332:\n      mload(0x40)\n      dup1\n      swap2\n      sub\n      swap1\n      revert\n    tag_331:\n        /* \"@openzeppelin/contracts/token/ERC20/ERC20.sol\":9264:9313  _beforeTokenTransfer(account, address(0), amount) */\n      tag_334\n        /* \"@openzeppelin/contracts/token/ERC20/ERC20.sol\":9285:9292  account */\n      dup3\n        /* \"@openzeppelin/contracts/token/ERC20/ERC20.sol\":9302:9303  0 */\n      0x00\n        /* \"@openzeppelin/contracts/token/ERC20/ERC20.sol\":9306:9312  amount */\n      dup4\n        /* \"@openzeppelin/contracts/token/ERC20/ERC20.sol\":9264:9284  _beforeTokenTransfer */\n      tag_291\n        /* \"@openzeppelin/contracts/token/ERC20/ERC20.sol\":9264:9313  _beforeTokenTransfer(account, address(0), amount) */\n      jump\t// in\n    tag_334:\n        /* \"@openzeppelin/contracts/token/ERC20/ERC20.sol\":9324:9346  uint256 accountBalance */\n      0x00\n        /* \"@openzeppelin/contracts/token/ERC20/ERC20.sol\":9349:9358  _balances */\n      dup1\n        /* \"@openzeppelin/contracts/token/ERC20/ERC20.sol\":9349:9367  _balances[account] */\n      0x00\n        /* \"@openzeppelin/contracts/token/ERC20/ERC20.sol\":9359:9366  account */\n      dup5\n        /* \"@openzeppelin/contracts/token/ERC20/ERC20.sol\":9349:9367  _balances[account] */\n      0xffffffffffffffffffffffffffffffffffffffff\n      and\n      0xffffffffffffffffffffffffffffffffffffffff\n      and\n      dup2\n      mstore\n      0x20\n      add\n      swap1\n      dup2\n      mstore\n      0x20\n      add\n      0x00\n      keccak256\n      sload\n        /* \"@openzeppelin/contracts/token/ERC20/ERC20.sol\":9324:9367  uint256 accountBalance = _balances[account] */\n      swap1\n      pop\n        /* \"@openzeppelin/contracts/token/ERC20/ERC20.sol\":9403:9409  amount */\n      dup2\n        /* \"@openzeppelin/contracts/token/ERC20/ERC20.sol\":9385:9399  accountBalance */\n      dup2\n        /* \"@openzeppelin/contracts/token/ERC20/ERC20.sol\":9385:9409  accountBalance >= amount */\n      lt\n      iszero\n        /* \"@openzeppelin/contracts/token/ERC20/ERC20.sol\":9377:9448  require(accountBalance >= amount, \"ERC20: burn amount exceeds balance\") */\n      tag_335\n      jumpi\n      mload(0x40)\n      0x08c379a000000000000000000000000000000000000000000000000000000000\n      dup2\n      mstore\n      0x04\n      add\n      tag_336\n      swap1\n      tag_337\n      jump\t// in\n    tag_336:\n      mload(0x40)\n      dup1\n      swap2\n      sub\n      swap1\n      revert\n    tag_335:\n        /* \"@openzeppelin/contracts/token/ERC20/ERC20.sol\":9520:9526  amount */\n      dup2\n        /* \"@openzeppelin/contracts/token/ERC20/ERC20.sol\":9503:9517  accountBalance */\n      dup2\n        /* \"@openzeppelin/contracts/token/ERC20/ERC20.sol\":9503:9526  accountBalance - amount */\n      sub\n        /* \"@openzeppelin/contracts/token/ERC20/ERC20.sol\":9482:9491  _balances */\n      0x00\n        /* \"@openzeppelin/contracts/token/ERC20/ERC20.sol\":9482:9500  _balances[account] */\n      dup1\n        /* \"@openzeppelin/contracts/token/ERC20/ERC20.sol\":9492:9499  account */\n      dup6\n        /* \"@openzeppelin/contracts/token/ERC20/ERC20.sol\":9482:9500  _balances[account] */\n      0xffffffffffffffffffffffffffffffffffffffff\n      and\n      0xffffffffffffffffffffffffffffffffffffffff\n      and\n      dup2\n      mstore\n      0x20\n      add\n      swap1\n      dup2\n      mstore\n      0x20\n      add\n      0x00\n      keccak256\n        /* \"@openzeppelin/contracts/token/ERC20/ERC20.sol\":9482:9526  _balances[account] = accountBalance - amount */\n      dup2\n      swap1\n      sstore\n      pop\n        /* \"@openzeppelin/contracts/token/ERC20/ERC20.sol\":9562:9568  amount */\n      dup2\n        /* \"@openzeppelin/contracts/token/ERC20/ERC20.sol\":9546:9558  _totalSupply */\n      0x02\n      0x00\n        /* \"@openzeppelin/contracts/token/ERC20/ERC20.sol\":9546:9568  _totalSupply -= amount */\n      dup3\n      dup3\n      sload\n      tag_338\n      swap2\n      swap1\n      tag_339\n      jump\t// in\n    tag_338:\n      swap3\n      pop\n      pop\n      dup2\n      swap1\n      sstore\n      pop\n        /* \"@openzeppelin/contracts/token/ERC20/ERC20.sol\":9610:9611  0 */\n      0x00\n        /* \"@openzeppelin/contracts/token/ERC20/ERC20.sol\":9584:9621  Transfer(account, address(0), amount) */\n      0xffffffffffffffffffffffffffffffffffffffff\n      and\n        /* \"@openzeppelin/contracts/token/ERC20/ERC20.sol\":9593:9600  account */\n      dup4\n        /* \"@openzeppelin/contracts/token/ERC20/ERC20.sol\":9584:9621  Transfer(account, address(0), amount) */\n      0xffffffffffffffffffffffffffffffffffffffff\n      and\n      0xddf252ad1be2c89b69c2b068fc378daa952ba7f163c4a11628f55a4df523b3ef\n        /* \"@openzeppelin/contracts/token/ERC20/ERC20.sol\":9614:9620  amount */\n      dup5\n        /* \"@openzeppelin/contracts/token/ERC20/ERC20.sol\":9584:9621  Transfer(account, address(0), amount) */\n      mload(0x40)\n      tag_340\n      swap2\n      swap1\n      tag_68\n      jump\t// in\n    tag_340:\n      mload(0x40)\n      dup1\n      swap2\n      sub\n      swap1\n      log3\n        /* \"@openzeppelin/contracts/token/ERC20/ERC20.sol\":9632:9680  _afterTokenTransfer(account, address(0), amount) */\n      tag_341\n        /* \"@openzeppelin/contracts/token/ERC20/ERC20.sol\":9652:9659  account */\n      dup4\n        /* \"@openzeppelin/contracts/token/ERC20/ERC20.sol\":9669:9670  0 */\n      0x00\n        /* \"@openzeppelin/contracts/token/ERC20/ERC20.sol\":9673:9679  amount */\n      dup5\n        /* \"@openzeppelin/contracts/token/ERC20/ERC20.sol\":9632:9651  _afterTokenTransfer */\n      tag_298\n        /* \"@openzeppelin/contracts/token/ERC20/ERC20.sol\":9632:9680  _afterTokenTransfer(account, address(0), amount) */\n      jump\t// in\n    tag_341:\n        /* \"@openzeppelin/contracts/token/ERC20/ERC20.sol\":9111:9687  function _burn(address account, uint256 amount) internal virtual {... */\n      pop\n      pop\n      pop\n      jump\t// out\n        /* \"@openzeppelin/contracts/security/Pausable.sol\":2186:2301  function _pause() internal virtual whenNotPaused {... */\n    tag_238:\n        /* \"@openzeppelin/contracts/security/Pausable.sol\":1239:1258  _requireNotPaused() */\n      tag_343\n        /* \"@openzeppelin/contracts/security/Pausable.sol\":1239:1256  _requireNotPaused */\n      tag_344\n        /* \"@openzeppelin/contracts/security/Pausable.sol\":1239:1258  _requireNotPaused() */\n      jump\t// in\n    tag_343:\n        /* \"@openzeppelin/contracts/security/Pausable.sol\":2255:2259  true */\n      0x01\n        /* \"@openzeppelin/contracts/security/Pausable.sol\":2245:2252  _paused */\n      0x05\n      0x00\n        /* \"@openzeppelin/contracts/security/Pausable.sol\":2245:2259  _paused = true */\n      0x0100\n      exp\n      dup2\n      sload\n      dup2\n      0xff\n      mul\n      not\n      and\n      swap1\n      dup4\n      iszero\n      iszero\n      mul\n      or\n      swap1\n      sstore\n      pop\n        /* \"@openzeppelin/contracts/security/Pausable.sol\":2274:2294  Paused(_msgSender()) */\n      0x62e78cea01bee320cd4e420270b5ea74000d11b0c9f74754ebdbfc544b05a258\n        /* \"@openzeppelin/contracts/security/Pausable.sol\":2281:2293  _msgSender() */\n      tag_346\n        /* \"@openzeppelin/contracts/security/Pausable.sol\":2281:2291  _msgSender */\n      tag_172\n        /* \"@openzeppelin/contracts/security/Pausable.sol\":2281:2293  _msgSender() */\n      jump\t// in\n    tag_346:\n        /* \"@openzeppelin/contracts/security/Pausable.sol\":2274:2294  Paused(_msgSender()) */\n      mload(0x40)\n      tag_347\n      swap2\n      swap1\n      tag_320\n      jump\t// in\n    tag_347:\n      mload(0x40)\n      dup1\n      swap2\n      sub\n      swap1\n      log1\n        /* \"@openzeppelin/contracts/security/Pausable.sol\":2186:2301  function _pause() internal virtual whenNotPaused {... */\n      jump\t// out\n        /* \"@openzeppelin/contracts/access/AccessControl.sol\":3718:4210  function _checkRole(bytes32 role, address account) internal view virtual {... */\n    tag_282:\n        /* \"@openzeppelin/contracts/access/AccessControl.sol\":3806:3828  hasRole(role, account) */\n      tag_349\n        /* \"@openzeppelin/contracts/access/AccessControl.sol\":3814:3818  role */\n      dup3\n        /* \"@openzeppelin/contracts/access/AccessControl.sol\":3820:3827  account */\n      dup3\n        /* \"@openzeppelin/contracts/access/AccessControl.sol\":3806:3813  hasRole */\n      tag_117\n        /* \"@openzeppelin/contracts/access/AccessControl.sol\":3806:3828  hasRole(role, account) */\n      jump\t// in\n    tag_349:\n        /* \"@openzeppelin/contracts/access/AccessControl.sol\":3801:4204  if (!hasRole(role, account)) {... */\n      tag_350\n      jumpi\n        /* \"@openzeppelin/contracts/access/AccessControl.sol\":3989:4030  Strings.toHexString(uint160(account), 20) */\n      tag_351\n        /* \"@openzeppelin/contracts/access/AccessControl.sol\":4017:4024  account */\n      dup2\n        /* \"@openzeppelin/contracts/access/AccessControl.sol\":3989:4030  Strings.toHexString(uint160(account), 20) */\n      0xffffffffffffffffffffffffffffffffffffffff\n      and\n        /* \"@openzeppelin/contracts/access/AccessControl.sol\":4027:4029  20 */\n      0x14\n        /* \"@openzeppelin/contracts/access/AccessControl.sol\":3989:4008  Strings.toHexString */\n      tag_352\n        /* \"@openzeppelin/contracts/access/AccessControl.sol\":3989:4030  Strings.toHexString(uint160(account), 20) */\n      jump\t// in\n    tag_351:\n        /* \"@openzeppelin/contracts/access/AccessControl.sol\":4101:4139  Strings.toHexString(uint256(role), 32) */\n      tag_353\n        /* \"@openzeppelin/contracts/access/AccessControl.sol\":4129:4133  role */\n      dup4\n        /* \"@openzeppelin/contracts/access/AccessControl.sol\":4121:4134  uint256(role) */\n      0x00\n      shr\n        /* \"@openzeppelin/contracts/access/AccessControl.sol\":4136:4138  32 */\n      0x20\n        /* \"@openzeppelin/contracts/access/AccessControl.sol\":4101:4120  Strings.toHexString */\n      tag_352\n        /* \"@openzeppelin/contracts/access/AccessControl.sol\":4101:4139  Strings.toHexString(uint256(role), 32) */\n      jump\t// in\n    tag_353:\n        /* \"@openzeppelin/contracts/access/AccessControl.sol\":3896:4161  abi.encodePacked(... */\n      add(0x20, mload(0x40))\n      tag_354\n      swap3\n      swap2\n      swap1\n      tag_355\n      jump\t// in\n    tag_354:\n      mload(0x40)\n      0x20\n      dup2\n      dup4\n      sub\n      sub\n      dup2\n      mstore\n      swap1\n      0x40\n      mstore\n        /* \"@openzeppelin/contracts/access/AccessControl.sol\":3844:4193  revert(... */\n      mload(0x40)\n      0x08c379a000000000000000000000000000000000000000000000000000000000\n      dup2\n      mstore\n      0x04\n      add\n      tag_356\n      swap2\n      swap1\n      tag_50\n      jump\t// in\n    tag_356:\n      mload(0x40)\n      dup1\n      swap2\n      sub\n      swap1\n      revert\n        /* \"@openzeppelin/contracts/access/AccessControl.sol\":3801:4204  if (!hasRole(role, account)) {... */\n    tag_350:\n        /* \"@openzeppelin/contracts/access/AccessControl.sol\":3718:4210  function _checkRole(bytes32 role, address account) internal view virtual {... */\n      pop\n      pop\n      jump\t// out\n        /* \"contracts/SampleERC20.sol\":2069:2342  function _beforeTokenTransfer(address from, address to, uint256 amount)... */\n    tag_291:\n        /* \"@openzeppelin/contracts/security/Pausable.sol\":1239:1258  _requireNotPaused() */\n      tag_358\n        /* \"@openzeppelin/contracts/security/Pausable.sol\":1239:1256  _requireNotPaused */\n      tag_344\n        /* \"@openzeppelin/contracts/security/Pausable.sol\":1239:1258  _requireNotPaused() */\n      jump\t// in\n    tag_358:\n        /* \"contracts/SampleERC20.sol\":2220:2233  _FullLockList */\n      0x08\n        /* \"contracts/SampleERC20.sol\":2220:2239  _FullLockList[from] */\n      0x00\n        /* \"contracts/SampleERC20.sol\":2234:2238  from */\n      dup5\n        /* \"contracts/SampleERC20.sol\":2220:2239  _FullLockList[from] */\n      0xffffffffffffffffffffffffffffffffffffffff\n      and\n      0xffffffffffffffffffffffffffffffffffffffff\n      and\n      dup2\n      mstore\n      0x20\n      add\n      swap1\n      dup2\n      mstore\n      0x20\n      add\n      0x00\n      keccak256\n      0x00\n      swap1\n      sload\n      swap1\n      0x0100\n      exp\n      swap1\n      div\n      0xff\n      and\n        /* \"contracts/SampleERC20.sol\":2219:2239  !_FullLockList[from] */\n      iszero\n        /* \"contracts/SampleERC20.sol\":2211:2281  require(!_FullLockList[from], \"Token transfer from LockedAddressList\") */\n      tag_360\n      jumpi\n      mload(0x40)\n      0x08c379a000000000000000000000000000000000000000000000000000000000\n      dup2\n      mstore\n      0x04\n      add\n      tag_361\n      swap1\n      tag_362\n      jump\t// in\n    tag_361:\n      mload(0x40)\n      dup1\n      swap2\n      sub\n      swap1\n      revert\n    tag_360:\n        /* \"contracts/SampleERC20.sol\":2291:2335  super._beforeTokenTransfer(from, to, amount) */\n      tag_363\n        /* \"contracts/SampleERC20.sol\":2318:2322  from */\n      dup4\n        /* \"contracts/SampleERC20.sol\":2324:2326  to */\n      dup4\n        /* \"contracts/SampleERC20.sol\":2328:2334  amount */\n      dup4\n        /* \"contracts/SampleERC20.sol\":2291:2317  super._beforeTokenTransfer */\n      tag_158\n        /* \"contracts/SampleERC20.sol\":2291:2335  super._beforeTokenTransfer(from, to, amount) */\n      jump\t// in\n    tag_363:\n        /* \"contracts/SampleERC20.sol\":2069:2342  function _beforeTokenTransfer(address from, address to, uint256 amount)... */\n      pop\n      pop\n      pop\n      jump\t// out\n        /* \"@openzeppelin/contracts/token/ERC20/ERC20.sol\":12495:12615  function _afterTokenTransfer(... */\n    tag_298:\n      pop\n      pop\n      pop\n      jump\t// out\n        /* \"@openzeppelin/contracts/security/Pausable.sol\":1945:2051  function _requirePaused() internal view virtual {... */\n    tag_316:\n        /* \"@openzeppelin/contracts/security/Pausable.sol\":2011:2019  paused() */\n      tag_366\n        /* \"@openzeppelin/contracts/security/Pausable.sol\":2011:2017  paused */\n      tag_104\n        /* \"@openzeppelin/contracts/security/Pausable.sol\":2011:2019  paused() */\n      jump\t// in\n    tag_366:\n        /* \"@openzeppelin/contracts/security/Pausable.sol\":2003:2044  require(paused(), \"Pausable: not paused\") */\n      tag_367\n      jumpi\n      mload(0x40)\n      0x08c379a000000000000000000000000000000000000000000000000000000000\n      dup2\n      mstore\n      0x04\n      add\n      tag_368\n      swap1\n      tag_369\n      jump\t// in\n    tag_368:\n      mload(0x40)\n      dup1\n      swap2\n      sub\n      swap1\n      revert\n    tag_367:\n        /* \"@openzeppelin/contracts/security/Pausable.sol\":1945:2051  function _requirePaused() internal view virtual {... */\n      jump\t// out\n        /* \"@openzeppelin/contracts/security/Pausable.sol\":1767:1873  function _requireNotPaused() internal view virtual {... */\n    tag_344:\n        /* \"@openzeppelin/contracts/security/Pausable.sol\":1837:1845  paused() */\n      tag_371\n        /* \"@openzeppelin/contracts/security/Pausable.sol\":1837:1843  paused */\n      tag_104\n        /* \"@openzeppelin/contracts/security/Pausable.sol\":1837:1845  paused() */\n      jump\t// in\n    tag_371:\n        /* \"@openzeppelin/contracts/security/Pausable.sol\":1836:1845  !paused() */\n      iszero\n        /* \"@openzeppelin/contracts/security/Pausable.sol\":1828:1866  require(!paused(), \"Pausable: paused\") */\n      tag_372\n      jumpi\n      mload(0x40)\n      0x08c379a000000000000000000000000000000000000000000000000000000000\n      dup2\n      mstore\n      0x04\n      add\n      tag_373\n      swap1\n      tag_374\n      jump\t// in\n    tag_373:\n      mload(0x40)\n      dup1\n      swap2\n      sub\n      swap1\n      revert\n    tag_372:\n        /* \"@openzeppelin/contracts/security/Pausable.sol\":1767:1873  function _requireNotPaused() internal view virtual {... */\n      jump\t// out\n        /* \"@openzeppelin/contracts/utils/Strings.sol\":1652:2093  function toHexString(uint256 value, uint256 length) internal pure returns (string memory) {... */\n    tag_352:\n        /* \"@openzeppelin/contracts/utils/Strings.sol\":1727:1740  string memory */\n      0x60\n        /* \"@openzeppelin/contracts/utils/Strings.sol\":1752:1771  bytes memory buffer */\n      0x00\n        /* \"@openzeppelin/contracts/utils/Strings.sol\":1797:1798  2 */\n      0x02\n        /* \"@openzeppelin/contracts/utils/Strings.sol\":1788:1794  length */\n      dup4\n        /* \"@openzeppelin/contracts/utils/Strings.sol\":1784:1785  2 */\n      0x02\n        /* \"@openzeppelin/contracts/utils/Strings.sol\":1784:1794  2 * length */\n      tag_376\n      swap2\n      swap1\n      tag_377\n      jump\t// in\n    tag_376:\n        /* \"@openzeppelin/contracts/utils/Strings.sol\":1784:1798  2 * length + 2 */\n      tag_378\n      swap2\n      swap1\n      tag_208\n      jump\t// in\n    tag_378:\n        /* \"@openzeppelin/contracts/utils/Strings.sol\":1774:1799  new bytes(2 * length + 2) */\n      0xffffffffffffffff\n      dup2\n      gt\n      iszero\n      tag_379\n      jumpi\n      mstore(0x00, 0x4e487b7100000000000000000000000000000000000000000000000000000000)\n      mstore(0x04, 0x41)\n      revert(0x00, 0x24)\n    tag_379:\n      mload(0x40)\n      swap1\n      dup1\n      dup3\n      mstore\n      dup1\n      0x1f\n      add\n      not(0x1f)\n      and\n      0x20\n      add\n      dup3\n      add\n      0x40\n      mstore\n      dup1\n      iszero\n      tag_380\n      jumpi\n      dup2\n      0x20\n      add\n      0x01\n      dup3\n      mul\n      dup1\n      calldatasize\n      dup4\n      calldatacopy\n      dup1\n      dup3\n      add\n      swap2\n      pop\n      pop\n      swap1\n      pop\n    tag_380:\n      pop\n        /* \"@openzeppelin/contracts/utils/Strings.sol\":1752:1799  bytes memory buffer = new bytes(2 * length + 2) */\n      swap1\n      pop\n        /* \"@openzeppelin/contracts/utils/Strings.sol\":1809:1824  buffer[0] = \"0\" */\n      0x3000000000000000000000000000000000000000000000000000000000000000\n        /* \"@openzeppelin/contracts/utils/Strings.sol\":1809:1815  buffer */\n      dup2\n        /* \"@openzeppelin/contracts/utils/Strings.sol\":1816:1817  0 */\n      0x00\n        /* \"@openzeppelin/contracts/utils/Strings.sol\":1809:1818  buffer[0] */\n      dup2\n      mload\n      dup2\n      lt\n      tag_381\n      jumpi\n      mstore(0x00, 0x4e487b7100000000000000000000000000000000000000000000000000000000)\n      mstore(0x04, 0x32)\n      revert(0x00, 0x24)\n    tag_381:\n      0x20\n      add\n      add\n        /* \"@openzeppelin/contracts/utils/Strings.sol\":1809:1824  buffer[0] = \"0\" */\n      swap1\n      not(0xffffffffffffffffffffffffffffffffffffffffffffffffffffffffffffff)\n      and\n      swap1\n      dup2\n      0x00\n      byte\n      swap1\n      mstore8\n      pop\n        /* \"@openzeppelin/contracts/utils/Strings.sol\":1834:1849  buffer[1] = \"x\" */\n      0x7800000000000000000000000000000000000000000000000000000000000000\n        /* \"@openzeppelin/contracts/utils/Strings.sol\":1834:1840  buffer */\n      dup2\n        /* \"@openzeppelin/contracts/utils/Strings.sol\":1841:1842  1 */\n      0x01\n        /* \"@openzeppelin/contracts/utils/Strings.sol\":1834:1843  buffer[1] */\n      dup2\n      mload\n      dup2\n      lt\n      tag_382\n      jumpi\n      mstore(0x00, 0x4e487b7100000000000000000000000000000000000000000000000000000000)\n      mstore(0x04, 0x32)\n      revert(0x00, 0x24)\n    tag_382:\n      0x20\n      add\n      add\n        /* \"@openzeppelin/contracts/utils/Strings.sol\":1834:1849  buffer[1] = \"x\" */\n      swap1\n      not(0xffffffffffffffffffffffffffffffffffffffffffffffffffffffffffffff)\n      and\n      swap1\n      dup2\n      0x00\n      byte\n      swap1\n      mstore8\n      pop\n        /* \"@openzeppelin/contracts/utils/Strings.sol\":1864:1873  uint256 i */\n      0x00\n        /* \"@openzeppelin/contracts/utils/Strings.sol\":1889:1890  1 */\n      0x01\n        /* \"@openzeppelin/contracts/utils/Strings.sol\":1880:1886  length */\n      dup5\n        /* \"@openzeppelin/contracts/utils/Strings.sol\":1876:1877  2 */\n      0x02\n        /* \"@openzeppelin/contracts/utils/Strings.sol\":1876:1886  2 * length */\n      tag_386\n      swap2\n      swap1\n      tag_377\n      jump\t// in\n    tag_386:\n        /* \"@openzeppelin/contracts/utils/Strings.sol\":1876:1890  2 * length + 1 */\n      tag_387\n      swap2\n      swap1\n      tag_208\n      jump\t// in\n    tag_387:\n        /* \"@openzeppelin/contracts/utils/Strings.sol\":1864:1890  uint256 i = 2 * length + 1 */\n      swap1\n      pop\n        /* \"@openzeppelin/contracts/utils/Strings.sol\":1859:1991  for (uint256 i = 2 * length + 1; i > 1; --i) {... */\n    tag_383:\n        /* \"@openzeppelin/contracts/utils/Strings.sol\":1896:1897  1 */\n      0x01\n        /* \"@openzeppelin/contracts/utils/Strings.sol\":1892:1893  i */\n      dup2\n        /* \"@openzeppelin/contracts/utils/Strings.sol\":1892:1897  i > 1 */\n      gt\n        /* \"@openzeppelin/contracts/utils/Strings.sol\":1859:1991  for (uint256 i = 2 * length + 1; i > 1; --i) {... */\n      iszero\n      tag_384\n      jumpi\n        /* \"@openzeppelin/contracts/utils/Strings.sol\":1930:1942  _HEX_SYMBOLS */\n      0x3031323334353637383961626364656600000000000000000000000000000000\n        /* \"@openzeppelin/contracts/utils/Strings.sol\":1951:1954  0xf */\n      0x0f\n        /* \"@openzeppelin/contracts/utils/Strings.sol\":1943:1948  value */\n      dup7\n        /* \"@openzeppelin/contracts/utils/Strings.sol\":1943:1954  value & 0xf */\n      and\n        /* \"@openzeppelin/contracts/utils/Strings.sol\":1930:1955  _HEX_SYMBOLS[value & 0xf] */\n      0x10\n      dup2\n      lt\n      tag_388\n      jumpi\n      mstore(0x00, 0x4e487b7100000000000000000000000000000000000000000000000000000000)\n      mstore(0x04, 0x32)\n      revert(0x00, 0x24)\n    tag_388:\n      byte\n      0xf8\n      shl\n        /* \"@openzeppelin/contracts/utils/Strings.sol\":1918:1924  buffer */\n      dup3\n        /* \"@openzeppelin/contracts/utils/Strings.sol\":1925:1926  i */\n      dup3\n        /* \"@openzeppelin/contracts/utils/Strings.sol\":1918:1927  buffer[i] */\n      dup2\n      mload\n      dup2\n      lt\n      tag_389\n      jumpi\n      mstore(0x00, 0x4e487b7100000000000000000000000000000000000000000000000000000000)\n      mstore(0x04, 0x32)\n      revert(0x00, 0x24)\n    tag_389:\n      0x20\n      add\n      add\n        /* \"@openzeppelin/contracts/utils/Strings.sol\":1918:1955  buffer[i] = _HEX_SYMBOLS[value & 0xf] */\n      swap1\n      not(0xffffffffffffffffffffffffffffffffffffffffffffffffffffffffffffff)\n      and\n      swap1\n      dup2\n      0x00\n      byte\n      swap1\n      mstore8\n      pop\n        /* \"@openzeppelin/contracts/utils/Strings.sol\":1979:1980  4 */\n      0x04\n        /* \"@openzeppelin/contracts/utils/Strings.sol\":1969:1980  value >>= 4 */\n      dup6\n      swap1\n      shr\n      swap5\n      pop\n        /* \"@openzeppelin/contracts/utils/Strings.sol\":1899:1902  --i */\n      dup1\n      tag_390\n      swap1\n      tag_391\n      jump\t// in\n    tag_390:\n      swap1\n      pop\n        /* \"@openzeppelin/contracts/utils/Strings.sol\":1859:1991  for (uint256 i = 2 * length + 1; i > 1; --i) {... */\n      jump(tag_383)\n    tag_384:\n      pop\n        /* \"@openzeppelin/contracts/utils/Strings.sol\":2017:2018  0 */\n      0x00\n        /* \"@openzeppelin/contracts/utils/Strings.sol\":2008:2013  value */\n      dup5\n        /* \"@openzeppelin/contracts/utils/Strings.sol\":2008:2018  value == 0 */\n      eq\n        /* \"@openzeppelin/contracts/utils/Strings.sol\":2000:2055  require(value == 0, \"Strings: hex length insufficient\") */\n      tag_392\n      jumpi\n      mload(0x40)\n      0x08c379a000000000000000000000000000000000000000000000000000000000\n      dup2\n      mstore\n      0x04\n      add\n      tag_393\n      swap1\n      tag_394\n      jump\t// in\n    tag_393:\n      mload(0x40)\n      dup1\n      swap2\n      sub\n      swap1\n      revert\n    tag_392:\n        /* \"@openzeppelin/contracts/utils/Strings.sol\":2079:2085  buffer */\n      dup1\n        /* \"@openzeppelin/contracts/utils/Strings.sol\":2065:2086  return string(buffer) */\n      swap2\n      pop\n      pop\n        /* \"@openzeppelin/contracts/utils/Strings.sol\":1652:2093  function toHexString(uint256 value, uint256 length) internal pure returns (string memory) {... */\n      swap3\n      swap2\n      pop\n      pop\n      jump\t// out\n        /* \"#utility.yul\":7:146   */\n    tag_396:\n        /* \"#utility.yul\":53:58   */\n      0x00\n        /* \"#utility.yul\":91:97   */\n      dup2\n        /* \"#utility.yul\":78:98   */\n      calldataload\n        /* \"#utility.yul\":69:98   */\n      swap1\n      pop\n        /* \"#utility.yul\":107:140   */\n      tag_398\n        /* \"#utility.yul\":134:139   */\n      dup2\n        /* \"#utility.yul\":107:140   */\n      tag_399\n      jump\t// in\n    tag_398:\n        /* \"#utility.yul\":59:146   */\n      swap3\n      swap2\n      pop\n      pop\n      jump\t// out\n        /* \"#utility.yul\":152:291   */\n    tag_400:\n        /* \"#utility.yul\":198:203   */\n      0x00\n        /* \"#utility.yul\":236:242   */\n      dup2\n        /* \"#utility.yul\":223:243   */\n      calldataload\n        /* \"#utility.yul\":214:243   */\n      swap1\n      pop\n        /* \"#utility.yul\":252:285   */\n      tag_402\n        /* \"#utility.yul\":279:284   */\n      dup2\n        /* \"#utility.yul\":252:285   */\n      tag_403\n      jump\t// in\n    tag_402:\n        /* \"#utility.yul\":204:291   */\n      swap3\n      swap2\n      pop\n      pop\n      jump\t// out\n        /* \"#utility.yul\":297:434   */\n    tag_404:\n        /* \"#utility.yul\":342:347   */\n      0x00\n        /* \"#utility.yul\":380:386   */\n      dup2\n        /* \"#utility.yul\":367:387   */\n      calldataload\n        /* \"#utility.yul\":358:387   */\n      swap1\n      pop\n        /* \"#utility.yul\":396:428   */\n      tag_406\n        /* \"#utility.yul\":422:427   */\n      dup2\n        /* \"#utility.yul\":396:428   */\n      tag_407\n      jump\t// in\n    tag_406:\n        /* \"#utility.yul\":348:434   */\n      swap3\n      swap2\n      pop\n      pop\n      jump\t// out\n        /* \"#utility.yul\":440:579   */\n    tag_408:\n        /* \"#utility.yul\":486:491   */\n      0x00\n        /* \"#utility.yul\":524:530   */\n      dup2\n        /* \"#utility.yul\":511:531   */\n      calldataload\n        /* \"#utility.yul\":502:531   */\n      swap1\n      pop\n        /* \"#utility.yul\":540:573   */\n      tag_410\n        /* \"#utility.yul\":567:572   */\n      dup2\n        /* \"#utility.yul\":540:573   */\n      tag_411\n      jump\t// in\n    tag_410:\n        /* \"#utility.yul\":492:579   */\n      swap3\n      swap2\n      pop\n      pop\n      jump\t// out\n        /* \"#utility.yul\":585:847   */\n    tag_62:\n        /* \"#utility.yul\":644:650   */\n      0x00\n        /* \"#utility.yul\":693:695   */\n      0x20\n        /* \"#utility.yul\":681:690   */\n      dup3\n        /* \"#utility.yul\":672:679   */\n      dup5\n        /* \"#utility.yul\":668:691   */\n      sub\n        /* \"#utility.yul\":664:696   */\n      slt\n        /* \"#utility.yul\":661:663   */\n      iszero\n      tag_413\n      jumpi\n        /* \"#utility.yul\":709:710   */\n      0x00\n        /* \"#utility.yul\":706:707   */\n      dup1\n        /* \"#utility.yul\":699:711   */\n      revert\n        /* \"#utility.yul\":661:663   */\n    tag_413:\n        /* \"#utility.yul\":752:753   */\n      0x00\n        /* \"#utility.yul\":777:830   */\n      tag_414\n        /* \"#utility.yul\":822:829   */\n      dup5\n        /* \"#utility.yul\":813:819   */\n      dup3\n        /* \"#utility.yul\":802:811   */\n      dup6\n        /* \"#utility.yul\":798:820   */\n      add\n        /* \"#utility.yul\":777:830   */\n      tag_396\n      jump\t// in\n    tag_414:\n        /* \"#utility.yul\":767:830   */\n      swap2\n      pop\n        /* \"#utility.yul\":723:840   */\n      pop\n        /* \"#utility.yul\":651:847   */\n      swap3\n      swap2\n      pop\n      pop\n      jump\t// out\n        /* \"#utility.yul\":853:1260   */\n    tag_148:\n        /* \"#utility.yul\":921:927   */\n      0x00\n        /* \"#utility.yul\":929:935   */\n      dup1\n        /* \"#utility.yul\":978:980   */\n      0x40\n        /* \"#utility.yul\":966:975   */\n      dup4\n        /* \"#utility.yul\":957:964   */\n      dup6\n        /* \"#utility.yul\":953:976   */\n      sub\n        /* \"#utility.yul\":949:981   */\n      slt\n        /* \"#utility.yul\":946:948   */\n      iszero\n      tag_416\n      jumpi\n        /* \"#utility.yul\":994:995   */\n      0x00\n        /* \"#utility.yul\":991:992   */\n      dup1\n        /* \"#utility.yul\":984:996   */\n      revert\n        /* \"#utility.yul\":946:948   */\n    tag_416:\n        /* \"#utility.yul\":1037:1038   */\n      0x00\n        /* \"#utility.yul\":1062:1115   */\n      tag_417\n        /* \"#utility.yul\":1107:1114   */\n      dup6\n        /* \"#utility.yul\":1098:1104   */\n      dup3\n        /* \"#utility.yul\":1087:1096   */\n      dup7\n        /* \"#utility.yul\":1083:1105   */\n      add\n        /* \"#utility.yul\":1062:1115   */\n      tag_396\n      jump\t// in\n    tag_417:\n        /* \"#utility.yul\":1052:1115   */\n      swap3\n      pop\n        /* \"#utility.yul\":1008:1125   */\n      pop\n        /* \"#utility.yul\":1164:1166   */\n      0x20\n        /* \"#utility.yul\":1190:1243   */\n      tag_418\n        /* \"#utility.yul\":1235:1242   */\n      dup6\n        /* \"#utility.yul\":1226:1232   */\n      dup3\n        /* \"#utility.yul\":1215:1224   */\n      dup7\n        /* \"#utility.yul\":1211:1233   */\n      add\n        /* \"#utility.yul\":1190:1243   */\n      tag_396\n      jump\t// in\n    tag_418:\n        /* \"#utility.yul\":1180:1243   */\n      swap2\n      pop\n        /* \"#utility.yul\":1135:1253   */\n      pop\n        /* \"#utility.yul\":936:1260   */\n      swap3\n      pop\n      swap3\n      swap1\n      pop\n      jump\t// out\n        /* \"#utility.yul\":1266:1818   */\n    tag_58:\n        /* \"#utility.yul\":1343:1349   */\n      0x00\n        /* \"#utility.yul\":1351:1357   */\n      dup1\n        /* \"#utility.yul\":1359:1365   */\n      0x00\n        /* \"#utility.yul\":1408:1410   */\n      0x60\n        /* \"#utility.yul\":1396:1405   */\n      dup5\n        /* \"#utility.yul\":1387:1394   */\n      dup7\n        /* \"#utility.yul\":1383:1406   */\n      sub\n        /* \"#utility.yul\":1379:1411   */\n      slt\n        /* \"#utility.yul\":1376:1378   */\n      iszero\n      tag_420\n      jumpi\n        /* \"#utility.yul\":1424:1425   */\n      0x00\n        /* \"#utility.yul\":1421:1422   */\n      dup1\n        /* \"#utility.yul\":1414:1426   */\n      revert\n        /* \"#utility.yul\":1376:1378   */\n    tag_420:\n        /* \"#utility.yul\":1467:1468   */\n      0x00\n        /* \"#utility.yul\":1492:1545   */\n      tag_421\n        /* \"#utility.yul\":1537:1544   */\n      dup7\n        /* \"#utility.yul\":1528:1534   */\n      dup3\n        /* \"#utility.yul\":1517:1526   */\n      dup8\n        /* \"#utility.yul\":1513:1535   */\n      add\n        /* \"#utility.yul\":1492:1545   */\n      tag_396\n      jump\t// in\n    tag_421:\n        /* \"#utility.yul\":1482:1545   */\n      swap4\n      pop\n        /* \"#utility.yul\":1438:1555   */\n      pop\n        /* \"#utility.yul\":1594:1596   */\n      0x20\n        /* \"#utility.yul\":1620:1673   */\n      tag_422\n        /* \"#utility.yul\":1665:1672   */\n      dup7\n        /* \"#utility.yul\":1656:1662   */\n      dup3\n        /* \"#utility.yul\":1645:1654   */\n      dup8\n        /* \"#utility.yul\":1641:1663   */\n      add\n        /* \"#utility.yul\":1620:1673   */\n      tag_396\n      jump\t// in\n    tag_422:\n        /* \"#utility.yul\":1610:1673   */\n      swap3\n      pop\n        /* \"#utility.yul\":1565:1683   */\n      pop\n        /* \"#utility.yul\":1722:1724   */\n      0x40\n        /* \"#utility.yul\":1748:1801   */\n      tag_423\n        /* \"#utility.yul\":1793:1800   */\n      dup7\n        /* \"#utility.yul\":1784:1790   */\n      dup3\n        /* \"#utility.yul\":1773:1782   */\n      dup8\n        /* \"#utility.yul\":1769:1791   */\n      add\n        /* \"#utility.yul\":1748:1801   */\n      tag_408\n      jump\t// in\n    tag_423:\n        /* \"#utility.yul\":1738:1801   */\n      swap2\n      pop\n        /* \"#utility.yul\":1693:1811   */\n      pop\n        /* \"#utility.yul\":1366:1818   */\n      swap3\n      pop\n      swap3\n      pop\n      swap3\n      jump\t// out\n        /* \"#utility.yul\":1824:2231   */\n    tag_53:\n        /* \"#utility.yul\":1892:1898   */\n      0x00\n        /* \"#utility.yul\":1900:1906   */\n      dup1\n        /* \"#utility.yul\":1949:1951   */\n      0x40\n        /* \"#utility.yul\":1937:1946   */\n      dup4\n        /* \"#utility.yul\":1928:1935   */\n      dup6\n        /* \"#utility.yul\":1924:1947   */\n      sub\n        /* \"#utility.yul\":1920:1952   */\n      slt\n        /* \"#utility.yul\":1917:1919   */\n      iszero\n      tag_425\n      jumpi\n        /* \"#utility.yul\":1965:1966   */\n      0x00\n        /* \"#utility.yul\":1962:1963   */\n      dup1\n        /* \"#utility.yul\":1955:1967   */\n      revert\n        /* \"#utility.yul\":1917:1919   */\n    tag_425:\n        /* \"#utility.yul\":2008:2009   */\n      0x00\n        /* \"#utility.yul\":2033:2086   */\n      tag_426\n        /* \"#utility.yul\":2078:2085   */\n      dup6\n        /* \"#utility.yul\":2069:2075   */\n      dup3\n        /* \"#utility.yul\":2058:2067   */\n      dup7\n        /* \"#utility.yul\":2054:2076   */\n      add\n        /* \"#utility.yul\":2033:2086   */\n      tag_396\n      jump\t// in\n    tag_426:\n        /* \"#utility.yul\":2023:2086   */\n      swap3\n      pop\n        /* \"#utility.yul\":1979:2096   */\n      pop\n        /* \"#utility.yul\":2135:2137   */\n      0x20\n        /* \"#utility.yul\":2161:2214   */\n      tag_427\n        /* \"#utility.yul\":2206:2213   */\n      dup6\n        /* \"#utility.yul\":2197:2203   */\n      dup3\n        /* \"#utility.yul\":2186:2195   */\n      dup7\n        /* \"#utility.yul\":2182:2204   */\n      add\n        /* \"#utility.yul\":2161:2214   */\n      tag_408\n      jump\t// in\n    tag_427:\n        /* \"#utility.yul\":2151:2214   */\n      swap2\n      pop\n        /* \"#utility.yul\":2106:2224   */\n      pop\n        /* \"#utility.yul\":1907:2231   */\n      swap3\n      pop\n      swap3\n      swap1\n      pop\n      jump\t// out\n        /* \"#utility.yul\":2237:2499   */\n    tag_75:\n        /* \"#utility.yul\":2296:2302   */\n      0x00\n        /* \"#utility.yul\":2345:2347   */\n      0x20\n        /* \"#utility.yul\":2333:2342   */\n      dup3\n        /* \"#utility.yul\":2324:2331   */\n      dup5\n        /* \"#utility.yul\":2320:2343   */\n      sub\n        /* \"#utility.yul\":2316:2348   */\n      slt\n        /* \"#utility.yul\":2313:2315   */\n      iszero\n      tag_429\n      jumpi\n        /* \"#utility.yul\":2361:2362   */\n      0x00\n        /* \"#utility.yul\":2358:2359   */\n      dup1\n        /* \"#utility.yul\":2351:2363   */\n      revert\n        /* \"#utility.yul\":2313:2315   */\n    tag_429:\n        /* \"#utility.yul\":2404:2405   */\n      0x00\n        /* \"#utility.yul\":2429:2482   */\n      tag_430\n        /* \"#utility.yul\":2474:2481   */\n      dup5\n        /* \"#utility.yul\":2465:2471   */\n      dup3\n        /* \"#utility.yul\":2454:2463   */\n      dup6\n        /* \"#utility.yul\":2450:2472   */\n      add\n        /* \"#utility.yul\":2429:2482   */\n      tag_400\n      jump\t// in\n    tag_430:\n        /* \"#utility.yul\":2419:2482   */\n      swap2\n      pop\n        /* \"#utility.yul\":2375:2492   */\n      pop\n        /* \"#utility.yul\":2303:2499   */\n      swap3\n      swap2\n      pop\n      pop\n      jump\t// out\n        /* \"#utility.yul\":2505:2912   */\n    tag_81:\n        /* \"#utility.yul\":2573:2579   */\n      0x00\n        /* \"#utility.yul\":2581:2587   */\n      dup1\n        /* \"#utility.yul\":2630:2632   */\n      0x40\n        /* \"#utility.yul\":2618:2627   */\n      dup4\n        /* \"#utility.yul\":2609:2616   */\n      dup6\n        /* \"#utility.yul\":2605:2628   */\n      sub\n        /* \"#utility.yul\":2601:2633   */\n      slt\n        /* \"#utility.yul\":2598:2600   */\n      iszero\n      tag_432\n      jumpi\n        /* \"#utility.yul\":2646:2647   */\n      0x00\n        /* \"#utility.yul\":2643:2644   */\n      dup1\n        /* \"#utility.yul\":2636:2648   */\n      revert\n        /* \"#utility.yul\":2598:2600   */\n    tag_432:\n        /* \"#utility.yul\":2689:2690   */\n      0x00\n        /* \"#utility.yul\":2714:2767   */\n      tag_433\n        /* \"#utility.yul\":2759:2766   */\n      dup6\n        /* \"#utility.yul\":2750:2756   */\n      dup3\n        /* \"#utility.yul\":2739:2748   */\n      dup7\n        /* \"#utility.yul\":2735:2757   */\n      add\n        /* \"#utility.yul\":2714:2767   */\n      tag_400\n      jump\t// in\n    tag_433:\n        /* \"#utility.yul\":2704:2767   */\n      swap3\n      pop\n        /* \"#utility.yul\":2660:2777   */\n      pop\n        /* \"#utility.yul\":2816:2818   */\n      0x20\n        /* \"#utility.yul\":2842:2895   */\n      tag_434\n        /* \"#utility.yul\":2887:2894   */\n      dup6\n        /* \"#utility.yul\":2878:2884   */\n      dup3\n        /* \"#utility.yul\":2867:2876   */\n      dup7\n        /* \"#utility.yul\":2863:2885   */\n      add\n        /* \"#utility.yul\":2842:2895   */\n      tag_396\n      jump\t// in\n    tag_434:\n        /* \"#utility.yul\":2832:2895   */\n      swap2\n      pop\n        /* \"#utility.yul\":2787:2905   */\n      pop\n        /* \"#utility.yul\":2588:2912   */\n      swap3\n      pop\n      swap3\n      swap1\n      pop\n      jump\t// out\n        /* \"#utility.yul\":2918:3178   */\n    tag_43:\n        /* \"#utility.yul\":2976:2982   */\n      0x00\n        /* \"#utility.yul\":3025:3027   */\n      0x20\n        /* \"#utility.yul\":3013:3022   */\n      dup3\n        /* \"#utility.yul\":3004:3011   */\n      dup5\n        /* \"#utility.yul\":3000:3023   */\n      sub\n        /* \"#utility.yul\":2996:3028   */\n      slt\n        /* \"#utility.yul\":2993:2995   */\n      iszero\n      tag_436\n      jumpi\n        /* \"#utility.yul\":3041:3042   */\n      0x00\n        /* \"#utility.yul\":3038:3039   */\n      dup1\n        /* \"#utility.yul\":3031:3043   */\n      revert\n        /* \"#utility.yul\":2993:2995   */\n    tag_436:\n        /* \"#utility.yul\":3084:3085   */\n      0x00\n        /* \"#utility.yul\":3109:3161   */\n      tag_437\n        /* \"#utility.yul\":3153:3160   */\n      dup5\n        /* \"#utility.yul\":3144:3150   */\n      dup3\n        /* \"#utility.yul\":3133:3142   */\n      dup6\n        /* \"#utility.yul\":3129:3151   */\n      add\n        /* \"#utility.yul\":3109:3161   */\n      tag_404\n      jump\t// in\n    tag_437:\n        /* \"#utility.yul\":3099:3161   */\n      swap2\n      pop\n        /* \"#utility.yul\":3055:3171   */\n      pop\n        /* \"#utility.yul\":2983:3178   */\n      swap3\n      swap2\n      pop\n      pop\n      jump\t// out\n        /* \"#utility.yul\":3184:3446   */\n    tag_101:\n        /* \"#utility.yul\":3243:3249   */\n      0x00\n        /* \"#utility.yul\":3292:3294   */\n      0x20\n        /* \"#utility.yul\":3280:3289   */\n      dup3\n        /* \"#utility.yul\":3271:3278   */\n      dup5\n        /* \"#utility.yul\":3267:3290   */\n      sub\n        /* \"#utility.yul\":3263:3295   */\n      slt\n        /* \"#utility.yul\":3260:3262   */\n      iszero\n      tag_439\n      jumpi\n        /* \"#utility.yul\":3308:3309   */\n      0x00\n        /* \"#utility.yul\":3305:3306   */\n      dup1\n        /* \"#utility.yul\":3298:3310   */\n      revert\n        /* \"#utility.yul\":3260:3262   */\n    tag_439:\n        /* \"#utility.yul\":3351:3352   */\n      0x00\n        /* \"#utility.yul\":3376:3429   */\n      tag_440\n        /* \"#utility.yul\":3421:3428   */\n      dup5\n        /* \"#utility.yul\":3412:3418   */\n      dup3\n        /* \"#utility.yul\":3401:3410   */\n      dup6\n        /* \"#utility.yul\":3397:3419   */\n      add\n        /* \"#utility.yul\":3376:3429   */\n      tag_408\n      jump\t// in\n    tag_440:\n        /* \"#utility.yul\":3366:3429   */\n      swap2\n      pop\n        /* \"#utility.yul\":3322:3439   */\n      pop\n        /* \"#utility.yul\":3250:3446   */\n      swap3\n      swap2\n      pop\n      pop\n      jump\t// out\n        /* \"#utility.yul\":3452:3570   */\n    tag_441:\n        /* \"#utility.yul\":3539:3563   */\n      tag_443\n        /* \"#utility.yul\":3557:3562   */\n      dup2\n        /* \"#utility.yul\":3539:3563   */\n      tag_444\n      jump\t// in\n    tag_443:\n        /* \"#utility.yul\":3534:3537   */\n      dup3\n        /* \"#utility.yul\":3527:3564   */\n      mstore\n        /* \"#utility.yul\":3517:3570   */\n      pop\n      pop\n      jump\t// out\n        /* \"#utility.yul\":3576:3685   */\n    tag_445:\n        /* \"#utility.yul\":3657:3678   */\n      tag_447\n        /* \"#utility.yul\":3672:3677   */\n      dup2\n        /* \"#utility.yul\":3657:3678   */\n      tag_448\n      jump\t// in\n    tag_447:\n        /* \"#utility.yul\":3652:3655   */\n      dup3\n        /* \"#utility.yul\":3645:3679   */\n      mstore\n        /* \"#utility.yul\":3635:3685   */\n      pop\n      pop\n      jump\t// out\n        /* \"#utility.yul\":3691:3809   */\n    tag_449:\n        /* \"#utility.yul\":3778:3802   */\n      tag_451\n        /* \"#utility.yul\":3796:3801   */\n      dup2\n        /* \"#utility.yul\":3778:3802   */\n      tag_452\n      jump\t// in\n    tag_451:\n        /* \"#utility.yul\":3773:3776   */\n      dup3\n        /* \"#utility.yul\":3766:3803   */\n      mstore\n        /* \"#utility.yul\":3756:3809   */\n      pop\n      pop\n      jump\t// out\n        /* \"#utility.yul\":3815:4179   */\n    tag_453:\n        /* \"#utility.yul\":3903:3906   */\n      0x00\n        /* \"#utility.yul\":3931:3970   */\n      tag_455\n        /* \"#utility.yul\":3964:3969   */\n      dup3\n        /* \"#utility.yul\":3931:3970   */\n      tag_456\n      jump\t// in\n    tag_455:\n        /* \"#utility.yul\":3986:4057   */\n      tag_457\n        /* \"#utility.yul\":4050:4056   */\n      dup2\n        /* \"#utility.yul\":4045:4048   */\n      dup6\n        /* \"#utility.yul\":3986:4057   */\n      tag_458\n      jump\t// in\n    tag_457:\n        /* \"#utility.yul\":3979:4057   */\n      swap4\n      pop\n        /* \"#utility.yul\":4066:4118   */\n      tag_459\n        /* \"#utility.yul\":4111:4117   */\n      dup2\n        /* \"#utility.yul\":4106:4109   */\n      dup6\n        /* \"#utility.yul\":4099:4103   */\n      0x20\n        /* \"#utility.yul\":4092:4097   */\n      dup7\n        /* \"#utility.yul\":4088:4104   */\n      add\n        /* \"#utility.yul\":4066:4118   */\n      tag_460\n      jump\t// in\n    tag_459:\n        /* \"#utility.yul\":4143:4172   */\n      tag_461\n        /* \"#utility.yul\":4165:4171   */\n      dup2\n        /* \"#utility.yul\":4143:4172   */\n      tag_462\n      jump\t// in\n    tag_461:\n        /* \"#utility.yul\":4138:4141   */\n      dup5\n        /* \"#utility.yul\":4134:4173   */\n      add\n        /* \"#utility.yul\":4127:4173   */\n      swap2\n      pop\n        /* \"#utility.yul\":3907:4179   */\n      pop\n      swap3\n      swap2\n      pop\n      pop\n      jump\t// out\n        /* \"#utility.yul\":4185:4562   */\n    tag_463:\n        /* \"#utility.yul\":4291:4294   */\n      0x00\n        /* \"#utility.yul\":4319:4358   */\n      tag_465\n        /* \"#utility.yul\":4352:4357   */\n      dup3\n        /* \"#utility.yul\":4319:4358   */\n      tag_456\n      jump\t// in\n    tag_465:\n        /* \"#utility.yul\":4374:4463   */\n      tag_466\n        /* \"#utility.yul\":4456:4462   */\n      dup2\n        /* \"#utility.yul\":4451:4454   */\n      dup6\n        /* \"#utility.yul\":4374:4463   */\n      tag_467\n      jump\t// in\n    tag_466:\n        /* \"#utility.yul\":4367:4463   */\n      swap4\n      pop\n        /* \"#utility.yul\":4472:4524   */\n      tag_468\n        /* \"#utility.yul\":4517:4523   */\n      dup2\n        /* \"#utility.yul\":4512:4515   */\n      dup6\n        /* \"#utility.yul\":4505:4509   */\n      0x20\n        /* \"#utility.yul\":4498:4503   */\n      dup7\n        /* \"#utility.yul\":4494:4510   */\n      add\n        /* \"#utility.yul\":4472:4524   */\n      tag_460\n      jump\t// in\n    tag_468:\n        /* \"#utility.yul\":4549:4555   */\n      dup1\n        /* \"#utility.yul\":4544:4547   */\n      dup5\n        /* \"#utility.yul\":4540:4556   */\n      add\n        /* \"#utility.yul\":4533:4556   */\n      swap2\n      pop\n        /* \"#utility.yul\":4295:4562   */\n      pop\n      swap3\n      swap2\n      pop\n      pop\n      jump\t// out\n        /* \"#utility.yul\":4568:4934   */\n    tag_469:\n        /* \"#utility.yul\":4710:4713   */\n      0x00\n        /* \"#utility.yul\":4731:4798   */\n      tag_471\n        /* \"#utility.yul\":4795:4797   */\n      0x20\n        /* \"#utility.yul\":4790:4793   */\n      dup4\n        /* \"#utility.yul\":4731:4798   */\n      tag_458\n      jump\t// in\n    tag_471:\n        /* \"#utility.yul\":4724:4798   */\n      swap2\n      pop\n        /* \"#utility.yul\":4807:4900   */\n      tag_472\n        /* \"#utility.yul\":4896:4899   */\n      dup3\n        /* \"#utility.yul\":4807:4900   */\n      tag_473\n      jump\t// in\n    tag_472:\n        /* \"#utility.yul\":4925:4927   */\n      0x20\n        /* \"#utility.yul\":4920:4923   */\n      dup3\n        /* \"#utility.yul\":4916:4928   */\n      add\n        /* \"#utility.yul\":4909:4928   */\n      swap1\n      pop\n        /* \"#utility.yul\":4714:4934   */\n      swap2\n      swap1\n      pop\n      jump\t// out\n        /* \"#utility.yul\":4940:5306   */\n    tag_474:\n        /* \"#utility.yul\":5082:5085   */\n      0x00\n        /* \"#utility.yul\":5103:5170   */\n      tag_476\n        /* \"#utility.yul\":5167:5169   */\n      0x23\n        /* \"#utility.yul\":5162:5165   */\n      dup4\n        /* \"#utility.yul\":5103:5170   */\n      tag_458\n      jump\t// in\n    tag_476:\n        /* \"#utility.yul\":5096:5170   */\n      swap2\n      pop\n        /* \"#utility.yul\":5179:5272   */\n      tag_477\n        /* \"#utility.yul\":5268:5271   */\n      dup3\n        /* \"#utility.yul\":5179:5272   */\n      tag_478\n      jump\t// in\n    tag_477:\n        /* \"#utility.yul\":5297:5299   */\n      0x40\n        /* \"#utility.yul\":5292:5295   */\n      dup3\n        /* \"#utility.yul\":5288:5300   */\n      add\n        /* \"#utility.yul\":5281:5300   */\n      swap1\n      pop\n        /* \"#utility.yul\":5086:5306   */\n      swap2\n      swap1\n      pop\n      jump\t// out\n        /* \"#utility.yul\":5312:5678   */\n    tag_479:\n        /* \"#utility.yul\":5454:5457   */\n      0x00\n        /* \"#utility.yul\":5475:5542   */\n      tag_481\n        /* \"#utility.yul\":5539:5541   */\n      0x14\n        /* \"#utility.yul\":5534:5537   */\n      dup4\n        /* \"#utility.yul\":5475:5542   */\n      tag_458\n      jump\t// in\n    tag_481:\n        /* \"#utility.yul\":5468:5542   */\n      swap2\n      pop\n        /* \"#utility.yul\":5551:5644   */\n      tag_482\n        /* \"#utility.yul\":5640:5643   */\n      dup3\n        /* \"#utility.yul\":5551:5644   */\n      tag_483\n      jump\t// in\n    tag_482:\n        /* \"#utility.yul\":5669:5671   */\n      0x20\n        /* \"#utility.yul\":5664:5667   */\n      dup3\n        /* \"#utility.yul\":5660:5672   */\n      add\n        /* \"#utility.yul\":5653:5672   */\n      swap1\n      pop\n        /* \"#utility.yul\":5458:5678   */\n      swap2\n      swap1\n      pop\n      jump\t// out\n        /* \"#utility.yul\":5684:6050   */\n    tag_484:\n        /* \"#utility.yul\":5826:5829   */\n      0x00\n        /* \"#utility.yul\":5847:5914   */\n      tag_486\n        /* \"#utility.yul\":5911:5913   */\n      0x22\n        /* \"#utility.yul\":5906:5909   */\n      dup4\n        /* \"#utility.yul\":5847:5914   */\n      tag_458\n      jump\t// in\n    tag_486:\n        /* \"#utility.yul\":5840:5914   */\n      swap2\n      pop\n        /* \"#utility.yul\":5923:6016   */\n      tag_487\n        /* \"#utility.yul\":6012:6015   */\n      dup3\n        /* \"#utility.yul\":5923:6016   */\n      tag_488\n      jump\t// in\n    tag_487:\n        /* \"#utility.yul\":6041:6043   */\n      0x40\n        /* \"#utility.yul\":6036:6039   */\n      dup3\n        /* \"#utility.yul\":6032:6044   */\n      add\n        /* \"#utility.yul\":6025:6044   */\n      swap1\n      pop\n        /* \"#utility.yul\":5830:6050   */\n      swap2\n      swap1\n      pop\n      jump\t// out\n        /* \"#utility.yul\":6056:6422   */\n    tag_489:\n        /* \"#utility.yul\":6198:6201   */\n      0x00\n        /* \"#utility.yul\":6219:6286   */\n      tag_491\n        /* \"#utility.yul\":6283:6285   */\n      0x25\n        /* \"#utility.yul\":6278:6281   */\n      dup4\n        /* \"#utility.yul\":6219:6286   */\n      tag_458\n      jump\t// in\n    tag_491:\n        /* \"#utility.yul\":6212:6286   */\n      swap2\n      pop\n        /* \"#utility.yul\":6295:6388   */\n      tag_492\n        /* \"#utility.yul\":6384:6387   */\n      dup3\n        /* \"#utility.yul\":6295:6388   */\n      tag_493\n      jump\t// in\n    tag_492:\n        /* \"#utility.yul\":6413:6415   */\n      0x40\n        /* \"#utility.yul\":6408:6411   */\n      dup3\n        /* \"#utility.yul\":6404:6416   */\n      add\n        /* \"#utility.yul\":6397:6416   */\n      swap1\n      pop\n        /* \"#utility.yul\":6202:6422   */\n      swap2\n      swap1\n      pop\n      jump\t// out\n        /* \"#utility.yul\":6428:6794   */\n    tag_494:\n        /* \"#utility.yul\":6570:6573   */\n      0x00\n        /* \"#utility.yul\":6591:6658   */\n      tag_496\n        /* \"#utility.yul\":6655:6657   */\n      0x22\n        /* \"#utility.yul\":6650:6653   */\n      dup4\n        /* \"#utility.yul\":6591:6658   */\n      tag_458\n      jump\t// in\n    tag_496:\n        /* \"#utility.yul\":6584:6658   */\n      swap2\n      pop\n        /* \"#utility.yul\":6667:6760   */\n      tag_497\n        /* \"#utility.yul\":6756:6759   */\n      dup3\n        /* \"#utility.yul\":6667:6760   */\n      tag_498\n      jump\t// in\n    tag_497:\n        /* \"#utility.yul\":6785:6787   */\n      0x40\n        /* \"#utility.yul\":6780:6783   */\n      dup3\n        /* \"#utility.yul\":6776:6788   */\n      add\n        /* \"#utility.yul\":6769:6788   */\n      swap1\n      pop\n        /* \"#utility.yul\":6574:6794   */\n      swap2\n      swap1\n      pop\n      jump\t// out\n        /* \"#utility.yul\":6800:7166   */\n    tag_499:\n        /* \"#utility.yul\":6942:6945   */\n      0x00\n        /* \"#utility.yul\":6963:7030   */\n      tag_501\n        /* \"#utility.yul\":7027:7029   */\n      0x1d\n        /* \"#utility.yul\":7022:7025   */\n      dup4\n        /* \"#utility.yul\":6963:7030   */\n      tag_458\n      jump\t// in\n    tag_501:\n        /* \"#utility.yul\":6956:7030   */\n      swap2\n      pop\n        /* \"#utility.yul\":7039:7132   */\n      tag_502\n        /* \"#utility.yul\":7128:7131   */\n      dup3\n        /* \"#utility.yul\":7039:7132   */\n      tag_503\n      jump\t// in\n    tag_502:\n        /* \"#utility.yul\":7157:7159   */\n      0x20\n        /* \"#utility.yul\":7152:7155   */\n      dup3\n        /* \"#utility.yul\":7148:7160   */\n      add\n        /* \"#utility.yul\":7141:7160   */\n      swap1\n      pop\n        /* \"#utility.yul\":6946:7166   */\n      swap2\n      swap1\n      pop\n      jump\t// out\n        /* \"#utility.yul\":7172:7538   */\n    tag_504:\n        /* \"#utility.yul\":7314:7317   */\n      0x00\n        /* \"#utility.yul\":7335:7402   */\n      tag_506\n        /* \"#utility.yul\":7399:7401   */\n      0x26\n        /* \"#utility.yul\":7394:7397   */\n      dup4\n        /* \"#utility.yul\":7335:7402   */\n      tag_458\n      jump\t// in\n    tag_506:\n        /* \"#utility.yul\":7328:7402   */\n      swap2\n      pop\n        /* \"#utility.yul\":7411:7504   */\n      tag_507\n        /* \"#utility.yul\":7500:7503   */\n      dup3\n        /* \"#utility.yul\":7411:7504   */\n      tag_508\n      jump\t// in\n    tag_507:\n        /* \"#utility.yul\":7529:7531   */\n      0x40\n        /* \"#utility.yul\":7524:7527   */\n      dup3\n        /* \"#utility.yul\":7520:7532   */\n      add\n        /* \"#utility.yul\":7513:7532   */\n      swap1\n      pop\n        /* \"#utility.yul\":7318:7538   */\n      swap2\n      swap1\n      pop\n      jump\t// out\n        /* \"#utility.yul\":7544:7910   */\n    tag_509:\n        /* \"#utility.yul\":7686:7689   */\n      0x00\n        /* \"#utility.yul\":7707:7774   */\n      tag_511\n        /* \"#utility.yul\":7771:7773   */\n      0x10\n        /* \"#utility.yul\":7766:7769   */\n      dup4\n        /* \"#utility.yul\":7707:7774   */\n      tag_458\n      jump\t// in\n    tag_511:\n        /* \"#utility.yul\":7700:7774   */\n      swap2\n      pop\n        /* \"#utility.yul\":7783:7876   */\n      tag_512\n        /* \"#utility.yul\":7872:7875   */\n      dup3\n        /* \"#utility.yul\":7783:7876   */\n      tag_513\n      jump\t// in\n    tag_512:\n        /* \"#utility.yul\":7901:7903   */\n      0x20\n        /* \"#utility.yul\":7896:7899   */\n      dup3\n        /* \"#utility.yul\":7892:7904   */\n      add\n        /* \"#utility.yul\":7885:7904   */\n      swap1\n      pop\n        /* \"#utility.yul\":7690:7910   */\n      swap2\n      swap1\n      pop\n      jump\t// out\n        /* \"#utility.yul\":7916:8282   */\n    tag_514:\n        /* \"#utility.yul\":8058:8061   */\n      0x00\n        /* \"#utility.yul\":8079:8146   */\n      tag_516\n        /* \"#utility.yul\":8143:8145   */\n      0x21\n        /* \"#utility.yul\":8138:8141   */\n      dup4\n        /* \"#utility.yul\":8079:8146   */\n      tag_458\n      jump\t// in\n    tag_516:\n        /* \"#utility.yul\":8072:8146   */\n      swap2\n      pop\n        /* \"#utility.yul\":8155:8248   */\n      tag_517\n        /* \"#utility.yul\":8244:8247   */\n      dup3\n        /* \"#utility.yul\":8155:8248   */\n      tag_518\n      jump\t// in\n    tag_517:\n        /* \"#utility.yul\":8273:8275   */\n      0x40\n        /* \"#utility.yul\":8268:8271   */\n      dup3\n        /* \"#utility.yul\":8264:8276   */\n      add\n        /* \"#utility.yul\":8257:8276   */\n      swap1\n      pop\n        /* \"#utility.yul\":8062:8282   */\n      swap2\n      swap1\n      pop\n      jump\t// out\n        /* \"#utility.yul\":8288:8654   */\n    tag_519:\n        /* \"#utility.yul\":8430:8433   */\n      0x00\n        /* \"#utility.yul\":8451:8518   */\n      tag_521\n        /* \"#utility.yul\":8515:8517   */\n      0x25\n        /* \"#utility.yul\":8510:8513   */\n      dup4\n        /* \"#utility.yul\":8451:8518   */\n      tag_458\n      jump\t// in\n    tag_521:\n        /* \"#utility.yul\":8444:8518   */\n      swap2\n      pop\n        /* \"#utility.yul\":8527:8620   */\n      tag_522\n        /* \"#utility.yul\":8616:8619   */\n      dup3\n        /* \"#utility.yul\":8527:8620   */\n      tag_523\n      jump\t// in\n    tag_522:\n        /* \"#utility.yul\":8645:8647   */\n      0x40\n        /* \"#utility.yul\":8640:8643   */\n      dup3\n        /* \"#utility.yul\":8636:8648   */\n      add\n        /* \"#utility.yul\":8629:8648   */\n      swap1\n      pop\n        /* \"#utility.yul\":8434:8654   */\n      swap2\n      swap1\n      pop\n      jump\t// out\n        /* \"#utility.yul\":8660:9026   */\n    tag_524:\n        /* \"#utility.yul\":8802:8805   */\n      0x00\n        /* \"#utility.yul\":8823:8890   */\n      tag_526\n        /* \"#utility.yul\":8887:8889   */\n      0x24\n        /* \"#utility.yul\":8882:8885   */\n      dup4\n        /* \"#utility.yul\":8823:8890   */\n      tag_458\n      jump\t// in\n    tag_526:\n        /* \"#utility.yul\":8816:8890   */\n      swap2\n      pop\n        /* \"#utility.yul\":8899:8992   */\n      tag_527\n        /* \"#utility.yul\":8988:8991   */\n      dup3\n        /* \"#utility.yul\":8899:8992   */\n      tag_528\n      jump\t// in\n    tag_527:\n        /* \"#utility.yul\":9017:9019   */\n      0x40\n        /* \"#utility.yul\":9012:9015   */\n      dup3\n        /* \"#utility.yul\":9008:9020   */\n      add\n        /* \"#utility.yul\":9001:9020   */\n      swap1\n      pop\n        /* \"#utility.yul\":8806:9026   */\n      swap2\n      swap1\n      pop\n      jump\t// out\n        /* \"#utility.yul\":9032:9434   */\n    tag_529:\n        /* \"#utility.yul\":9192:9195   */\n      0x00\n        /* \"#utility.yul\":9213:9298   */\n      tag_531\n        /* \"#utility.yul\":9295:9297   */\n      0x17\n        /* \"#utility.yul\":9290:9293   */\n      dup4\n        /* \"#utility.yul\":9213:9298   */\n      tag_467\n      jump\t// in\n    tag_531:\n        /* \"#utility.yul\":9206:9298   */\n      swap2\n      pop\n        /* \"#utility.yul\":9307:9400   */\n      tag_532\n        /* \"#utility.yul\":9396:9399   */\n      dup3\n        /* \"#utility.yul\":9307:9400   */\n      tag_533\n      jump\t// in\n    tag_532:\n        /* \"#utility.yul\":9425:9427   */\n      0x17\n        /* \"#utility.yul\":9420:9423   */\n      dup3\n        /* \"#utility.yul\":9416:9428   */\n      add\n        /* \"#utility.yul\":9409:9428   */\n      swap1\n      pop\n        /* \"#utility.yul\":9196:9434   */\n      swap2\n      swap1\n      pop\n      jump\t// out\n        /* \"#utility.yul\":9440:9806   */\n    tag_534:\n        /* \"#utility.yul\":9582:9585   */\n      0x00\n        /* \"#utility.yul\":9603:9670   */\n      tag_536\n        /* \"#utility.yul\":9667:9669   */\n      0x25\n        /* \"#utility.yul\":9662:9665   */\n      dup4\n        /* \"#utility.yul\":9603:9670   */\n      tag_458\n      jump\t// in\n    tag_536:\n        /* \"#utility.yul\":9596:9670   */\n      swap2\n      pop\n        /* \"#utility.yul\":9679:9772   */\n      tag_537\n        /* \"#utility.yul\":9768:9771   */\n      dup3\n        /* \"#utility.yul\":9679:9772   */\n      tag_538\n      jump\t// in\n    tag_537:\n        /* \"#utility.yul\":9797:9799   */\n      0x40\n        /* \"#utility.yul\":9792:9795   */\n      dup3\n        /* \"#utility.yul\":9788:9800   */\n      add\n        /* \"#utility.yul\":9781:9800   */\n      swap1\n      pop\n        /* \"#utility.yul\":9586:9806   */\n      swap2\n      swap1\n      pop\n      jump\t// out\n        /* \"#utility.yul\":9812:10214   */\n    tag_539:\n        /* \"#utility.yul\":9972:9975   */\n      0x00\n        /* \"#utility.yul\":9993:10078   */\n      tag_541\n        /* \"#utility.yul\":10075:10077   */\n      0x11\n        /* \"#utility.yul\":10070:10073   */\n      dup4\n        /* \"#utility.yul\":9993:10078   */\n      tag_467\n      jump\t// in\n    tag_541:\n        /* \"#utility.yul\":9986:10078   */\n      swap2\n      pop\n        /* \"#utility.yul\":10087:10180   */\n      tag_542\n        /* \"#utility.yul\":10176:10179   */\n      dup3\n        /* \"#utility.yul\":10087:10180   */\n      tag_543\n      jump\t// in\n    tag_542:\n        /* \"#utility.yul\":10205:10207   */\n      0x11\n        /* \"#utility.yul\":10200:10203   */\n      dup3\n        /* \"#utility.yul\":10196:10208   */\n      add\n        /* \"#utility.yul\":10189:10208   */\n      swap1\n      pop\n        /* \"#utility.yul\":9976:10214   */\n      swap2\n      swap1\n      pop\n      jump\t// out\n        /* \"#utility.yul\":10220:10586   */\n    tag_544:\n        /* \"#utility.yul\":10362:10365   */\n      0x00\n        /* \"#utility.yul\":10383:10450   */\n      tag_546\n        /* \"#utility.yul\":10447:10449   */\n      0x2f\n        /* \"#utility.yul\":10442:10445   */\n      dup4\n        /* \"#utility.yul\":10383:10450   */\n      tag_458\n      jump\t// in\n    tag_546:\n        /* \"#utility.yul\":10376:10450   */\n      swap2\n      pop\n        /* \"#utility.yul\":10459:10552   */\n      tag_547\n        /* \"#utility.yul\":10548:10551   */\n      dup3\n        /* \"#utility.yul\":10459:10552   */\n      tag_548\n      jump\t// in\n    tag_547:\n        /* \"#utility.yul\":10577:10579   */\n      0x40\n        /* \"#utility.yul\":10572:10575   */\n      dup3\n        /* \"#utility.yul\":10568:10580   */\n      add\n        /* \"#utility.yul\":10561:10580   */\n      swap1\n      pop\n        /* \"#utility.yul\":10366:10586   */\n      swap2\n      swap1\n      pop\n      jump\t// out\n        /* \"#utility.yul\":10592:10958   */\n    tag_549:\n        /* \"#utility.yul\":10734:10737   */\n      0x00\n        /* \"#utility.yul\":10755:10822   */\n      tag_551\n        /* \"#utility.yul\":10819:10821   */\n      0x1f\n        /* \"#utility.yul\":10814:10817   */\n      dup4\n        /* \"#utility.yul\":10755:10822   */\n      tag_458\n      jump\t// in\n    tag_551:\n        /* \"#utility.yul\":10748:10822   */\n      swap2\n      pop\n        /* \"#utility.yul\":10831:10924   */\n      tag_552\n        /* \"#utility.yul\":10920:10923   */\n      dup3\n        /* \"#utility.yul\":10831:10924   */\n      tag_553\n      jump\t// in\n    tag_552:\n        /* \"#utility.yul\":10949:10951   */\n      0x20\n        /* \"#utility.yul\":10944:10947   */\n      dup3\n        /* \"#utility.yul\":10940:10952   */\n      add\n        /* \"#utility.yul\":10933:10952   */\n      swap1\n      pop\n        /* \"#utility.yul\":10738:10958   */\n      swap2\n      swap1\n      pop\n      jump\t// out\n        /* \"#utility.yul\":10964:11330   */\n    tag_554:\n        /* \"#utility.yul\":11106:11109   */\n      0x00\n        /* \"#utility.yul\":11127:11194   */\n      tag_556\n        /* \"#utility.yul\":11191:11193   */\n      0x34\n        /* \"#utility.yul\":11186:11189   */\n      dup4\n        /* \"#utility.yul\":11127:11194   */\n      tag_458\n      jump\t// in\n    tag_556:\n        /* \"#utility.yul\":11120:11194   */\n      swap2\n      pop\n        /* \"#utility.yul\":11203:11296   */\n      tag_557\n        /* \"#utility.yul\":11292:11295   */\n      dup3\n        /* \"#utility.yul\":11203:11296   */\n      tag_558\n      jump\t// in\n    tag_557:\n        /* \"#utility.yul\":11321:11323   */\n      0x40\n        /* \"#utility.yul\":11316:11319   */\n      dup3\n        /* \"#utility.yul\":11312:11324   */\n      add\n        /* \"#utility.yul\":11305:11324   */\n      swap1\n      pop\n        /* \"#utility.yul\":11110:11330   */\n      swap2\n      swap1\n      pop\n      jump\t// out\n        /* \"#utility.yul\":11336:11454   */\n    tag_559:\n        /* \"#utility.yul\":11423:11447   */\n      tag_561\n        /* \"#utility.yul\":11441:11446   */\n      dup2\n        /* \"#utility.yul\":11423:11447   */\n      tag_562\n      jump\t// in\n    tag_561:\n        /* \"#utility.yul\":11418:11421   */\n      dup3\n        /* \"#utility.yul\":11411:11448   */\n      mstore\n        /* \"#utility.yul\":11401:11454   */\n      pop\n      pop\n      jump\t// out\n        /* \"#utility.yul\":11460:11572   */\n    tag_563:\n        /* \"#utility.yul\":11543:11565   */\n      tag_565\n        /* \"#utility.yul\":11559:11564   */\n      dup2\n        /* \"#utility.yul\":11543:11565   */\n      tag_566\n      jump\t// in\n    tag_565:\n        /* \"#utility.yul\":11538:11541   */\n      dup3\n        /* \"#utility.yul\":11531:11566   */\n      mstore\n        /* \"#utility.yul\":11521:11572   */\n      pop\n      pop\n      jump\t// out\n        /* \"#utility.yul\":11578:12545   */\n    tag_355:\n        /* \"#utility.yul\":11960:11963   */\n      0x00\n        /* \"#utility.yul\":11982:12130   */\n      tag_568\n        /* \"#utility.yul\":12126:12129   */\n      dup3\n        /* \"#utility.yul\":11982:12130   */\n      tag_529\n      jump\t// in\n    tag_568:\n        /* \"#utility.yul\":11975:12130   */\n      swap2\n      pop\n        /* \"#utility.yul\":12147:12242   */\n      tag_569\n        /* \"#utility.yul\":12238:12241   */\n      dup3\n        /* \"#utility.yul\":12229:12235   */\n      dup6\n        /* \"#utility.yul\":12147:12242   */\n      tag_463\n      jump\t// in\n    tag_569:\n        /* \"#utility.yul\":12140:12242   */\n      swap2\n      pop\n        /* \"#utility.yul\":12259:12407   */\n      tag_570\n        /* \"#utility.yul\":12403:12406   */\n      dup3\n        /* \"#utility.yul\":12259:12407   */\n      tag_539\n      jump\t// in\n    tag_570:\n        /* \"#utility.yul\":12252:12407   */\n      swap2\n      pop\n        /* \"#utility.yul\":12424:12519   */\n      tag_571\n        /* \"#utility.yul\":12515:12518   */\n      dup3\n        /* \"#utility.yul\":12506:12512   */\n      dup5\n        /* \"#utility.yul\":12424:12519   */\n      tag_463\n      jump\t// in\n    tag_571:\n        /* \"#utility.yul\":12417:12519   */\n      swap2\n      pop\n        /* \"#utility.yul\":12536:12539   */\n      dup2\n        /* \"#utility.yul\":12529:12539   */\n      swap1\n      pop\n        /* \"#utility.yul\":11964:12545   */\n      swap4\n      swap3\n      pop\n      pop\n      pop\n      jump\t// out\n        /* \"#utility.yul\":12551:12773   */\n    tag_320:\n        /* \"#utility.yul\":12644:12648   */\n      0x00\n        /* \"#utility.yul\":12682:12684   */\n      0x20\n        /* \"#utility.yul\":12671:12680   */\n      dup3\n        /* \"#utility.yul\":12667:12685   */\n      add\n        /* \"#utility.yul\":12659:12685   */\n      swap1\n      pop\n        /* \"#utility.yul\":12695:12766   */\n      tag_573\n        /* \"#utility.yul\":12763:12764   */\n      0x00\n        /* \"#utility.yul\":12752:12761   */\n      dup4\n        /* \"#utility.yul\":12748:12765   */\n      add\n        /* \"#utility.yul\":12739:12745   */\n      dup5\n        /* \"#utility.yul\":12695:12766   */\n      tag_441\n      jump\t// in\n    tag_573:\n        /* \"#utility.yul\":12649:12773   */\n      swap3\n      swap2\n      pop\n      pop\n      jump\t// out\n        /* \"#utility.yul\":12779:12989   */\n    tag_46:\n        /* \"#utility.yul\":12866:12870   */\n      0x00\n        /* \"#utility.yul\":12904:12906   */\n      0x20\n        /* \"#utility.yul\":12893:12902   */\n      dup3\n        /* \"#utility.yul\":12889:12907   */\n      add\n        /* \"#utility.yul\":12881:12907   */\n      swap1\n      pop\n        /* \"#utility.yul\":12917:12982   */\n      tag_575\n        /* \"#utility.yul\":12979:12980   */\n      0x00\n        /* \"#utility.yul\":12968:12977   */\n      dup4\n        /* \"#utility.yul\":12964:12981   */\n      add\n        /* \"#utility.yul\":12955:12961   */\n      dup5\n        /* \"#utility.yul\":12917:12982   */\n      tag_445\n      jump\t// in\n    tag_575:\n        /* \"#utility.yul\":12871:12989   */\n      swap3\n      swap2\n      pop\n      pop\n      jump\t// out\n        /* \"#utility.yul\":12995:13217   */\n    tag_78:\n        /* \"#utility.yul\":13088:13092   */\n      0x00\n        /* \"#utility.yul\":13126:13128   */\n      0x20\n        /* \"#utility.yul\":13115:13124   */\n      dup3\n        /* \"#utility.yul\":13111:13129   */\n      add\n        /* \"#utility.yul\":13103:13129   */\n      swap1\n      pop\n        /* \"#utility.yul\":13139:13210   */\n      tag_577\n        /* \"#utility.yul\":13207:13208   */\n      0x00\n        /* \"#utility.yul\":13196:13205   */\n      dup4\n        /* \"#utility.yul\":13192:13209   */\n      add\n        /* \"#utility.yul\":13183:13189   */\n      dup5\n        /* \"#utility.yul\":13139:13210   */\n      tag_449\n      jump\t// in\n    tag_577:\n        /* \"#utility.yul\":13093:13217   */\n      swap3\n      swap2\n      pop\n      pop\n      jump\t// out\n        /* \"#utility.yul\":13223:13536   */\n    tag_50:\n        /* \"#utility.yul\":13336:13340   */\n      0x00\n        /* \"#utility.yul\":13374:13376   */\n      0x20\n        /* \"#utility.yul\":13363:13372   */\n      dup3\n        /* \"#utility.yul\":13359:13377   */\n      add\n        /* \"#utility.yul\":13351:13377   */\n      swap1\n      pop\n        /* \"#utility.yul\":13423:13432   */\n      dup2\n        /* \"#utility.yul\":13417:13421   */\n      dup2\n        /* \"#utility.yul\":13413:13433   */\n      sub\n        /* \"#utility.yul\":13409:13410   */\n      0x00\n        /* \"#utility.yul\":13398:13407   */\n      dup4\n        /* \"#utility.yul\":13394:13411   */\n      add\n        /* \"#utility.yul\":13387:13434   */\n      mstore\n        /* \"#utility.yul\":13451:13529   */\n      tag_579\n        /* \"#utility.yul\":13524:13528   */\n      dup2\n        /* \"#utility.yul\":13515:13521   */\n      dup5\n        /* \"#utility.yul\":13451:13529   */\n      tag_453\n      jump\t// in\n    tag_579:\n        /* \"#utility.yul\":13443:13529   */\n      swap1\n      pop\n        /* \"#utility.yul\":13341:13536   */\n      swap3\n      swap2\n      pop\n      pop\n      jump\t// out\n        /* \"#utility.yul\":13542:13961   */\n    tag_394:\n        /* \"#utility.yul\":13708:13712   */\n      0x00\n        /* \"#utility.yul\":13746:13748   */\n      0x20\n        /* \"#utility.yul\":13735:13744   */\n      dup3\n        /* \"#utility.yul\":13731:13749   */\n      add\n        /* \"#utility.yul\":13723:13749   */\n      swap1\n      pop\n        /* \"#utility.yul\":13795:13804   */\n      dup2\n        /* \"#utility.yul\":13789:13793   */\n      dup2\n        /* \"#utility.yul\":13785:13805   */\n      sub\n        /* \"#utility.yul\":13781:13782   */\n      0x00\n        /* \"#utility.yul\":13770:13779   */\n      dup4\n        /* \"#utility.yul\":13766:13783   */\n      add\n        /* \"#utility.yul\":13759:13806   */\n      mstore\n        /* \"#utility.yul\":13823:13954   */\n      tag_581\n        /* \"#utility.yul\":13949:13953   */\n      dup2\n        /* \"#utility.yul\":13823:13954   */\n      tag_469\n      jump\t// in\n    tag_581:\n        /* \"#utility.yul\":13815:13954   */\n      swap1\n      pop\n        /* \"#utility.yul\":13713:13961   */\n      swap2\n      swap1\n      pop\n      jump\t// out\n        /* \"#utility.yul\":13967:14386   */\n    tag_289:\n        /* \"#utility.yul\":14133:14137   */\n      0x00\n        /* \"#utility.yul\":14171:14173   */\n      0x20\n        /* \"#utility.yul\":14160:14169   */\n      dup3\n        /* \"#utility.yul\":14156:14174   */\n      add\n        /* \"#utility.yul\":14148:14174   */\n      swap1\n      pop\n        /* \"#utility.yul\":14220:14229   */\n      dup2\n        /* \"#utility.yul\":14214:14218   */\n      dup2\n        /* \"#utility.yul\":14210:14230   */\n      sub\n        /* \"#utility.yul\":14206:14207   */\n      0x00\n        /* \"#utility.yul\":14195:14204   */\n      dup4\n        /* \"#utility.yul\":14191:14208   */\n      add\n        /* \"#utility.yul\":14184:14231   */\n      mstore\n        /* \"#utility.yul\":14248:14379   */\n      tag_583\n        /* \"#utility.yul\":14374:14378   */\n      dup2\n        /* \"#utility.yul\":14248:14379   */\n      tag_474\n      jump\t// in\n    tag_583:\n        /* \"#utility.yul\":14240:14379   */\n      swap1\n      pop\n        /* \"#utility.yul\":14138:14386   */\n      swap2\n      swap1\n      pop\n      jump\t// out\n        /* \"#utility.yul\":14392:14811   */\n    tag_369:\n        /* \"#utility.yul\":14558:14562   */\n      0x00\n        /* \"#utility.yul\":14596:14598   */\n      0x20\n        /* \"#utility.yul\":14585:14594   */\n      dup3\n        /* \"#utility.yul\":14581:14599   */\n      add\n        /* \"#utility.yul\":14573:14599   */\n      swap1\n      pop\n        /* \"#utility.yul\":14645:14654   */\n      dup2\n        /* \"#utility.yul\":14639:14643   */\n      dup2\n        /* \"#utility.yul\":14635:14655   */\n      sub\n        /* \"#utility.yul\":14631:14632   */\n      0x00\n        /* \"#utility.yul\":14620:14629   */\n      dup4\n        /* \"#utility.yul\":14616:14633   */\n      add\n        /* \"#utility.yul\":14609:14656   */\n      mstore\n        /* \"#utility.yul\":14673:14804   */\n      tag_585\n        /* \"#utility.yul\":14799:14803   */\n      dup2\n        /* \"#utility.yul\":14673:14804   */\n      tag_479\n      jump\t// in\n    tag_585:\n        /* \"#utility.yul\":14665:14804   */\n      swap1\n      pop\n        /* \"#utility.yul\":14563:14811   */\n      swap2\n      swap1\n      pop\n      jump\t// out\n        /* \"#utility.yul\":14817:15236   */\n    tag_337:\n        /* \"#utility.yul\":14983:14987   */\n      0x00\n        /* \"#utility.yul\":15021:15023   */\n      0x20\n        /* \"#utility.yul\":15010:15019   */\n      dup3\n        /* \"#utility.yul\":15006:15024   */\n      add\n        /* \"#utility.yul\":14998:15024   */\n      swap1\n      pop\n        /* \"#utility.yul\":15070:15079   */\n      dup2\n        /* \"#utility.yul\":15064:15068   */\n      dup2\n        /* \"#utility.yul\":15060:15080   */\n      sub\n        /* \"#utility.yul\":15056:15057   */\n      0x00\n        /* \"#utility.yul\":15045:15054   */\n      dup4\n        /* \"#utility.yul\":15041:15058   */\n      add\n        /* \"#utility.yul\":15034:15081   */\n      mstore\n        /* \"#utility.yul\":15098:15229   */\n      tag_587\n        /* \"#utility.yul\":15224:15228   */\n      dup2\n        /* \"#utility.yul\":15098:15229   */\n      tag_484\n      jump\t// in\n    tag_587:\n        /* \"#utility.yul\":15090:15229   */\n      swap1\n      pop\n        /* \"#utility.yul\":14988:15236   */\n      swap2\n      swap1\n      pop\n      jump\t// out\n        /* \"#utility.yul\":15242:15661   */\n    tag_362:\n        /* \"#utility.yul\":15408:15412   */\n      0x00\n        /* \"#utility.yul\":15446:15448   */\n      0x20\n        /* \"#utility.yul\":15435:15444   */\n      dup3\n        /* \"#utility.yul\":15431:15449   */\n      add\n        /* \"#utility.yul\":15423:15449   */\n      swap1\n      pop\n        /* \"#utility.yul\":15495:15504   */\n      dup2\n        /* \"#utility.yul\":15489:15493   */\n      dup2\n        /* \"#utility.yul\":15485:15505   */\n      sub\n        /* \"#utility.yul\":15481:15482   */\n      0x00\n        /* \"#utility.yul\":15470:15479   */\n      dup4\n        /* \"#utility.yul\":15466:15483   */\n      add\n        /* \"#utility.yul\":15459:15506   */\n      mstore\n        /* \"#utility.yul\":15523:15654   */\n      tag_589\n        /* \"#utility.yul\":15649:15653   */\n      dup2\n        /* \"#utility.yul\":15523:15654   */\n      tag_489\n      jump\t// in\n    tag_589:\n        /* \"#utility.yul\":15515:15654   */\n      swap1\n      pop\n        /* \"#utility.yul\":15413:15661   */\n      swap2\n      swap1\n      pop\n      jump\t// out\n        /* \"#utility.yul\":15667:16086   */\n    tag_277:\n        /* \"#utility.yul\":15833:15837   */\n      0x00\n        /* \"#utility.yul\":15871:15873   */\n      0x20\n        /* \"#utility.yul\":15860:15869   */\n      dup3\n        /* \"#utility.yul\":15856:15874   */\n      add\n        /* \"#utility.yul\":15848:15874   */\n      swap1\n      pop\n        /* \"#utility.yul\":15920:15929   */\n      dup2\n        /* \"#utility.yul\":15914:15918   */\n      dup2\n        /* \"#utility.yul\":15910:15930   */\n      sub\n        /* \"#utility.yul\":15906:15907   */\n      0x00\n        /* \"#utility.yul\":15895:15904   */\n      dup4\n        /* \"#utility.yul\":15891:15908   */\n      add\n        /* \"#utility.yul\":15884:15931   */\n      mstore\n        /* \"#utility.yul\":15948:16079   */\n      tag_591\n        /* \"#utility.yul\":16074:16078   */\n      dup2\n        /* \"#utility.yul\":15948:16079   */\n      tag_494\n      jump\t// in\n    tag_591:\n        /* \"#utility.yul\":15940:16079   */\n      swap1\n      pop\n        /* \"#utility.yul\":15838:16086   */\n      swap2\n      swap1\n      pop\n      jump\t// out\n        /* \"#utility.yul\":16092:16511   */\n    tag_304:\n        /* \"#utility.yul\":16258:16262   */\n      0x00\n        /* \"#utility.yul\":16296:16298   */\n      0x20\n        /* \"#utility.yul\":16285:16294   */\n      dup3\n        /* \"#utility.yul\":16281:16299   */\n      add\n        /* \"#utility.yul\":16273:16299   */\n      swap1\n      pop\n        /* \"#utility.yul\":16345:16354   */\n      dup2\n        /* \"#utility.yul\":16339:16343   */\n      dup2\n        /* \"#utility.yul\":16335:16355   */\n      sub\n        /* \"#utility.yul\":16331:16332   */\n      0x00\n        /* \"#utility.yul\":16320:16329   */\n      dup4\n        /* \"#utility.yul\":16316:16333   */\n      add\n        /* \"#utility.yul\":16309:16356   */\n      mstore\n        /* \"#utility.yul\":16373:16504   */\n      tag_593\n        /* \"#utility.yul\":16499:16503   */\n      dup2\n        /* \"#utility.yul\":16373:16504   */\n      tag_499\n      jump\t// in\n    tag_593:\n        /* \"#utility.yul\":16365:16504   */\n      swap1\n      pop\n        /* \"#utility.yul\":16263:16511   */\n      swap2\n      swap1\n      pop\n      jump\t// out\n        /* \"#utility.yul\":16517:16936   */\n    tag_294:\n        /* \"#utility.yul\":16683:16687   */\n      0x00\n        /* \"#utility.yul\":16721:16723   */\n      0x20\n        /* \"#utility.yul\":16710:16719   */\n      dup3\n        /* \"#utility.yul\":16706:16724   */\n      add\n        /* \"#utility.yul\":16698:16724   */\n      swap1\n      pop\n        /* \"#utility.yul\":16770:16779   */\n      dup2\n        /* \"#utility.yul\":16764:16768   */\n      dup2\n        /* \"#utility.yul\":16760:16780   */\n      sub\n        /* \"#utility.yul\":16756:16757   */\n      0x00\n        /* \"#utility.yul\":16745:16754   */\n      dup4\n        /* \"#utility.yul\":16741:16758   */\n      add\n        /* \"#utility.yul\":16734:16781   */\n      mstore\n        /* \"#utility.yul\":16798:16929   */\n      tag_595\n        /* \"#utility.yul\":16924:16928   */\n      dup2\n        /* \"#utility.yul\":16798:16929   */\n      tag_504\n      jump\t// in\n    tag_595:\n        /* \"#utility.yul\":16790:16929   */\n      swap1\n      pop\n        /* \"#utility.yul\":16688:16936   */\n      swap2\n      swap1\n      pop\n      jump\t// out\n        /* \"#utility.yul\":16942:17361   */\n    tag_374:\n        /* \"#utility.yul\":17108:17112   */\n      0x00\n        /* \"#utility.yul\":17146:17148   */\n      0x20\n        /* \"#utility.yul\":17135:17144   */\n      dup3\n        /* \"#utility.yul\":17131:17149   */\n      add\n        /* \"#utility.yul\":17123:17149   */\n      swap1\n      pop\n        /* \"#utility.yul\":17195:17204   */\n      dup2\n        /* \"#utility.yul\":17189:17193   */\n      dup2\n        /* \"#utility.yul\":17185:17205   */\n      sub\n        /* \"#utility.yul\":17181:17182   */\n      0x00\n        /* \"#utility.yul\":17170:17179   */\n      dup4\n        /* \"#utility.yul\":17166:17183   */\n      add\n        /* \"#utility.yul\":17159:17206   */\n      mstore\n        /* \"#utility.yul\":17223:17354   */\n      tag_597\n        /* \"#utility.yul\":17349:17353   */\n      dup2\n        /* \"#utility.yul\":17223:17354   */\n      tag_509\n      jump\t// in\n    tag_597:\n        /* \"#utility.yul\":17215:17354   */\n      swap1\n      pop\n        /* \"#utility.yul\":17113:17361   */\n      swap2\n      swap1\n      pop\n      jump\t// out\n        /* \"#utility.yul\":17367:17786   */\n    tag_333:\n        /* \"#utility.yul\":17533:17537   */\n      0x00\n        /* \"#utility.yul\":17571:17573   */\n      0x20\n        /* \"#utility.yul\":17560:17569   */\n      dup3\n        /* \"#utility.yul\":17556:17574   */\n      add\n        /* \"#utility.yul\":17548:17574   */\n      swap1\n      pop\n        /* \"#utility.yul\":17620:17629   */\n      dup2\n        /* \"#utility.yul\":17614:17618   */\n      dup2\n        /* \"#utility.yul\":17610:17630   */\n      sub\n        /* \"#utility.yul\":17606:17607   */\n      0x00\n        /* \"#utility.yul\":17595:17604   */\n      dup4\n        /* \"#utility.yul\":17591:17608   */\n      add\n        /* \"#utility.yul\":17584:17631   */\n      mstore\n        /* \"#utility.yul\":17648:17779   */\n      tag_599\n        /* \"#utility.yul\":17774:17778   */\n      dup2\n        /* \"#utility.yul\":17648:17779   */\n      tag_514\n      jump\t// in\n    tag_599:\n        /* \"#utility.yul\":17640:17779   */\n      swap1\n      pop\n        /* \"#utility.yul\":17538:17786   */\n      swap2\n      swap1\n      pop\n      jump\t// out\n        /* \"#utility.yul\":17792:18211   */\n    tag_286:\n        /* \"#utility.yul\":17958:17962   */\n      0x00\n        /* \"#utility.yul\":17996:17998   */\n      0x20\n        /* \"#utility.yul\":17985:17994   */\n      dup3\n        /* \"#utility.yul\":17981:17999   */\n      add\n        /* \"#utility.yul\":17973:17999   */\n      swap1\n      pop\n        /* \"#utility.yul\":18045:18054   */\n      dup2\n        /* \"#utility.yul\":18039:18043   */\n      dup2\n        /* \"#utility.yul\":18035:18055   */\n      sub\n        /* \"#utility.yul\":18031:18032   */\n      0x00\n        /* \"#utility.yul\":18020:18029   */\n      dup4\n        /* \"#utility.yul\":18016:18033   */\n      add\n        /* \"#utility.yul\":18009:18056   */\n      mstore\n        /* \"#utility.yul\":18073:18204   */\n      tag_601\n        /* \"#utility.yul\":18199:18203   */\n      dup2\n        /* \"#utility.yul\":18073:18204   */\n      tag_519\n      jump\t// in\n    tag_601:\n        /* \"#utility.yul\":18065:18204   */\n      swap1\n      pop\n        /* \"#utility.yul\":17963:18211   */\n      swap2\n      swap1\n      pop\n      jump\t// out\n        /* \"#utility.yul\":18217:18636   */\n    tag_274:\n        /* \"#utility.yul\":18383:18387   */\n      0x00\n        /* \"#utility.yul\":18421:18423   */\n      0x20\n        /* \"#utility.yul\":18410:18419   */\n      dup3\n        /* \"#utility.yul\":18406:18424   */\n      add\n        /* \"#utility.yul\":18398:18424   */\n      swap1\n      pop\n        /* \"#utility.yul\":18470:18479   */\n      dup2\n        /* \"#utility.yul\":18464:18468   */\n      dup2\n        /* \"#utility.yul\":18460:18480   */\n      sub\n        /* \"#utility.yul\":18456:18457   */\n      0x00\n        /* \"#utility.yul\":18445:18454   */\n      dup4\n        /* \"#utility.yul\":18441:18458   */\n      add\n        /* \"#utility.yul\":18434:18481   */\n      mstore\n        /* \"#utility.yul\":18498:18629   */\n      tag_603\n        /* \"#utility.yul\":18624:18628   */\n      dup2\n        /* \"#utility.yul\":18498:18629   */\n      tag_524\n      jump\t// in\n    tag_603:\n        /* \"#utility.yul\":18490:18629   */\n      swap1\n      pop\n        /* \"#utility.yul\":18388:18636   */\n      swap2\n      swap1\n      pop\n      jump\t// out\n        /* \"#utility.yul\":18642:19061   */\n    tag_251:\n        /* \"#utility.yul\":18808:18812   */\n      0x00\n        /* \"#utility.yul\":18846:18848   */\n      0x20\n        /* \"#utility.yul\":18835:18844   */\n      dup3\n        /* \"#utility.yul\":18831:18849   */\n      add\n        /* \"#utility.yul\":18823:18849   */\n      swap1\n      pop\n        /* \"#utility.yul\":18895:18904   */\n      dup2\n        /* \"#utility.yul\":18889:18893   */\n      dup2\n        /* \"#utility.yul\":18885:18905   */\n      sub\n        /* \"#utility.yul\":18881:18882   */\n      0x00\n        /* \"#utility.yul\":18870:18879   */\n      dup4\n        /* \"#utility.yul\":18866:18883   */\n      add\n        /* \"#utility.yul\":18859:18906   */\n      mstore\n        /* \"#utility.yul\":18923:19054   */\n      tag_605\n        /* \"#utility.yul\":19049:19053   */\n      dup2\n        /* \"#utility.yul\":18923:19054   */\n      tag_534\n      jump\t// in\n    tag_605:\n        /* \"#utility.yul\":18915:19054   */\n      swap1\n      pop\n        /* \"#utility.yul\":18813:19061   */\n      swap2\n      swap1\n      pop\n      jump\t// out\n        /* \"#utility.yul\":19067:19486   */\n    tag_200:\n        /* \"#utility.yul\":19233:19237   */\n      0x00\n        /* \"#utility.yul\":19271:19273   */\n      0x20\n        /* \"#utility.yul\":19260:19269   */\n      dup3\n        /* \"#utility.yul\":19256:19274   */\n      add\n        /* \"#utility.yul\":19248:19274   */\n      swap1\n      pop\n        /* \"#utility.yul\":19320:19329   */\n      dup2\n        /* \"#utility.yul\":19314:19318   */\n      dup2\n        /* \"#utility.yul\":19310:19330   */\n      sub\n        /* \"#utility.yul\":19306:19307   */\n      0x00\n        /* \"#utility.yul\":19295:19304   */\n      dup4\n        /* \"#utility.yul\":19291:19308   */\n      add\n        /* \"#utility.yul\":19284:19331   */\n      mstore\n        /* \"#utility.yul\":19348:19479   */\n      tag_607\n        /* \"#utility.yul\":19474:19478   */\n      dup2\n        /* \"#utility.yul\":19348:19479   */\n      tag_544\n      jump\t// in\n    tag_607:\n        /* \"#utility.yul\":19340:19479   */\n      swap1\n      pop\n        /* \"#utility.yul\":19238:19486   */\n      swap2\n      swap1\n      pop\n      jump\t// out\n        /* \"#utility.yul\":19492:19911   */\n    tag_324:\n        /* \"#utility.yul\":19658:19662   */\n      0x00\n        /* \"#utility.yul\":19696:19698   */\n      0x20\n        /* \"#utility.yul\":19685:19694   */\n      dup3\n        /* \"#utility.yul\":19681:19699   */\n      add\n        /* \"#utility.yul\":19673:19699   */\n      swap1\n      pop\n        /* \"#utility.yul\":19745:19754   */\n      dup2\n        /* \"#utility.yul\":19739:19743   */\n      dup2\n        /* \"#utility.yul\":19735:19755   */\n      sub\n        /* \"#utility.yul\":19731:19732   */\n      0x00\n        /* \"#utility.yul\":19720:19729   */\n      dup4\n        /* \"#utility.yul\":19716:19733   */\n      add\n        /* \"#utility.yul\":19709:19756   */\n      mstore\n        /* \"#utility.yul\":19773:19904   */\n      tag_609\n        /* \"#utility.yul\":19899:19903   */\n      dup2\n        /* \"#utility.yul\":19773:19904   */\n      tag_549\n      jump\t// in\n    tag_609:\n        /* \"#utility.yul\":19765:19904   */\n      swap1\n      pop\n        /* \"#utility.yul\":19663:19911   */\n      swap2\n      swap1\n      pop\n      jump\t// out\n        /* \"#utility.yul\":19917:20336   */\n    tag_221:\n        /* \"#utility.yul\":20083:20087   */\n      0x00\n        /* \"#utility.yul\":20121:20123   */\n      0x20\n        /* \"#utility.yul\":20110:20119   */\n      dup3\n        /* \"#utility.yul\":20106:20124   */\n      add\n        /* \"#utility.yul\":20098:20124   */\n      swap1\n      pop\n        /* \"#utility.yul\":20170:20179   */\n      dup2\n        /* \"#utility.yul\":20164:20168   */\n      dup2\n        /* \"#utility.yul\":20160:20180   */\n      sub\n        /* \"#utility.yul\":20156:20157   */\n      0x00\n        /* \"#utility.yul\":20145:20154   */\n      dup4\n        /* \"#utility.yul\":20141:20158   */\n      add\n        /* \"#utility.yul\":20134:20181   */\n      mstore\n        /* \"#utility.yul\":20198:20329   */\n      tag_611\n        /* \"#utility.yul\":20324:20328   */\n      dup2\n        /* \"#utility.yul\":20198:20329   */\n      tag_554\n      jump\t// in\n    tag_611:\n        /* \"#utility.yul\":20190:20329   */\n      swap1\n      pop\n        /* \"#utility.yul\":20088:20336   */\n      swap2\n      swap1\n      pop\n      jump\t// out\n        /* \"#utility.yul\":20342:20564   */\n    tag_68:\n        /* \"#utility.yul\":20435:20439   */\n      0x00\n        /* \"#utility.yul\":20473:20475   */\n      0x20\n        /* \"#utility.yul\":20462:20471   */\n      dup3\n        /* \"#utility.yul\":20458:20476   */\n      add\n        /* \"#utility.yul\":20450:20476   */\n      swap1\n      pop\n        /* \"#utility.yul\":20486:20557   */\n      tag_613\n        /* \"#utility.yul\":20554:20555   */\n      0x00\n        /* \"#utility.yul\":20543:20552   */\n      dup4\n        /* \"#utility.yul\":20539:20556   */\n      add\n        /* \"#utility.yul\":20530:20536   */\n      dup5\n        /* \"#utility.yul\":20486:20557   */\n      tag_559\n      jump\t// in\n    tag_613:\n        /* \"#utility.yul\":20440:20564   */\n      swap3\n      swap2\n      pop\n      pop\n      jump\t// out\n        /* \"#utility.yul\":20570:20784   */\n    tag_86:\n        /* \"#utility.yul\":20659:20663   */\n      0x00\n        /* \"#utility.yul\":20697:20699   */\n      0x20\n        /* \"#utility.yul\":20686:20695   */\n      dup3\n        /* \"#utility.yul\":20682:20700   */\n      add\n        /* \"#utility.yul\":20674:20700   */\n      swap1\n      pop\n        /* \"#utility.yul\":20710:20777   */\n      tag_615\n        /* \"#utility.yul\":20774:20775   */\n      0x00\n        /* \"#utility.yul\":20763:20772   */\n      dup4\n        /* \"#utility.yul\":20759:20776   */\n      add\n        /* \"#utility.yul\":20750:20756   */\n      dup5\n        /* \"#utility.yul\":20710:20777   */\n      tag_563\n      jump\t// in\n    tag_615:\n        /* \"#utility.yul\":20664:20784   */\n      swap3\n      swap2\n      pop\n      pop\n      jump\t// out\n        /* \"#utility.yul\":20790:20889   */\n    tag_456:\n        /* \"#utility.yul\":20842:20848   */\n      0x00\n        /* \"#utility.yul\":20876:20881   */\n      dup2\n        /* \"#utility.yul\":20870:20882   */\n      mload\n        /* \"#utility.yul\":20860:20882   */\n      swap1\n      pop\n        /* \"#utility.yul\":20849:20889   */\n      swap2\n      swap1\n      pop\n      jump\t// out\n        /* \"#utility.yul\":20895:21064   */\n    tag_458:\n        /* \"#utility.yul\":20979:20990   */\n      0x00\n        /* \"#utility.yul\":21013:21019   */\n      dup3\n        /* \"#utility.yul\":21008:21011   */\n      dup3\n        /* \"#utility.yul\":21001:21020   */\n      mstore\n        /* \"#utility.yul\":21053:21057   */\n      0x20\n        /* \"#utility.yul\":21048:21051   */\n      dup3\n        /* \"#utility.yul\":21044:21058   */\n      add\n        /* \"#utility.yul\":21029:21058   */\n      swap1\n      pop\n        /* \"#utility.yul\":20991:21064   */\n      swap3\n      swap2\n      pop\n      pop\n      jump\t// out\n        /* \"#utility.yul\":21070:21218   */\n    tag_467:\n        /* \"#utility.yul\":21172:21183   */\n      0x00\n        /* \"#utility.yul\":21209:21212   */\n      dup2\n        /* \"#utility.yul\":21194:21212   */\n      swap1\n      pop\n        /* \"#utility.yul\":21184:21218   */\n      swap3\n      swap2\n      pop\n      pop\n      jump\t// out\n        /* \"#utility.yul\":21224:21529   */\n    tag_208:\n        /* \"#utility.yul\":21264:21267   */\n      0x00\n        /* \"#utility.yul\":21283:21303   */\n      tag_620\n        /* \"#utility.yul\":21301:21302   */\n      dup3\n        /* \"#utility.yul\":21283:21303   */\n      tag_562\n      jump\t// in\n    tag_620:\n        /* \"#utility.yul\":21278:21303   */\n      swap2\n      pop\n        /* \"#utility.yul\":21317:21337   */\n      tag_621\n        /* \"#utility.yul\":21335:21336   */\n      dup4\n        /* \"#utility.yul\":21317:21337   */\n      tag_562\n      jump\t// in\n    tag_621:\n        /* \"#utility.yul\":21312:21337   */\n      swap3\n      pop\n        /* \"#utility.yul\":21471:21472   */\n      dup3\n        /* \"#utility.yul\":21403:21469   */\n      0xffffffffffffffffffffffffffffffffffffffffffffffffffffffffffffffff\n        /* \"#utility.yul\":21399:21473   */\n      sub\n        /* \"#utility.yul\":21396:21397   */\n      dup3\n        /* \"#utility.yul\":21393:21474   */\n      gt\n        /* \"#utility.yul\":21390:21392   */\n      iszero\n      tag_622\n      jumpi\n        /* \"#utility.yul\":21477:21495   */\n      tag_623\n      tag_624\n      jump\t// in\n    tag_623:\n        /* \"#utility.yul\":21390:21392   */\n    tag_622:\n        /* \"#utility.yul\":21521:21522   */\n      dup3\n        /* \"#utility.yul\":21518:21519   */\n      dup3\n        /* \"#utility.yul\":21514:21523   */\n      add\n        /* \"#utility.yul\":21507:21523   */\n      swap1\n      pop\n        /* \"#utility.yul\":21268:21529   */\n      swap3\n      swap2\n      pop\n      pop\n      jump\t// out\n        /* \"#utility.yul\":21535:21883   */\n    tag_377:\n        /* \"#utility.yul\":21575:21582   */\n      0x00\n        /* \"#utility.yul\":21598:21618   */\n      tag_626\n        /* \"#utility.yul\":21616:21617   */\n      dup3\n        /* \"#utility.yul\":21598:21618   */\n      tag_562\n      jump\t// in\n    tag_626:\n        /* \"#utility.yul\":21593:21618   */\n      swap2\n      pop\n        /* \"#utility.yul\":21632:21652   */\n      tag_627\n        /* \"#utility.yul\":21650:21651   */\n      dup4\n        /* \"#utility.yul\":21632:21652   */\n      tag_562\n      jump\t// in\n    tag_627:\n        /* \"#utility.yul\":21627:21652   */\n      swap3\n      pop\n        /* \"#utility.yul\":21820:21821   */\n      dup2\n        /* \"#utility.yul\":21752:21818   */\n      0xffffffffffffffffffffffffffffffffffffffffffffffffffffffffffffffff\n        /* \"#utility.yul\":21748:21822   */\n      div\n        /* \"#utility.yul\":21745:21746   */\n      dup4\n        /* \"#utility.yul\":21742:21823   */\n      gt\n        /* \"#utility.yul\":21737:21738   */\n      dup3\n        /* \"#utility.yul\":21730:21739   */\n      iszero\n        /* \"#utility.yul\":21723:21740   */\n      iszero\n        /* \"#utility.yul\":21719:21824   */\n      and\n        /* \"#utility.yul\":21716:21718   */\n      iszero\n      tag_628\n      jumpi\n        /* \"#utility.yul\":21827:21845   */\n      tag_629\n      tag_624\n      jump\t// in\n    tag_629:\n        /* \"#utility.yul\":21716:21718   */\n    tag_628:\n        /* \"#utility.yul\":21875:21876   */\n      dup3\n        /* \"#utility.yul\":21872:21873   */\n      dup3\n        /* \"#utility.yul\":21868:21877   */\n      mul\n        /* \"#utility.yul\":21857:21877   */\n      swap1\n      pop\n        /* \"#utility.yul\":21583:21883   */\n      swap3\n      swap2\n      pop\n      pop\n      jump\t// out\n        /* \"#utility.yul\":21889:22080   */\n    tag_339:\n        /* \"#utility.yul\":21929:21933   */\n      0x00\n        /* \"#utility.yul\":21949:21969   */\n      tag_631\n        /* \"#utility.yul\":21967:21968   */\n      dup3\n        /* \"#utility.yul\":21949:21969   */\n      tag_562\n      jump\t// in\n    tag_631:\n        /* \"#utility.yul\":21944:21969   */\n      swap2\n      pop\n        /* \"#utility.yul\":21983:22003   */\n      tag_632\n        /* \"#utility.yul\":22001:22002   */\n      dup4\n        /* \"#utility.yul\":21983:22003   */\n      tag_562\n      jump\t// in\n    tag_632:\n        /* \"#utility.yul\":21978:22003   */\n      swap3\n      pop\n        /* \"#utility.yul\":22022:22023   */\n      dup3\n        /* \"#utility.yul\":22019:22020   */\n      dup3\n        /* \"#utility.yul\":22016:22024   */\n      lt\n        /* \"#utility.yul\":22013:22015   */\n      iszero\n      tag_633\n      jumpi\n        /* \"#utility.yul\":22027:22045   */\n      tag_634\n      tag_624\n      jump\t// in\n    tag_634:\n        /* \"#utility.yul\":22013:22015   */\n    tag_633:\n        /* \"#utility.yul\":22072:22073   */\n      dup3\n        /* \"#utility.yul\":22069:22070   */\n      dup3\n        /* \"#utility.yul\":22065:22074   */\n      sub\n        /* \"#utility.yul\":22057:22074   */\n      swap1\n      pop\n        /* \"#utility.yul\":21934:22080   */\n      swap3\n      swap2\n      pop\n      pop\n      jump\t// out\n        /* \"#utility.yul\":22086:22182   */\n    tag_444:\n        /* \"#utility.yul\":22123:22130   */\n      0x00\n        /* \"#utility.yul\":22152:22176   */\n      tag_636\n        /* \"#utility.yul\":22170:22175   */\n      dup3\n        /* \"#utility.yul\":22152:22176   */\n      tag_637\n      jump\t// in\n    tag_636:\n        /* \"#utility.yul\":22141:22176   */\n      swap1\n      pop\n        /* \"#utility.yul\":22131:22182   */\n      swap2\n      swap1\n      pop\n      jump\t// out\n        /* \"#utility.yul\":22188:22278   */\n    tag_448:\n        /* \"#utility.yul\":22222:22229   */\n      0x00\n        /* \"#utility.yul\":22265:22270   */\n      dup2\n        /* \"#utility.yul\":22258:22271   */\n      iszero\n        /* \"#utility.yul\":22251:22272   */\n      iszero\n        /* \"#utility.yul\":22240:22272   */\n      swap1\n      pop\n        /* \"#utility.yul\":22230:22278   */\n      swap2\n      swap1\n      pop\n      jump\t// out\n        /* \"#utility.yul\":22284:22361   */\n    tag_452:\n        /* \"#utility.yul\":22321:22328   */\n      0x00\n        /* \"#utility.yul\":22350:22355   */\n      dup2\n        /* \"#utility.yul\":22339:22355   */\n      swap1\n      pop\n        /* \"#utility.yul\":22329:22361   */\n      swap2\n      swap1\n      pop\n      jump\t// out\n        /* \"#utility.yul\":22367:22516   */\n    tag_640:\n        /* \"#utility.yul\":22403:22410   */\n      0x00\n        /* \"#utility.yul\":22443:22509   */\n      0xffffffff00000000000000000000000000000000000000000000000000000000\n        /* \"#utility.yul\":22436:22441   */\n      dup3\n        /* \"#utility.yul\":22432:22510   */\n      and\n        /* \"#utility.yul\":22421:22510   */\n      swap1\n      pop\n        /* \"#utility.yul\":22411:22516   */\n      swap2\n      swap1\n      pop\n      jump\t// out\n        /* \"#utility.yul\":22522:22648   */\n    tag_637:\n        /* \"#utility.yul\":22559:22566   */\n      0x00\n        /* \"#utility.yul\":22599:22641   */\n      0xffffffffffffffffffffffffffffffffffffffff\n        /* \"#utility.yul\":22592:22597   */\n      dup3\n        /* \"#utility.yul\":22588:22642   */\n      and\n        /* \"#utility.yul\":22577:22642   */\n      swap1\n      pop\n        /* \"#utility.yul\":22567:22648   */\n      swap2\n      swap1\n      pop\n      jump\t// out\n        /* \"#utility.yul\":22654:22731   */\n    tag_562:\n        /* \"#utility.yul\":22691:22698   */\n      0x00\n        /* \"#utility.yul\":22720:22725   */\n      dup2\n        /* \"#utility.yul\":22709:22725   */\n      swap1\n      pop\n        /* \"#utility.yul\":22699:22731   */\n      swap2\n      swap1\n      pop\n      jump\t// out\n        /* \"#utility.yul\":22737:22823   */\n    tag_566:\n        /* \"#utility.yul\":22772:22779   */\n      0x00\n        /* \"#utility.yul\":22812:22816   */\n      0xff\n        /* \"#utility.yul\":22805:22810   */\n      dup3\n        /* \"#utility.yul\":22801:22817   */\n      and\n        /* \"#utility.yul\":22790:22817   */\n      swap1\n      pop\n        /* \"#utility.yul\":22780:22823   */\n      swap2\n      swap1\n      pop\n      jump\t// out\n        /* \"#utility.yul\":22829:23136   */\n    tag_460:\n        /* \"#utility.yul\":22897:22898   */\n      0x00\n        /* \"#utility.yul\":22907:23020   */\n    tag_646:\n        /* \"#utility.yul\":22921:22927   */\n      dup4\n        /* \"#utility.yul\":22918:22919   */\n      dup2\n        /* \"#utility.yul\":22915:22928   */\n      lt\n        /* \"#utility.yul\":22907:23020   */\n      iszero\n      tag_648\n      jumpi\n        /* \"#utility.yul\":23006:23007   */\n      dup1\n        /* \"#utility.yul\":23001:23004   */\n      dup3\n        /* \"#utility.yul\":22997:23008   */\n      add\n        /* \"#utility.yul\":22991:23009   */\n      mload\n        /* \"#utility.yul\":22987:22988   */\n      dup2\n        /* \"#utility.yul\":22982:22985   */\n      dup5\n        /* \"#utility.yul\":22978:22989   */\n      add\n        /* \"#utility.yul\":22971:23010   */\n      mstore\n        /* \"#utility.yul\":22943:22945   */\n      0x20\n        /* \"#utility.yul\":22940:22941   */\n      dup2\n        /* \"#utility.yul\":22936:22946   */\n      add\n        /* \"#utility.yul\":22931:22946   */\n      swap1\n      pop\n        /* \"#utility.yul\":22907:23020   */\n      jump(tag_646)\n    tag_648:\n        /* \"#utility.yul\":23038:23044   */\n      dup4\n        /* \"#utility.yul\":23035:23036   */\n      dup2\n        /* \"#utility.yul\":23032:23045   */\n      gt\n        /* \"#utility.yul\":23029:23031   */\n      iszero\n      tag_649\n      jumpi\n        /* \"#utility.yul\":23118:23119   */\n      0x00\n        /* \"#utility.yul\":23109:23115   */\n      dup5\n        /* \"#utility.yul\":23104:23107   */\n      dup5\n        /* \"#utility.yul\":23100:23116   */\n      add\n        /* \"#utility.yul\":23093:23120   */\n      mstore\n        /* \"#utility.yul\":23029:23031   */\n    tag_649:\n        /* \"#utility.yul\":22878:23136   */\n      pop\n      pop\n      pop\n      pop\n      jump\t// out\n        /* \"#utility.yul\":23142:23313   */\n    tag_391:\n        /* \"#utility.yul\":23181:23184   */\n      0x00\n        /* \"#utility.yul\":23204:23228   */\n      tag_651\n        /* \"#utility.yul\":23222:23227   */\n      dup3\n        /* \"#utility.yul\":23204:23228   */\n      tag_562\n      jump\t// in\n    tag_651:\n        /* \"#utility.yul\":23195:23228   */\n      swap2\n      pop\n        /* \"#utility.yul\":23250:23254   */\n      0x00\n        /* \"#utility.yul\":23243:23248   */\n      dup3\n        /* \"#utility.yul\":23240:23255   */\n      eq\n        /* \"#utility.yul\":23237:23239   */\n      iszero\n      tag_652\n      jumpi\n        /* \"#utility.yul\":23258:23276   */\n      tag_653\n      tag_624\n      jump\t// in\n    tag_653:\n        /* \"#utility.yul\":23237:23239   */\n    tag_652:\n        /* \"#utility.yul\":23305:23306   */\n      0x01\n        /* \"#utility.yul\":23298:23303   */\n      dup3\n        /* \"#utility.yul\":23294:23307   */\n      sub\n        /* \"#utility.yul\":23287:23307   */\n      swap1\n      pop\n        /* \"#utility.yul\":23185:23313   */\n      swap2\n      swap1\n      pop\n      jump\t// out\n        /* \"#utility.yul\":23319:23639   */\n    tag_165:\n        /* \"#utility.yul\":23363:23369   */\n      0x00\n        /* \"#utility.yul\":23400:23401   */\n      0x02\n        /* \"#utility.yul\":23394:23398   */\n      dup3\n        /* \"#utility.yul\":23390:23402   */\n      div\n        /* \"#utility.yul\":23380:23402   */\n      swap1\n      pop\n        /* \"#utility.yul\":23447:23448   */\n      0x01\n        /* \"#utility.yul\":23441:23445   */\n      dup3\n        /* \"#utility.yul\":23437:23449   */\n      and\n        /* \"#utility.yul\":23468:23486   */\n      dup1\n        /* \"#utility.yul\":23458:23460   */\n      tag_655\n      jumpi\n        /* \"#utility.yul\":23524:23528   */\n      0x7f\n        /* \"#utility.yul\":23516:23522   */\n      dup3\n        /* \"#utility.yul\":23512:23529   */\n      and\n        /* \"#utility.yul\":23502:23529   */\n      swap2\n      pop\n        /* \"#utility.yul\":23458:23460   */\n    tag_655:\n        /* \"#utility.yul\":23586:23588   */\n      0x20\n        /* \"#utility.yul\":23578:23584   */\n      dup3\n        /* \"#utility.yul\":23575:23589   */\n      lt\n        /* \"#utility.yul\":23555:23573   */\n      dup2\n        /* \"#utility.yul\":23552:23590   */\n      eq\n        /* \"#utility.yul\":23549:23551   */\n      iszero\n      tag_656\n      jumpi\n        /* \"#utility.yul\":23605:23623   */\n      tag_657\n      tag_658\n      jump\t// in\n    tag_657:\n        /* \"#utility.yul\":23549:23551   */\n    tag_656:\n        /* \"#utility.yul\":23370:23639   */\n      pop\n      swap2\n      swap1\n      pop\n      jump\t// out\n        /* \"#utility.yul\":23645:23825   */\n    tag_624:\n        /* \"#utility.yul\":23693:23770   */\n      0x4e487b7100000000000000000000000000000000000000000000000000000000\n        /* \"#utility.yul\":23690:23691   */\n      0x00\n        /* \"#utility.yul\":23683:23771   */\n      mstore\n        /* \"#utility.yul\":23790:23794   */\n      0x11\n        /* \"#utility.yul\":23787:23788   */\n      0x04\n        /* \"#utility.yul\":23780:23795   */\n      mstore\n        /* \"#utility.yul\":23814:23818   */\n      0x24\n        /* \"#utility.yul\":23811:23812   */\n      0x00\n        /* \"#utility.yul\":23804:23819   */\n      revert\n        /* \"#utility.yul\":23831:24011   */\n    tag_658:\n        /* \"#utility.yul\":23879:23956   */\n      0x4e487b7100000000000000000000000000000000000000000000000000000000\n        /* \"#utility.yul\":23876:23877   */\n      0x00\n        /* \"#utility.yul\":23869:23957   */\n      mstore\n        /* \"#utility.yul\":23976:23980   */\n      0x22\n        /* \"#utility.yul\":23973:23974   */\n      0x04\n        /* \"#utility.yul\":23966:23981   */\n      mstore\n        /* \"#utility.yul\":24000:24004   */\n      0x24\n        /* \"#utility.yul\":23997:23998   */\n      0x00\n        /* \"#utility.yul\":23990:24005   */\n      revert\n        /* \"#utility.yul\":24017:24119   */\n    tag_462:\n        /* \"#utility.yul\":24058:24064   */\n      0x00\n        /* \"#utility.yul\":24109:24111   */\n      0x1f\n        /* \"#utility.yul\":24105:24112   */\n      not\n        /* \"#utility.yul\":24100:24102   */\n      0x1f\n        /* \"#utility.yul\":24093:24098   */\n      dup4\n        /* \"#utility.yul\":24089:24103   */\n      add\n        /* \"#utility.yul\":24085:24113   */\n      and\n        /* \"#utility.yul\":24075:24113   */\n      swap1\n      pop\n        /* \"#utility.yul\":24065:24119   */\n      swap2\n      swap1\n      pop\n      jump\t// out\n        /* \"#utility.yul\":24125:24307   */\n    tag_473:\n        /* \"#utility.yul\":24265:24299   */\n      0x537472696e67733a20686578206c656e67746820696e73756666696369656e74\n        /* \"#utility.yul\":24261:24262   */\n      0x00\n        /* \"#utility.yul\":24253:24259   */\n      dup3\n        /* \"#utility.yul\":24249:24263   */\n      add\n        /* \"#utility.yul\":24242:24300   */\n      mstore\n        /* \"#utility.yul\":24231:24307   */\n      pop\n      jump\t// out\n        /* \"#utility.yul\":24313:24535   */\n    tag_478:\n        /* \"#utility.yul\":24453:24487   */\n      0x45524332303a207472616e7366657220746f20746865207a65726f2061646472\n        /* \"#utility.yul\":24449:24450   */\n      0x00\n        /* \"#utility.yul\":24441:24447   */\n      dup3\n        /* \"#utility.yul\":24437:24451   */\n      add\n        /* \"#utility.yul\":24430:24488   */\n      mstore\n        /* \"#utility.yul\":24522:24527   */\n      0x6573730000000000000000000000000000000000000000000000000000000000\n        /* \"#utility.yul\":24517:24519   */\n      0x20\n        /* \"#utility.yul\":24509:24515   */\n      dup3\n        /* \"#utility.yul\":24505:24520   */\n      add\n        /* \"#utility.yul\":24498:24528   */\n      mstore\n        /* \"#utility.yul\":24419:24535   */\n      pop\n      jump\t// out\n        /* \"#utility.yul\":24541:24711   */\n    tag_483:\n        /* \"#utility.yul\":24681:24703   */\n      0x5061757361626c653a206e6f7420706175736564000000000000000000000000\n        /* \"#utility.yul\":24677:24678   */\n      0x00\n        /* \"#utility.yul\":24669:24675   */\n      dup3\n        /* \"#utility.yul\":24665:24679   */\n      add\n        /* \"#utility.yul\":24658:24704   */\n      mstore\n        /* \"#utility.yul\":24647:24711   */\n      pop\n      jump\t// out\n        /* \"#utility.yul\":24717:24938   */\n    tag_488:\n        /* \"#utility.yul\":24857:24891   */\n      0x45524332303a206275726e20616d6f756e7420657863656564732062616c616e\n        /* \"#utility.yul\":24853:24854   */\n      0x00\n        /* \"#utility.yul\":24845:24851   */\n      dup3\n        /* \"#utility.yul\":24841:24855   */\n      add\n        /* \"#utility.yul\":24834:24892   */\n      mstore\n        /* \"#utility.yul\":24926:24930   */\n      0x6365000000000000000000000000000000000000000000000000000000000000\n        /* \"#utility.yul\":24921:24923   */\n      0x20\n        /* \"#utility.yul\":24913:24919   */\n      dup3\n        /* \"#utility.yul\":24909:24924   */\n      add\n        /* \"#utility.yul\":24902:24931   */\n      mstore\n        /* \"#utility.yul\":24823:24938   */\n      pop\n      jump\t// out\n        /* \"#utility.yul\":24944:25168   */\n    tag_493:\n        /* \"#utility.yul\":25084:25118   */\n      0x546f6b656e207472616e736665722066726f6d204c6f636b6564416464726573\n        /* \"#utility.yul\":25080:25081   */\n      0x00\n        /* \"#utility.yul\":25072:25078   */\n      dup3\n        /* \"#utility.yul\":25068:25082   */\n      add\n        /* \"#utility.yul\":25061:25119   */\n      mstore\n        /* \"#utility.yul\":25153:25160   */\n      0x734c697374000000000000000000000000000000000000000000000000000000\n        /* \"#utility.yul\":25148:25150   */\n      0x20\n        /* \"#utility.yul\":25140:25146   */\n      dup3\n        /* \"#utility.yul\":25136:25151   */\n      add\n        /* \"#utility.yul\":25129:25161   */\n      mstore\n        /* \"#utility.yul\":25050:25168   */\n      pop\n      jump\t// out\n        /* \"#utility.yul\":25174:25395   */\n    tag_498:\n        /* \"#utility.yul\":25314:25348   */\n      0x45524332303a20617070726f766520746f20746865207a65726f206164647265\n        /* \"#utility.yul\":25310:25311   */\n      0x00\n        /* \"#utility.yul\":25302:25308   */\n      dup3\n        /* \"#utility.yul\":25298:25312   */\n      add\n        /* \"#utility.yul\":25291:25349   */\n      mstore\n        /* \"#utility.yul\":25383:25387   */\n      0x7373000000000000000000000000000000000000000000000000000000000000\n        /* \"#utility.yul\":25378:25380   */\n      0x20\n        /* \"#utility.yul\":25370:25376   */\n      dup3\n        /* \"#utility.yul\":25366:25381   */\n      add\n        /* \"#utility.yul\":25359:25388   */\n      mstore\n        /* \"#utility.yul\":25280:25395   */\n      pop\n      jump\t// out\n        /* \"#utility.yul\":25401:25580   */\n    tag_503:\n        /* \"#utility.yul\":25541:25572   */\n      0x45524332303a20696e73756666696369656e7420616c6c6f77616e6365000000\n        /* \"#utility.yul\":25537:25538   */\n      0x00\n        /* \"#utility.yul\":25529:25535   */\n      dup3\n        /* \"#utility.yul\":25525:25539   */\n      add\n        /* \"#utility.yul\":25518:25573   */\n      mstore\n        /* \"#utility.yul\":25507:25580   */\n      pop\n      jump\t// out\n        /* \"#utility.yul\":25586:25811   */\n    tag_508:\n        /* \"#utility.yul\":25726:25760   */\n      0x45524332303a207472616e7366657220616d6f756e7420657863656564732062\n        /* \"#utility.yul\":25722:25723   */\n      0x00\n        /* \"#utility.yul\":25714:25720   */\n      dup3\n        /* \"#utility.yul\":25710:25724   */\n      add\n        /* \"#utility.yul\":25703:25761   */\n      mstore\n        /* \"#utility.yul\":25795:25803   */\n      0x616c616e63650000000000000000000000000000000000000000000000000000\n        /* \"#utility.yul\":25790:25792   */\n      0x20\n        /* \"#utility.yul\":25782:25788   */\n      dup3\n        /* \"#utility.yul\":25778:25793   */\n      add\n        /* \"#utility.yul\":25771:25804   */\n      mstore\n        /* \"#utility.yul\":25692:25811   */\n      pop\n      jump\t// out\n        /* \"#utility.yul\":25817:25983   */\n    tag_513:\n        /* \"#utility.yul\":25957:25975   */\n      0x5061757361626c653a2070617573656400000000000000000000000000000000\n        /* \"#utility.yul\":25953:25954   */\n      0x00\n        /* \"#utility.yul\":25945:25951   */\n      dup3\n        /* \"#utility.yul\":25941:25955   */\n      add\n        /* \"#utility.yul\":25934:25976   */\n      mstore\n        /* \"#utility.yul\":25923:25983   */\n      pop\n      jump\t// out\n        /* \"#utility.yul\":25989:26209   */\n    tag_518:\n        /* \"#utility.yul\":26129:26163   */\n      0x45524332303a206275726e2066726f6d20746865207a65726f20616464726573\n        /* \"#utility.yul\":26125:26126   */\n      0x00\n        /* \"#utility.yul\":26117:26123   */\n      dup3\n        /* \"#utility.yul\":26113:26127   */\n      add\n        /* \"#utility.yul\":26106:26164   */\n      mstore\n        /* \"#utility.yul\":26198:26201   */\n      0x7300000000000000000000000000000000000000000000000000000000000000\n        /* \"#utility.yul\":26193:26195   */\n      0x20\n        /* \"#utility.yul\":26185:26191   */\n      dup3\n        /* \"#utility.yul\":26181:26196   */\n      add\n        /* \"#utility.yul\":26174:26202   */\n      mstore\n        /* \"#utility.yul\":26095:26209   */\n      pop\n      jump\t// out\n        /* \"#utility.yul\":26215:26439   */\n    tag_523:\n        /* \"#utility.yul\":26355:26389   */\n      0x45524332303a207472616e736665722066726f6d20746865207a65726f206164\n        /* \"#utility.yul\":26351:26352   */\n      0x00\n        /* \"#utility.yul\":26343:26349   */\n      dup3\n        /* \"#utility.yul\":26339:26353   */\n      add\n        /* \"#utility.yul\":26332:26390   */\n      mstore\n        /* \"#utility.yul\":26424:26431   */\n      0x6472657373000000000000000000000000000000000000000000000000000000\n        /* \"#utility.yul\":26419:26421   */\n      0x20\n        /* \"#utility.yul\":26411:26417   */\n      dup3\n        /* \"#utility.yul\":26407:26422   */\n      add\n        /* \"#utility.yul\":26400:26432   */\n      mstore\n        /* \"#utility.yul\":26321:26439   */\n      pop\n      jump\t// out\n        /* \"#utility.yul\":26445:26668   */\n    tag_528:\n        /* \"#utility.yul\":26585:26619   */\n      0x45524332303a20617070726f76652066726f6d20746865207a65726f20616464\n        /* \"#utility.yul\":26581:26582   */\n      0x00\n        /* \"#utility.yul\":26573:26579   */\n      dup3\n        /* \"#utility.yul\":26569:26583   */\n      add\n        /* \"#utility.yul\":26562:26620   */\n      mstore\n        /* \"#utility.yul\":26654:26660   */\n      0x7265737300000000000000000000000000000000000000000000000000000000\n        /* \"#utility.yul\":26649:26651   */\n      0x20\n        /* \"#utility.yul\":26641:26647   */\n      dup3\n        /* \"#utility.yul\":26637:26652   */\n      add\n        /* \"#utility.yul\":26630:26661   */\n      mstore\n        /* \"#utility.yul\":26551:26668   */\n      pop\n      jump\t// out\n        /* \"#utility.yul\":26674:26847   */\n    tag_533:\n        /* \"#utility.yul\":26814:26839   */\n      0x416363657373436f6e74726f6c3a206163636f756e7420000000000000000000\n        /* \"#utility.yul\":26810:26811   */\n      0x00\n        /* \"#utility.yul\":26802:26808   */\n      dup3\n        /* \"#utility.yul\":26798:26812   */\n      add\n        /* \"#utility.yul\":26791:26840   */\n      mstore\n        /* \"#utility.yul\":26780:26847   */\n      pop\n      jump\t// out\n        /* \"#utility.yul\":26853:27077   */\n    tag_538:\n        /* \"#utility.yul\":26993:27027   */\n      0x45524332303a2064656372656173656420616c6c6f77616e63652062656c6f77\n        /* \"#utility.yul\":26989:26990   */\n      0x00\n        /* \"#utility.yul\":26981:26987   */\n      dup3\n        /* \"#utility.yul\":26977:26991   */\n      add\n        /* \"#utility.yul\":26970:27028   */\n      mstore\n        /* \"#utility.yul\":27062:27069   */\n      0x207a65726f000000000000000000000000000000000000000000000000000000\n        /* \"#utility.yul\":27057:27059   */\n      0x20\n        /* \"#utility.yul\":27049:27055   */\n      dup3\n        /* \"#utility.yul\":27045:27060   */\n      add\n        /* \"#utility.yul\":27038:27070   */\n      mstore\n        /* \"#utility.yul\":26959:27077   */\n      pop\n      jump\t// out\n        /* \"#utility.yul\":27083:27250   */\n    tag_543:\n        /* \"#utility.yul\":27223:27242   */\n      0x206973206d697373696e6720726f6c6520000000000000000000000000000000\n        /* \"#utility.yul\":27219:27220   */\n      0x00\n        /* \"#utility.yul\":27211:27217   */\n      dup3\n        /* \"#utility.yul\":27207:27221   */\n      add\n        /* \"#utility.yul\":27200:27243   */\n      mstore\n        /* \"#utility.yul\":27189:27250   */\n      pop\n      jump\t// out\n        /* \"#utility.yul\":27256:27490   */\n    tag_548:\n        /* \"#utility.yul\":27396:27430   */\n      0x416363657373436f6e74726f6c3a2063616e206f6e6c792072656e6f756e6365\n        /* \"#utility.yul\":27392:27393   */\n      0x00\n        /* \"#utility.yul\":27384:27390   */\n      dup3\n        /* \"#utility.yul\":27380:27394   */\n      add\n        /* \"#utility.yul\":27373:27431   */\n      mstore\n        /* \"#utility.yul\":27465:27482   */\n      0x20726f6c657320666f722073656c660000000000000000000000000000000000\n        /* \"#utility.yul\":27460:27462   */\n      0x20\n        /* \"#utility.yul\":27452:27458   */\n      dup3\n        /* \"#utility.yul\":27448:27463   */\n      add\n        /* \"#utility.yul\":27441:27483   */\n      mstore\n        /* \"#utility.yul\":27362:27490   */\n      pop\n      jump\t// out\n        /* \"#utility.yul\":27496:27677   */\n    tag_553:\n        /* \"#utility.yul\":27636:27669   */\n      0x45524332303a206d696e7420746f20746865207a65726f206164647265737300\n        /* \"#utility.yul\":27632:27633   */\n      0x00\n        /* \"#utility.yul\":27624:27630   */\n      dup3\n        /* \"#utility.yul\":27620:27634   */\n      add\n        /* \"#utility.yul\":27613:27670   */\n      mstore\n        /* \"#utility.yul\":27602:27677   */\n      pop\n      jump\t// out\n        /* \"#utility.yul\":27683:27922   */\n    tag_558:\n        /* \"#utility.yul\":27823:27857   */\n      0x546865206e756d626572206f66206164646974696f6e616c2069737375616e63\n        /* \"#utility.yul\":27819:27820   */\n      0x00\n        /* \"#utility.yul\":27811:27817   */\n      dup3\n        /* \"#utility.yul\":27807:27821   */\n      add\n        /* \"#utility.yul\":27800:27858   */\n      mstore\n        /* \"#utility.yul\":27892:27914   */\n      0x6520686173206265656e2065786365656465642e000000000000000000000000\n        /* \"#utility.yul\":27887:27889   */\n      0x20\n        /* \"#utility.yul\":27879:27885   */\n      dup3\n        /* \"#utility.yul\":27875:27890   */\n      add\n        /* \"#utility.yul\":27868:27915   */\n      mstore\n        /* \"#utility.yul\":27789:27922   */\n      pop\n      jump\t// out\n        /* \"#utility.yul\":27928:28050   */\n    tag_399:\n        /* \"#utility.yul\":28001:28025   */\n      tag_681\n        /* \"#utility.yul\":28019:28024   */\n      dup2\n        /* \"#utility.yul\":28001:28025   */\n      tag_444\n      jump\t// in\n    tag_681:\n        /* \"#utility.yul\":27994:27999   */\n      dup2\n        /* \"#utility.yul\":27991:28026   */\n      eq\n        /* \"#utility.yul\":27981:27983   */\n      tag_682\n      jumpi\n        /* \"#utility.yul\":28040:28041   */\n      0x00\n        /* \"#utility.yul\":28037:28038   */\n      dup1\n        /* \"#utility.yul\":28030:28042   */\n      revert\n        /* \"#utility.yul\":27981:27983   */\n    tag_682:\n        /* \"#utility.yul\":27971:28050   */\n      pop\n      jump\t// out\n        /* \"#utility.yul\":28056:28178   */\n    tag_403:\n        /* \"#utility.yul\":28129:28153   */\n      tag_684\n        /* \"#utility.yul\":28147:28152   */\n      dup2\n        /* \"#utility.yul\":28129:28153   */\n      tag_452\n      jump\t// in\n    tag_684:\n        /* \"#utility.yul\":28122:28127   */\n      dup2\n        /* \"#utility.yul\":28119:28154   */\n      eq\n        /* \"#utility.yul\":28109:28111   */\n      tag_685\n      jumpi\n        /* \"#utility.yul\":28168:28169   */\n      0x00\n        /* \"#utility.yul\":28165:28166   */\n      dup1\n        /* \"#utility.yul\":28158:28170   */\n      revert\n        /* \"#utility.yul\":28109:28111   */\n    tag_685:\n        /* \"#utility.yul\":28099:28178   */\n      pop\n      jump\t// out\n        /* \"#utility.yul\":28184:28304   */\n    tag_407:\n        /* \"#utility.yul\":28256:28279   */\n      tag_687\n        /* \"#utility.yul\":28273:28278   */\n      dup2\n        /* \"#utility.yul\":28256:28279   */\n      tag_640\n      jump\t// in\n    tag_687:\n        /* \"#utility.yul\":28249:28254   */\n      dup2\n        /* \"#utility.yul\":28246:28280   */\n      eq\n        /* \"#utility.yul\":28236:28238   */\n      tag_688\n      jumpi\n        /* \"#utility.yul\":28294:28295   */\n      0x00\n        /* \"#utility.yul\":28291:28292   */\n      dup1\n        /* \"#utility.yul\":28284:28296   */\n      revert\n        /* \"#utility.yul\":28236:28238   */\n    tag_688:\n        /* \"#utility.yul\":28226:28304   */\n      pop\n      jump\t// out\n        /* \"#utility.yul\":28310:28432   */\n    tag_411:\n        /* \"#utility.yul\":28383:28407   */\n      tag_690\n        /* \"#utility.yul\":28401:28406   */\n      dup2\n        /* \"#utility.yul\":28383:28407   */\n      tag_562\n      jump\t// in\n    tag_690:\n        /* \"#utility.yul\":28376:28381   */\n      dup2\n        /* \"#utility.yul\":28373:28408   */\n      eq\n        /* \"#utility.yul\":28363:28365   */\n      tag_691\n      jumpi\n        /* \"#utility.yul\":28422:28423   */\n      0x00\n        /* \"#utility.yul\":28419:28420   */\n      dup1\n        /* \"#utility.yul\":28412:28424   */\n      revert\n        /* \"#utility.yul\":28363:28365   */\n    tag_691:\n        /* \"#utility.yul\":28353:28432   */\n      pop\n      jump\t// out\n\n    auxdata: 0xa264697066735822122088df005cdc2356c001e74f0392d4837e108ce5fa888ead604dac36f65e45f29164736f6c63430008040033\n}\n",
				"bytecode": {
					"linkReferences": {},
					"object": "60806040523480156200001157600080fd5b506040518060400160405280600981526020017f466f72546865446f6700000000000000000000000000000000000000000000008152506040518060400160405280600381526020017f46544400000000000000000000000000000000000000000000000000000000008152508160039080519060200190620000969291906200060d565b508060049080519060200190620000af9291906200060d565b5050506000600560006101000a81548160ff021916908315150217905550620000e26000801b33620001f360201b60201c565b620001147f65d7a28e3265b37a6474929f336521b332c1681b933f6cb9f3376673440d862a33620001f360201b60201c565b620001543362000129620002e560201b60201c565b600a6200013791906200088f565b635f5e1000620001489190620009cc565b620002ee60201b60201c565b62000164620002e560201b60201c565b600a6200017291906200088f565b635f5e1000620001839190620009cc565b600781905550620001bb7f9f2df0fed2c77648de5860a4cc508cd0818c85b8b8a1ab4ceeef8d981c8956a633620001f360201b60201c565b620001ed7f832387ff8355724ce19b4e13d42ca7e8b0d3d6e27508713bc847b0ef4335ecd633620001f360201b60201c565b62000b86565b6200020582826200046760201b60201c565b620002e15760016006600084815260200190815260200160002060000160008373ffffffffffffffffffffffffffffffffffffffff1673ffffffffffffffffffffffffffffffffffffffff16815260200190815260200160002060006101000a81548160ff02191690831515021790555062000286620004d260201b60201c565b73ffffffffffffffffffffffffffffffffffffffff168173ffffffffffffffffffffffffffffffffffffffff16837f2f8788117e7eff1d82e926ec794901d17c78024a50270940304540a733656f0d60405160405180910390a45b5050565b60006012905090565b600073ffffffffffffffffffffffffffffffffffffffff168273ffffffffffffffffffffffffffffffffffffffff16141562000361576040517f08c379a0000000000000000000000000000000000000000000000000000000008152600401620003589062000787565b60405180910390fd5b6200037560008383620004da60201b60201c565b8060026000828254620003899190620007d7565b92505081905550806000808473ffffffffffffffffffffffffffffffffffffffff1673ffffffffffffffffffffffffffffffffffffffff1681526020019081526020016000206000828254620003e09190620007d7565b925050819055508173ffffffffffffffffffffffffffffffffffffffff16600073ffffffffffffffffffffffffffffffffffffffff167fddf252ad1be2c89b69c2b068fc378daa952ba7f163c4a11628f55a4df523b3ef83604051620004479190620007a9565b60405180910390a362000463600083836200059760201b60201c565b5050565b60006006600084815260200190815260200160002060000160008373ffffffffffffffffffffffffffffffffffffffff1673ffffffffffffffffffffffffffffffffffffffff16815260200190815260200160002060009054906101000a900460ff16905092915050565b600033905090565b620004ea6200059c60201b60201c565b600860008473ffffffffffffffffffffffffffffffffffffffff1673ffffffffffffffffffffffffffffffffffffffff16815260200190815260200160002060009054906101000a900460ff16156200057a576040517f08c379a0000000000000000000000000000000000000000000000000000000008152600401620005719062000743565b60405180910390fd5b62000592838383620005f160201b62000e721760201c565b505050565b505050565b620005ac620005f660201b60201c565b15620005ef576040517f08c379a0000000000000000000000000000000000000000000000000000000008152600401620005e69062000765565b60405180910390fd5b565b505050565b6000600560009054906101000a900460ff16905090565b8280546200061b9062000a44565b90600052602060002090601f0160209004810192826200063f57600085556200068b565b82601f106200065a57805160ff19168380011785556200068b565b828001600101855582156200068b579182015b828111156200068a5782518255916020019190600101906200066d565b5b5090506200069a91906200069e565b5090565b5b80821115620006b95760008160009055506001016200069f565b5090565b6000620006cc602583620007c6565b9150620006d98262000ae5565b604082019050919050565b6000620006f3601083620007c6565b9150620007008262000b34565b602082019050919050565b60006200071a601f83620007c6565b9150620007278262000b5d565b602082019050919050565b6200073d8162000a2d565b82525050565b600060208201905081810360008301526200075e81620006bd565b9050919050565b600060208201905081810360008301526200078081620006e4565b9050919050565b60006020820190508181036000830152620007a2816200070b565b9050919050565b6000602082019050620007c0600083018462000732565b92915050565b600082825260208201905092915050565b6000620007e48262000a2d565b9150620007f18362000a2d565b9250827fffffffffffffffffffffffffffffffffffffffffffffffffffffffffffffffff0382111562000829576200082862000a7a565b5b828201905092915050565b6000808291508390505b600185111562000886578086048111156200085e576200085d62000a7a565b5b60018516156200086e5780820291505b80810290506200087e8562000ad8565b94506200083e565b94509492505050565b60006200089c8262000a2d565b9150620008a98362000a37565b9250620008d87fffffffffffffffffffffffffffffffffffffffffffffffffffffffffffffffff8484620008e0565b905092915050565b600082620008f25760019050620009c5565b81620009025760009050620009c5565b81600181146200091b576002811462000926576200095c565b6001915050620009c5565b60ff8411156200093b576200093a62000a7a565b5b8360020a91508482111562000955576200095462000a7a565b5b50620009c5565b5060208310610133831016604e8410600b8410161715620009965782820a90508381111562000990576200098f62000a7a565b5b620009c5565b620009a5848484600162000834565b92509050818404811115620009bf57620009be62000a7a565b5b81810290505b9392505050565b6000620009d98262000a2d565b9150620009e68362000a2d565b9250817fffffffffffffffffffffffffffffffffffffffffffffffffffffffffffffffff048311821515161562000a225762000a2162000a7a565b5b828202905092915050565b6000819050919050565b600060ff82169050919050565b6000600282049050600182168062000a5d57607f821691505b6020821081141562000a745762000a7362000aa9565b5b50919050565b7f4e487b7100000000000000000000000000000000000000000000000000000000600052601160045260246000fd5b7f4e487b7100000000000000000000000000000000000000000000000000000000600052602260045260246000fd5b60008160011c9050919050565b7f546f6b656e207472616e736665722066726f6d204c6f636b656441646472657360008201527f734c697374000000000000000000000000000000000000000000000000000000602082015250565b7f5061757361626c653a2070617573656400000000000000000000000000000000600082015250565b7f45524332303a206d696e7420746f20746865207a65726f206164647265737300600082015250565b612e1c8062000b966000396000f3fe608060405234801561001057600080fd5b50600436106101e55760003560e01c80635c975abb1161010f578063a7cd26fd116100a2578063d547741f11610071578063d547741f146105a6578063dd62ed3e146105c2578063de2d0450146105f2578063e63ab1e914610622576101e5565b8063a7cd26fd1461050a578063a9059cbb1461053a578063cfb17ceb1461056a578063d539139314610588576101e5565b806391d14854116100de57806391d148541461046e57806395d89b411461049e578063a217fddf146104bc578063a457c2d7146104da576101e5565b80635c975abb146103fa57806370a082311461041857806379cc6790146104485780638456cb5914610464576101e5565b8063248a9ca311610187578063395093511161015657806339509351146103885780633f4ba83a146103b857806340c10f19146103c257806342966c68146103de576101e5565b8063248a9ca3146103025780632f2ff15d14610332578063313ce5671461034e57806336568abe1461036c576101e5565b80630bb7b7cc116101c35780630bb7b7cc146102685780631512db751461028457806318160ddd146102b457806323b872dd146102d2576101e5565b806301ffc9a7146101ea57806306fdde031461021a578063095ea7b314610238575b600080fd5b61020460048036038101906101ff9190612012565b610640565b60405161021191906123e4565b60405180910390f35b6102226106ba565b60405161022f919061241a565b60405180910390f35b610252600480360381019061024d9190611f71565b61074c565b60405161025f91906123e4565b60405180910390f35b610282600480360381019061027d9190611f22565b61076f565b005b61029e60048036038101906102999190611ebd565b61078d565b6040516102ab91906123e4565b60405180910390f35b6102bc6107e3565b6040516102c9919061263c565b60405180910390f35b6102ec60048036038101906102e79190611f22565b6107ed565b6040516102f991906123e4565b60405180910390f35b61031c60048036038101906103179190611fad565b61081c565b60405161032991906123ff565b60405180910390f35b61034c60048036038101906103479190611fd6565b61083c565b005b61035661085d565b6040516103639190612657565b60405180910390f35b61038660048036038101906103819190611fd6565b610866565b005b6103a2600480360381019061039d9190611f71565b6108e9565b6040516103af91906123e4565b60405180910390f35b6103c0610920565b005b6103dc60048036038101906103d79190611f71565b610955565b005b6103f860048036038101906103f3919061203b565b6109e5565b005b6104026109f9565b60405161040f91906123e4565b60405180910390f35b610432600480360381019061042d9190611ebd565b610a10565b60405161043f919061263c565b60405180910390f35b610462600480360381019061045d9190611f71565b610a58565b005b61046c610a78565b005b61048860048036038101906104839190611fd6565b610aad565b60405161049591906123e4565b60405180910390f35b6104a6610b18565b6040516104b3919061241a565b60405180910390f35b6104c4610baa565b6040516104d191906123ff565b60405180910390f35b6104f460048036038101906104ef9190611f71565b610bb1565b60405161050191906123e4565b60405180910390f35b610524600480360381019061051f9190611ebd565b610c28565b60405161053191906123e4565b60405180910390f35b610554600480360381019061054f9190611f71565b610cad565b60405161056191906123e4565b60405180910390f35b610572610cd0565b60405161057f91906123ff565b60405180910390f35b610590610cf4565b60405161059d91906123ff565b60405180910390f35b6105c060048036038101906105bb9190611fd6565b610d18565b005b6105dc60048036038101906105d79190611ee6565b610d39565b6040516105e9919061263c565b60405180910390f35b61060c60048036038101906106079190611ebd565b610dc0565b60405161061991906123e4565b60405180910390f35b61062a610e4e565b60405161063791906123ff565b60405180910390f35b60007f7965db0b000000000000000000000000000000000000000000000000000000007bffffffffffffffffffffffffffffffffffffffffffffffffffffffff1916827bffffffffffffffffffffffffffffffffffffffffffffffffffffffff191614806106b357506106b282610e77565b5b9050919050565b6060600380546106c990612865565b80601f01602080910402602001604051908101604052809291908181526020018280546106f590612865565b80156107425780601f1061071757610100808354040283529160200191610742565b820191906000526020600020905b81548152906001019060200180831161072557829003601f168201915b5050505050905090565b600080610757610ee1565b9050610764818585610ee9565b600191505092915050565b6000801b61077c816110b4565b6107878484846110c8565b50505050565b6000600860008373ffffffffffffffffffffffffffffffffffffffff1673ffffffffffffffffffffffffffffffffffffffff16815260200190815260200160002060009054906101000a900460ff169050919050565b6000600254905090565b6000806107f8610ee1565b9050610805858285611349565b6108108585856110c8565b60019150509392505050565b600060066000838152602001908152602001600020600101549050919050565b6108458261081c565b61084e816110b4565b61085883836113d5565b505050565b60006012905090565b61086e610ee1565b73ffffffffffffffffffffffffffffffffffffffff168173ffffffffffffffffffffffffffffffffffffffff16146108db576040517f08c379a00000000000000000000000000000000000000000000000000000000081526004016108d2906125dc565b60405180910390fd5b6108e582826114b6565b5050565b6000806108f4610ee1565b90506109158185856109068589610d39565b6109109190612699565b610ee9565b600191505092915050565b7f65d7a28e3265b37a6474929f336521b332c1681b933f6cb9f3376673440d862a61094a816110b4565b610952611598565b50565b7f9f2df0fed2c77648de5860a4cc508cd0818c85b8b8a1ab4ceeef8d981c8956a661097f816110b4565b6007548261098b6107e3565b6109959190612699565b11156109d6576040517f08c379a00000000000000000000000000000000000000000000000000000000081526004016109cd9061261c565b60405180910390fd5b6109e083836115fb565b505050565b6109f66109f0610ee1565b8261175b565b50565b6000600560009054906101000a900460ff16905090565b60008060008373ffffffffffffffffffffffffffffffffffffffff1673ffffffffffffffffffffffffffffffffffffffff168152602001908152602001600020549050919050565b610a6a82610a64610ee1565b83611349565b610a74828261175b565b5050565b7f65d7a28e3265b37a6474929f336521b332c1681b933f6cb9f3376673440d862a610aa2816110b4565b610aaa611932565b50565b60006006600084815260200190815260200160002060000160008373ffffffffffffffffffffffffffffffffffffffff1673ffffffffffffffffffffffffffffffffffffffff16815260200190815260200160002060009054906101000a900460ff16905092915050565b606060048054610b2790612865565b80601f0160208091040260200160405190810160405280929190818152602001828054610b5390612865565b8015610ba05780601f10610b7557610100808354040283529160200191610ba0565b820191906000526020600020905b815481529060010190602001808311610b8357829003601f168201915b5050505050905090565b6000801b81565b600080610bbc610ee1565b90506000610bca8286610d39565b905083811015610c0f576040517f08c379a0000000000000000000000000000000000000000000000000000000008152600401610c06906125bc565b60405180910390fd5b610c1c8286868403610ee9565b60019250505092915050565b60007f832387ff8355724ce19b4e13d42ca7e8b0d3d6e27508713bc847b0ef4335ecd6610c54816110b4565b600860008473ffffffffffffffffffffffffffffffffffffffff1673ffffffffffffffffffffffffffffffffffffffff16815260200190815260200160002060006101000a81549060ff02191690556001915050919050565b600080610cb8610ee1565b9050610cc58185856110c8565b600191505092915050565b7f832387ff8355724ce19b4e13d42ca7e8b0d3d6e27508713bc847b0ef4335ecd681565b7f9f2df0fed2c77648de5860a4cc508cd0818c85b8b8a1ab4ceeef8d981c8956a681565b610d218261081c565b610d2a816110b4565b610d3483836114b6565b505050565b6000600160008473ffffffffffffffffffffffffffffffffffffffff1673ffffffffffffffffffffffffffffffffffffffff16815260200190815260200160002060008373ffffffffffffffffffffffffffffffffffffffff1673ffffffffffffffffffffffffffffffffffffffff16815260200190815260200160002054905092915050565b60007f832387ff8355724ce19b4e13d42ca7e8b0d3d6e27508713bc847b0ef4335ecd6610dec816110b4565b6001600860008573ffffffffffffffffffffffffffffffffffffffff1673ffffffffffffffffffffffffffffffffffffffff16815260200190815260200160002060006101000a81548160ff0219169083151502179055506001915050919050565b7f65d7a28e3265b37a6474929f336521b332c1681b933f6cb9f3376673440d862a81565b505050565b60007f01ffc9a7000000000000000000000000000000000000000000000000000000007bffffffffffffffffffffffffffffffffffffffffffffffffffffffff1916827bffffffffffffffffffffffffffffffffffffffffffffffffffffffff1916149050919050565b600033905090565b600073ffffffffffffffffffffffffffffffffffffffff168373ffffffffffffffffffffffffffffffffffffffff161415610f59576040517f08c379a0000000000000000000000000000000000000000000000000000000008152600401610f509061259c565b60405180910390fd5b600073ffffffffffffffffffffffffffffffffffffffff168273ffffffffffffffffffffffffffffffffffffffff161415610fc9576040517f08c379a0000000000000000000000000000000000000000000000000000000008152600401610fc0906124dc565b60405180910390fd5b80600160008573ffffffffffffffffffffffffffffffffffffffff1673ffffffffffffffffffffffffffffffffffffffff16815260200190815260200160002060008473ffffffffffffffffffffffffffffffffffffffff1673ffffffffffffffffffffffffffffffffffffffff168152602001908152602001600020819055508173ffffffffffffffffffffffffffffffffffffffff168373ffffffffffffffffffffffffffffffffffffffff167f8c5be1e5ebec7d5bd14f71427d1e84f3dd0314c0f7b2291e5b200ac8c7c3b925836040516110a7919061263c565b60405180910390a3505050565b6110c5816110c0610ee1565b611995565b50565b600073ffffffffffffffffffffffffffffffffffffffff168373ffffffffffffffffffffffffffffffffffffffff161415611138576040517f08c379a000000000000000000000000000000000000000000000000000000000815260040161112f9061257c565b60405180910390fd5b600073ffffffffffffffffffffffffffffffffffffffff168273ffffffffffffffffffffffffffffffffffffffff1614156111a8576040517f08c379a000000000000000000000000000000000000000000000000000000000815260040161119f9061245c565b60405180910390fd5b6111b3838383611a32565b60008060008573ffffffffffffffffffffffffffffffffffffffff1673ffffffffffffffffffffffffffffffffffffffff16815260200190815260200160002054905081811015611239576040517f08c379a00000000000000000000000000000000000000000000000000000000081526004016112309061251c565b60405180910390fd5b8181036000808673ffffffffffffffffffffffffffffffffffffffff1673ffffffffffffffffffffffffffffffffffffffff16815260200190815260200160002081905550816000808573ffffffffffffffffffffffffffffffffffffffff1673ffffffffffffffffffffffffffffffffffffffff16815260200190815260200160002060008282546112cc9190612699565b925050819055508273ffffffffffffffffffffffffffffffffffffffff168473ffffffffffffffffffffffffffffffffffffffff167fddf252ad1be2c89b69c2b068fc378daa952ba7f163c4a11628f55a4df523b3ef84604051611330919061263c565b60405180910390a3611343848484611ad7565b50505050565b60006113558484610d39565b90507fffffffffffffffffffffffffffffffffffffffffffffffffffffffffffffffff81146113cf57818110156113c1576040517f08c379a00000000000000000000000000000000000000000000000000000000081526004016113b8906124fc565b60405180910390fd5b6113ce8484848403610ee9565b5b50505050565b6113df8282610aad565b6114b25760016006600084815260200190815260200160002060000160008373ffffffffffffffffffffffffffffffffffffffff1673ffffffffffffffffffffffffffffffffffffffff16815260200190815260200160002060006101000a81548160ff021916908315150217905550611457610ee1565b73ffffffffffffffffffffffffffffffffffffffff168173ffffffffffffffffffffffffffffffffffffffff16837f2f8788117e7eff1d82e926ec794901d17c78024a50270940304540a733656f0d60405160405180910390a45b5050565b6114c08282610aad565b156115945760006006600084815260200190815260200160002060000160008373ffffffffffffffffffffffffffffffffffffffff1673ffffffffffffffffffffffffffffffffffffffff16815260200190815260200160002060006101000a81548160ff021916908315150217905550611539610ee1565b73ffffffffffffffffffffffffffffffffffffffff168173ffffffffffffffffffffffffffffffffffffffff16837ff6391f5c32d9c69d2a47ea670b442974b53935d1edc7fd64eb21e047a839171b60405160405180910390a45b5050565b6115a0611adc565b6000600560006101000a81548160ff0219169083151502179055507f5db9ee0a495bf2e6ff9c91a7834c1ba4fdd244a5e8aa4e537bd38aeae4b073aa6115e4610ee1565b6040516115f191906123c9565b60405180910390a1565b600073ffffffffffffffffffffffffffffffffffffffff168273ffffffffffffffffffffffffffffffffffffffff16141561166b576040517f08c379a0000000000000000000000000000000000000000000000000000000008152600401611662906125fc565b60405180910390fd5b61167760008383611a32565b80600260008282546116899190612699565b92505081905550806000808473ffffffffffffffffffffffffffffffffffffffff1673ffffffffffffffffffffffffffffffffffffffff16815260200190815260200160002060008282546116de9190612699565b925050819055508173ffffffffffffffffffffffffffffffffffffffff16600073ffffffffffffffffffffffffffffffffffffffff167fddf252ad1be2c89b69c2b068fc378daa952ba7f163c4a11628f55a4df523b3ef83604051611743919061263c565b60405180910390a361175760008383611ad7565b5050565b600073ffffffffffffffffffffffffffffffffffffffff168273ffffffffffffffffffffffffffffffffffffffff1614156117cb576040517f08c379a00000000000000000000000000000000000000000000000000000000081526004016117c29061255c565b60405180910390fd5b6117d782600083611a32565b60008060008473ffffffffffffffffffffffffffffffffffffffff1673ffffffffffffffffffffffffffffffffffffffff1681526020019081526020016000205490508181101561185d576040517f08c379a00000000000000000000000000000000000000000000000000000000081526004016118549061249c565b60405180910390fd5b8181036000808573ffffffffffffffffffffffffffffffffffffffff1673ffffffffffffffffffffffffffffffffffffffff1681526020019081526020016000208190555081600260008282546118b49190612749565b92505081905550600073ffffffffffffffffffffffffffffffffffffffff168373ffffffffffffffffffffffffffffffffffffffff167fddf252ad1be2c89b69c2b068fc378daa952ba7f163c4a11628f55a4df523b3ef84604051611919919061263c565b60405180910390a361192d83600084611ad7565b505050565b61193a611b25565b6001600560006101000a81548160ff0219169083151502179055507f62e78cea01bee320cd4e420270b5ea74000d11b0c9f74754ebdbfc544b05a25861197e610ee1565b60405161198b91906123c9565b60405180910390a1565b61199f8282610aad565b611a2e576119c48173ffffffffffffffffffffffffffffffffffffffff166014611b6f565b6119d28360001c6020611b6f565b6040516020016119e392919061238f565b6040516020818303038152906040526040517f08c379a0000000000000000000000000000000000000000000000000000000008152600401611a25919061241a565b60405180910390fd5b5050565b611a3a611b25565b600860008473ffffffffffffffffffffffffffffffffffffffff1673ffffffffffffffffffffffffffffffffffffffff16815260200190815260200160002060009054906101000a900460ff1615611ac7576040517f08c379a0000000000000000000000000000000000000000000000000000000008152600401611abe906124bc565b60405180910390fd5b611ad2838383610e72565b505050565b505050565b611ae46109f9565b611b23576040517f08c379a0000000000000000000000000000000000000000000000000000000008152600401611b1a9061247c565b60405180910390fd5b565b611b2d6109f9565b15611b6d576040517f08c379a0000000000000000000000000000000000000000000000000000000008152600401611b649061253c565b60405180910390fd5b565b606060006002836002611b8291906126ef565b611b8c9190612699565b67ffffffffffffffff811115611bcb577f4e487b7100000000000000000000000000000000000000000000000000000000600052604160045260246000fd5b6040519080825280601f01601f191660200182016040528015611bfd5781602001600182028036833780820191505090505b5090507f300000000000000000000000000000000000000000000000000000000000000081600081518110611c5b577f4e487b7100000000000000000000000000000000000000000000000000000000600052603260045260246000fd5b60200101907effffffffffffffffffffffffffffffffffffffffffffffffffffffffffffff1916908160001a9053507f780000000000000000000000000000000000000000000000000000000000000081600181518110611ce5577f4e487b7100000000000000000000000000000000000000000000000000000000600052603260045260246000fd5b60200101907effffffffffffffffffffffffffffffffffffffffffffffffffffffffffffff1916908160001a90535060006001846002611d2591906126ef565b611d2f9190612699565b90505b6001811115611e1b577f3031323334353637383961626364656600000000000000000000000000000000600f861660108110611d97577f4e487b7100000000000000000000000000000000000000000000000000000000600052603260045260246000fd5b1a60f81b828281518110611dd4577f4e487b7100000000000000000000000000000000000000000000000000000000600052603260045260246000fd5b60200101907effffffffffffffffffffffffffffffffffffffffffffffffffffffffffffff1916908160001a905350600485901c945080611e149061283b565b9050611d32565b5060008414611e5f576040517f08c379a0000000000000000000000000000000000000000000000000000000008152600401611e569061243c565b60405180910390fd5b8091505092915050565b600081359050611e7881612d8a565b92915050565b600081359050611e8d81612da1565b92915050565b600081359050611ea281612db8565b92915050565b600081359050611eb781612dcf565b92915050565b600060208284031215611ecf57600080fd5b6000611edd84828501611e69565b91505092915050565b60008060408385031215611ef957600080fd5b6000611f0785828601611e69565b9250506020611f1885828601611e69565b9150509250929050565b600080600060608486031215611f3757600080fd5b6000611f4586828701611e69565b9350506020611f5686828701611e69565b9250506040611f6786828701611ea8565b9150509250925092565b60008060408385031215611f8457600080fd5b6000611f9285828601611e69565b9250506020611fa385828601611ea8565b9150509250929050565b600060208284031215611fbf57600080fd5b6000611fcd84828501611e7e565b91505092915050565b60008060408385031215611fe957600080fd5b6000611ff785828601611e7e565b925050602061200885828601611e69565b9150509250929050565b60006020828403121561202457600080fd5b600061203284828501611e93565b91505092915050565b60006020828403121561204d57600080fd5b600061205b84828501611ea8565b91505092915050565b61206d8161277d565b82525050565b61207c8161278f565b82525050565b61208b8161279b565b82525050565b600061209c82612672565b6120a6818561267d565b93506120b6818560208601612808565b6120bf816128f5565b840191505092915050565b60006120d582612672565b6120df818561268e565b93506120ef818560208601612808565b80840191505092915050565b600061210860208361267d565b915061211382612906565b602082019050919050565b600061212b60238361267d565b91506121368261292f565b604082019050919050565b600061214e60148361267d565b91506121598261297e565b602082019050919050565b600061217160228361267d565b915061217c826129a7565b604082019050919050565b600061219460258361267d565b915061219f826129f6565b604082019050919050565b60006121b760228361267d565b91506121c282612a45565b604082019050919050565b60006121da601d8361267d565b91506121e582612a94565b602082019050919050565b60006121fd60268361267d565b915061220882612abd565b604082019050919050565b600061222060108361267d565b915061222b82612b0c565b602082019050919050565b600061224360218361267d565b915061224e82612b35565b604082019050919050565b600061226660258361267d565b915061227182612b84565b604082019050919050565b600061228960248361267d565b915061229482612bd3565b604082019050919050565b60006122ac60178361268e565b91506122b782612c22565b601782019050919050565b60006122cf60258361267d565b91506122da82612c4b565b604082019050919050565b60006122f260118361268e565b91506122fd82612c9a565b601182019050919050565b6000612315602f8361267d565b915061232082612cc3565b604082019050919050565b6000612338601f8361267d565b915061234382612d12565b602082019050919050565b600061235b60348361267d565b915061236682612d3b565b604082019050919050565b61237a816127f1565b82525050565b612389816127fb565b82525050565b600061239a8261229f565b91506123a682856120ca565b91506123b1826122e5565b91506123bd82846120ca565b91508190509392505050565b60006020820190506123de6000830184612064565b92915050565b60006020820190506123f96000830184612073565b92915050565b60006020820190506124146000830184612082565b92915050565b600060208201905081810360008301526124348184612091565b905092915050565b60006020820190508181036000830152612455816120fb565b9050919050565b600060208201905081810360008301526124758161211e565b9050919050565b6000602082019050818103600083015261249581612141565b9050919050565b600060208201905081810360008301526124b581612164565b9050919050565b600060208201905081810360008301526124d581612187565b9050919050565b600060208201905081810360008301526124f5816121aa565b9050919050565b60006020820190508181036000830152612515816121cd565b9050919050565b60006020820190508181036000830152612535816121f0565b9050919050565b6000602082019050818103600083015261255581612213565b9050919050565b6000602082019050818103600083015261257581612236565b9050919050565b6000602082019050818103600083015261259581612259565b9050919050565b600060208201905081810360008301526125b58161227c565b9050919050565b600060208201905081810360008301526125d5816122c2565b9050919050565b600060208201905081810360008301526125f581612308565b9050919050565b600060208201905081810360008301526126158161232b565b9050919050565b600060208201905081810360008301526126358161234e565b9050919050565b60006020820190506126516000830184612371565b92915050565b600060208201905061266c6000830184612380565b92915050565b600081519050919050565b600082825260208201905092915050565b600081905092915050565b60006126a4826127f1565b91506126af836127f1565b9250827fffffffffffffffffffffffffffffffffffffffffffffffffffffffffffffffff038211156126e4576126e3612897565b5b828201905092915050565b60006126fa826127f1565b9150612705836127f1565b9250817fffffffffffffffffffffffffffffffffffffffffffffffffffffffffffffffff048311821515161561273e5761273d612897565b5b828202905092915050565b6000612754826127f1565b915061275f836127f1565b92508282101561277257612771612897565b5b828203905092915050565b6000612788826127d1565b9050919050565b60008115159050919050565b6000819050919050565b60007fffffffff0000000000000000000000000000000000000000000000000000000082169050919050565b600073ffffffffffffffffffffffffffffffffffffffff82169050919050565b6000819050919050565b600060ff82169050919050565b60005b8381101561282657808201518184015260208101905061280b565b83811115612835576000848401525b50505050565b6000612846826127f1565b9150600082141561285a57612859612897565b5b600182039050919050565b6000600282049050600182168061287d57607f821691505b60208210811415612891576128906128c6565b5b50919050565b7f4e487b7100000000000000000000000000000000000000000000000000000000600052601160045260246000fd5b7f4e487b7100000000000000000000000000000000000000000000000000000000600052602260045260246000fd5b6000601f19601f8301169050919050565b7f537472696e67733a20686578206c656e67746820696e73756666696369656e74600082015250565b7f45524332303a207472616e7366657220746f20746865207a65726f206164647260008201527f6573730000000000000000000000000000000000000000000000000000000000602082015250565b7f5061757361626c653a206e6f7420706175736564000000000000000000000000600082015250565b7f45524332303a206275726e20616d6f756e7420657863656564732062616c616e60008201527f6365000000000000000000000000000000000000000000000000000000000000602082015250565b7f546f6b656e207472616e736665722066726f6d204c6f636b656441646472657360008201527f734c697374000000000000000000000000000000000000000000000000000000602082015250565b7f45524332303a20617070726f766520746f20746865207a65726f20616464726560008201527f7373000000000000000000000000000000000000000000000000000000000000602082015250565b7f45524332303a20696e73756666696369656e7420616c6c6f77616e6365000000600082015250565b7f45524332303a207472616e7366657220616d6f756e742065786365656473206260008201527f616c616e63650000000000000000000000000000000000000000000000000000602082015250565b7f5061757361626c653a2070617573656400000000000000000000000000000000600082015250565b7f45524332303a206275726e2066726f6d20746865207a65726f2061646472657360008201527f7300000000000000000000000000000000000000000000000000000000000000602082015250565b7f45524332303a207472616e736665722066726f6d20746865207a65726f20616460008201527f6472657373000000000000000000000000000000000000000000000000000000602082015250565b7f45524332303a20617070726f76652066726f6d20746865207a65726f2061646460008201527f7265737300000000000000000000000000000000000000000000000000000000602082015250565b7f416363657373436f6e74726f6c3a206163636f756e7420000000000000000000600082015250565b7f45524332303a2064656372656173656420616c6c6f77616e63652062656c6f7760008201527f207a65726f000000000000000000000000000000000000000000000000000000602082015250565b7f206973206d697373696e6720726f6c6520000000000000000000000000000000600082015250565b7f416363657373436f6e74726f6c3a2063616e206f6e6c792072656e6f756e636560008201527f20726f6c657320666f722073656c660000000000000000000000000000000000602082015250565b7f45524332303a206d696e7420746f20746865207a65726f206164647265737300600082015250565b7f546865206e756d626572206f66206164646974696f6e616c2069737375616e6360008201527f6520686173206265656e2065786365656465642e000000000000000000000000602082015250565b612d938161277d565b8114612d9e57600080fd5b50565b612daa8161279b565b8114612db557600080fd5b50565b612dc1816127a5565b8114612dcc57600080fd5b50565b612dd8816127f1565b8114612de357600080fd5b5056fea264697066735822122088df005cdc2356c001e74f0392d4837e108ce5fa888ead604dac36f65e45f29164736f6c63430008040033",
					"opcodes": "PUSH1 0x80 PUSH1 0x40 MSTORE CALLVALUE DUP1 ISZERO PUSH3 0x11 JUMPI PUSH1 0x0 DUP1 REVERT JUMPDEST POP PUSH1 0x40 MLOAD DUP1 PUSH1 0x40 ADD PUSH1 0x40 MSTORE DUP1 PUSH1 0x9 DUP2 MSTORE PUSH1 0x20 ADD PUSH32 0x466F72546865446F670000000000000000000000000000000000000000000000 DUP2 MSTORE POP PUSH1 0x40 MLOAD DUP1 PUSH1 0x40 ADD PUSH1 0x40 MSTORE DUP1 PUSH1 0x3 DUP2 MSTORE PUSH1 0x20 ADD PUSH32 0x4654440000000000000000000000000000000000000000000000000000000000 DUP2 MSTORE POP DUP2 PUSH1 0x3 SWAP1 DUP1 MLOAD SWAP1 PUSH1 0x20 ADD SWAP1 PUSH3 0x96 SWAP3 SWAP2 SWAP1 PUSH3 0x60D JUMP JUMPDEST POP DUP1 PUSH1 0x4 SWAP1 DUP1 MLOAD SWAP1 PUSH1 0x20 ADD SWAP1 PUSH3 0xAF SWAP3 SWAP2 SWAP1 PUSH3 0x60D JUMP JUMPDEST POP POP POP PUSH1 0x0 PUSH1 0x5 PUSH1 0x0 PUSH2 0x100 EXP DUP2 SLOAD DUP2 PUSH1 0xFF MUL NOT AND SWAP1 DUP4 ISZERO ISZERO MUL OR SWAP1 SSTORE POP PUSH3 0xE2 PUSH1 0x0 DUP1 SHL CALLER PUSH3 0x1F3 PUSH1 0x20 SHL PUSH1 0x20 SHR JUMP JUMPDEST PUSH3 0x114 PUSH32 0x65D7A28E3265B37A6474929F336521B332C1681B933F6CB9F3376673440D862A CALLER PUSH3 0x1F3 PUSH1 0x20 SHL PUSH1 0x20 SHR JUMP JUMPDEST PUSH3 0x154 CALLER PUSH3 0x129 PUSH3 0x2E5 PUSH1 0x20 SHL PUSH1 0x20 SHR JUMP JUMPDEST PUSH1 0xA PUSH3 0x137 SWAP2 SWAP1 PUSH3 0x88F JUMP JUMPDEST PUSH4 0x5F5E1000 PUSH3 0x148 SWAP2 SWAP1 PUSH3 0x9CC JUMP JUMPDEST PUSH3 0x2EE PUSH1 0x20 SHL PUSH1 0x20 SHR JUMP JUMPDEST PUSH3 0x164 PUSH3 0x2E5 PUSH1 0x20 SHL PUSH1 0x20 SHR JUMP JUMPDEST PUSH1 0xA PUSH3 0x172 SWAP2 SWAP1 PUSH3 0x88F JUMP JUMPDEST PUSH4 0x5F5E1000 PUSH3 0x183 SWAP2 SWAP1 PUSH3 0x9CC JUMP JUMPDEST PUSH1 0x7 DUP2 SWAP1 SSTORE POP PUSH3 0x1BB PUSH32 0x9F2DF0FED2C77648DE5860A4CC508CD0818C85B8B8A1AB4CEEEF8D981C8956A6 CALLER PUSH3 0x1F3 PUSH1 0x20 SHL PUSH1 0x20 SHR JUMP JUMPDEST PUSH3 0x1ED PUSH32 0x832387FF8355724CE19B4E13D42CA7E8B0D3D6E27508713BC847B0EF4335ECD6 CALLER PUSH3 0x1F3 PUSH1 0x20 SHL PUSH1 0x20 SHR JUMP JUMPDEST PUSH3 0xB86 JUMP JUMPDEST PUSH3 0x205 DUP3 DUP3 PUSH3 0x467 PUSH1 0x20 SHL PUSH1 0x20 SHR JUMP JUMPDEST PUSH3 0x2E1 JUMPI PUSH1 0x1 PUSH1 0x6 PUSH1 0x0 DUP5 DUP2 MSTORE PUSH1 0x20 ADD SWAP1 DUP2 MSTORE PUSH1 0x20 ADD PUSH1 0x0 KECCAK256 PUSH1 0x0 ADD PUSH1 0x0 DUP4 PUSH20 0xFFFFFFFFFFFFFFFFFFFFFFFFFFFFFFFFFFFFFFFF AND PUSH20 0xFFFFFFFFFFFFFFFFFFFFFFFFFFFFFFFFFFFFFFFF AND DUP2 MSTORE PUSH1 0x20 ADD SWAP1 DUP2 MSTORE PUSH1 0x20 ADD PUSH1 0x0 KECCAK256 PUSH1 0x0 PUSH2 0x100 EXP DUP2 SLOAD DUP2 PUSH1 0xFF MUL NOT AND SWAP1 DUP4 ISZERO ISZERO MUL OR SWAP1 SSTORE POP PUSH3 0x286 PUSH3 0x4D2 PUSH1 0x20 SHL PUSH1 0x20 SHR JUMP JUMPDEST PUSH20 0xFFFFFFFFFFFFFFFFFFFFFFFFFFFFFFFFFFFFFFFF AND DUP2 PUSH20 0xFFFFFFFFFFFFFFFFFFFFFFFFFFFFFFFFFFFFFFFF AND DUP4 PUSH32 0x2F8788117E7EFF1D82E926EC794901D17C78024A50270940304540A733656F0D PUSH1 0x40 MLOAD PUSH1 0x40 MLOAD DUP1 SWAP2 SUB SWAP1 LOG4 JUMPDEST POP POP JUMP JUMPDEST PUSH1 0x0 PUSH1 0x12 SWAP1 POP SWAP1 JUMP JUMPDEST PUSH1 0x0 PUSH20 0xFFFFFFFFFFFFFFFFFFFFFFFFFFFFFFFFFFFFFFFF AND DUP3 PUSH20 0xFFFFFFFFFFFFFFFFFFFFFFFFFFFFFFFFFFFFFFFF AND EQ ISZERO PUSH3 0x361 JUMPI PUSH1 0x40 MLOAD PUSH32 0x8C379A000000000000000000000000000000000000000000000000000000000 DUP2 MSTORE PUSH1 0x4 ADD PUSH3 0x358 SWAP1 PUSH3 0x787 JUMP JUMPDEST PUSH1 0x40 MLOAD DUP1 SWAP2 SUB SWAP1 REVERT JUMPDEST PUSH3 0x375 PUSH1 0x0 DUP4 DUP4 PUSH3 0x4DA PUSH1 0x20 SHL PUSH1 0x20 SHR JUMP JUMPDEST DUP1 PUSH1 0x2 PUSH1 0x0 DUP3 DUP3 SLOAD PUSH3 0x389 SWAP2 SWAP1 PUSH3 0x7D7 JUMP JUMPDEST SWAP3 POP POP DUP2 SWAP1 SSTORE POP DUP1 PUSH1 0x0 DUP1 DUP5 PUSH20 0xFFFFFFFFFFFFFFFFFFFFFFFFFFFFFFFFFFFFFFFF AND PUSH20 0xFFFFFFFFFFFFFFFFFFFFFFFFFFFFFFFFFFFFFFFF AND DUP2 MSTORE PUSH1 0x20 ADD SWAP1 DUP2 MSTORE PUSH1 0x20 ADD PUSH1 0x0 KECCAK256 PUSH1 0x0 DUP3 DUP3 SLOAD PUSH3 0x3E0 SWAP2 SWAP1 PUSH3 0x7D7 JUMP JUMPDEST SWAP3 POP POP DUP2 SWAP1 SSTORE POP DUP2 PUSH20 0xFFFFFFFFFFFFFFFFFFFFFFFFFFFFFFFFFFFFFFFF AND PUSH1 0x0 PUSH20 0xFFFFFFFFFFFFFFFFFFFFFFFFFFFFFFFFFFFFFFFF AND PUSH32 0xDDF252AD1BE2C89B69C2B068FC378DAA952BA7F163C4A11628F55A4DF523B3EF DUP4 PUSH1 0x40 MLOAD PUSH3 0x447 SWAP2 SWAP1 PUSH3 0x7A9 JUMP JUMPDEST PUSH1 0x40 MLOAD DUP1 SWAP2 SUB SWAP1 LOG3 PUSH3 0x463 PUSH1 0x0 DUP4 DUP4 PUSH3 0x597 PUSH1 0x20 SHL PUSH1 0x20 SHR JUMP JUMPDEST POP POP JUMP JUMPDEST PUSH1 0x0 PUSH1 0x6 PUSH1 0x0 DUP5 DUP2 MSTORE PUSH1 0x20 ADD SWAP1 DUP2 MSTORE PUSH1 0x20 ADD PUSH1 0x0 KECCAK256 PUSH1 0x0 ADD PUSH1 0x0 DUP4 PUSH20 0xFFFFFFFFFFFFFFFFFFFFFFFFFFFFFFFFFFFFFFFF AND PUSH20 0xFFFFFFFFFFFFFFFFFFFFFFFFFFFFFFFFFFFFFFFF AND DUP2 MSTORE PUSH1 0x20 ADD SWAP1 DUP2 MSTORE PUSH1 0x20 ADD PUSH1 0x0 KECCAK256 PUSH1 0x0 SWAP1 SLOAD SWAP1 PUSH2 0x100 EXP SWAP1 DIV PUSH1 0xFF AND SWAP1 POP SWAP3 SWAP2 POP POP JUMP JUMPDEST PUSH1 0x0 CALLER SWAP1 POP SWAP1 JUMP JUMPDEST PUSH3 0x4EA PUSH3 0x59C PUSH1 0x20 SHL PUSH1 0x20 SHR JUMP JUMPDEST PUSH1 0x8 PUSH1 0x0 DUP5 PUSH20 0xFFFFFFFFFFFFFFFFFFFFFFFFFFFFFFFFFFFFFFFF AND PUSH20 0xFFFFFFFFFFFFFFFFFFFFFFFFFFFFFFFFFFFFFFFF AND DUP2 MSTORE PUSH1 0x20 ADD SWAP1 DUP2 MSTORE PUSH1 0x20 ADD PUSH1 0x0 KECCAK256 PUSH1 0x0 SWAP1 SLOAD SWAP1 PUSH2 0x100 EXP SWAP1 DIV PUSH1 0xFF AND ISZERO PUSH3 0x57A JUMPI PUSH1 0x40 MLOAD PUSH32 0x8C379A000000000000000000000000000000000000000000000000000000000 DUP2 MSTORE PUSH1 0x4 ADD PUSH3 0x571 SWAP1 PUSH3 0x743 JUMP JUMPDEST PUSH1 0x40 MLOAD DUP1 SWAP2 SUB SWAP1 REVERT JUMPDEST PUSH3 0x592 DUP4 DUP4 DUP4 PUSH3 0x5F1 PUSH1 0x20 SHL PUSH3 0xE72 OR PUSH1 0x20 SHR JUMP JUMPDEST POP POP POP JUMP JUMPDEST POP POP POP JUMP JUMPDEST PUSH3 0x5AC PUSH3 0x5F6 PUSH1 0x20 SHL PUSH1 0x20 SHR JUMP JUMPDEST ISZERO PUSH3 0x5EF JUMPI PUSH1 0x40 MLOAD PUSH32 0x8C379A000000000000000000000000000000000000000000000000000000000 DUP2 MSTORE PUSH1 0x4 ADD PUSH3 0x5E6 SWAP1 PUSH3 0x765 JUMP JUMPDEST PUSH1 0x40 MLOAD DUP1 SWAP2 SUB SWAP1 REVERT JUMPDEST JUMP JUMPDEST POP POP POP JUMP JUMPDEST PUSH1 0x0 PUSH1 0x5 PUSH1 0x0 SWAP1 SLOAD SWAP1 PUSH2 0x100 EXP SWAP1 DIV PUSH1 0xFF AND SWAP1 POP SWAP1 JUMP JUMPDEST DUP3 DUP1 SLOAD PUSH3 0x61B SWAP1 PUSH3 0xA44 JUMP JUMPDEST SWAP1 PUSH1 0x0 MSTORE PUSH1 0x20 PUSH1 0x0 KECCAK256 SWAP1 PUSH1 0x1F ADD PUSH1 0x20 SWAP1 DIV DUP2 ADD SWAP3 DUP3 PUSH3 0x63F JUMPI PUSH1 0x0 DUP6 SSTORE PUSH3 0x68B JUMP JUMPDEST DUP3 PUSH1 0x1F LT PUSH3 0x65A JUMPI DUP1 MLOAD PUSH1 0xFF NOT AND DUP4 DUP1 ADD OR DUP6 SSTORE PUSH3 0x68B JUMP JUMPDEST DUP3 DUP1 ADD PUSH1 0x1 ADD DUP6 SSTORE DUP3 ISZERO PUSH3 0x68B JUMPI SWAP2 DUP3 ADD JUMPDEST DUP3 DUP2 GT ISZERO PUSH3 0x68A JUMPI DUP3 MLOAD DUP3 SSTORE SWAP2 PUSH1 0x20 ADD SWAP2 SWAP1 PUSH1 0x1 ADD SWAP1 PUSH3 0x66D JUMP JUMPDEST JUMPDEST POP SWAP1 POP PUSH3 0x69A SWAP2 SWAP1 PUSH3 0x69E JUMP JUMPDEST POP SWAP1 JUMP JUMPDEST JUMPDEST DUP1 DUP3 GT ISZERO PUSH3 0x6B9 JUMPI PUSH1 0x0 DUP2 PUSH1 0x0 SWAP1 SSTORE POP PUSH1 0x1 ADD PUSH3 0x69F JUMP JUMPDEST POP SWAP1 JUMP JUMPDEST PUSH1 0x0 PUSH3 0x6CC PUSH1 0x25 DUP4 PUSH3 0x7C6 JUMP JUMPDEST SWAP2 POP PUSH3 0x6D9 DUP3 PUSH3 0xAE5 JUMP JUMPDEST PUSH1 0x40 DUP3 ADD SWAP1 POP SWAP2 SWAP1 POP JUMP JUMPDEST PUSH1 0x0 PUSH3 0x6F3 PUSH1 0x10 DUP4 PUSH3 0x7C6 JUMP JUMPDEST SWAP2 POP PUSH3 0x700 DUP3 PUSH3 0xB34 JUMP JUMPDEST PUSH1 0x20 DUP3 ADD SWAP1 POP SWAP2 SWAP1 POP JUMP JUMPDEST PUSH1 0x0 PUSH3 0x71A PUSH1 0x1F DUP4 PUSH3 0x7C6 JUMP JUMPDEST SWAP2 POP PUSH3 0x727 DUP3 PUSH3 0xB5D JUMP JUMPDEST PUSH1 0x20 DUP3 ADD SWAP1 POP SWAP2 SWAP1 POP JUMP JUMPDEST PUSH3 0x73D DUP2 PUSH3 0xA2D JUMP JUMPDEST DUP3 MSTORE POP POP JUMP JUMPDEST PUSH1 0x0 PUSH1 0x20 DUP3 ADD SWAP1 POP DUP2 DUP2 SUB PUSH1 0x0 DUP4 ADD MSTORE PUSH3 0x75E DUP2 PUSH3 0x6BD JUMP JUMPDEST SWAP1 POP SWAP2 SWAP1 POP JUMP JUMPDEST PUSH1 0x0 PUSH1 0x20 DUP3 ADD SWAP1 POP DUP2 DUP2 SUB PUSH1 0x0 DUP4 ADD MSTORE PUSH3 0x780 DUP2 PUSH3 0x6E4 JUMP JUMPDEST SWAP1 POP SWAP2 SWAP1 POP JUMP JUMPDEST PUSH1 0x0 PUSH1 0x20 DUP3 ADD SWAP1 POP DUP2 DUP2 SUB PUSH1 0x0 DUP4 ADD MSTORE PUSH3 0x7A2 DUP2 PUSH3 0x70B JUMP JUMPDEST SWAP1 POP SWAP2 SWAP1 POP JUMP JUMPDEST PUSH1 0x0 PUSH1 0x20 DUP3 ADD SWAP1 POP PUSH3 0x7C0 PUSH1 0x0 DUP4 ADD DUP5 PUSH3 0x732 JUMP JUMPDEST SWAP3 SWAP2 POP POP JUMP JUMPDEST PUSH1 0x0 DUP3 DUP3 MSTORE PUSH1 0x20 DUP3 ADD SWAP1 POP SWAP3 SWAP2 POP POP JUMP JUMPDEST PUSH1 0x0 PUSH3 0x7E4 DUP3 PUSH3 0xA2D JUMP JUMPDEST SWAP2 POP PUSH3 0x7F1 DUP4 PUSH3 0xA2D JUMP JUMPDEST SWAP3 POP DUP3 PUSH32 0xFFFFFFFFFFFFFFFFFFFFFFFFFFFFFFFFFFFFFFFFFFFFFFFFFFFFFFFFFFFFFFFF SUB DUP3 GT ISZERO PUSH3 0x829 JUMPI PUSH3 0x828 PUSH3 0xA7A JUMP JUMPDEST JUMPDEST DUP3 DUP3 ADD SWAP1 POP SWAP3 SWAP2 POP POP JUMP JUMPDEST PUSH1 0x0 DUP1 DUP3 SWAP2 POP DUP4 SWAP1 POP JUMPDEST PUSH1 0x1 DUP6 GT ISZERO PUSH3 0x886 JUMPI DUP1 DUP7 DIV DUP2 GT ISZERO PUSH3 0x85E JUMPI PUSH3 0x85D PUSH3 0xA7A JUMP JUMPDEST JUMPDEST PUSH1 0x1 DUP6 AND ISZERO PUSH3 0x86E JUMPI DUP1 DUP3 MUL SWAP2 POP JUMPDEST DUP1 DUP2 MUL SWAP1 POP PUSH3 0x87E DUP6 PUSH3 0xAD8 JUMP JUMPDEST SWAP5 POP PUSH3 0x83E JUMP JUMPDEST SWAP5 POP SWAP5 SWAP3 POP POP POP JUMP JUMPDEST PUSH1 0x0 PUSH3 0x89C DUP3 PUSH3 0xA2D JUMP JUMPDEST SWAP2 POP PUSH3 0x8A9 DUP4 PUSH3 0xA37 JUMP JUMPDEST SWAP3 POP PUSH3 0x8D8 PUSH32 0xFFFFFFFFFFFFFFFFFFFFFFFFFFFFFFFFFFFFFFFFFFFFFFFFFFFFFFFFFFFFFFFF DUP5 DUP5 PUSH3 0x8E0 JUMP JUMPDEST SWAP1 POP SWAP3 SWAP2 POP POP JUMP JUMPDEST PUSH1 0x0 DUP3 PUSH3 0x8F2 JUMPI PUSH1 0x1 SWAP1 POP PUSH3 0x9C5 JUMP JUMPDEST DUP2 PUSH3 0x902 JUMPI PUSH1 0x0 SWAP1 POP PUSH3 0x9C5 JUMP JUMPDEST DUP2 PUSH1 0x1 DUP2 EQ PUSH3 0x91B JUMPI PUSH1 0x2 DUP2 EQ PUSH3 0x926 JUMPI PUSH3 0x95C JUMP JUMPDEST PUSH1 0x1 SWAP2 POP POP PUSH3 0x9C5 JUMP JUMPDEST PUSH1 0xFF DUP5 GT ISZERO PUSH3 0x93B JUMPI PUSH3 0x93A PUSH3 0xA7A JUMP JUMPDEST JUMPDEST DUP4 PUSH1 0x2 EXP SWAP2 POP DUP5 DUP3 GT ISZERO PUSH3 0x955 JUMPI PUSH3 0x954 PUSH3 0xA7A JUMP JUMPDEST JUMPDEST POP PUSH3 0x9C5 JUMP JUMPDEST POP PUSH1 0x20 DUP4 LT PUSH2 0x133 DUP4 LT AND PUSH1 0x4E DUP5 LT PUSH1 0xB DUP5 LT AND OR ISZERO PUSH3 0x996 JUMPI DUP3 DUP3 EXP SWAP1 POP DUP4 DUP2 GT ISZERO PUSH3 0x990 JUMPI PUSH3 0x98F PUSH3 0xA7A JUMP JUMPDEST JUMPDEST PUSH3 0x9C5 JUMP JUMPDEST PUSH3 0x9A5 DUP5 DUP5 DUP5 PUSH1 0x1 PUSH3 0x834 JUMP JUMPDEST SWAP3 POP SWAP1 POP DUP2 DUP5 DIV DUP2 GT ISZERO PUSH3 0x9BF JUMPI PUSH3 0x9BE PUSH3 0xA7A JUMP JUMPDEST JUMPDEST DUP2 DUP2 MUL SWAP1 POP JUMPDEST SWAP4 SWAP3 POP POP POP JUMP JUMPDEST PUSH1 0x0 PUSH3 0x9D9 DUP3 PUSH3 0xA2D JUMP JUMPDEST SWAP2 POP PUSH3 0x9E6 DUP4 PUSH3 0xA2D JUMP JUMPDEST SWAP3 POP DUP2 PUSH32 0xFFFFFFFFFFFFFFFFFFFFFFFFFFFFFFFFFFFFFFFFFFFFFFFFFFFFFFFFFFFFFFFF DIV DUP4 GT DUP3 ISZERO ISZERO AND ISZERO PUSH3 0xA22 JUMPI PUSH3 0xA21 PUSH3 0xA7A JUMP JUMPDEST JUMPDEST DUP3 DUP3 MUL SWAP1 POP SWAP3 SWAP2 POP POP JUMP JUMPDEST PUSH1 0x0 DUP2 SWAP1 POP SWAP2 SWAP1 POP JUMP JUMPDEST PUSH1 0x0 PUSH1 0xFF DUP3 AND SWAP1 POP SWAP2 SWAP1 POP JUMP JUMPDEST PUSH1 0x0 PUSH1 0x2 DUP3 DIV SWAP1 POP PUSH1 0x1 DUP3 AND DUP1 PUSH3 0xA5D JUMPI PUSH1 0x7F DUP3 AND SWAP2 POP JUMPDEST PUSH1 0x20 DUP3 LT DUP2 EQ ISZERO PUSH3 0xA74 JUMPI PUSH3 0xA73 PUSH3 0xAA9 JUMP JUMPDEST JUMPDEST POP SWAP2 SWAP1 POP JUMP JUMPDEST PUSH32 0x4E487B7100000000000000000000000000000000000000000000000000000000 PUSH1 0x0 MSTORE PUSH1 0x11 PUSH1 0x4 MSTORE PUSH1 0x24 PUSH1 0x0 REVERT JUMPDEST PUSH32 0x4E487B7100000000000000000000000000000000000000000000000000000000 PUSH1 0x0 MSTORE PUSH1 0x22 PUSH1 0x4 MSTORE PUSH1 0x24 PUSH1 0x0 REVERT JUMPDEST PUSH1 0x0 DUP2 PUSH1 0x1 SHR SWAP1 POP SWAP2 SWAP1 POP JUMP JUMPDEST PUSH32 0x546F6B656E207472616E736665722066726F6D204C6F636B6564416464726573 PUSH1 0x0 DUP3 ADD MSTORE PUSH32 0x734C697374000000000000000000000000000000000000000000000000000000 PUSH1 0x20 DUP3 ADD MSTORE POP JUMP JUMPDEST PUSH32 0x5061757361626C653A2070617573656400000000000000000000000000000000 PUSH1 0x0 DUP3 ADD MSTORE POP JUMP JUMPDEST PUSH32 0x45524332303A206D696E7420746F20746865207A65726F206164647265737300 PUSH1 0x0 DUP3 ADD MSTORE POP JUMP JUMPDEST PUSH2 0x2E1C DUP1 PUSH3 0xB96 PUSH1 0x0 CODECOPY PUSH1 0x0 RETURN INVALID PUSH1 0x80 PUSH1 0x40 MSTORE CALLVALUE DUP1 ISZERO PUSH2 0x10 JUMPI PUSH1 0x0 DUP1 REVERT JUMPDEST POP PUSH1 0x4 CALLDATASIZE LT PUSH2 0x1E5 JUMPI PUSH1 0x0 CALLDATALOAD PUSH1 0xE0 SHR DUP1 PUSH4 0x5C975ABB GT PUSH2 0x10F JUMPI DUP1 PUSH4 0xA7CD26FD GT PUSH2 0xA2 JUMPI DUP1 PUSH4 0xD547741F GT PUSH2 0x71 JUMPI DUP1 PUSH4 0xD547741F EQ PUSH2 0x5A6 JUMPI DUP1 PUSH4 0xDD62ED3E EQ PUSH2 0x5C2 JUMPI DUP1 PUSH4 0xDE2D0450 EQ PUSH2 0x5F2 JUMPI DUP1 PUSH4 0xE63AB1E9 EQ PUSH2 0x622 JUMPI PUSH2 0x1E5 JUMP JUMPDEST DUP1 PUSH4 0xA7CD26FD EQ PUSH2 0x50A JUMPI DUP1 PUSH4 0xA9059CBB EQ PUSH2 0x53A JUMPI DUP1 PUSH4 0xCFB17CEB EQ PUSH2 0x56A JUMPI DUP1 PUSH4 0xD5391393 EQ PUSH2 0x588 JUMPI PUSH2 0x1E5 JUMP JUMPDEST DUP1 PUSH4 0x91D14854 GT PUSH2 0xDE JUMPI DUP1 PUSH4 0x91D14854 EQ PUSH2 0x46E JUMPI DUP1 PUSH4 0x95D89B41 EQ PUSH2 0x49E JUMPI DUP1 PUSH4 0xA217FDDF EQ PUSH2 0x4BC JUMPI DUP1 PUSH4 0xA457C2D7 EQ PUSH2 0x4DA JUMPI PUSH2 0x1E5 JUMP JUMPDEST DUP1 PUSH4 0x5C975ABB EQ PUSH2 0x3FA JUMPI DUP1 PUSH4 0x70A08231 EQ PUSH2 0x418 JUMPI DUP1 PUSH4 0x79CC6790 EQ PUSH2 0x448 JUMPI DUP1 PUSH4 0x8456CB59 EQ PUSH2 0x464 JUMPI PUSH2 0x1E5 JUMP JUMPDEST DUP1 PUSH4 0x248A9CA3 GT PUSH2 0x187 JUMPI DUP1 PUSH4 0x39509351 GT PUSH2 0x156 JUMPI DUP1 PUSH4 0x39509351 EQ PUSH2 0x388 JUMPI DUP1 PUSH4 0x3F4BA83A EQ PUSH2 0x3B8 JUMPI DUP1 PUSH4 0x40C10F19 EQ PUSH2 0x3C2 JUMPI DUP1 PUSH4 0x42966C68 EQ PUSH2 0x3DE JUMPI PUSH2 0x1E5 JUMP JUMPDEST DUP1 PUSH4 0x248A9CA3 EQ PUSH2 0x302 JUMPI DUP1 PUSH4 0x2F2FF15D EQ PUSH2 0x332 JUMPI DUP1 PUSH4 0x313CE567 EQ PUSH2 0x34E JUMPI DUP1 PUSH4 0x36568ABE EQ PUSH2 0x36C JUMPI PUSH2 0x1E5 JUMP JUMPDEST DUP1 PUSH4 0xBB7B7CC GT PUSH2 0x1C3 JUMPI DUP1 PUSH4 0xBB7B7CC EQ PUSH2 0x268 JUMPI DUP1 PUSH4 0x1512DB75 EQ PUSH2 0x284 JUMPI DUP1 PUSH4 0x18160DDD EQ PUSH2 0x2B4 JUMPI DUP1 PUSH4 0x23B872DD EQ PUSH2 0x2D2 JUMPI PUSH2 0x1E5 JUMP JUMPDEST DUP1 PUSH4 0x1FFC9A7 EQ PUSH2 0x1EA JUMPI DUP1 PUSH4 0x6FDDE03 EQ PUSH2 0x21A JUMPI DUP1 PUSH4 0x95EA7B3 EQ PUSH2 0x238 JUMPI JUMPDEST PUSH1 0x0 DUP1 REVERT JUMPDEST PUSH2 0x204 PUSH1 0x4 DUP1 CALLDATASIZE SUB DUP2 ADD SWAP1 PUSH2 0x1FF SWAP2 SWAP1 PUSH2 0x2012 JUMP JUMPDEST PUSH2 0x640 JUMP JUMPDEST PUSH1 0x40 MLOAD PUSH2 0x211 SWAP2 SWAP1 PUSH2 0x23E4 JUMP JUMPDEST PUSH1 0x40 MLOAD DUP1 SWAP2 SUB SWAP1 RETURN JUMPDEST PUSH2 0x222 PUSH2 0x6BA JUMP JUMPDEST PUSH1 0x40 MLOAD PUSH2 0x22F SWAP2 SWAP1 PUSH2 0x241A JUMP JUMPDEST PUSH1 0x40 MLOAD DUP1 SWAP2 SUB SWAP1 RETURN JUMPDEST PUSH2 0x252 PUSH1 0x4 DUP1 CALLDATASIZE SUB DUP2 ADD SWAP1 PUSH2 0x24D SWAP2 SWAP1 PUSH2 0x1F71 JUMP JUMPDEST PUSH2 0x74C JUMP JUMPDEST PUSH1 0x40 MLOAD PUSH2 0x25F SWAP2 SWAP1 PUSH2 0x23E4 JUMP JUMPDEST PUSH1 0x40 MLOAD DUP1 SWAP2 SUB SWAP1 RETURN JUMPDEST PUSH2 0x282 PUSH1 0x4 DUP1 CALLDATASIZE SUB DUP2 ADD SWAP1 PUSH2 0x27D SWAP2 SWAP1 PUSH2 0x1F22 JUMP JUMPDEST PUSH2 0x76F JUMP JUMPDEST STOP JUMPDEST PUSH2 0x29E PUSH1 0x4 DUP1 CALLDATASIZE SUB DUP2 ADD SWAP1 PUSH2 0x299 SWAP2 SWAP1 PUSH2 0x1EBD JUMP JUMPDEST PUSH2 0x78D JUMP JUMPDEST PUSH1 0x40 MLOAD PUSH2 0x2AB SWAP2 SWAP1 PUSH2 0x23E4 JUMP JUMPDEST PUSH1 0x40 MLOAD DUP1 SWAP2 SUB SWAP1 RETURN JUMPDEST PUSH2 0x2BC PUSH2 0x7E3 JUMP JUMPDEST PUSH1 0x40 MLOAD PUSH2 0x2C9 SWAP2 SWAP1 PUSH2 0x263C JUMP JUMPDEST PUSH1 0x40 MLOAD DUP1 SWAP2 SUB SWAP1 RETURN JUMPDEST PUSH2 0x2EC PUSH1 0x4 DUP1 CALLDATASIZE SUB DUP2 ADD SWAP1 PUSH2 0x2E7 SWAP2 SWAP1 PUSH2 0x1F22 JUMP JUMPDEST PUSH2 0x7ED JUMP JUMPDEST PUSH1 0x40 MLOAD PUSH2 0x2F9 SWAP2 SWAP1 PUSH2 0x23E4 JUMP JUMPDEST PUSH1 0x40 MLOAD DUP1 SWAP2 SUB SWAP1 RETURN JUMPDEST PUSH2 0x31C PUSH1 0x4 DUP1 CALLDATASIZE SUB DUP2 ADD SWAP1 PUSH2 0x317 SWAP2 SWAP1 PUSH2 0x1FAD JUMP JUMPDEST PUSH2 0x81C JUMP JUMPDEST PUSH1 0x40 MLOAD PUSH2 0x329 SWAP2 SWAP1 PUSH2 0x23FF JUMP JUMPDEST PUSH1 0x40 MLOAD DUP1 SWAP2 SUB SWAP1 RETURN JUMPDEST PUSH2 0x34C PUSH1 0x4 DUP1 CALLDATASIZE SUB DUP2 ADD SWAP1 PUSH2 0x347 SWAP2 SWAP1 PUSH2 0x1FD6 JUMP JUMPDEST PUSH2 0x83C JUMP JUMPDEST STOP JUMPDEST PUSH2 0x356 PUSH2 0x85D JUMP JUMPDEST PUSH1 0x40 MLOAD PUSH2 0x363 SWAP2 SWAP1 PUSH2 0x2657 JUMP JUMPDEST PUSH1 0x40 MLOAD DUP1 SWAP2 SUB SWAP1 RETURN JUMPDEST PUSH2 0x386 PUSH1 0x4 DUP1 CALLDATASIZE SUB DUP2 ADD SWAP1 PUSH2 0x381 SWAP2 SWAP1 PUSH2 0x1FD6 JUMP JUMPDEST PUSH2 0x866 JUMP JUMPDEST STOP JUMPDEST PUSH2 0x3A2 PUSH1 0x4 DUP1 CALLDATASIZE SUB DUP2 ADD SWAP1 PUSH2 0x39D SWAP2 SWAP1 PUSH2 0x1F71 JUMP JUMPDEST PUSH2 0x8E9 JUMP JUMPDEST PUSH1 0x40 MLOAD PUSH2 0x3AF SWAP2 SWAP1 PUSH2 0x23E4 JUMP JUMPDEST PUSH1 0x40 MLOAD DUP1 SWAP2 SUB SWAP1 RETURN JUMPDEST PUSH2 0x3C0 PUSH2 0x920 JUMP JUMPDEST STOP JUMPDEST PUSH2 0x3DC PUSH1 0x4 DUP1 CALLDATASIZE SUB DUP2 ADD SWAP1 PUSH2 0x3D7 SWAP2 SWAP1 PUSH2 0x1F71 JUMP JUMPDEST PUSH2 0x955 JUMP JUMPDEST STOP JUMPDEST PUSH2 0x3F8 PUSH1 0x4 DUP1 CALLDATASIZE SUB DUP2 ADD SWAP1 PUSH2 0x3F3 SWAP2 SWAP1 PUSH2 0x203B JUMP JUMPDEST PUSH2 0x9E5 JUMP JUMPDEST STOP JUMPDEST PUSH2 0x402 PUSH2 0x9F9 JUMP JUMPDEST PUSH1 0x40 MLOAD PUSH2 0x40F SWAP2 SWAP1 PUSH2 0x23E4 JUMP JUMPDEST PUSH1 0x40 MLOAD DUP1 SWAP2 SUB SWAP1 RETURN JUMPDEST PUSH2 0x432 PUSH1 0x4 DUP1 CALLDATASIZE SUB DUP2 ADD SWAP1 PUSH2 0x42D SWAP2 SWAP1 PUSH2 0x1EBD JUMP JUMPDEST PUSH2 0xA10 JUMP JUMPDEST PUSH1 0x40 MLOAD PUSH2 0x43F SWAP2 SWAP1 PUSH2 0x263C JUMP JUMPDEST PUSH1 0x40 MLOAD DUP1 SWAP2 SUB SWAP1 RETURN JUMPDEST PUSH2 0x462 PUSH1 0x4 DUP1 CALLDATASIZE SUB DUP2 ADD SWAP1 PUSH2 0x45D SWAP2 SWAP1 PUSH2 0x1F71 JUMP JUMPDEST PUSH2 0xA58 JUMP JUMPDEST STOP JUMPDEST PUSH2 0x46C PUSH2 0xA78 JUMP JUMPDEST STOP JUMPDEST PUSH2 0x488 PUSH1 0x4 DUP1 CALLDATASIZE SUB DUP2 ADD SWAP1 PUSH2 0x483 SWAP2 SWAP1 PUSH2 0x1FD6 JUMP JUMPDEST PUSH2 0xAAD JUMP JUMPDEST PUSH1 0x40 MLOAD PUSH2 0x495 SWAP2 SWAP1 PUSH2 0x23E4 JUMP JUMPDEST PUSH1 0x40 MLOAD DUP1 SWAP2 SUB SWAP1 RETURN JUMPDEST PUSH2 0x4A6 PUSH2 0xB18 JUMP JUMPDEST PUSH1 0x40 MLOAD PUSH2 0x4B3 SWAP2 SWAP1 PUSH2 0x241A JUMP JUMPDEST PUSH1 0x40 MLOAD DUP1 SWAP2 SUB SWAP1 RETURN JUMPDEST PUSH2 0x4C4 PUSH2 0xBAA JUMP JUMPDEST PUSH1 0x40 MLOAD PUSH2 0x4D1 SWAP2 SWAP1 PUSH2 0x23FF JUMP JUMPDEST PUSH1 0x40 MLOAD DUP1 SWAP2 SUB SWAP1 RETURN JUMPDEST PUSH2 0x4F4 PUSH1 0x4 DUP1 CALLDATASIZE SUB DUP2 ADD SWAP1 PUSH2 0x4EF SWAP2 SWAP1 PUSH2 0x1F71 JUMP JUMPDEST PUSH2 0xBB1 JUMP JUMPDEST PUSH1 0x40 MLOAD PUSH2 0x501 SWAP2 SWAP1 PUSH2 0x23E4 JUMP JUMPDEST PUSH1 0x40 MLOAD DUP1 SWAP2 SUB SWAP1 RETURN JUMPDEST PUSH2 0x524 PUSH1 0x4 DUP1 CALLDATASIZE SUB DUP2 ADD SWAP1 PUSH2 0x51F SWAP2 SWAP1 PUSH2 0x1EBD JUMP JUMPDEST PUSH2 0xC28 JUMP JUMPDEST PUSH1 0x40 MLOAD PUSH2 0x531 SWAP2 SWAP1 PUSH2 0x23E4 JUMP JUMPDEST PUSH1 0x40 MLOAD DUP1 SWAP2 SUB SWAP1 RETURN JUMPDEST PUSH2 0x554 PUSH1 0x4 DUP1 CALLDATASIZE SUB DUP2 ADD SWAP1 PUSH2 0x54F SWAP2 SWAP1 PUSH2 0x1F71 JUMP JUMPDEST PUSH2 0xCAD JUMP JUMPDEST PUSH1 0x40 MLOAD PUSH2 0x561 SWAP2 SWAP1 PUSH2 0x23E4 JUMP JUMPDEST PUSH1 0x40 MLOAD DUP1 SWAP2 SUB SWAP1 RETURN JUMPDEST PUSH2 0x572 PUSH2 0xCD0 JUMP JUMPDEST PUSH1 0x40 MLOAD PUSH2 0x57F SWAP2 SWAP1 PUSH2 0x23FF JUMP JUMPDEST PUSH1 0x40 MLOAD DUP1 SWAP2 SUB SWAP1 RETURN JUMPDEST PUSH2 0x590 PUSH2 0xCF4 JUMP JUMPDEST PUSH1 0x40 MLOAD PUSH2 0x59D SWAP2 SWAP1 PUSH2 0x23FF JUMP JUMPDEST PUSH1 0x40 MLOAD DUP1 SWAP2 SUB SWAP1 RETURN JUMPDEST PUSH2 0x5C0 PUSH1 0x4 DUP1 CALLDATASIZE SUB DUP2 ADD SWAP1 PUSH2 0x5BB SWAP2 SWAP1 PUSH2 0x1FD6 JUMP JUMPDEST PUSH2 0xD18 JUMP JUMPDEST STOP JUMPDEST PUSH2 0x5DC PUSH1 0x4 DUP1 CALLDATASIZE SUB DUP2 ADD SWAP1 PUSH2 0x5D7 SWAP2 SWAP1 PUSH2 0x1EE6 JUMP JUMPDEST PUSH2 0xD39 JUMP JUMPDEST PUSH1 0x40 MLOAD PUSH2 0x5E9 SWAP2 SWAP1 PUSH2 0x263C JUMP JUMPDEST PUSH1 0x40 MLOAD DUP1 SWAP2 SUB SWAP1 RETURN JUMPDEST PUSH2 0x60C PUSH1 0x4 DUP1 CALLDATASIZE SUB DUP2 ADD SWAP1 PUSH2 0x607 SWAP2 SWAP1 PUSH2 0x1EBD JUMP JUMPDEST PUSH2 0xDC0 JUMP JUMPDEST PUSH1 0x40 MLOAD PUSH2 0x619 SWAP2 SWAP1 PUSH2 0x23E4 JUMP JUMPDEST PUSH1 0x40 MLOAD DUP1 SWAP2 SUB SWAP1 RETURN JUMPDEST PUSH2 0x62A PUSH2 0xE4E JUMP JUMPDEST PUSH1 0x40 MLOAD PUSH2 0x637 SWAP2 SWAP1 PUSH2 0x23FF JUMP JUMPDEST PUSH1 0x40 MLOAD DUP1 SWAP2 SUB SWAP1 RETURN JUMPDEST PUSH1 0x0 PUSH32 0x7965DB0B00000000000000000000000000000000000000000000000000000000 PUSH28 0xFFFFFFFFFFFFFFFFFFFFFFFFFFFFFFFFFFFFFFFFFFFFFFFFFFFFFFFF NOT AND DUP3 PUSH28 0xFFFFFFFFFFFFFFFFFFFFFFFFFFFFFFFFFFFFFFFFFFFFFFFFFFFFFFFF NOT AND EQ DUP1 PUSH2 0x6B3 JUMPI POP PUSH2 0x6B2 DUP3 PUSH2 0xE77 JUMP JUMPDEST JUMPDEST SWAP1 POP SWAP2 SWAP1 POP JUMP JUMPDEST PUSH1 0x60 PUSH1 0x3 DUP1 SLOAD PUSH2 0x6C9 SWAP1 PUSH2 0x2865 JUMP JUMPDEST DUP1 PUSH1 0x1F ADD PUSH1 0x20 DUP1 SWAP2 DIV MUL PUSH1 0x20 ADD PUSH1 0x40 MLOAD SWAP1 DUP2 ADD PUSH1 0x40 MSTORE DUP1 SWAP3 SWAP2 SWAP1 DUP2 DUP2 MSTORE PUSH1 0x20 ADD DUP3 DUP1 SLOAD PUSH2 0x6F5 SWAP1 PUSH2 0x2865 JUMP JUMPDEST DUP1 ISZERO PUSH2 0x742 JUMPI DUP1 PUSH1 0x1F LT PUSH2 0x717 JUMPI PUSH2 0x100 DUP1 DUP4 SLOAD DIV MUL DUP4 MSTORE SWAP2 PUSH1 0x20 ADD SWAP2 PUSH2 0x742 JUMP JUMPDEST DUP3 ADD SWAP2 SWAP1 PUSH1 0x0 MSTORE PUSH1 0x20 PUSH1 0x0 KECCAK256 SWAP1 JUMPDEST DUP2 SLOAD DUP2 MSTORE SWAP1 PUSH1 0x1 ADD SWAP1 PUSH1 0x20 ADD DUP1 DUP4 GT PUSH2 0x725 JUMPI DUP3 SWAP1 SUB PUSH1 0x1F AND DUP3 ADD SWAP2 JUMPDEST POP POP POP POP POP SWAP1 POP SWAP1 JUMP JUMPDEST PUSH1 0x0 DUP1 PUSH2 0x757 PUSH2 0xEE1 JUMP JUMPDEST SWAP1 POP PUSH2 0x764 DUP2 DUP6 DUP6 PUSH2 0xEE9 JUMP JUMPDEST PUSH1 0x1 SWAP2 POP POP SWAP3 SWAP2 POP POP JUMP JUMPDEST PUSH1 0x0 DUP1 SHL PUSH2 0x77C DUP2 PUSH2 0x10B4 JUMP JUMPDEST PUSH2 0x787 DUP5 DUP5 DUP5 PUSH2 0x10C8 JUMP JUMPDEST POP POP POP POP JUMP JUMPDEST PUSH1 0x0 PUSH1 0x8 PUSH1 0x0 DUP4 PUSH20 0xFFFFFFFFFFFFFFFFFFFFFFFFFFFFFFFFFFFFFFFF AND PUSH20 0xFFFFFFFFFFFFFFFFFFFFFFFFFFFFFFFFFFFFFFFF AND DUP2 MSTORE PUSH1 0x20 ADD SWAP1 DUP2 MSTORE PUSH1 0x20 ADD PUSH1 0x0 KECCAK256 PUSH1 0x0 SWAP1 SLOAD SWAP1 PUSH2 0x100 EXP SWAP1 DIV PUSH1 0xFF AND SWAP1 POP SWAP2 SWAP1 POP JUMP JUMPDEST PUSH1 0x0 PUSH1 0x2 SLOAD SWAP1 POP SWAP1 JUMP JUMPDEST PUSH1 0x0 DUP1 PUSH2 0x7F8 PUSH2 0xEE1 JUMP JUMPDEST SWAP1 POP PUSH2 0x805 DUP6 DUP3 DUP6 PUSH2 0x1349 JUMP JUMPDEST PUSH2 0x810 DUP6 DUP6 DUP6 PUSH2 0x10C8 JUMP JUMPDEST PUSH1 0x1 SWAP2 POP POP SWAP4 SWAP3 POP POP POP JUMP JUMPDEST PUSH1 0x0 PUSH1 0x6 PUSH1 0x0 DUP4 DUP2 MSTORE PUSH1 0x20 ADD SWAP1 DUP2 MSTORE PUSH1 0x20 ADD PUSH1 0x0 KECCAK256 PUSH1 0x1 ADD SLOAD SWAP1 POP SWAP2 SWAP1 POP JUMP JUMPDEST PUSH2 0x845 DUP3 PUSH2 0x81C JUMP JUMPDEST PUSH2 0x84E DUP2 PUSH2 0x10B4 JUMP JUMPDEST PUSH2 0x858 DUP4 DUP4 PUSH2 0x13D5 JUMP JUMPDEST POP POP POP JUMP JUMPDEST PUSH1 0x0 PUSH1 0x12 SWAP1 POP SWAP1 JUMP JUMPDEST PUSH2 0x86E PUSH2 0xEE1 JUMP JUMPDEST PUSH20 0xFFFFFFFFFFFFFFFFFFFFFFFFFFFFFFFFFFFFFFFF AND DUP2 PUSH20 0xFFFFFFFFFFFFFFFFFFFFFFFFFFFFFFFFFFFFFFFF AND EQ PUSH2 0x8DB JUMPI PUSH1 0x40 MLOAD PUSH32 0x8C379A000000000000000000000000000000000000000000000000000000000 DUP2 MSTORE PUSH1 0x4 ADD PUSH2 0x8D2 SWAP1 PUSH2 0x25DC JUMP JUMPDEST PUSH1 0x40 MLOAD DUP1 SWAP2 SUB SWAP1 REVERT JUMPDEST PUSH2 0x8E5 DUP3 DUP3 PUSH2 0x14B6 JUMP JUMPDEST POP POP JUMP JUMPDEST PUSH1 0x0 DUP1 PUSH2 0x8F4 PUSH2 0xEE1 JUMP JUMPDEST SWAP1 POP PUSH2 0x915 DUP2 DUP6 DUP6 PUSH2 0x906 DUP6 DUP10 PUSH2 0xD39 JUMP JUMPDEST PUSH2 0x910 SWAP2 SWAP1 PUSH2 0x2699 JUMP JUMPDEST PUSH2 0xEE9 JUMP JUMPDEST PUSH1 0x1 SWAP2 POP POP SWAP3 SWAP2 POP POP JUMP JUMPDEST PUSH32 0x65D7A28E3265B37A6474929F336521B332C1681B933F6CB9F3376673440D862A PUSH2 0x94A DUP2 PUSH2 0x10B4 JUMP JUMPDEST PUSH2 0x952 PUSH2 0x1598 JUMP JUMPDEST POP JUMP JUMPDEST PUSH32 0x9F2DF0FED2C77648DE5860A4CC508CD0818C85B8B8A1AB4CEEEF8D981C8956A6 PUSH2 0x97F DUP2 PUSH2 0x10B4 JUMP JUMPDEST PUSH1 0x7 SLOAD DUP3 PUSH2 0x98B PUSH2 0x7E3 JUMP JUMPDEST PUSH2 0x995 SWAP2 SWAP1 PUSH2 0x2699 JUMP JUMPDEST GT ISZERO PUSH2 0x9D6 JUMPI PUSH1 0x40 MLOAD PUSH32 0x8C379A000000000000000000000000000000000000000000000000000000000 DUP2 MSTORE PUSH1 0x4 ADD PUSH2 0x9CD SWAP1 PUSH2 0x261C JUMP JUMPDEST PUSH1 0x40 MLOAD DUP1 SWAP2 SUB SWAP1 REVERT JUMPDEST PUSH2 0x9E0 DUP4 DUP4 PUSH2 0x15FB JUMP JUMPDEST POP POP POP JUMP JUMPDEST PUSH2 0x9F6 PUSH2 0x9F0 PUSH2 0xEE1 JUMP JUMPDEST DUP3 PUSH2 0x175B JUMP JUMPDEST POP JUMP JUMPDEST PUSH1 0x0 PUSH1 0x5 PUSH1 0x0 SWAP1 SLOAD SWAP1 PUSH2 0x100 EXP SWAP1 DIV PUSH1 0xFF AND SWAP1 POP SWAP1 JUMP JUMPDEST PUSH1 0x0 DUP1 PUSH1 0x0 DUP4 PUSH20 0xFFFFFFFFFFFFFFFFFFFFFFFFFFFFFFFFFFFFFFFF AND PUSH20 0xFFFFFFFFFFFFFFFFFFFFFFFFFFFFFFFFFFFFFFFF AND DUP2 MSTORE PUSH1 0x20 ADD SWAP1 DUP2 MSTORE PUSH1 0x20 ADD PUSH1 0x0 KECCAK256 SLOAD SWAP1 POP SWAP2 SWAP1 POP JUMP JUMPDEST PUSH2 0xA6A DUP3 PUSH2 0xA64 PUSH2 0xEE1 JUMP JUMPDEST DUP4 PUSH2 0x1349 JUMP JUMPDEST PUSH2 0xA74 DUP3 DUP3 PUSH2 0x175B JUMP JUMPDEST POP POP JUMP JUMPDEST PUSH32 0x65D7A28E3265B37A6474929F336521B332C1681B933F6CB9F3376673440D862A PUSH2 0xAA2 DUP2 PUSH2 0x10B4 JUMP JUMPDEST PUSH2 0xAAA PUSH2 0x1932 JUMP JUMPDEST POP JUMP JUMPDEST PUSH1 0x0 PUSH1 0x6 PUSH1 0x0 DUP5 DUP2 MSTORE PUSH1 0x20 ADD SWAP1 DUP2 MSTORE PUSH1 0x20 ADD PUSH1 0x0 KECCAK256 PUSH1 0x0 ADD PUSH1 0x0 DUP4 PUSH20 0xFFFFFFFFFFFFFFFFFFFFFFFFFFFFFFFFFFFFFFFF AND PUSH20 0xFFFFFFFFFFFFFFFFFFFFFFFFFFFFFFFFFFFFFFFF AND DUP2 MSTORE PUSH1 0x20 ADD SWAP1 DUP2 MSTORE PUSH1 0x20 ADD PUSH1 0x0 KECCAK256 PUSH1 0x0 SWAP1 SLOAD SWAP1 PUSH2 0x100 EXP SWAP1 DIV PUSH1 0xFF AND SWAP1 POP SWAP3 SWAP2 POP POP JUMP JUMPDEST PUSH1 0x60 PUSH1 0x4 DUP1 SLOAD PUSH2 0xB27 SWAP1 PUSH2 0x2865 JUMP JUMPDEST DUP1 PUSH1 0x1F ADD PUSH1 0x20 DUP1 SWAP2 DIV MUL PUSH1 0x20 ADD PUSH1 0x40 MLOAD SWAP1 DUP2 ADD PUSH1 0x40 MSTORE DUP1 SWAP3 SWAP2 SWAP1 DUP2 DUP2 MSTORE PUSH1 0x20 ADD DUP3 DUP1 SLOAD PUSH2 0xB53 SWAP1 PUSH2 0x2865 JUMP JUMPDEST DUP1 ISZERO PUSH2 0xBA0 JUMPI DUP1 PUSH1 0x1F LT PUSH2 0xB75 JUMPI PUSH2 0x100 DUP1 DUP4 SLOAD DIV MUL DUP4 MSTORE SWAP2 PUSH1 0x20 ADD SWAP2 PUSH2 0xBA0 JUMP JUMPDEST DUP3 ADD SWAP2 SWAP1 PUSH1 0x0 MSTORE PUSH1 0x20 PUSH1 0x0 KECCAK256 SWAP1 JUMPDEST DUP2 SLOAD DUP2 MSTORE SWAP1 PUSH1 0x1 ADD SWAP1 PUSH1 0x20 ADD DUP1 DUP4 GT PUSH2 0xB83 JUMPI DUP3 SWAP1 SUB PUSH1 0x1F AND DUP3 ADD SWAP2 JUMPDEST POP POP POP POP POP SWAP1 POP SWAP1 JUMP JUMPDEST PUSH1 0x0 DUP1 SHL DUP2 JUMP JUMPDEST PUSH1 0x0 DUP1 PUSH2 0xBBC PUSH2 0xEE1 JUMP JUMPDEST SWAP1 POP PUSH1 0x0 PUSH2 0xBCA DUP3 DUP7 PUSH2 0xD39 JUMP JUMPDEST SWAP1 POP DUP4 DUP2 LT ISZERO PUSH2 0xC0F JUMPI PUSH1 0x40 MLOAD PUSH32 0x8C379A000000000000000000000000000000000000000000000000000000000 DUP2 MSTORE PUSH1 0x4 ADD PUSH2 0xC06 SWAP1 PUSH2 0x25BC JUMP JUMPDEST PUSH1 0x40 MLOAD DUP1 SWAP2 SUB SWAP1 REVERT JUMPDEST PUSH2 0xC1C DUP3 DUP7 DUP7 DUP5 SUB PUSH2 0xEE9 JUMP JUMPDEST PUSH1 0x1 SWAP3 POP POP POP SWAP3 SWAP2 POP POP JUMP JUMPDEST PUSH1 0x0 PUSH32 0x832387FF8355724CE19B4E13D42CA7E8B0D3D6E27508713BC847B0EF4335ECD6 PUSH2 0xC54 DUP2 PUSH2 0x10B4 JUMP JUMPDEST PUSH1 0x8 PUSH1 0x0 DUP5 PUSH20 0xFFFFFFFFFFFFFFFFFFFFFFFFFFFFFFFFFFFFFFFF AND PUSH20 0xFFFFFFFFFFFFFFFFFFFFFFFFFFFFFFFFFFFFFFFF AND DUP2 MSTORE PUSH1 0x20 ADD SWAP1 DUP2 MSTORE PUSH1 0x20 ADD PUSH1 0x0 KECCAK256 PUSH1 0x0 PUSH2 0x100 EXP DUP2 SLOAD SWAP1 PUSH1 0xFF MUL NOT AND SWAP1 SSTORE PUSH1 0x1 SWAP2 POP POP SWAP2 SWAP1 POP JUMP JUMPDEST PUSH1 0x0 DUP1 PUSH2 0xCB8 PUSH2 0xEE1 JUMP JUMPDEST SWAP1 POP PUSH2 0xCC5 DUP2 DUP6 DUP6 PUSH2 0x10C8 JUMP JUMPDEST PUSH1 0x1 SWAP2 POP POP SWAP3 SWAP2 POP POP JUMP JUMPDEST PUSH32 0x832387FF8355724CE19B4E13D42CA7E8B0D3D6E27508713BC847B0EF4335ECD6 DUP2 JUMP JUMPDEST PUSH32 0x9F2DF0FED2C77648DE5860A4CC508CD0818C85B8B8A1AB4CEEEF8D981C8956A6 DUP2 JUMP JUMPDEST PUSH2 0xD21 DUP3 PUSH2 0x81C JUMP JUMPDEST PUSH2 0xD2A DUP2 PUSH2 0x10B4 JUMP JUMPDEST PUSH2 0xD34 DUP4 DUP4 PUSH2 0x14B6 JUMP JUMPDEST POP POP POP JUMP JUMPDEST PUSH1 0x0 PUSH1 0x1 PUSH1 0x0 DUP5 PUSH20 0xFFFFFFFFFFFFFFFFFFFFFFFFFFFFFFFFFFFFFFFF AND PUSH20 0xFFFFFFFFFFFFFFFFFFFFFFFFFFFFFFFFFFFFFFFF AND DUP2 MSTORE PUSH1 0x20 ADD SWAP1 DUP2 MSTORE PUSH1 0x20 ADD PUSH1 0x0 KECCAK256 PUSH1 0x0 DUP4 PUSH20 0xFFFFFFFFFFFFFFFFFFFFFFFFFFFFFFFFFFFFFFFF AND PUSH20 0xFFFFFFFFFFFFFFFFFFFFFFFFFFFFFFFFFFFFFFFF AND DUP2 MSTORE PUSH1 0x20 ADD SWAP1 DUP2 MSTORE PUSH1 0x20 ADD PUSH1 0x0 KECCAK256 SLOAD SWAP1 POP SWAP3 SWAP2 POP POP JUMP JUMPDEST PUSH1 0x0 PUSH32 0x832387FF8355724CE19B4E13D42CA7E8B0D3D6E27508713BC847B0EF4335ECD6 PUSH2 0xDEC DUP2 PUSH2 0x10B4 JUMP JUMPDEST PUSH1 0x1 PUSH1 0x8 PUSH1 0x0 DUP6 PUSH20 0xFFFFFFFFFFFFFFFFFFFFFFFFFFFFFFFFFFFFFFFF AND PUSH20 0xFFFFFFFFFFFFFFFFFFFFFFFFFFFFFFFFFFFFFFFF AND DUP2 MSTORE PUSH1 0x20 ADD SWAP1 DUP2 MSTORE PUSH1 0x20 ADD PUSH1 0x0 KECCAK256 PUSH1 0x0 PUSH2 0x100 EXP DUP2 SLOAD DUP2 PUSH1 0xFF MUL NOT AND SWAP1 DUP4 ISZERO ISZERO MUL OR SWAP1 SSTORE POP PUSH1 0x1 SWAP2 POP POP SWAP2 SWAP1 POP JUMP JUMPDEST PUSH32 0x65D7A28E3265B37A6474929F336521B332C1681B933F6CB9F3376673440D862A DUP2 JUMP JUMPDEST POP POP POP JUMP JUMPDEST PUSH1 0x0 PUSH32 0x1FFC9A700000000000000000000000000000000000000000000000000000000 PUSH28 0xFFFFFFFFFFFFFFFFFFFFFFFFFFFFFFFFFFFFFFFFFFFFFFFFFFFFFFFF NOT AND DUP3 PUSH28 0xFFFFFFFFFFFFFFFFFFFFFFFFFFFFFFFFFFFFFFFFFFFFFFFFFFFFFFFF NOT AND EQ SWAP1 POP SWAP2 SWAP1 POP JUMP JUMPDEST PUSH1 0x0 CALLER SWAP1 POP SWAP1 JUMP JUMPDEST PUSH1 0x0 PUSH20 0xFFFFFFFFFFFFFFFFFFFFFFFFFFFFFFFFFFFFFFFF AND DUP4 PUSH20 0xFFFFFFFFFFFFFFFFFFFFFFFFFFFFFFFFFFFFFFFF AND EQ ISZERO PUSH2 0xF59 JUMPI PUSH1 0x40 MLOAD PUSH32 0x8C379A000000000000000000000000000000000000000000000000000000000 DUP2 MSTORE PUSH1 0x4 ADD PUSH2 0xF50 SWAP1 PUSH2 0x259C JUMP JUMPDEST PUSH1 0x40 MLOAD DUP1 SWAP2 SUB SWAP1 REVERT JUMPDEST PUSH1 0x0 PUSH20 0xFFFFFFFFFFFFFFFFFFFFFFFFFFFFFFFFFFFFFFFF AND DUP3 PUSH20 0xFFFFFFFFFFFFFFFFFFFFFFFFFFFFFFFFFFFFFFFF AND EQ ISZERO PUSH2 0xFC9 JUMPI PUSH1 0x40 MLOAD PUSH32 0x8C379A000000000000000000000000000000000000000000000000000000000 DUP2 MSTORE PUSH1 0x4 ADD PUSH2 0xFC0 SWAP1 PUSH2 0x24DC JUMP JUMPDEST PUSH1 0x40 MLOAD DUP1 SWAP2 SUB SWAP1 REVERT JUMPDEST DUP1 PUSH1 0x1 PUSH1 0x0 DUP6 PUSH20 0xFFFFFFFFFFFFFFFFFFFFFFFFFFFFFFFFFFFFFFFF AND PUSH20 0xFFFFFFFFFFFFFFFFFFFFFFFFFFFFFFFFFFFFFFFF AND DUP2 MSTORE PUSH1 0x20 ADD SWAP1 DUP2 MSTORE PUSH1 0x20 ADD PUSH1 0x0 KECCAK256 PUSH1 0x0 DUP5 PUSH20 0xFFFFFFFFFFFFFFFFFFFFFFFFFFFFFFFFFFFFFFFF AND PUSH20 0xFFFFFFFFFFFFFFFFFFFFFFFFFFFFFFFFFFFFFFFF AND DUP2 MSTORE PUSH1 0x20 ADD SWAP1 DUP2 MSTORE PUSH1 0x20 ADD PUSH1 0x0 KECCAK256 DUP2 SWAP1 SSTORE POP DUP2 PUSH20 0xFFFFFFFFFFFFFFFFFFFFFFFFFFFFFFFFFFFFFFFF AND DUP4 PUSH20 0xFFFFFFFFFFFFFFFFFFFFFFFFFFFFFFFFFFFFFFFF AND PUSH32 0x8C5BE1E5EBEC7D5BD14F71427D1E84F3DD0314C0F7B2291E5B200AC8C7C3B925 DUP4 PUSH1 0x40 MLOAD PUSH2 0x10A7 SWAP2 SWAP1 PUSH2 0x263C JUMP JUMPDEST PUSH1 0x40 MLOAD DUP1 SWAP2 SUB SWAP1 LOG3 POP POP POP JUMP JUMPDEST PUSH2 0x10C5 DUP2 PUSH2 0x10C0 PUSH2 0xEE1 JUMP JUMPDEST PUSH2 0x1995 JUMP JUMPDEST POP JUMP JUMPDEST PUSH1 0x0 PUSH20 0xFFFFFFFFFFFFFFFFFFFFFFFFFFFFFFFFFFFFFFFF AND DUP4 PUSH20 0xFFFFFFFFFFFFFFFFFFFFFFFFFFFFFFFFFFFFFFFF AND EQ ISZERO PUSH2 0x1138 JUMPI PUSH1 0x40 MLOAD PUSH32 0x8C379A000000000000000000000000000000000000000000000000000000000 DUP2 MSTORE PUSH1 0x4 ADD PUSH2 0x112F SWAP1 PUSH2 0x257C JUMP JUMPDEST PUSH1 0x40 MLOAD DUP1 SWAP2 SUB SWAP1 REVERT JUMPDEST PUSH1 0x0 PUSH20 0xFFFFFFFFFFFFFFFFFFFFFFFFFFFFFFFFFFFFFFFF AND DUP3 PUSH20 0xFFFFFFFFFFFFFFFFFFFFFFFFFFFFFFFFFFFFFFFF AND EQ ISZERO PUSH2 0x11A8 JUMPI PUSH1 0x40 MLOAD PUSH32 0x8C379A000000000000000000000000000000000000000000000000000000000 DUP2 MSTORE PUSH1 0x4 ADD PUSH2 0x119F SWAP1 PUSH2 0x245C JUMP JUMPDEST PUSH1 0x40 MLOAD DUP1 SWAP2 SUB SWAP1 REVERT JUMPDEST PUSH2 0x11B3 DUP4 DUP4 DUP4 PUSH2 0x1A32 JUMP JUMPDEST PUSH1 0x0 DUP1 PUSH1 0x0 DUP6 PUSH20 0xFFFFFFFFFFFFFFFFFFFFFFFFFFFFFFFFFFFFFFFF AND PUSH20 0xFFFFFFFFFFFFFFFFFFFFFFFFFFFFFFFFFFFFFFFF AND DUP2 MSTORE PUSH1 0x20 ADD SWAP1 DUP2 MSTORE PUSH1 0x20 ADD PUSH1 0x0 KECCAK256 SLOAD SWAP1 POP DUP2 DUP2 LT ISZERO PUSH2 0x1239 JUMPI PUSH1 0x40 MLOAD PUSH32 0x8C379A000000000000000000000000000000000000000000000000000000000 DUP2 MSTORE PUSH1 0x4 ADD PUSH2 0x1230 SWAP1 PUSH2 0x251C JUMP JUMPDEST PUSH1 0x40 MLOAD DUP1 SWAP2 SUB SWAP1 REVERT JUMPDEST DUP2 DUP2 SUB PUSH1 0x0 DUP1 DUP7 PUSH20 0xFFFFFFFFFFFFFFFFFFFFFFFFFFFFFFFFFFFFFFFF AND PUSH20 0xFFFFFFFFFFFFFFFFFFFFFFFFFFFFFFFFFFFFFFFF AND DUP2 MSTORE PUSH1 0x20 ADD SWAP1 DUP2 MSTORE PUSH1 0x20 ADD PUSH1 0x0 KECCAK256 DUP2 SWAP1 SSTORE POP DUP2 PUSH1 0x0 DUP1 DUP6 PUSH20 0xFFFFFFFFFFFFFFFFFFFFFFFFFFFFFFFFFFFFFFFF AND PUSH20 0xFFFFFFFFFFFFFFFFFFFFFFFFFFFFFFFFFFFFFFFF AND DUP2 MSTORE PUSH1 0x20 ADD SWAP1 DUP2 MSTORE PUSH1 0x20 ADD PUSH1 0x0 KECCAK256 PUSH1 0x0 DUP3 DUP3 SLOAD PUSH2 0x12CC SWAP2 SWAP1 PUSH2 0x2699 JUMP JUMPDEST SWAP3 POP POP DUP2 SWAP1 SSTORE POP DUP3 PUSH20 0xFFFFFFFFFFFFFFFFFFFFFFFFFFFFFFFFFFFFFFFF AND DUP5 PUSH20 0xFFFFFFFFFFFFFFFFFFFFFFFFFFFFFFFFFFFFFFFF AND PUSH32 0xDDF252AD1BE2C89B69C2B068FC378DAA952BA7F163C4A11628F55A4DF523B3EF DUP5 PUSH1 0x40 MLOAD PUSH2 0x1330 SWAP2 SWAP1 PUSH2 0x263C JUMP JUMPDEST PUSH1 0x40 MLOAD DUP1 SWAP2 SUB SWAP1 LOG3 PUSH2 0x1343 DUP5 DUP5 DUP5 PUSH2 0x1AD7 JUMP JUMPDEST POP POP POP POP JUMP JUMPDEST PUSH1 0x0 PUSH2 0x1355 DUP5 DUP5 PUSH2 0xD39 JUMP JUMPDEST SWAP1 POP PUSH32 0xFFFFFFFFFFFFFFFFFFFFFFFFFFFFFFFFFFFFFFFFFFFFFFFFFFFFFFFFFFFFFFFF DUP2 EQ PUSH2 0x13CF JUMPI DUP2 DUP2 LT ISZERO PUSH2 0x13C1 JUMPI PUSH1 0x40 MLOAD PUSH32 0x8C379A000000000000000000000000000000000000000000000000000000000 DUP2 MSTORE PUSH1 0x4 ADD PUSH2 0x13B8 SWAP1 PUSH2 0x24FC JUMP JUMPDEST PUSH1 0x40 MLOAD DUP1 SWAP2 SUB SWAP1 REVERT JUMPDEST PUSH2 0x13CE DUP5 DUP5 DUP5 DUP5 SUB PUSH2 0xEE9 JUMP JUMPDEST JUMPDEST POP POP POP POP JUMP JUMPDEST PUSH2 0x13DF DUP3 DUP3 PUSH2 0xAAD JUMP JUMPDEST PUSH2 0x14B2 JUMPI PUSH1 0x1 PUSH1 0x6 PUSH1 0x0 DUP5 DUP2 MSTORE PUSH1 0x20 ADD SWAP1 DUP2 MSTORE PUSH1 0x20 ADD PUSH1 0x0 KECCAK256 PUSH1 0x0 ADD PUSH1 0x0 DUP4 PUSH20 0xFFFFFFFFFFFFFFFFFFFFFFFFFFFFFFFFFFFFFFFF AND PUSH20 0xFFFFFFFFFFFFFFFFFFFFFFFFFFFFFFFFFFFFFFFF AND DUP2 MSTORE PUSH1 0x20 ADD SWAP1 DUP2 MSTORE PUSH1 0x20 ADD PUSH1 0x0 KECCAK256 PUSH1 0x0 PUSH2 0x100 EXP DUP2 SLOAD DUP2 PUSH1 0xFF MUL NOT AND SWAP1 DUP4 ISZERO ISZERO MUL OR SWAP1 SSTORE POP PUSH2 0x1457 PUSH2 0xEE1 JUMP JUMPDEST PUSH20 0xFFFFFFFFFFFFFFFFFFFFFFFFFFFFFFFFFFFFFFFF AND DUP2 PUSH20 0xFFFFFFFFFFFFFFFFFFFFFFFFFFFFFFFFFFFFFFFF AND DUP4 PUSH32 0x2F8788117E7EFF1D82E926EC794901D17C78024A50270940304540A733656F0D PUSH1 0x40 MLOAD PUSH1 0x40 MLOAD DUP1 SWAP2 SUB SWAP1 LOG4 JUMPDEST POP POP JUMP JUMPDEST PUSH2 0x14C0 DUP3 DUP3 PUSH2 0xAAD JUMP JUMPDEST ISZERO PUSH2 0x1594 JUMPI PUSH1 0x0 PUSH1 0x6 PUSH1 0x0 DUP5 DUP2 MSTORE PUSH1 0x20 ADD SWAP1 DUP2 MSTORE PUSH1 0x20 ADD PUSH1 0x0 KECCAK256 PUSH1 0x0 ADD PUSH1 0x0 DUP4 PUSH20 0xFFFFFFFFFFFFFFFFFFFFFFFFFFFFFFFFFFFFFFFF AND PUSH20 0xFFFFFFFFFFFFFFFFFFFFFFFFFFFFFFFFFFFFFFFF AND DUP2 MSTORE PUSH1 0x20 ADD SWAP1 DUP2 MSTORE PUSH1 0x20 ADD PUSH1 0x0 KECCAK256 PUSH1 0x0 PUSH2 0x100 EXP DUP2 SLOAD DUP2 PUSH1 0xFF MUL NOT AND SWAP1 DUP4 ISZERO ISZERO MUL OR SWAP1 SSTORE POP PUSH2 0x1539 PUSH2 0xEE1 JUMP JUMPDEST PUSH20 0xFFFFFFFFFFFFFFFFFFFFFFFFFFFFFFFFFFFFFFFF AND DUP2 PUSH20 0xFFFFFFFFFFFFFFFFFFFFFFFFFFFFFFFFFFFFFFFF AND DUP4 PUSH32 0xF6391F5C32D9C69D2A47EA670B442974B53935D1EDC7FD64EB21E047A839171B PUSH1 0x40 MLOAD PUSH1 0x40 MLOAD DUP1 SWAP2 SUB SWAP1 LOG4 JUMPDEST POP POP JUMP JUMPDEST PUSH2 0x15A0 PUSH2 0x1ADC JUMP JUMPDEST PUSH1 0x0 PUSH1 0x5 PUSH1 0x0 PUSH2 0x100 EXP DUP2 SLOAD DUP2 PUSH1 0xFF MUL NOT AND SWAP1 DUP4 ISZERO ISZERO MUL OR SWAP1 SSTORE POP PUSH32 0x5DB9EE0A495BF2E6FF9C91A7834C1BA4FDD244A5E8AA4E537BD38AEAE4B073AA PUSH2 0x15E4 PUSH2 0xEE1 JUMP JUMPDEST PUSH1 0x40 MLOAD PUSH2 0x15F1 SWAP2 SWAP1 PUSH2 0x23C9 JUMP JUMPDEST PUSH1 0x40 MLOAD DUP1 SWAP2 SUB SWAP1 LOG1 JUMP JUMPDEST PUSH1 0x0 PUSH20 0xFFFFFFFFFFFFFFFFFFFFFFFFFFFFFFFFFFFFFFFF AND DUP3 PUSH20 0xFFFFFFFFFFFFFFFFFFFFFFFFFFFFFFFFFFFFFFFF AND EQ ISZERO PUSH2 0x166B JUMPI PUSH1 0x40 MLOAD PUSH32 0x8C379A000000000000000000000000000000000000000000000000000000000 DUP2 MSTORE PUSH1 0x4 ADD PUSH2 0x1662 SWAP1 PUSH2 0x25FC JUMP JUMPDEST PUSH1 0x40 MLOAD DUP1 SWAP2 SUB SWAP1 REVERT JUMPDEST PUSH2 0x1677 PUSH1 0x0 DUP4 DUP4 PUSH2 0x1A32 JUMP JUMPDEST DUP1 PUSH1 0x2 PUSH1 0x0 DUP3 DUP3 SLOAD PUSH2 0x1689 SWAP2 SWAP1 PUSH2 0x2699 JUMP JUMPDEST SWAP3 POP POP DUP2 SWAP1 SSTORE POP DUP1 PUSH1 0x0 DUP1 DUP5 PUSH20 0xFFFFFFFFFFFFFFFFFFFFFFFFFFFFFFFFFFFFFFFF AND PUSH20 0xFFFFFFFFFFFFFFFFFFFFFFFFFFFFFFFFFFFFFFFF AND DUP2 MSTORE PUSH1 0x20 ADD SWAP1 DUP2 MSTORE PUSH1 0x20 ADD PUSH1 0x0 KECCAK256 PUSH1 0x0 DUP3 DUP3 SLOAD PUSH2 0x16DE SWAP2 SWAP1 PUSH2 0x2699 JUMP JUMPDEST SWAP3 POP POP DUP2 SWAP1 SSTORE POP DUP2 PUSH20 0xFFFFFFFFFFFFFFFFFFFFFFFFFFFFFFFFFFFFFFFF AND PUSH1 0x0 PUSH20 0xFFFFFFFFFFFFFFFFFFFFFFFFFFFFFFFFFFFFFFFF AND PUSH32 0xDDF252AD1BE2C89B69C2B068FC378DAA952BA7F163C4A11628F55A4DF523B3EF DUP4 PUSH1 0x40 MLOAD PUSH2 0x1743 SWAP2 SWAP1 PUSH2 0x263C JUMP JUMPDEST PUSH1 0x40 MLOAD DUP1 SWAP2 SUB SWAP1 LOG3 PUSH2 0x1757 PUSH1 0x0 DUP4 DUP4 PUSH2 0x1AD7 JUMP JUMPDEST POP POP JUMP JUMPDEST PUSH1 0x0 PUSH20 0xFFFFFFFFFFFFFFFFFFFFFFFFFFFFFFFFFFFFFFFF AND DUP3 PUSH20 0xFFFFFFFFFFFFFFFFFFFFFFFFFFFFFFFFFFFFFFFF AND EQ ISZERO PUSH2 0x17CB JUMPI PUSH1 0x40 MLOAD PUSH32 0x8C379A000000000000000000000000000000000000000000000000000000000 DUP2 MSTORE PUSH1 0x4 ADD PUSH2 0x17C2 SWAP1 PUSH2 0x255C JUMP JUMPDEST PUSH1 0x40 MLOAD DUP1 SWAP2 SUB SWAP1 REVERT JUMPDEST PUSH2 0x17D7 DUP3 PUSH1 0x0 DUP4 PUSH2 0x1A32 JUMP JUMPDEST PUSH1 0x0 DUP1 PUSH1 0x0 DUP5 PUSH20 0xFFFFFFFFFFFFFFFFFFFFFFFFFFFFFFFFFFFFFFFF AND PUSH20 0xFFFFFFFFFFFFFFFFFFFFFFFFFFFFFFFFFFFFFFFF AND DUP2 MSTORE PUSH1 0x20 ADD SWAP1 DUP2 MSTORE PUSH1 0x20 ADD PUSH1 0x0 KECCAK256 SLOAD SWAP1 POP DUP2 DUP2 LT ISZERO PUSH2 0x185D JUMPI PUSH1 0x40 MLOAD PUSH32 0x8C379A000000000000000000000000000000000000000000000000000000000 DUP2 MSTORE PUSH1 0x4 ADD PUSH2 0x1854 SWAP1 PUSH2 0x249C JUMP JUMPDEST PUSH1 0x40 MLOAD DUP1 SWAP2 SUB SWAP1 REVERT JUMPDEST DUP2 DUP2 SUB PUSH1 0x0 DUP1 DUP6 PUSH20 0xFFFFFFFFFFFFFFFFFFFFFFFFFFFFFFFFFFFFFFFF AND PUSH20 0xFFFFFFFFFFFFFFFFFFFFFFFFFFFFFFFFFFFFFFFF AND DUP2 MSTORE PUSH1 0x20 ADD SWAP1 DUP2 MSTORE PUSH1 0x20 ADD PUSH1 0x0 KECCAK256 DUP2 SWAP1 SSTORE POP DUP2 PUSH1 0x2 PUSH1 0x0 DUP3 DUP3 SLOAD PUSH2 0x18B4 SWAP2 SWAP1 PUSH2 0x2749 JUMP JUMPDEST SWAP3 POP POP DUP2 SWAP1 SSTORE POP PUSH1 0x0 PUSH20 0xFFFFFFFFFFFFFFFFFFFFFFFFFFFFFFFFFFFFFFFF AND DUP4 PUSH20 0xFFFFFFFFFFFFFFFFFFFFFFFFFFFFFFFFFFFFFFFF AND PUSH32 0xDDF252AD1BE2C89B69C2B068FC378DAA952BA7F163C4A11628F55A4DF523B3EF DUP5 PUSH1 0x40 MLOAD PUSH2 0x1919 SWAP2 SWAP1 PUSH2 0x263C JUMP JUMPDEST PUSH1 0x40 MLOAD DUP1 SWAP2 SUB SWAP1 LOG3 PUSH2 0x192D DUP4 PUSH1 0x0 DUP5 PUSH2 0x1AD7 JUMP JUMPDEST POP POP POP JUMP JUMPDEST PUSH2 0x193A PUSH2 0x1B25 JUMP JUMPDEST PUSH1 0x1 PUSH1 0x5 PUSH1 0x0 PUSH2 0x100 EXP DUP2 SLOAD DUP2 PUSH1 0xFF MUL NOT AND SWAP1 DUP4 ISZERO ISZERO MUL OR SWAP1 SSTORE POP PUSH32 0x62E78CEA01BEE320CD4E420270B5EA74000D11B0C9F74754EBDBFC544B05A258 PUSH2 0x197E PUSH2 0xEE1 JUMP JUMPDEST PUSH1 0x40 MLOAD PUSH2 0x198B SWAP2 SWAP1 PUSH2 0x23C9 JUMP JUMPDEST PUSH1 0x40 MLOAD DUP1 SWAP2 SUB SWAP1 LOG1 JUMP JUMPDEST PUSH2 0x199F DUP3 DUP3 PUSH2 0xAAD JUMP JUMPDEST PUSH2 0x1A2E JUMPI PUSH2 0x19C4 DUP2 PUSH20 0xFFFFFFFFFFFFFFFFFFFFFFFFFFFFFFFFFFFFFFFF AND PUSH1 0x14 PUSH2 0x1B6F JUMP JUMPDEST PUSH2 0x19D2 DUP4 PUSH1 0x0 SHR PUSH1 0x20 PUSH2 0x1B6F JUMP JUMPDEST PUSH1 0x40 MLOAD PUSH1 0x20 ADD PUSH2 0x19E3 SWAP3 SWAP2 SWAP1 PUSH2 0x238F JUMP JUMPDEST PUSH1 0x40 MLOAD PUSH1 0x20 DUP2 DUP4 SUB SUB DUP2 MSTORE SWAP1 PUSH1 0x40 MSTORE PUSH1 0x40 MLOAD PUSH32 0x8C379A000000000000000000000000000000000000000000000000000000000 DUP2 MSTORE PUSH1 0x4 ADD PUSH2 0x1A25 SWAP2 SWAP1 PUSH2 0x241A JUMP JUMPDEST PUSH1 0x40 MLOAD DUP1 SWAP2 SUB SWAP1 REVERT JUMPDEST POP POP JUMP JUMPDEST PUSH2 0x1A3A PUSH2 0x1B25 JUMP JUMPDEST PUSH1 0x8 PUSH1 0x0 DUP5 PUSH20 0xFFFFFFFFFFFFFFFFFFFFFFFFFFFFFFFFFFFFFFFF AND PUSH20 0xFFFFFFFFFFFFFFFFFFFFFFFFFFFFFFFFFFFFFFFF AND DUP2 MSTORE PUSH1 0x20 ADD SWAP1 DUP2 MSTORE PUSH1 0x20 ADD PUSH1 0x0 KECCAK256 PUSH1 0x0 SWAP1 SLOAD SWAP1 PUSH2 0x100 EXP SWAP1 DIV PUSH1 0xFF AND ISZERO PUSH2 0x1AC7 JUMPI PUSH1 0x40 MLOAD PUSH32 0x8C379A000000000000000000000000000000000000000000000000000000000 DUP2 MSTORE PUSH1 0x4 ADD PUSH2 0x1ABE SWAP1 PUSH2 0x24BC JUMP JUMPDEST PUSH1 0x40 MLOAD DUP1 SWAP2 SUB SWAP1 REVERT JUMPDEST PUSH2 0x1AD2 DUP4 DUP4 DUP4 PUSH2 0xE72 JUMP JUMPDEST POP POP POP JUMP JUMPDEST POP POP POP JUMP JUMPDEST PUSH2 0x1AE4 PUSH2 0x9F9 JUMP JUMPDEST PUSH2 0x1B23 JUMPI PUSH1 0x40 MLOAD PUSH32 0x8C379A000000000000000000000000000000000000000000000000000000000 DUP2 MSTORE PUSH1 0x4 ADD PUSH2 0x1B1A SWAP1 PUSH2 0x247C JUMP JUMPDEST PUSH1 0x40 MLOAD DUP1 SWAP2 SUB SWAP1 REVERT JUMPDEST JUMP JUMPDEST PUSH2 0x1B2D PUSH2 0x9F9 JUMP JUMPDEST ISZERO PUSH2 0x1B6D JUMPI PUSH1 0x40 MLOAD PUSH32 0x8C379A000000000000000000000000000000000000000000000000000000000 DUP2 MSTORE PUSH1 0x4 ADD PUSH2 0x1B64 SWAP1 PUSH2 0x253C JUMP JUMPDEST PUSH1 0x40 MLOAD DUP1 SWAP2 SUB SWAP1 REVERT JUMPDEST JUMP JUMPDEST PUSH1 0x60 PUSH1 0x0 PUSH1 0x2 DUP4 PUSH1 0x2 PUSH2 0x1B82 SWAP2 SWAP1 PUSH2 0x26EF JUMP JUMPDEST PUSH2 0x1B8C SWAP2 SWAP1 PUSH2 0x2699 JUMP JUMPDEST PUSH8 0xFFFFFFFFFFFFFFFF DUP2 GT ISZERO PUSH2 0x1BCB JUMPI PUSH32 0x4E487B7100000000000000000000000000000000000000000000000000000000 PUSH1 0x0 MSTORE PUSH1 0x41 PUSH1 0x4 MSTORE PUSH1 0x24 PUSH1 0x0 REVERT JUMPDEST PUSH1 0x40 MLOAD SWAP1 DUP1 DUP3 MSTORE DUP1 PUSH1 0x1F ADD PUSH1 0x1F NOT AND PUSH1 0x20 ADD DUP3 ADD PUSH1 0x40 MSTORE DUP1 ISZERO PUSH2 0x1BFD JUMPI DUP2 PUSH1 0x20 ADD PUSH1 0x1 DUP3 MUL DUP1 CALLDATASIZE DUP4 CALLDATACOPY DUP1 DUP3 ADD SWAP2 POP POP SWAP1 POP JUMPDEST POP SWAP1 POP PUSH32 0x3000000000000000000000000000000000000000000000000000000000000000 DUP2 PUSH1 0x0 DUP2 MLOAD DUP2 LT PUSH2 0x1C5B JUMPI PUSH32 0x4E487B7100000000000000000000000000000000000000000000000000000000 PUSH1 0x0 MSTORE PUSH1 0x32 PUSH1 0x4 MSTORE PUSH1 0x24 PUSH1 0x0 REVERT JUMPDEST PUSH1 0x20 ADD ADD SWAP1 PUSH31 0xFFFFFFFFFFFFFFFFFFFFFFFFFFFFFFFFFFFFFFFFFFFFFFFFFFFFFFFFFFFFFF NOT AND SWAP1 DUP2 PUSH1 0x0 BYTE SWAP1 MSTORE8 POP PUSH32 0x7800000000000000000000000000000000000000000000000000000000000000 DUP2 PUSH1 0x1 DUP2 MLOAD DUP2 LT PUSH2 0x1CE5 JUMPI PUSH32 0x4E487B7100000000000000000000000000000000000000000000000000000000 PUSH1 0x0 MSTORE PUSH1 0x32 PUSH1 0x4 MSTORE PUSH1 0x24 PUSH1 0x0 REVERT JUMPDEST PUSH1 0x20 ADD ADD SWAP1 PUSH31 0xFFFFFFFFFFFFFFFFFFFFFFFFFFFFFFFFFFFFFFFFFFFFFFFFFFFFFFFFFFFFFF NOT AND SWAP1 DUP2 PUSH1 0x0 BYTE SWAP1 MSTORE8 POP PUSH1 0x0 PUSH1 0x1 DUP5 PUSH1 0x2 PUSH2 0x1D25 SWAP2 SWAP1 PUSH2 0x26EF JUMP JUMPDEST PUSH2 0x1D2F SWAP2 SWAP1 PUSH2 0x2699 JUMP JUMPDEST SWAP1 POP JUMPDEST PUSH1 0x1 DUP2 GT ISZERO PUSH2 0x1E1B JUMPI PUSH32 0x3031323334353637383961626364656600000000000000000000000000000000 PUSH1 0xF DUP7 AND PUSH1 0x10 DUP2 LT PUSH2 0x1D97 JUMPI PUSH32 0x4E487B7100000000000000000000000000000000000000000000000000000000 PUSH1 0x0 MSTORE PUSH1 0x32 PUSH1 0x4 MSTORE PUSH1 0x24 PUSH1 0x0 REVERT JUMPDEST BYTE PUSH1 0xF8 SHL DUP3 DUP3 DUP2 MLOAD DUP2 LT PUSH2 0x1DD4 JUMPI PUSH32 0x4E487B7100000000000000000000000000000000000000000000000000000000 PUSH1 0x0 MSTORE PUSH1 0x32 PUSH1 0x4 MSTORE PUSH1 0x24 PUSH1 0x0 REVERT JUMPDEST PUSH1 0x20 ADD ADD SWAP1 PUSH31 0xFFFFFFFFFFFFFFFFFFFFFFFFFFFFFFFFFFFFFFFFFFFFFFFFFFFFFFFFFFFFFF NOT AND SWAP1 DUP2 PUSH1 0x0 BYTE SWAP1 MSTORE8 POP PUSH1 0x4 DUP6 SWAP1 SHR SWAP5 POP DUP1 PUSH2 0x1E14 SWAP1 PUSH2 0x283B JUMP JUMPDEST SWAP1 POP PUSH2 0x1D32 JUMP JUMPDEST POP PUSH1 0x0 DUP5 EQ PUSH2 0x1E5F JUMPI PUSH1 0x40 MLOAD PUSH32 0x8C379A000000000000000000000000000000000000000000000000000000000 DUP2 MSTORE PUSH1 0x4 ADD PUSH2 0x1E56 SWAP1 PUSH2 0x243C JUMP JUMPDEST PUSH1 0x40 MLOAD DUP1 SWAP2 SUB SWAP1 REVERT JUMPDEST DUP1 SWAP2 POP POP SWAP3 SWAP2 POP POP JUMP JUMPDEST PUSH1 0x0 DUP2 CALLDATALOAD SWAP1 POP PUSH2 0x1E78 DUP2 PUSH2 0x2D8A JUMP JUMPDEST SWAP3 SWAP2 POP POP JUMP JUMPDEST PUSH1 0x0 DUP2 CALLDATALOAD SWAP1 POP PUSH2 0x1E8D DUP2 PUSH2 0x2DA1 JUMP JUMPDEST SWAP3 SWAP2 POP POP JUMP JUMPDEST PUSH1 0x0 DUP2 CALLDATALOAD SWAP1 POP PUSH2 0x1EA2 DUP2 PUSH2 0x2DB8 JUMP JUMPDEST SWAP3 SWAP2 POP POP JUMP JUMPDEST PUSH1 0x0 DUP2 CALLDATALOAD SWAP1 POP PUSH2 0x1EB7 DUP2 PUSH2 0x2DCF JUMP JUMPDEST SWAP3 SWAP2 POP POP JUMP JUMPDEST PUSH1 0x0 PUSH1 0x20 DUP3 DUP5 SUB SLT ISZERO PUSH2 0x1ECF JUMPI PUSH1 0x0 DUP1 REVERT JUMPDEST PUSH1 0x0 PUSH2 0x1EDD DUP5 DUP3 DUP6 ADD PUSH2 0x1E69 JUMP JUMPDEST SWAP2 POP POP SWAP3 SWAP2 POP POP JUMP JUMPDEST PUSH1 0x0 DUP1 PUSH1 0x40 DUP4 DUP6 SUB SLT ISZERO PUSH2 0x1EF9 JUMPI PUSH1 0x0 DUP1 REVERT JUMPDEST PUSH1 0x0 PUSH2 0x1F07 DUP6 DUP3 DUP7 ADD PUSH2 0x1E69 JUMP JUMPDEST SWAP3 POP POP PUSH1 0x20 PUSH2 0x1F18 DUP6 DUP3 DUP7 ADD PUSH2 0x1E69 JUMP JUMPDEST SWAP2 POP POP SWAP3 POP SWAP3 SWAP1 POP JUMP JUMPDEST PUSH1 0x0 DUP1 PUSH1 0x0 PUSH1 0x60 DUP5 DUP7 SUB SLT ISZERO PUSH2 0x1F37 JUMPI PUSH1 0x0 DUP1 REVERT JUMPDEST PUSH1 0x0 PUSH2 0x1F45 DUP7 DUP3 DUP8 ADD PUSH2 0x1E69 JUMP JUMPDEST SWAP4 POP POP PUSH1 0x20 PUSH2 0x1F56 DUP7 DUP3 DUP8 ADD PUSH2 0x1E69 JUMP JUMPDEST SWAP3 POP POP PUSH1 0x40 PUSH2 0x1F67 DUP7 DUP3 DUP8 ADD PUSH2 0x1EA8 JUMP JUMPDEST SWAP2 POP POP SWAP3 POP SWAP3 POP SWAP3 JUMP JUMPDEST PUSH1 0x0 DUP1 PUSH1 0x40 DUP4 DUP6 SUB SLT ISZERO PUSH2 0x1F84 JUMPI PUSH1 0x0 DUP1 REVERT JUMPDEST PUSH1 0x0 PUSH2 0x1F92 DUP6 DUP3 DUP7 ADD PUSH2 0x1E69 JUMP JUMPDEST SWAP3 POP POP PUSH1 0x20 PUSH2 0x1FA3 DUP6 DUP3 DUP7 ADD PUSH2 0x1EA8 JUMP JUMPDEST SWAP2 POP POP SWAP3 POP SWAP3 SWAP1 POP JUMP JUMPDEST PUSH1 0x0 PUSH1 0x20 DUP3 DUP5 SUB SLT ISZERO PUSH2 0x1FBF JUMPI PUSH1 0x0 DUP1 REVERT JUMPDEST PUSH1 0x0 PUSH2 0x1FCD DUP5 DUP3 DUP6 ADD PUSH2 0x1E7E JUMP JUMPDEST SWAP2 POP POP SWAP3 SWAP2 POP POP JUMP JUMPDEST PUSH1 0x0 DUP1 PUSH1 0x40 DUP4 DUP6 SUB SLT ISZERO PUSH2 0x1FE9 JUMPI PUSH1 0x0 DUP1 REVERT JUMPDEST PUSH1 0x0 PUSH2 0x1FF7 DUP6 DUP3 DUP7 ADD PUSH2 0x1E7E JUMP JUMPDEST SWAP3 POP POP PUSH1 0x20 PUSH2 0x2008 DUP6 DUP3 DUP7 ADD PUSH2 0x1E69 JUMP JUMPDEST SWAP2 POP POP SWAP3 POP SWAP3 SWAP1 POP JUMP JUMPDEST PUSH1 0x0 PUSH1 0x20 DUP3 DUP5 SUB SLT ISZERO PUSH2 0x2024 JUMPI PUSH1 0x0 DUP1 REVERT JUMPDEST PUSH1 0x0 PUSH2 0x2032 DUP5 DUP3 DUP6 ADD PUSH2 0x1E93 JUMP JUMPDEST SWAP2 POP POP SWAP3 SWAP2 POP POP JUMP JUMPDEST PUSH1 0x0 PUSH1 0x20 DUP3 DUP5 SUB SLT ISZERO PUSH2 0x204D JUMPI PUSH1 0x0 DUP1 REVERT JUMPDEST PUSH1 0x0 PUSH2 0x205B DUP5 DUP3 DUP6 ADD PUSH2 0x1EA8 JUMP JUMPDEST SWAP2 POP POP SWAP3 SWAP2 POP POP JUMP JUMPDEST PUSH2 0x206D DUP2 PUSH2 0x277D JUMP JUMPDEST DUP3 MSTORE POP POP JUMP JUMPDEST PUSH2 0x207C DUP2 PUSH2 0x278F JUMP JUMPDEST DUP3 MSTORE POP POP JUMP JUMPDEST PUSH2 0x208B DUP2 PUSH2 0x279B JUMP JUMPDEST DUP3 MSTORE POP POP JUMP JUMPDEST PUSH1 0x0 PUSH2 0x209C DUP3 PUSH2 0x2672 JUMP JUMPDEST PUSH2 0x20A6 DUP2 DUP6 PUSH2 0x267D JUMP JUMPDEST SWAP4 POP PUSH2 0x20B6 DUP2 DUP6 PUSH1 0x20 DUP7 ADD PUSH2 0x2808 JUMP JUMPDEST PUSH2 0x20BF DUP2 PUSH2 0x28F5 JUMP JUMPDEST DUP5 ADD SWAP2 POP POP SWAP3 SWAP2 POP POP JUMP JUMPDEST PUSH1 0x0 PUSH2 0x20D5 DUP3 PUSH2 0x2672 JUMP JUMPDEST PUSH2 0x20DF DUP2 DUP6 PUSH2 0x268E JUMP JUMPDEST SWAP4 POP PUSH2 0x20EF DUP2 DUP6 PUSH1 0x20 DUP7 ADD PUSH2 0x2808 JUMP JUMPDEST DUP1 DUP5 ADD SWAP2 POP POP SWAP3 SWAP2 POP POP JUMP JUMPDEST PUSH1 0x0 PUSH2 0x2108 PUSH1 0x20 DUP4 PUSH2 0x267D JUMP JUMPDEST SWAP2 POP PUSH2 0x2113 DUP3 PUSH2 0x2906 JUMP JUMPDEST PUSH1 0x20 DUP3 ADD SWAP1 POP SWAP2 SWAP1 POP JUMP JUMPDEST PUSH1 0x0 PUSH2 0x212B PUSH1 0x23 DUP4 PUSH2 0x267D JUMP JUMPDEST SWAP2 POP PUSH2 0x2136 DUP3 PUSH2 0x292F JUMP JUMPDEST PUSH1 0x40 DUP3 ADD SWAP1 POP SWAP2 SWAP1 POP JUMP JUMPDEST PUSH1 0x0 PUSH2 0x214E PUSH1 0x14 DUP4 PUSH2 0x267D JUMP JUMPDEST SWAP2 POP PUSH2 0x2159 DUP3 PUSH2 0x297E JUMP JUMPDEST PUSH1 0x20 DUP3 ADD SWAP1 POP SWAP2 SWAP1 POP JUMP JUMPDEST PUSH1 0x0 PUSH2 0x2171 PUSH1 0x22 DUP4 PUSH2 0x267D JUMP JUMPDEST SWAP2 POP PUSH2 0x217C DUP3 PUSH2 0x29A7 JUMP JUMPDEST PUSH1 0x40 DUP3 ADD SWAP1 POP SWAP2 SWAP1 POP JUMP JUMPDEST PUSH1 0x0 PUSH2 0x2194 PUSH1 0x25 DUP4 PUSH2 0x267D JUMP JUMPDEST SWAP2 POP PUSH2 0x219F DUP3 PUSH2 0x29F6 JUMP JUMPDEST PUSH1 0x40 DUP3 ADD SWAP1 POP SWAP2 SWAP1 POP JUMP JUMPDEST PUSH1 0x0 PUSH2 0x21B7 PUSH1 0x22 DUP4 PUSH2 0x267D JUMP JUMPDEST SWAP2 POP PUSH2 0x21C2 DUP3 PUSH2 0x2A45 JUMP JUMPDEST PUSH1 0x40 DUP3 ADD SWAP1 POP SWAP2 SWAP1 POP JUMP JUMPDEST PUSH1 0x0 PUSH2 0x21DA PUSH1 0x1D DUP4 PUSH2 0x267D JUMP JUMPDEST SWAP2 POP PUSH2 0x21E5 DUP3 PUSH2 0x2A94 JUMP JUMPDEST PUSH1 0x20 DUP3 ADD SWAP1 POP SWAP2 SWAP1 POP JUMP JUMPDEST PUSH1 0x0 PUSH2 0x21FD PUSH1 0x26 DUP4 PUSH2 0x267D JUMP JUMPDEST SWAP2 POP PUSH2 0x2208 DUP3 PUSH2 0x2ABD JUMP JUMPDEST PUSH1 0x40 DUP3 ADD SWAP1 POP SWAP2 SWAP1 POP JUMP JUMPDEST PUSH1 0x0 PUSH2 0x2220 PUSH1 0x10 DUP4 PUSH2 0x267D JUMP JUMPDEST SWAP2 POP PUSH2 0x222B DUP3 PUSH2 0x2B0C JUMP JUMPDEST PUSH1 0x20 DUP3 ADD SWAP1 POP SWAP2 SWAP1 POP JUMP JUMPDEST PUSH1 0x0 PUSH2 0x2243 PUSH1 0x21 DUP4 PUSH2 0x267D JUMP JUMPDEST SWAP2 POP PUSH2 0x224E DUP3 PUSH2 0x2B35 JUMP JUMPDEST PUSH1 0x40 DUP3 ADD SWAP1 POP SWAP2 SWAP1 POP JUMP JUMPDEST PUSH1 0x0 PUSH2 0x2266 PUSH1 0x25 DUP4 PUSH2 0x267D JUMP JUMPDEST SWAP2 POP PUSH2 0x2271 DUP3 PUSH2 0x2B84 JUMP JUMPDEST PUSH1 0x40 DUP3 ADD SWAP1 POP SWAP2 SWAP1 POP JUMP JUMPDEST PUSH1 0x0 PUSH2 0x2289 PUSH1 0x24 DUP4 PUSH2 0x267D JUMP JUMPDEST SWAP2 POP PUSH2 0x2294 DUP3 PUSH2 0x2BD3 JUMP JUMPDEST PUSH1 0x40 DUP3 ADD SWAP1 POP SWAP2 SWAP1 POP JUMP JUMPDEST PUSH1 0x0 PUSH2 0x22AC PUSH1 0x17 DUP4 PUSH2 0x268E JUMP JUMPDEST SWAP2 POP PUSH2 0x22B7 DUP3 PUSH2 0x2C22 JUMP JUMPDEST PUSH1 0x17 DUP3 ADD SWAP1 POP SWAP2 SWAP1 POP JUMP JUMPDEST PUSH1 0x0 PUSH2 0x22CF PUSH1 0x25 DUP4 PUSH2 0x267D JUMP JUMPDEST SWAP2 POP PUSH2 0x22DA DUP3 PUSH2 0x2C4B JUMP JUMPDEST PUSH1 0x40 DUP3 ADD SWAP1 POP SWAP2 SWAP1 POP JUMP JUMPDEST PUSH1 0x0 PUSH2 0x22F2 PUSH1 0x11 DUP4 PUSH2 0x268E JUMP JUMPDEST SWAP2 POP PUSH2 0x22FD DUP3 PUSH2 0x2C9A JUMP JUMPDEST PUSH1 0x11 DUP3 ADD SWAP1 POP SWAP2 SWAP1 POP JUMP JUMPDEST PUSH1 0x0 PUSH2 0x2315 PUSH1 0x2F DUP4 PUSH2 0x267D JUMP JUMPDEST SWAP2 POP PUSH2 0x2320 DUP3 PUSH2 0x2CC3 JUMP JUMPDEST PUSH1 0x40 DUP3 ADD SWAP1 POP SWAP2 SWAP1 POP JUMP JUMPDEST PUSH1 0x0 PUSH2 0x2338 PUSH1 0x1F DUP4 PUSH2 0x267D JUMP JUMPDEST SWAP2 POP PUSH2 0x2343 DUP3 PUSH2 0x2D12 JUMP JUMPDEST PUSH1 0x20 DUP3 ADD SWAP1 POP SWAP2 SWAP1 POP JUMP JUMPDEST PUSH1 0x0 PUSH2 0x235B PUSH1 0x34 DUP4 PUSH2 0x267D JUMP JUMPDEST SWAP2 POP PUSH2 0x2366 DUP3 PUSH2 0x2D3B JUMP JUMPDEST PUSH1 0x40 DUP3 ADD SWAP1 POP SWAP2 SWAP1 POP JUMP JUMPDEST PUSH2 0x237A DUP2 PUSH2 0x27F1 JUMP JUMPDEST DUP3 MSTORE POP POP JUMP JUMPDEST PUSH2 0x2389 DUP2 PUSH2 0x27FB JUMP JUMPDEST DUP3 MSTORE POP POP JUMP JUMPDEST PUSH1 0x0 PUSH2 0x239A DUP3 PUSH2 0x229F JUMP JUMPDEST SWAP2 POP PUSH2 0x23A6 DUP3 DUP6 PUSH2 0x20CA JUMP JUMPDEST SWAP2 POP PUSH2 0x23B1 DUP3 PUSH2 0x22E5 JUMP JUMPDEST SWAP2 POP PUSH2 0x23BD DUP3 DUP5 PUSH2 0x20CA JUMP JUMPDEST SWAP2 POP DUP2 SWAP1 POP SWAP4 SWAP3 POP POP POP JUMP JUMPDEST PUSH1 0x0 PUSH1 0x20 DUP3 ADD SWAP1 POP PUSH2 0x23DE PUSH1 0x0 DUP4 ADD DUP5 PUSH2 0x2064 JUMP JUMPDEST SWAP3 SWAP2 POP POP JUMP JUMPDEST PUSH1 0x0 PUSH1 0x20 DUP3 ADD SWAP1 POP PUSH2 0x23F9 PUSH1 0x0 DUP4 ADD DUP5 PUSH2 0x2073 JUMP JUMPDEST SWAP3 SWAP2 POP POP JUMP JUMPDEST PUSH1 0x0 PUSH1 0x20 DUP3 ADD SWAP1 POP PUSH2 0x2414 PUSH1 0x0 DUP4 ADD DUP5 PUSH2 0x2082 JUMP JUMPDEST SWAP3 SWAP2 POP POP JUMP JUMPDEST PUSH1 0x0 PUSH1 0x20 DUP3 ADD SWAP1 POP DUP2 DUP2 SUB PUSH1 0x0 DUP4 ADD MSTORE PUSH2 0x2434 DUP2 DUP5 PUSH2 0x2091 JUMP JUMPDEST SWAP1 POP SWAP3 SWAP2 POP POP JUMP JUMPDEST PUSH1 0x0 PUSH1 0x20 DUP3 ADD SWAP1 POP DUP2 DUP2 SUB PUSH1 0x0 DUP4 ADD MSTORE PUSH2 0x2455 DUP2 PUSH2 0x20FB JUMP JUMPDEST SWAP1 POP SWAP2 SWAP1 POP JUMP JUMPDEST PUSH1 0x0 PUSH1 0x20 DUP3 ADD SWAP1 POP DUP2 DUP2 SUB PUSH1 0x0 DUP4 ADD MSTORE PUSH2 0x2475 DUP2 PUSH2 0x211E JUMP JUMPDEST SWAP1 POP SWAP2 SWAP1 POP JUMP JUMPDEST PUSH1 0x0 PUSH1 0x20 DUP3 ADD SWAP1 POP DUP2 DUP2 SUB PUSH1 0x0 DUP4 ADD MSTORE PUSH2 0x2495 DUP2 PUSH2 0x2141 JUMP JUMPDEST SWAP1 POP SWAP2 SWAP1 POP JUMP JUMPDEST PUSH1 0x0 PUSH1 0x20 DUP3 ADD SWAP1 POP DUP2 DUP2 SUB PUSH1 0x0 DUP4 ADD MSTORE PUSH2 0x24B5 DUP2 PUSH2 0x2164 JUMP JUMPDEST SWAP1 POP SWAP2 SWAP1 POP JUMP JUMPDEST PUSH1 0x0 PUSH1 0x20 DUP3 ADD SWAP1 POP DUP2 DUP2 SUB PUSH1 0x0 DUP4 ADD MSTORE PUSH2 0x24D5 DUP2 PUSH2 0x2187 JUMP JUMPDEST SWAP1 POP SWAP2 SWAP1 POP JUMP JUMPDEST PUSH1 0x0 PUSH1 0x20 DUP3 ADD SWAP1 POP DUP2 DUP2 SUB PUSH1 0x0 DUP4 ADD MSTORE PUSH2 0x24F5 DUP2 PUSH2 0x21AA JUMP JUMPDEST SWAP1 POP SWAP2 SWAP1 POP JUMP JUMPDEST PUSH1 0x0 PUSH1 0x20 DUP3 ADD SWAP1 POP DUP2 DUP2 SUB PUSH1 0x0 DUP4 ADD MSTORE PUSH2 0x2515 DUP2 PUSH2 0x21CD JUMP JUMPDEST SWAP1 POP SWAP2 SWAP1 POP JUMP JUMPDEST PUSH1 0x0 PUSH1 0x20 DUP3 ADD SWAP1 POP DUP2 DUP2 SUB PUSH1 0x0 DUP4 ADD MSTORE PUSH2 0x2535 DUP2 PUSH2 0x21F0 JUMP JUMPDEST SWAP1 POP SWAP2 SWAP1 POP JUMP JUMPDEST PUSH1 0x0 PUSH1 0x20 DUP3 ADD SWAP1 POP DUP2 DUP2 SUB PUSH1 0x0 DUP4 ADD MSTORE PUSH2 0x2555 DUP2 PUSH2 0x2213 JUMP JUMPDEST SWAP1 POP SWAP2 SWAP1 POP JUMP JUMPDEST PUSH1 0x0 PUSH1 0x20 DUP3 ADD SWAP1 POP DUP2 DUP2 SUB PUSH1 0x0 DUP4 ADD MSTORE PUSH2 0x2575 DUP2 PUSH2 0x2236 JUMP JUMPDEST SWAP1 POP SWAP2 SWAP1 POP JUMP JUMPDEST PUSH1 0x0 PUSH1 0x20 DUP3 ADD SWAP1 POP DUP2 DUP2 SUB PUSH1 0x0 DUP4 ADD MSTORE PUSH2 0x2595 DUP2 PUSH2 0x2259 JUMP JUMPDEST SWAP1 POP SWAP2 SWAP1 POP JUMP JUMPDEST PUSH1 0x0 PUSH1 0x20 DUP3 ADD SWAP1 POP DUP2 DUP2 SUB PUSH1 0x0 DUP4 ADD MSTORE PUSH2 0x25B5 DUP2 PUSH2 0x227C JUMP JUMPDEST SWAP1 POP SWAP2 SWAP1 POP JUMP JUMPDEST PUSH1 0x0 PUSH1 0x20 DUP3 ADD SWAP1 POP DUP2 DUP2 SUB PUSH1 0x0 DUP4 ADD MSTORE PUSH2 0x25D5 DUP2 PUSH2 0x22C2 JUMP JUMPDEST SWAP1 POP SWAP2 SWAP1 POP JUMP JUMPDEST PUSH1 0x0 PUSH1 0x20 DUP3 ADD SWAP1 POP DUP2 DUP2 SUB PUSH1 0x0 DUP4 ADD MSTORE PUSH2 0x25F5 DUP2 PUSH2 0x2308 JUMP JUMPDEST SWAP1 POP SWAP2 SWAP1 POP JUMP JUMPDEST PUSH1 0x0 PUSH1 0x20 DUP3 ADD SWAP1 POP DUP2 DUP2 SUB PUSH1 0x0 DUP4 ADD MSTORE PUSH2 0x2615 DUP2 PUSH2 0x232B JUMP JUMPDEST SWAP1 POP SWAP2 SWAP1 POP JUMP JUMPDEST PUSH1 0x0 PUSH1 0x20 DUP3 ADD SWAP1 POP DUP2 DUP2 SUB PUSH1 0x0 DUP4 ADD MSTORE PUSH2 0x2635 DUP2 PUSH2 0x234E JUMP JUMPDEST SWAP1 POP SWAP2 SWAP1 POP JUMP JUMPDEST PUSH1 0x0 PUSH1 0x20 DUP3 ADD SWAP1 POP PUSH2 0x2651 PUSH1 0x0 DUP4 ADD DUP5 PUSH2 0x2371 JUMP JUMPDEST SWAP3 SWAP2 POP POP JUMP JUMPDEST PUSH1 0x0 PUSH1 0x20 DUP3 ADD SWAP1 POP PUSH2 0x266C PUSH1 0x0 DUP4 ADD DUP5 PUSH2 0x2380 JUMP JUMPDEST SWAP3 SWAP2 POP POP JUMP JUMPDEST PUSH1 0x0 DUP2 MLOAD SWAP1 POP SWAP2 SWAP1 POP JUMP JUMPDEST PUSH1 0x0 DUP3 DUP3 MSTORE PUSH1 0x20 DUP3 ADD SWAP1 POP SWAP3 SWAP2 POP POP JUMP JUMPDEST PUSH1 0x0 DUP2 SWAP1 POP SWAP3 SWAP2 POP POP JUMP JUMPDEST PUSH1 0x0 PUSH2 0x26A4 DUP3 PUSH2 0x27F1 JUMP JUMPDEST SWAP2 POP PUSH2 0x26AF DUP4 PUSH2 0x27F1 JUMP JUMPDEST SWAP3 POP DUP3 PUSH32 0xFFFFFFFFFFFFFFFFFFFFFFFFFFFFFFFFFFFFFFFFFFFFFFFFFFFFFFFFFFFFFFFF SUB DUP3 GT ISZERO PUSH2 0x26E4 JUMPI PUSH2 0x26E3 PUSH2 0x2897 JUMP JUMPDEST JUMPDEST DUP3 DUP3 ADD SWAP1 POP SWAP3 SWAP2 POP POP JUMP JUMPDEST PUSH1 0x0 PUSH2 0x26FA DUP3 PUSH2 0x27F1 JUMP JUMPDEST SWAP2 POP PUSH2 0x2705 DUP4 PUSH2 0x27F1 JUMP JUMPDEST SWAP3 POP DUP2 PUSH32 0xFFFFFFFFFFFFFFFFFFFFFFFFFFFFFFFFFFFFFFFFFFFFFFFFFFFFFFFFFFFFFFFF DIV DUP4 GT DUP3 ISZERO ISZERO AND ISZERO PUSH2 0x273E JUMPI PUSH2 0x273D PUSH2 0x2897 JUMP JUMPDEST JUMPDEST DUP3 DUP3 MUL SWAP1 POP SWAP3 SWAP2 POP POP JUMP JUMPDEST PUSH1 0x0 PUSH2 0x2754 DUP3 PUSH2 0x27F1 JUMP JUMPDEST SWAP2 POP PUSH2 0x275F DUP4 PUSH2 0x27F1 JUMP JUMPDEST SWAP3 POP DUP3 DUP3 LT ISZERO PUSH2 0x2772 JUMPI PUSH2 0x2771 PUSH2 0x2897 JUMP JUMPDEST JUMPDEST DUP3 DUP3 SUB SWAP1 POP SWAP3 SWAP2 POP POP JUMP JUMPDEST PUSH1 0x0 PUSH2 0x2788 DUP3 PUSH2 0x27D1 JUMP JUMPDEST SWAP1 POP SWAP2 SWAP1 POP JUMP JUMPDEST PUSH1 0x0 DUP2 ISZERO ISZERO SWAP1 POP SWAP2 SWAP1 POP JUMP JUMPDEST PUSH1 0x0 DUP2 SWAP1 POP SWAP2 SWAP1 POP JUMP JUMPDEST PUSH1 0x0 PUSH32 0xFFFFFFFF00000000000000000000000000000000000000000000000000000000 DUP3 AND SWAP1 POP SWAP2 SWAP1 POP JUMP JUMPDEST PUSH1 0x0 PUSH20 0xFFFFFFFFFFFFFFFFFFFFFFFFFFFFFFFFFFFFFFFF DUP3 AND SWAP1 POP SWAP2 SWAP1 POP JUMP JUMPDEST PUSH1 0x0 DUP2 SWAP1 POP SWAP2 SWAP1 POP JUMP JUMPDEST PUSH1 0x0 PUSH1 0xFF DUP3 AND SWAP1 POP SWAP2 SWAP1 POP JUMP JUMPDEST PUSH1 0x0 JUMPDEST DUP4 DUP2 LT ISZERO PUSH2 0x2826 JUMPI DUP1 DUP3 ADD MLOAD DUP2 DUP5 ADD MSTORE PUSH1 0x20 DUP2 ADD SWAP1 POP PUSH2 0x280B JUMP JUMPDEST DUP4 DUP2 GT ISZERO PUSH2 0x2835 JUMPI PUSH1 0x0 DUP5 DUP5 ADD MSTORE JUMPDEST POP POP POP POP JUMP JUMPDEST PUSH1 0x0 PUSH2 0x2846 DUP3 PUSH2 0x27F1 JUMP JUMPDEST SWAP2 POP PUSH1 0x0 DUP3 EQ ISZERO PUSH2 0x285A JUMPI PUSH2 0x2859 PUSH2 0x2897 JUMP JUMPDEST JUMPDEST PUSH1 0x1 DUP3 SUB SWAP1 POP SWAP2 SWAP1 POP JUMP JUMPDEST PUSH1 0x0 PUSH1 0x2 DUP3 DIV SWAP1 POP PUSH1 0x1 DUP3 AND DUP1 PUSH2 0x287D JUMPI PUSH1 0x7F DUP3 AND SWAP2 POP JUMPDEST PUSH1 0x20 DUP3 LT DUP2 EQ ISZERO PUSH2 0x2891 JUMPI PUSH2 0x2890 PUSH2 0x28C6 JUMP JUMPDEST JUMPDEST POP SWAP2 SWAP1 POP JUMP JUMPDEST PUSH32 0x4E487B7100000000000000000000000000000000000000000000000000000000 PUSH1 0x0 MSTORE PUSH1 0x11 PUSH1 0x4 MSTORE PUSH1 0x24 PUSH1 0x0 REVERT JUMPDEST PUSH32 0x4E487B7100000000000000000000000000000000000000000000000000000000 PUSH1 0x0 MSTORE PUSH1 0x22 PUSH1 0x4 MSTORE PUSH1 0x24 PUSH1 0x0 REVERT JUMPDEST PUSH1 0x0 PUSH1 0x1F NOT PUSH1 0x1F DUP4 ADD AND SWAP1 POP SWAP2 SWAP1 POP JUMP JUMPDEST PUSH32 0x537472696E67733A20686578206C656E67746820696E73756666696369656E74 PUSH1 0x0 DUP3 ADD MSTORE POP JUMP JUMPDEST PUSH32 0x45524332303A207472616E7366657220746F20746865207A65726F2061646472 PUSH1 0x0 DUP3 ADD MSTORE PUSH32 0x6573730000000000000000000000000000000000000000000000000000000000 PUSH1 0x20 DUP3 ADD MSTORE POP JUMP JUMPDEST PUSH32 0x5061757361626C653A206E6F7420706175736564000000000000000000000000 PUSH1 0x0 DUP3 ADD MSTORE POP JUMP JUMPDEST PUSH32 0x45524332303A206275726E20616D6F756E7420657863656564732062616C616E PUSH1 0x0 DUP3 ADD MSTORE PUSH32 0x6365000000000000000000000000000000000000000000000000000000000000 PUSH1 0x20 DUP3 ADD MSTORE POP JUMP JUMPDEST PUSH32 0x546F6B656E207472616E736665722066726F6D204C6F636B6564416464726573 PUSH1 0x0 DUP3 ADD MSTORE PUSH32 0x734C697374000000000000000000000000000000000000000000000000000000 PUSH1 0x20 DUP3 ADD MSTORE POP JUMP JUMPDEST PUSH32 0x45524332303A20617070726F766520746F20746865207A65726F206164647265 PUSH1 0x0 DUP3 ADD MSTORE PUSH32 0x7373000000000000000000000000000000000000000000000000000000000000 PUSH1 0x20 DUP3 ADD MSTORE POP JUMP JUMPDEST PUSH32 0x45524332303A20696E73756666696369656E7420616C6C6F77616E6365000000 PUSH1 0x0 DUP3 ADD MSTORE POP JUMP JUMPDEST PUSH32 0x45524332303A207472616E7366657220616D6F756E7420657863656564732062 PUSH1 0x0 DUP3 ADD MSTORE PUSH32 0x616C616E63650000000000000000000000000000000000000000000000000000 PUSH1 0x20 DUP3 ADD MSTORE POP JUMP JUMPDEST PUSH32 0x5061757361626C653A2070617573656400000000000000000000000000000000 PUSH1 0x0 DUP3 ADD MSTORE POP JUMP JUMPDEST PUSH32 0x45524332303A206275726E2066726F6D20746865207A65726F20616464726573 PUSH1 0x0 DUP3 ADD MSTORE PUSH32 0x7300000000000000000000000000000000000000000000000000000000000000 PUSH1 0x20 DUP3 ADD MSTORE POP JUMP JUMPDEST PUSH32 0x45524332303A207472616E736665722066726F6D20746865207A65726F206164 PUSH1 0x0 DUP3 ADD MSTORE PUSH32 0x6472657373000000000000000000000000000000000000000000000000000000 PUSH1 0x20 DUP3 ADD MSTORE POP JUMP JUMPDEST PUSH32 0x45524332303A20617070726F76652066726F6D20746865207A65726F20616464 PUSH1 0x0 DUP3 ADD MSTORE PUSH32 0x7265737300000000000000000000000000000000000000000000000000000000 PUSH1 0x20 DUP3 ADD MSTORE POP JUMP JUMPDEST PUSH32 0x416363657373436F6E74726F6C3A206163636F756E7420000000000000000000 PUSH1 0x0 DUP3 ADD MSTORE POP JUMP JUMPDEST PUSH32 0x45524332303A2064656372656173656420616C6C6F77616E63652062656C6F77 PUSH1 0x0 DUP3 ADD MSTORE PUSH32 0x207A65726F000000000000000000000000000000000000000000000000000000 PUSH1 0x20 DUP3 ADD MSTORE POP JUMP JUMPDEST PUSH32 0x206973206D697373696E6720726F6C6520000000000000000000000000000000 PUSH1 0x0 DUP3 ADD MSTORE POP JUMP JUMPDEST PUSH32 0x416363657373436F6E74726F6C3A2063616E206F6E6C792072656E6F756E6365 PUSH1 0x0 DUP3 ADD MSTORE PUSH32 0x20726F6C657320666F722073656C660000000000000000000000000000000000 PUSH1 0x20 DUP3 ADD MSTORE POP JUMP JUMPDEST PUSH32 0x45524332303A206D696E7420746F20746865207A65726F206164647265737300 PUSH1 0x0 DUP3 ADD MSTORE POP JUMP JUMPDEST PUSH32 0x546865206E756D626572206F66206164646974696F6E616C2069737375616E63 PUSH1 0x0 DUP3 ADD MSTORE PUSH32 0x6520686173206265656E2065786365656465642E000000000000000000000000 PUSH1 0x20 DUP3 ADD MSTORE POP JUMP JUMPDEST PUSH2 0x2D93 DUP2 PUSH2 0x277D JUMP JUMPDEST DUP2 EQ PUSH2 0x2D9E JUMPI PUSH1 0x0 DUP1 REVERT JUMPDEST POP JUMP JUMPDEST PUSH2 0x2DAA DUP2 PUSH2 0x279B JUMP JUMPDEST DUP2 EQ PUSH2 0x2DB5 JUMPI PUSH1 0x0 DUP1 REVERT JUMPDEST POP JUMP JUMPDEST PUSH2 0x2DC1 DUP2 PUSH2 0x27A5 JUMP JUMPDEST DUP2 EQ PUSH2 0x2DCC JUMPI PUSH1 0x0 DUP1 REVERT JUMPDEST POP JUMP JUMPDEST PUSH2 0x2DD8 DUP2 PUSH2 0x27F1 JUMP JUMPDEST DUP2 EQ PUSH2 0x2DE3 JUMPI PUSH1 0x0 DUP1 REVERT JUMPDEST POP JUMP INVALID LOG2 PUSH5 0x6970667358 0x22 SLT KECCAK256 DUP9 0xDF STOP 0x5C 0xDC 0x23 JUMP 0xC0 ADD 0xE7 0x4F SUB SWAP3 0xD4 DUP4 PUSH31 0x108CE5FA888EAD604DAC36F65E45F29164736F6C6343000804003300000000 "
				},
				"gasEstimates": {
					"creation": {
						"codeDepositCost": "2360800",
						"executionCost": "infinite",
						"totalCost": "infinite"
					},
					"external": {
						"DEFAULT_ADMIN_ROLE()": "424",
						"FullLockAddress(address)": "infinite",
						"FullLockedAddressList(address)": "1651",
						"LOCK_TRANSFER_ROLE()": "418",
						"MINTER_ROLE()": "440",
						"PAUSER_ROLE()": "439",
						"allowance(address,address)": "infinite",
						"approve(address,uint256)": "infinite",
						"balanceOf(address)": "1609",
						"burn(uint256)": "infinite",
						"burnFrom(address,uint256)": "infinite",
						"decimals()": "433",
						"decreaseAllowance(address,uint256)": "infinite",
						"getRoleAdmin(bytes32)": "infinite",
						"grantRole(bytes32,address)": "infinite",
						"hasRole(bytes32,address)": "1885",
						"increaseAllowance(address,uint256)": "infinite",
						"mint(address,uint256)": "infinite",
						"name()": "infinite",
						"pause()": "infinite",
						"paused()": "1225",
						"recoveryTokenTransfer(address,address,uint256)": "infinite",
						"renounceRole(bytes32,address)": "infinite",
						"revokeRole(bytes32,address)": "infinite",
						"supportsInterface(bytes4)": "774",
						"symbol()": "infinite",
						"totalSupply()": "1227",
						"transfer(address,uint256)": "infinite",
						"transferFrom(address,address,uint256)": "infinite",
						"unFullLockAddress(address)": "infinite",
						"unpause()": "infinite"
					},
					"internal": {
						"_beforeTokenTransfer(address,address,uint256)": "infinite"
					}
				},
				"methodIdentifiers": {
					"DEFAULT_ADMIN_ROLE()": "a217fddf",
					"FullLockAddress(address)": "de2d0450",
					"FullLockedAddressList(address)": "1512db75",
					"LOCK_TRANSFER_ROLE()": "cfb17ceb",
					"MINTER_ROLE()": "d5391393",
					"PAUSER_ROLE()": "e63ab1e9",
					"allowance(address,address)": "dd62ed3e",
					"approve(address,uint256)": "095ea7b3",
					"balanceOf(address)": "70a08231",
					"burn(uint256)": "42966c68",
					"burnFrom(address,uint256)": "79cc6790",
					"decimals()": "313ce567",
					"decreaseAllowance(address,uint256)": "a457c2d7",
					"getRoleAdmin(bytes32)": "248a9ca3",
					"grantRole(bytes32,address)": "2f2ff15d",
					"hasRole(bytes32,address)": "91d14854",
					"increaseAllowance(address,uint256)": "39509351",
					"mint(address,uint256)": "40c10f19",
					"name()": "06fdde03",
					"pause()": "8456cb59",
					"paused()": "5c975abb",
					"recoveryTokenTransfer(address,address,uint256)": "0bb7b7cc",
					"renounceRole(bytes32,address)": "36568abe",
					"revokeRole(bytes32,address)": "d547741f",
					"supportsInterface(bytes4)": "01ffc9a7",
					"symbol()": "95d89b41",
					"totalSupply()": "18160ddd",
					"transfer(address,uint256)": "a9059cbb",
					"transferFrom(address,address,uint256)": "23b872dd",
					"unFullLockAddress(address)": "a7cd26fd",
					"unpause()": "3f4ba83a"
				}
			},
			"storageLayout": {
				"storage": [
					{
						"astId": 516,
						"contract": "contracts/SampleERC20.sol:ForTheDog",
						"label": "_balances",
						"offset": 0,
						"slot": "0",
						"type": "t_mapping(t_address,t_uint256)"
					},
					{
						"astId": 522,
						"contract": "contracts/SampleERC20.sol:ForTheDog",
						"label": "_allowances",
						"offset": 0,
						"slot": "1",
						"type": "t_mapping(t_address,t_mapping(t_address,t_uint256))"
					},
					{
						"astId": 524,
						"contract": "contracts/SampleERC20.sol:ForTheDog",
						"label": "_totalSupply",
						"offset": 0,
						"slot": "2",
						"type": "t_uint256"
					},
					{
						"astId": 526,
						"contract": "contracts/SampleERC20.sol:ForTheDog",
						"label": "_name",
						"offset": 0,
						"slot": "3",
						"type": "t_string_storage"
					},
					{
						"astId": 528,
						"contract": "contracts/SampleERC20.sol:ForTheDog",
						"label": "_symbol",
						"offset": 0,
						"slot": "4",
						"type": "t_string_storage"
					},
					{
						"astId": 410,
						"contract": "contracts/SampleERC20.sol:ForTheDog",
						"label": "_paused",
						"offset": 0,
						"slot": "5",
						"type": "t_bool"
					},
					{
						"astId": 24,
						"contract": "contracts/SampleERC20.sol:ForTheDog",
						"label": "_roles",
						"offset": 0,
						"slot": "6",
						"type": "t_mapping(t_bytes32,t_struct(RoleData)19_storage)"
					},
					{
						"astId": 1548,
						"contract": "contracts/SampleERC20.sol:ForTheDog",
						"label": "_limitMint",
						"offset": 0,
						"slot": "7",
						"type": "t_uint256"
					},
					{
						"astId": 1552,
						"contract": "contracts/SampleERC20.sol:ForTheDog",
						"label": "_FullLockList",
						"offset": 0,
						"slot": "8",
						"type": "t_mapping(t_address,t_bool)"
					}
				],
				"types": {
					"t_address": {
						"encoding": "inplace",
						"label": "address",
						"numberOfBytes": "20"
					},
					"t_bool": {
						"encoding": "inplace",
						"label": "bool",
						"numberOfBytes": "1"
					},
					"t_bytes32": {
						"encoding": "inplace",
						"label": "bytes32",
						"numberOfBytes": "32"
					},
					"t_mapping(t_address,t_bool)": {
						"encoding": "mapping",
						"key": "t_address",
						"label": "mapping(address => bool)",
						"numberOfBytes": "32",
						"value": "t_bool"
					},
					"t_mapping(t_address,t_mapping(t_address,t_uint256))": {
						"encoding": "mapping",
						"key": "t_address",
						"label": "mapping(address => mapping(address => uint256))",
						"numberOfBytes": "32",
						"value": "t_mapping(t_address,t_uint256)"
					},
					"t_mapping(t_address,t_uint256)": {
						"encoding": "mapping",
						"key": "t_address",
						"label": "mapping(address => uint256)",
						"numberOfBytes": "32",
						"value": "t_uint256"
					},
					"t_mapping(t_bytes32,t_struct(RoleData)19_storage)": {
						"encoding": "mapping",
						"key": "t_bytes32",
						"label": "mapping(bytes32 => struct AccessControl.RoleData)",
						"numberOfBytes": "32",
						"value": "t_struct(RoleData)19_storage"
					},
					"t_string_storage": {
						"encoding": "bytes",
						"label": "string",
						"numberOfBytes": "32"
					},
					"t_struct(RoleData)19_storage": {
						"encoding": "inplace",
						"label": "struct AccessControl.RoleData",
						"members": [
							{
								"astId": 16,
								"contract": "contracts/SampleERC20.sol:ForTheDog",
								"label": "members",
								"offset": 0,
								"slot": "0",
								"type": "t_mapping(t_address,t_bool)"
							},
							{
								"astId": 18,
								"contract": "contracts/SampleERC20.sol:ForTheDog",
								"label": "adminRole",
								"offset": 0,
								"slot": "1",
								"type": "t_bytes32"
							}
						],
						"numberOfBytes": "64"
					},
					"t_uint256": {
						"encoding": "inplace",
						"label": "uint256",
						"numberOfBytes": "32"
					}
				}
			},
			"userdoc": {
				"kind": "user",
				"methods": {},
				"version": 1
			}
		}
	}
}